:1010000078FFE4B8200118F6D8F99000007F007E40
:1010100007E4F0A3DFFCDEFA7581200227E39003EA
:10102000D2E0FBA3E0FAA3E0F9229003CBE0FF04B7
:10103000F08F82758300229003D17401F022E92F92
:10104000F9E43AFA021D630000000002241BEFD30A
:101050009403500D121220F583E5822D1210CEE478
:10106000F022000229DE75F002121EBEE0FCA3E0B1
:10107000FD75F088EFA42434F582E5F03400F583A3
:10108000EE75F002021EBEEF2448FFEE34FEFE7C39
:10109000007D0A121DDD7D32121DEFEF24B8FFEE38
:1010A0003401FEEB75F002A42416F582E5F034005D
:1010B000F583229003DFE0FF9003DEE0FE75F08809
:1010C000A42497F582E5F03400F583E5822FF582BC
:1010D000E43583F583229003E0E0FEA3E0FF900374
:1010E000DEE0FD75F088A4246AF582E5F03400F5B1
:1010F0008322E0FCA3E0FDEF75F088A42446F5828E
:10110000E5F034002275F004121EBEE0F8A3E0F909
:10111000A3E0FAA3E0FB9002B9E0FCA3E0FDA3E0AA
:10112000FEA3E022FDEC541FF0EDA3F0EB75F002FE
:10113000A42410F582E5F03400F5832275F002EB6B
:10114000A4240AF582E5F03400F583E0FCA3E0FD79
:10115000EB75F002A42404F582E5F03400F5832257
:10116000F583E493FC740193FD75F002EFA422C3B0
:101170009BFBEE9AFAED99F9EC98F8E493FE740172
:1011800093FFE4FCFDC3021E70C39DFFEE9CFEE0D6
:1011900075F088A42458F582E5F034002275F088B3
:1011A000A4247CF582E5F03400F583EC75F00202AE
:1011B0001EBE9003DEE0FF75F088A42422F582E5D0
:1011C000F03400F58322F0A3F0A3F0A3F0A3F0A382
:1011D000F0A3F0A3229003DEE0FF75F088A424348E
:1011E000F582E5F03400F5832224C0F582E5F03481
:1011F00001F583ECF0A3EDF0EF25E02275F002EBB2
:10120000A4240AF582E5F03400F583229003DEE0A1
:10121000FD75F088A4247CF582E5F03400F5832286
:10122000EF75F009A424BDF582E4340222EF75F0D5
:1012300009A42423F582E43402229003DFE0FF9026
:1012400003DEE075F088A4248EF582E5F0340022F8
:10125000E4F075F088EEA424A0F582E5F0340022D5
:101260009003E2E0FDEF9D7480F86E98229003DE1B
:10127000E0FFA3E0FD22E0FEA3E0FFD322F074D262
:101280002EF582E43401F5832274DE2BF582E434FA
:1012900001F5832274AA2BF582E43402F5832274CB
:1012A000CC2EF582E43401F58322F583E0FCA3E043
:1012B000FD75F00222E0FF25E024D2F582E434033C
:1012C000F58322EB25E02496F582E43421F5832290
:1012D000E024CFF582E43401F58322EF25E024D821
:1012E000F582E43403F58322241CF582E5F0340012
:1012F000F583ECF0A3EDF00F2275F088EEA424A99D
:10130000F582E5F0340022E4F0A3F075F08822EDD8
:10131000F0CBEFCBEBD3940322EE8FF0121E44758B
:10132000F088ED22E0FEA3E0C39D22FE7C007D0A52
:10133000121DDD7D1E121DEFEF2224BAF582E5F0AD
:1013400034012224C6F582E5F034012275F024A48C
:1013500024D8F582E43402F5832275F024A4243ED7
:10136000F582E43402F5832225E025E024E1F582CC
:10137000E43401F5832225E025E024ADF582E43450
:1013800002F58322E0248EF582E43400F583E064E4
:1013900001229003DEE0FFA3E0FD22E0FCA3E0FDDC
:1013A00075F08822A42497F582E5F03400F583E5F2
:1013B0008222F09001D5747EF0E4A3F022C39BFB5F
:1013C000EE9AFAED99F9EC98F822E0FF9003D2E05A
:1013D000FEEFC8EEC80822902EC5E4F0902ECDF0A6
:1013E000A3F022F582E43402F58322902EC6F09019
:1013F0002EC57401F02275F004121EBE021E81C3B8
:10140000EF94F6EE6480947F22ECF0A3EDF090036D
:10141000DEE0229003D1E004F022ECF0A3EDF090A6
:1014200003D0E0229003D1E0FF75F002A4229003E4
:10143000DEEFF0A3EDF09003E27403F0ED700374BF
:1014400002F09003DEE0FF1210F8F583C083C08243
:101450009003DFE0FED082D083121066121324FFC7
:10146000EE9CFE9003E0F0A3EFF0122E5EC312128A
:1014700060400302152B1210D6C083C0829003DF98
:10148000E0FCD082D0831210811213191210E6EC06
:10149000121081121276940AEE6480948040241215
:1014A00010DEC083C0829003DFE0FCD082D08312C4
:1014B0001081E4F0A3F0ED1210F81211A9E475F018
:1014C00001802B1213FF50299003DEE0FF1210E37E
:1014D000C083C0829003DFE0FED082D083121081EF
:1014E000E4F0A3F01210F712107E74FFF5F0121E54
:1014F0004412126D12104E12126D122C6B12126DDC
:10150000122A85EF70030216579003DFE0FF900365
:10151000DEE0FE1212431210C9E4F0EF600302167F
:10152000571212F9F583E4F00216579003DFE070CA
:101530003EA3E0FEA3E0FF122E5E9003E2E0240251
:10154000FDE433FCD3EF9DEC6480F8EE64809840BA
:101550000912123A1210C97401F0121692D3121223
:1015600060402C9003DEE075F0881212FD801B12A3
:1015700016929003E2E0FDD3121265401212123A65
:10158000F583E5822FF582E43583F5837401F0124B
:1015900010D6C083C0829003DFE0FCD082D08312DB
:1015A00010811213191210E61211AB121276946404
:1015B000EE6480948040231210DEC083C0829003CA
:1015C000DFE0FCD082D083121081121307ED1210DD
:1015D000FB1211A9E475F0018031C3EF949CEE6415
:1015E00080947F50299003DEE0FF1210E3C083C097
:1015F000829003DFE0FED082D083121081E4F0A35A
:10160000F01210F712107E74FFF5F0121E44C39012
:1016100003E0E064809480503212126D122C32127A
:10162000126D122A35EF60299003DE1211D8C083A3
:10163000C0829003DFE0FED082D0831210811210AE
:10164000F212107EECF0A3EDF0800612126D121073
:101650004E12126D122E0E9003DEE0FF1210F8F5FE
:1016600083C083C0829003DFE0FED082D08312105B
:1016700066E0FEA3E09003DE121189F583C083C00B
:10168000829003DFE0D082D083121081EEF0A3EFCE
:10169000F0229003E0E0FEA3E0FF122E5E22900312
:1016A000DEEFF0A3EDF09003E27404F0ED603F9004
:1016B000008EE06401700280089003DF12138470D2
:1016C0002D1211B2C083C0829003DFE0FED082D021
:1016D00083121066121409121211C083C082900383
:1016E000DFE0D082D083121081E4F0A3F0229003D7
:1016F000DE1211D8C083C0829003DFE0FED082D01A
:101700008312108112139BEFA42422F582E5F0349A
:101710000012107E121324FFEE9CFE9003E0F0A353
:10172000EFF0122E5E9003E2E0FDC312126540035B
:101730000218021210B3E06401703975F088EE12DD
:101740001193F583EF1211ACE0FEA3E0C3941EEEFB
:1017500064809480400302184A1211B2C083C08290
:101760009003DFE0FED082D083121066ECF0A3ED90
:10177000F002184A9003E0E0FEA3E0FF12120CC052
:1017800083C0829003DFE0FCD082D083121081EE10
:101790008FF0121E44ED12119D1212769402EE6427
:1017A000809480402912120CC083C0829003DFE035
:1017B000FCD082D083121081121307EDA42434F5DB
:1017C00082E5F034001211A9E475F001802EC3EF18
:1017D00094FEEE6480947F50719003DEE0FF12125D
:1017E00011C083C0829003DFE0FED082D08312104C
:1017F00081E4F0A3F012107174FFF5F0121E4402A0
:10180000184A1211B2C083C0829003DFE0FED0827A
:10181000D083121066121409FF121190F583C08351
:10182000C0829003DFE0FED082D083121081E0FC02
:10183000A3E0C3941EEC64809480400E75F088EFA2
:101840001213A42E1210CE7401F01210B3E0640132
:1018500070281212521210C9E0041212511210C94B
:10186000E0D3940540149003DFE0FF75F088EE129A
:1018700010C01212501210C9E4F0229003DEEFF0F3
:10188000A3EDF09003E27403F0ED70037404F090A4
:10189000008EE06401700280089003DF12138470F0
:1018A0003A1211D5C083C0829003DFE0FED082D00F
:1018B000831210811210F212107EECF0A3EDF09062
:1018C00003DE12118FF583C083C0829003DFE0D066
:1018D00082D083121081E4F0A3F0229003DEE0FFB7
:1018E0001210F8F583C083C0829003DFE0FED0823F
:1018F000D083121066121324FFEE9C9003E0F0A335
:10190000EFF09003DE1212D0E06007E49003E0F005
:10191000A3F09003E0E0FEA3E0FF122E5E9003E24E
:10192000E0FDC312126540030219BA9003E0E0FE25
:10193000A3E0FF9003DE1210E1C083C0829003DFBA
:10194000E0FCD082D0831210811213191210E6121B
:1019500011AB121276940AEE6480948040269003B4
:10196000DE1210E1C083C0829003DFE0FCD082D0A1
:1019700083121081121307ED1210FB1211A9E475E6
:10198000F001802B1213FF50299003DEE0FF1210AC
:10199000E3C083C0829003DFE0FED082D0831210C8
:1019A00081E4F0A3F01210F712107E74FFF5F0122C
:1019B0001E4412139212104E8038C39003E0E0646C
:1019C000809480502D121392122C32121392122AEC
:1019D00035EF601E1211D5C083C0829003DFE0FE98
:1019E000D082D0831210811210F212107EECF0A37C
:1019F000EDF09003DEE0FF1210F8F583C083C082A3
:101A00009003DFE0FED082D083121066E0FEA3E0F8
:101A10009003DE121189F583C083C0829003DFE05A
:101A2000D082D083121081EEF0A3EFF022CBEFCB67
:101A30001211FCE0FEA3E0FF121150E0FCA3E0FD58
:101A4000C39FEC9E5003021ADCE42DFFEC3404FE2D
:101A50001211FCE0FCA3E0FDC3EF9DFFEE9CFE1223
:101A6000112CEEF0A3EFF01211FCE0FEA3E0FF1248
:101A70001150E0FCA3E0C39FFFEC9E1210A2EEF019
:101A8000A3EFF01212C3E493FE740193FF1210A3AC
:101A9000E0FCA3E0FDD39FEC9E40241212C3E4932C
:101AA000FE740193FFC3ED9FFFEC9EC313FEEF1383
:101AB000FF1212C37401932FFFE4933EFE801312B2
:101AC00010A3E0FEA3E0FF7C007D63121DDD0D127C
:101AD0001DEF1210A3EEF0A3EFF08038121150E0CA
:101AE000FEA3E0FF1211FCE0FCA3E0C39FEC9EC349
:101AF000940475F002EB50101210A7E4F012112AB2
:101B00007404F0A3E4F0800C1210A7E4F012112A80
:101B1000E4F0A3F0EB640170571210A31212769454
:101B2000B8EE94014008121087EEF0A3EFF0121007
:101B3000A3E0FCA3E0900354121124121276940E39
:101B4000EE94064019EF24F2FFEE34F912132B2421
:101B50000EFFEE3406FE12112CEEF0A3EFF0121180
:101B60002CE0FCA3E0FDEC541F900358F0EDA3F033
:101B7000EB640270571210A312127694B8EE94011F
:101B80004008121087EEF0A3EFF01210A3E0FCA3C0
:101B9000E090035612112412127694FAEE94054046
:101BA00019EF2406FFEE34FA12132B24FAFFEE3459
:101BB00005FE12112CEEF0A3EFF012112CE0FCA3A5
:101BC000E0FDEC541F90035AF0EDA3F022E49003E3
:101BD000D1F09003D1E0FFC394094003021D5CEFF4
:101BE000902EC87014E0545FF0A3746AF0902EC376
:101BF000744AF0A37401F08012E044F0F0A3742A58
:101C0000F0902EC37470F0A37408F09003D1E090AC
:101C1000205793902ECAF0E49003D0F0900003E098
:101C2000FF9003D0E0FEC39F4003021D5374202E9B
:101C30001213E3E0FF9003D2F0E4F5E2EFC394085F
:101C4000503A74151213EBC083C0821213CA80027B
:101C5000C333D8FCD082D083F0902ECD7401F0C075
:101C600083C082E0FFC8EEC8088002C333D8FCD02E
:101C700082D083F0902EC074C1F0805D9003D2E0DA
:101C800024F8F074161213EBC083C0821213CA80BA
:101C900002C333D8FCD082D083F0902ECE7401F0F2
:101CA000C083C082E0FFC8EEC8088002C333D8FCFE
:101CB000D082D083F0EEB40506902EC97428F0EEE1
:101CC000B40606902EC97421F0EEB40706902EC912
:101CD0007420F0902EC074C2F0E4FF900000742EC7
:101CE000F0A3E4F09003D0E024201213E3E090038B
:101CF000D2F0E5E220E2050FEFB4C8DF53E2FB12B9
:101D000013D79003D2E0FD75F002A4FFAEF090006F
:101D100001E02FF0900000E03EF0ED90208693FF70
:101D2000900000E475F002121E5A85F082F58312CD
:101D3000139BEF1211BAC083C0829003D1E0D0820E
:101D4000D083121081ECF0A3EDF09003D0E004F00A
:101D5000021C1C9003D1E004F0021BD29001D77446
:101D600001F022BB010689828A83E0225002E72229
:101D7000BBFE02E32289828A83E49322BB010CE545
:101D80008229F582E5833AF583E0225006E925822F
:101D9000F8E622BBFE06E92582F8E222E58229F573
:101DA00082E5833AF583E49322BB010689828A8324
:101DB000F0225002F722BBFE01F322F8BB010DE531
:101DC0008229F582E5833AF583E8F0225006E92579
:101DD00082C8F622BBFE05E92582C8F222EF8DF00B
:101DE000A4A8F0CF8CF0A428CE8DF0A42EFE22BCA7
:101DF000000BBE0029EF8DF084FFADF022E4CCF89B
:101E000075F008EF2FFFEE33FEEC33FCEE9DEC98FF
:101E10004005FCEE9DFE0FD5F0E9E4CEFD22EDF885
:101E2000F5F0EE8420D21CFEADF075F008EF2FFF28
:101E3000ED33FD4007985006D5F0F222C398FD0F10
:101E4000D5F0EA22C5F0F8A3E028F0C5F0F8E58265
:101E5000158270021583E038F022A3F8E0C5F02562
:101E6000F0F0E582158270021583E0C838F0E822B0
:101E7000EB9FF5F0EA9E42F0E99D42F0E89C45F0C8
:101E800022ECF0A3EDF0A3EEF0A3EFF022A8828500
:101E900083F0D083D082121EA4121EA4121EA4129C
:101EA0001EA4E473E493A3C583C5F0C583C8C582AB
:101EB000C8F0A3C583C5F0C583C8C582C822A425C0
:101EC00082F582E5F03583F58322EF4E6012EF60F4
:101ED000010EEDBB010B89828A83F0A3DFFCDEFAE1
:101EE0002289F05007F709DFFCA9F022BBFEFCF3C2
:101EF00009DFFCA9F022E49003D1F09003D1E0FDCA
:101F0000C394095023E0FF75F0021211BAE0FAA35E
:101F1000E0FB75F002EF1211DDEAF0A3EBF0E4FF55
:101F200012142E12141380D3E49003D0F090000307
:101F3000E0FF9003D0E0C39F40030220511212B58E
:101F4000E4F0A3F01212DBE4F0A3F0EF7003022040
:101F500029E49003D1F09003D1E0FDC39409501817
:101F60009003D0E0FF12169E9003D0E0FFA3E0FDA7
:101F700012187B12141380DEE49003D1F09003D189
:101F8000E0FFC394094003022029EF7003022023DD
:101F90009003D0E0FF121190F583C083C0829003BC
:101FA000D1E0FED082D083121081E0FCA3E0C39484
:101FB00003EC64809480500E75F088EF1211931238
:101FC000107EE4F0A3F09003D0E0FF1210F8F58348
:101FD000C083C0829003D1E0FED082D083121081F2
:101FE000E0FCA3E0FD1212DBEC8DF0121E44900326
:101FF000D0E0FF12119012107E1210F2F583C08310
:10200000C0829003D1E0D082D083121081E0FEA381
:10201000E02DFFEE3CFE9003D0E01212B7EE8FF001
:10202000121E44121413021F7D9003D01212B5E049
:10203000FCA3E0FDEF12115112141AFF1212DCE0A2
:10204000FCA3E012116812120112141A04F0021F0C
:102050002DE49001D7F0223F3F3F3F3F3F3F3F3FBE
:102060000032003217707530001E0032000A000F77
:102070000064000A000A00000000000000000000E8
:102080000000000101010D0E0F03040506070809F9
:102090000A0B0C0001020032003200320032003222
:1020A00000320032003200320032003200320032A0
:1020B000003200320032003C003C003C003C003C5E
:1020C000003C003C003C003C003C003C003C003C30
:1020D000003C003C003C0028002800280028002884
:1020E00000280028002800280028002800280028B0
:1020F000002800280028002D002D002D002D002D87
:10210000002D002D002D002D002D002D002D002D67
:10211000002D002D002D006E006E006E006E006E12
:10212000006E006E006E006E006E006E006E006E3F
:10213000006E006E006E00780078007800780078FD
:1021400000780078007800780078007800780078CF
:102150000078007800780064006400640064006423
:10216000006400640064006400640064006400644F
:10217000006400640064002D002D002D002D002D52
:10218000002D002D002D002D002D002D002D002DE7
:10219000002D002D002D00FA00FA00FA00FA00FAD6
:1021A00000FA00FA00FA00FA00FA00FA00FA00FA5F
:1021B00000FA00FA00FA9003D01213B6900003E080
:1021C000FF9003D1E0FEC39F40030222C912129F79
:1021D000E0600302228074CF2E1212D3E0FF702140
:1021E0009003D1E075F002A424C0F582E5F034013B
:1021F0001212AAEE1210A7E0FAA3E0C39DEA9C50C7
:1022000019EF6401706512142412133A1212AAEF26
:102210001210A7121324EE9C40519003D1E0FF90BE
:1022200003D0F01212D17401F074CC2F1212A274E8
:1022300001F09001D5E0FFB47E149003D1E0FE9050
:1022400001D5F0A3740112127D7401F0800D90038A
:10225000D1E06F60069001D67402F09003D1E0FFE8
:10226000122E349003D1E0FF122DA09003D1E0FF95
:10227000122CA4EF604A9003D11212D0E4F08040F7
:102280001214241213431212AAEF1210A7121324CD
:10229000EE9C40159003D1E09003D0F0122CD6EFC5
:1022A000601E9001DD7402F0229003D1E0FF24CC87
:1022B0001212A2E4F0122E439003D1E0FF122D83FC
:1022C0009003D1E004F00221BC9001CDE0701BA38B
:1022D000E070179001D6E0D39400400E9001D5E055
:1022E00024D212128174011213B29003D0E0FF9035
:1022F00001DAE06F6002EFF0229001DDE024FE6081
:102300001B1460211470030223D7240360030224EA
:102310001A9001DD7402F0E490021FF01226719011
:1023200001DD7403F0121BCD9001D7E0700302238E
:10233000B890021FE004F0E49003CFF0900003E0B7
:10234000FF9003CFE0C39F506FE4FF9003CFE0FE08
:102350001211B775F002EF121EBE12139BEE12108F
:10236000FBF58375F002EF121EBE1212F2EFB409F4
:10237000DA9003CFE0FF1210A4E4F0A3F0EF121103
:102380002D7404F0A3E4F0EFB40110E4900354F0D2
:10239000A3F09003587404F0E4A3F0EFB40210E447
:1023A000900356F0A3F090035A7404F0E4A3F09065
:1023B00003CFE004F002233C90021FE0C3940340EB
:1023C00059900002747EF0E49001D8F090021FF062
:1023D0009001DD7404F022121BCD9001D7E0603A29
:1023E000121EF6E49003CFF0900003E0FE9003CFBE
:1023F000E0FFC39E5016122BF6122B6F9003CFE016
:10240000FF121A2D9003CFE004F080DC122D081289
:1024100021B61228A89001DDEFF022C0E0C083C0F1
:1024200082C0D0E8C0E0E9C0E0EAC0E0EBC0E0EF85
:10243000C0E0D2AFE5DB30E415E5DB30E10280251A
:10244000900349E5DFF09003CAE4F00224E7E5DBFE
:1024500030E505900346802BE5DB30E119E5DB2014
:10246000E0030224E79003CC12102112102A121D5F
:102470007CF5DF0224E79003CAE0700DA3E5DFF0EE
:102480009003CA7401F00224E79003CBE09028285F
:1024900093FFB4FF0E900349E5DFF09003CBE00417
:1024A000F0803EEF640F9003CC702B12102190034C
:1024B000CBE0FF12103E540F121DA99003CC121056
:1024C000219003CBE0FF04F012103EFFE5DF54F053
:1024D0004F121DA9800B12102112102AE5DF121DC8
:1024E000BB900348E004F075DBFFD0E0FFD0E0FBD9
:1024F000D0E0FAD0E0F9D0E0F8D0D0D082D083D0CC
:10250000E03290035DE0FE6410704EFF900003E047
:10251000FDEFC39D40030225A9EF25E02436F58297
:10252000E434211211601211E92416F582E43421F9
:1025300012116012133A1211F12456F582E434217B
:102540001211601213431211F12476F582E4342142
:102550001211601212E802250CEE6420705DFF90EB
:102560000003E0FEEFC39E5040EF25E024B6F58265
:10257000E434201211601211E92496F582E434202B
:1025800012116012133A1211F124D6F582E43420AC
:102590001211601213431211F124F6F582E4342073
:1025A0001211601212E802255F9001BCA3E09003B3
:1025B0004EF09001BEA3E090034FF022E49003D1CF
:1025C000F0FF9003D0F0EF14601E14603514604CDF
:1025D00014605B240470749003D27401F0A3742F10
:1025E000F0A37458F002264512101E900001121D2F
:1025F0007CFED3941F4003121037121D636E704B84
:10260000804312101E900002121D7CFED3940640DF
:1026100003121037121D636E7031802912101E9044
:102620000003121D7CFE121D636E701F80171210B6
:102630001E900004121D7CFE648B60031210371282
:102640001D636E70069003D0E004F00FEF64056028
:10265000030225C69003D0E0B40504A37401F090F2
:1026600003D1E0FD600790035EE0547FF0CFEDCF33
:10267000227E017FD87D007B017A007904121ECA78
:1026800012298690035D7410F0122502E4FE90007A
:1026900003E0FFEEC39F506AE4FC75F088EE121071
:1026A000E61211AB121307EE121246F583E5822CE7
:1026B0001210CEE4F0EE12119D121307EE1213A4C5
:1026C0002C1210CE121250F583E5822C1210CEE49B
:1026D000F0CFEECFCDECCD12104E122E0E0CEC64DE
:1026E0000970B71212F9F583E4F0CFEECF122E3451
:1026F000122E4312129FE412127DE41213B20E0244
:10270000268E9001DA747EF0900002F0E49001D9F8
:10271000F022758A50538AEF9003E87411F0900309
:10272000E67422F09003E97433F075997F759A800E
:10273000E4FFFEC29620970AD296309705E49003F4
:10274000E8F00FBF00010EEF640A4E70E67590FFCF
:1027500075993F759AC0E4FEFF2097069003E674D2
:1027600027F020960C9003E67426F0209703742837
:10277000F00FBF00010EEF640A4E70DDE4F5AD7599
:10278000AEF075AF09F5AC7589FF75913F75991F6E
:10279000F59675931FF59BF595F592F59A75800C56
:1027A000D28A9003E704F022022BBAE493A3F8E460
:1027B00093A34003F68001F208DFF48029E493A399
:1027C000F85407240CC8C333C4540F4420C88340B2
:1027D00004F456800146F6DFE4800B010204081081
:1027E000204080902D5DE47E019360BCA3FF543FA8
:1027F00030E509541FFEE493A360010ECF54C025B9
:10280000E060A840B8E493A3FAE493A3F8E493A3A8
:10281000C8C582C8CAC583CAF0A3C8C582C8CAC50C
:1028200083CADFE9DEE780BE0FFFFF000000000083
:102830000000FFFFFFFFFFFFFFFFFF0000000000A1
:102840000000000000000000000000000000000088
:102850000000000000000000000000000000000078
:102860000000000000000000000000000000000068
:102870000000000000000000000000000000000058
:102880000000000000000000000000000000000048
:102890000000000000000000000000000000000038
:1028A00000000000000000009001DDE0B402037FA2
:1028B0000222E4FC900003E0FEECC39E506674D25A
:1028C0002C121281E06401705874CC2C1212A2E018
:1028D000FE701D90034AE054F0F0ECB40104E044B3
:1028E00009F0EC6402702890034AE0440AF0801F6B
:1028F000EE6401701A90034AE054F0F0ECB4010465
:10290000E04401F0ECB4020790034AE04402F074A2
:10291000D22C121281E4F0C28A000000000000D222
:102920008A0C80907F0422902EC0E4F0902ECB740D
:10293000F4F0902F58E0540F24F0902EC8F0902E11
:10294000CC7448F0902EC97428F0A3743FF0902EF8
:102950004074811211C6F0A3041211C67402F090E3
:102960002EC67414F0902EC17490F0A37401F0A3DD
:102970007470F0A37408F043E310E4F5E2122DDA6A
:10298000900003EFF0227E007F807D007B017A03C0
:10299000794A121ECA90034A7408F090034C7405D9
:1029A000F090035C74ABF090035E7484F09003E8E5
:1029B000E0900350F09003E6E0900351F09003E9BB
:1029C000E0900352F01225BC900347E060089003AA
:1029D0004B7409F08005E490034BF0022B24C0E017
:1029E000C0F0C083C082C0D0E8C0E0ECC0E0EDC061
:1029F000E0EEC0E0EFC0E0D2AF9001DCE004F0C355
:102A0000940A4017E4F01211162401FFE43EFEE49C
:102A10003DFDE43CFC9002B9121E81D0E0FFD0E005
:102A2000FED0E0FDD0E0FCD0E0F8D0D0D082D08362
:102A3000D0F0D0E0329003E4EDF09003E3EFF0A3A8
:102A4000E0FE121220F583E5822E1210CEE06032F5
:102A50009003E3E012134CC083C0829003E4E0D003
:102A600082D08312110590206A12116F40149003D6
:102A7000E4E0FF9003E3E01212211210C9E4F07FBA
:102A800001227F00229003E4EDF09003E3EFF0A336
:102A9000E0FE12122DF583E5822E1210CEE0603298
:102AA0009003E3E012135AC083C0829003E4E0D0A5
:102AB00082D08312110590206C12116F4014900384
:102AC000E4E0FF9003E3E012122E1210C9E4F07F5D
:102AD00001227F00229003CF7410F0A3E4F0A374CE
:102AE0003FF0A374FFF0E4FDFCF99003CFE0FEA3F8
:102AF000E02DF582EE3CF583E493FF69F90DBD000E
:102B0000010CBC2FE5BDFFE29003D1E0FEA3E0F590
:102B1000828E83E49369700690034704F022E49068
:102B20000347F0229001C2A3E09003A2F09001C4F9
:102B3000A3E09003A3F09001BCA3E09003A4F09065
:102B400001BEA3E09003A5F09001C8A3E09003A606
:102B5000F09001CAA3E09003A7F09021987401932C
:102B60009003A8F090219A7401939003A9F0229009
:102B700003E7E06044900006E0FEA3E0FFC394108A
:102B8000EE942750069003E97426F0C3900009E004
:102B90009410900008E0942750129003E97427F0F5
:102BA000C3EF9410EE942750037428F0E49003E7E9
:102BB000F09003E9E0900352F022752001122AD52B
:102BC00053A87F122712122E52122E22122D364394
:102BD000A880758DE0122DBDEF24E0600A241070EE
:102BE0000AC283C2828004D283D282122502438D1C
:102BF000201222F980DFCBEFCBEB640170171211AA
:102C00003CE090039AF0121150A3E090039BF0EC8B
:102C1000A3F0EDA3F0EB6402701712113CE09003F7
:102C20009EF0121150A3E090039FF0ECA3F0EDA3EF
:102C3000F0229003E312130F50309003E3E0FFEB18
:102C40001212211210C9E07021EB1212211210C9C8
:102C50007401F0121116FFEB12134CC083C0829066
:102C600003E3E0D082D0831213F6229003E3121321
:102C70000F50309003E3E0FFEB12122E1210C9E068
:102C80007021EB12122E1210C97401F0121116FFEE
:102C9000EB12135AC083C0829003E3E0D082D0834A
:102CA0001213F6229003D2EFF0E0FF24DE12128C12
:102CB000E06020EF12136812110B1213BD90206216
:102CC00012117B400E9003D2E024DE12128CE4F04D
:102CD0007F01227F00229003D2EFF0E0FF24AA12AE
:102CE0001297E06020EF12137612110B1213BD90B1
:102CF000206612117B400E9003D2E024AA12129794
:102D0000E4F07F01227F0022E4FFFE900003E0FD5B
:102D1000EEC39D501BEF1210A41212ACEE1210A7BE
:102D2000E0FAA3E0D39DEA9C4003CFEECF0E80DB18
:102D30009001DBEFF0229003CC7401F0A37403F058
:102D4000A3744AF0E4F5DA75DA4043DA2075D74027
:102D500075DA5843A90875B80875F8082241021FAA
:102D6000004101DC004103CA004103CB004203449F
:102D7000000041034600410348004103470041036E
:102D80004910001213115017121289E0701112121B
:102D9000897401F0121116FFEB121368121E8122C2
:102DA0001213115017121294E07011121294740140
:102DB000F0121116FFEB121376121E8122E4FD9021
:102DC0000346E0601190034AE0FE54F0FDEE540F1C
:102DD000F0E4900346F0CFEDCF221213D7FFFEEEC2
:102DE00090207693600974202F1213E3EEF00F0EFB
:102DF000EEB410EB229002B9121E8D000000007E8E
:102E0000007F0A7D007B017A0179ED021ECAEFD3B3
:102E10009403500D12122DF583E5822D1210CEE48D
:102E2000F02275B28E75B6F9E4F5B743B20143AA44
:102E300001022DF5EFD39403500874DE2F12128C8B
:102E4000E4F022EFD39403500874AA2F121297E4EF
:102E5000F0221229279001DD7401F0022671EE3074
:102E6000E707C3E49FFFE49EFE220000000000008D
:102E70000000000000000000000000000000000052
:102E80000000000000000000000000000000000042
:102E90000000000000000000000000000000000032
:102EA0000000000000000000000000000000000022
:103FF000000000000000000000000000000000556C
:00000001FF
