:1010000078FFE4B8200118F6D8F99000007F007E40
:1010100007E4F0A3DFFCDEFA75812002283F90038D
:10102000D2E0FBA3E0FAA3E0F9229003CBE0FF04B7
:10103000F08F82758300229003D17401F022E92F92
:10104000F9E43AFA021D9900000000022477EFD378
:101050009403500D12121DF583E5822D1210B7E492
:10106000F02200022A5375F002121EF4E0FCA3E005
:10107000FD75F088EFA42434F582E5F03400F583A3
:10108000EE75F002021EF4FFEE3401FEEB75F00285
:10109000A42416F582E5F03400F583229003DFE006
:1010A000FF9003DEE0FE75F088A42497F582E5F05A
:1010B0003400F583E5822FF582E43583F5832290B1
:1010C00003E0E0FEA3E0FF9003DEE0FD75F088A4FE
:1010D000246AF582E5F03400F58322E0FCA3E0FD0C
:1010E000EF75F088A42446F582E5F0340022EF2461
:1010F000C0FFEE34F9FE7C007D0A121E137D1E1225
:101100001E25EF2440FFEE3406FEEB75F002A4240A
:1011100010F582E5F03400F5832275F004121EF418
:10112000E0F8A3E0F9A3E0FAA3E0FB9002B9E0FC49
:10113000A3E0FDA3E0FEA3E02275F002EBA4240AE5
:10114000F582E5F03400F583E0FCA3E0FDEB75F0FB
:1011500002A42404F582E5F03400F58322C39DFF48
:10116000EE9CFEE075F088A42458F582E5F034008A
:10117000F58322F583E493FC740193FD75F002EF8F
:10118000A422C39BFBEE9AFAED99F9EC98F8E4934C
:10119000FE740193FFE4FCFDC3021EA675F088A453
:1011A000247CF582E5F03400F583EC75F002021E34
:1011B000F49003DEE0FF75F088A42422F582E5F0C8
:1011C0003400F583229003DEE0FF75F088A4243418
:1011D000F582E5F03400F58322F0A3F0A3F0A3F04C
:1011E000A3F0A3F0A32224C0F582E5F03401F58337
:1011F000ECF0A3EDF0EF25E02275F002EBA4240A59
:10120000F582E5F03400F583229003DEE0FD75F011
:1012100088A4247CF582E5F03400F58322EF75F094
:1012200009A424BDF582E4340222EF75F009A42458
:1012300023F582E43402229003DFE0FF9003DEE036
:1012400075F088A4248EF582E5F0340022E4F07570
:10125000F088EEA424A0F582E5F03400229003E2A9
:10126000E0FDEF9D7480F86E98229003DEE0FFA30E
:10127000E0FD2275F088EEA424A9F582E5F03400A3
:1012800022E0FEA3E0FFD322F074D22EF582E434F4
:1012900001F5832274DE2BF582E43401F583227498
:1012A000AA2BF582E43402F5832274CC2EF582E475
:1012B0003401F58322F583E0FCA3E0FD75F0022202
:1012C000E0FF25E024D2F582E43403F58322EB2508
:1012D000E024F8F582E43421F58322E0248EF582BF
:1012E000E43400F583E0640122E024CFF582E434A5
:1012F00001F58322EF25E024D8F582E43403F58359
:1013000022241CF582E5F03400F583ECF0A3EDF027
:101310000F22E4F0A3F075F08822E0FCA3E0FD7555
:10132000F08822FFEE34FEFE7C007D0A121E137D43
:1013300032121E25EF22E0FCA3E0FDEC541F22ED4B
:10134000F0CBEFCBEBD3940322EE8FF0121E7A7525
:10135000F088ED22E0FEA3E0C39D22902EC3F0A30F
:101360007407F09003D1E0902EC92224BAF582E5EB
:10137000F034012224C6F582E5F034012275F02410
:10138000A424D8F582E43402F5832275F024A42441
:101390003EF582E43402F5832225E025E024E1F5E0
:1013A00082E43401F5832225E025E024ADF582E4D2
:1013B0003402F583229003DEE0FFA3E0FD22A424A3
:1013C00097F582E5F03400F583E58222F09001D5AF
:1013D000747EF0E4A3F022C39BFBEE9AFAED99F938
:1013E000EC98F822E0FF9003D2E0FEEFC8EEC808C8
:1013F00022F582E43402F5832275F002EF021EF436
:10140000902EC6F0902EC57401F02275F004121EC5
:10141000F4021EB7C3EF94F6EE6480947F22ECF0E2
:10142000A3EDF09003DEE0229003D1E004F022EC83
:10143000F0A3EDF09003D0E0229003D1E0FF75F02F
:1014400002A4229003DEEFF0A3EDF09003E2740318
:10145000F0ED70037402F09003DEE0FF1210E1F58E
:1014600083C083C0829003DFE0FED082D08312105D
:1014700066121354FFEE9CFE9003E0F0A3EFF0120F
:101480002ED1C312125D40030215401210BFC0835B
:10149000C0829003DFE0FCD082D08312108112134F
:1014A000491210CFEC121081121281940AEE64805E
:1014B000948040241210C7C083C0829003DFE0FCF8
:1014C000D082D083121081E4F0A3F0ED1210E1126B
:1014D00011A8E475F001802B12141450299003DE3A
:1014E000E0FF1210CCC083C0829003DFE0FED08208
:1014F000D083121081E4F0A3F01210E012107E7479
:10150000FFF5F0121E7A12126A12104E12126A12AF
:101510002CD612126A122AFAEF700302166C90038C
:10152000DFE0FF9003DEE0FE1212401210B2E4F0A2
:10153000EF600302166C121273F583E4F002166C6E
:101540009003DFE0703EA3E0FEA3E0FF122ED190F7
:1015500003E2E02402FDE433FCD3EF9DEC6480F869
:10156000EE64809840091212371210B27401F01222
:1015700016A5D312125D402C9003DEE075F08812A0
:101580001277801B1216A59003E2E0FDD3121262BF
:101590004012121237F583E5822FF582E43583F588
:1015A000837401F01210BFC083C0829003DFE0FC9F
:1015B000D082D0831210811213491210CF1211AAB7
:1015C0001212819464EE6480948040231210C7C08C
:1015D00083C0829003DFE0FCD082D083121081129E
:1015E0001312ED1210E41211A8E475F0018031C35A
:1015F000EF949CEE6480947F50299003DEE0FF120C
:1016000010CCC083C0829003DFE0FED082D0831272
:101610001081E4F0A3F01210E012107E74FFF5F0D8
:10162000121E7AC39003E0E064809480503212125C
:101630006A122C9D12126A122AAAEF60299003DE08
:101640001211C8C083C0829003DFE0FED082D08335
:101650001210811210DB12107EECF0A3EDF0800668
:1016600012126A12104E12126A122E819003DEE0DC
:10167000FF1210E1F583C083C0829003DFE0FED04B
:1016800082D083121066E0FEA3E09003DE12115DAB
:10169000C083C0829003DFE0D082D083121081EE3D
:1016A000F0A3EFF0229003E0E0FEA3E0FF122ED1C2
:1016B000229003DEEFF0A3EDF09003E27404F0ED6E
:1016C000603F90008EE06401700280089003DF129A
:1016D00012DB702D1211B1C083C0829003DFE0FED7
:1016E000D082D08312106612141E12120EC083C054
:1016F000829003DFE0D082D083121081E4F0A3F067
:10170000229003DE1211C8C083C0829003DFE0FE86
:10171000D082D08312108112131AEFA42422F582F2
:10172000E5F0340012107E121354FFEE9CFE90037D
:10173000E0F0A3EFF0122ED19003E2E0FDC312120D
:1017400062400302181312109CE06401703775F0B8
:1017500088EE121167EF1211ABE0FEA3E0C3941EF6
:10176000EE6480948040030218591211B1C083C006
:10177000829003DFE0FED082D083121066ECF0A3EB
:10178000EDF00218599003E0E0FEA3E0FF12120909
:10179000C083C0829003DFE0FCD082D0831210812E
:1017A000EE8FF0121E7AED12119C1212819402EE4D
:1017B000648094804029121209C083C0829003DFA4
:1017C000E0FCD082D083121081121312EDA42434D5
:1017D000F582E5F034001211A8E475F001802EC303
:1017E000EF94FEEE6480947F506F9003DEE0FF1272
:1017F000120EC083C0829003DFE0FED082D083123D
:101800001081E4F0A3F012107174FFF5F0121E7A4B
:101810000218591211B1C083C0829003DFE0FED0DC
:1018200082D08312106612141EFF121164C083C08E
:10183000829003DFE0FED082D083121081E0FCA30F
:10184000E0C3941EEC64809480400E75F088EF1223
:1018500013BE2E1210B77401F012109CE0640170D8
:101860002812124F1210B2E00412124E1210B2E0FF
:10187000D3940540149003DFE0FF75F088EE12105A
:10188000A912124D1210B2E4F022E49003D1F090AC
:1018900003D1E0FFC394094003021A3EEF902EC823
:1018A0007014E0545FF0A3746AF0902EC3744AF091
:1018B000A37401F0800EE044F0F0902EC37420F089
:1018C000A37409F09003D1E09020B993902ECAF050
:1018D000E49003D0F0900003E0FF9003D0E0FEC35B
:1018E0009F4003021A3574202E1213F1E0FF90037B
:1018F000D2F0E4F5E2EFC39408503B7415121400E3
:10190000C083C0821213E48002C333D8FCD082D0DB
:1019100083F0902ECD7401F0C083C082E0FFC8EE4A
:10192000C8088002C333D8FCD082D083F0902EC088
:1019300074C1F00219C19003D2E024F8F0741612B9
:101940001400C083C0821213E48002C333D8FCD0D9
:1019500082D083F0902ECE7401F0C083C082E0FF6D
:10196000C8EEC8088002C333D8FCD082D083F0EE22
:10197000B40506902EC97420F0EE6406701C743015
:1019800012135B30E00B7420F0902E4E7402F08046
:10199000097418F0902E4E7404F0EE6407701C74F5
:1019A000B012135B30E00B7420F0902E4F7482F075
:1019B00080097418F0902E4F7404F0902EC074C2F9
:1019C000F0E4FF900000742EF0A3E4F09003D0E068
:1019D00024201213F1E09003D2F0E5E220E2050F9B
:1019E000EFB4C8DF9003D2E0FD75F002A4FFAEF0C3
:1019F000900001E02FF0900000E03EF0ED9020E834
:101A000093FF900000E475F002121E9085F082F5BD
:101A10008312131AEF1211B9C083C0829003D1E070
:101A2000D082D083121081ECF0A3EDF09003D0E0CF
:101A300004F00218D59003D1E004F002188F900151
:101A4000D77401F0229003DEEFF0A3EDF09003E2F3
:101A50007403F0ED70037404F090008EE064017084
:101A60000280089003DF1212DB70381211C5C083A8
:101A7000C0829003DFE0FED082D08312108112106A
:101A8000DB12107EECF0A3EDF09003DE121163C0C8
:101A900083C0829003DFE0D082D083121081E4F013
:101AA000A3F0229003DEE0FF1210E1F583C083C0B3
:101AB000829003DFE0FED082D083121066121354AE
:101AC000FFEE9C9003E0F0A3EFF09003DE1212E92A
:101AD000E06007E49003E0F0A3F09003E0E0FEA3F1
:101AE000E0FF122ED19003E2E0FDC3121262400328
:101AF000021B829003E0E0FEA3E0FF9003DE1210E1
:101B0000CAC083C0829003DFE0FCD082D083121071
:101B1000811213491210CF1211AA121281940AEEE7
:101B20006480948040269003DE1210CAC083C08275
:101B30009003DFE0FCD082D083121081121312EDEB
:101B40001210E41211A8E475F001802B1214145045
:101B5000299003DEE0FF1210CCC083C0829003DF27
:101B6000E0FED082D083121081E4F0A3F01210E0E6
:101B700012107E74FFF5F0121E7A1213B512104E79
:101B80008038C39003E0E064809480502D1213B538
:101B9000122C9D1213B5122AAAEF601E1211C5C095
:101BA00083C0829003DFE0FED082D08312108112C6
:101BB00010DB12107EECF0A3EDF09003DEE0FF12DC
:101BC00010E1F583C083C0829003DFE0FED082D0B5
:101BD00083121066E0FEA3E09003DE12115DC08365
:101BE000C0829003DFE0D082D083121081EEF0A398
:101BF000EFF022E49003D1F09003D1E0FDC394090B
:101C00005023E0FF75F0021211B9E0FAA3E0FB7572
:101C1000F002EF1211CDEAF0A3EBF0E4FF1214434F
:101C200012142880D3E49003D0F0900003E0FF90DA
:101C300003D0E0C39F4003021D931212C0E4F0A33F
:101C4000F01212F4E4F0A3F0EF7003021D6BE490C5
:101C500003D1F09003D1E0FDC3940950189003D054
:101C6000E0FF1216B19003D0E0FFA3E0FD121A4589
:101C700012142880DEE49003D1F09003D1E0FFC37A
:101C800094094003021D6B748E2F1212DE601090B7
:101C900003D0E075F088121277F583E0B401239049
:101CA00003D0E0FF12116412131AEF121167C08300
:101CB000C0829003D1E0D082D083121081ECF0A3D7
:101CC000EDF09003D1E0FF7003021D659003D0E0BA
:101CD000FE1211641213F9E0FCA3E0C39403EC6458
:101CE000809480501A75F088EE121167C083C0820C
:101CF0009003D1E0D082D083121081E4F0A3F09061
:101D000003D0E0FF1210E1F583C083C0829003D1BD
:101D1000E0FED082D083121081E0FCA3E0FD12121D
:101D2000F4EC8DF0121E7A9003D0E0FF75F088A4D9
:101D30002458F582E5F0340012107E1210DBF58392
:101D4000C083C0829003D1E0D082D083121081E0A2
:101D5000FEA3E02DFFEE3CFE9003D0E01212C2EE97
:101D60008FF0121E7A121428021C7A9003D01212DD
:101D7000C0E0FCA3E0FDEF12114E12142FFF12126F
:101D8000F5E0FCA3E012117B1211FE12142F04F0F7
:101D9000021C2AE49001D7F022BB010689828A83C3
:101DA000E0225002E722BBFE02E32289828A83E41A
:101DB0009322BB010CE58229F582E5833AF583E0A5
:101DC000225006E92582F8E622BBFE06E92582F8C4
:101DD000E222E58229F582E5833AF583E49322BB8A
:101DE000010689828A83F0225002F722BBFE01F3AA
:101DF00022F8BB010DE58229F582E5833AF583E8F7
:101E0000F0225006E92582C8F622BBFE05E92582AC
:101E1000C8F222EF8DF0A4A8F0CF8CF0A428CE8DCC
:101E2000F0A42EFE22BC000BBE0029EF8DF084FF33
:101E3000ADF022E4CCF875F008EF2FFFEE33FEECA6
:101E400033FCEE9DEC984005FCEE9DFE0FD5F0E9CD
:101E5000E4CEFD22EDF8F5F0EE8420D21CFEADF0CC
:101E600075F008EF2FFFED33FD4007985006D5F0D1
:101E7000F222C398FD0FD5F0EA22C5F0F8A3E028BE
:101E8000F0C5F0F8E582158270021583E038F02283
:101E9000A3F8E0C5F025F0F0E58215827002158305
:101EA000E0C838F0E822EB9FF5F0EA9E42F0E99DA9
:101EB00042F0E89C45F022ECF0A3EDF0A3EEF0A395
:101EC000EFF022A8828583F0D083D082121EDA122E
:101ED0001EDA121EDA121EDAE473E493A3C583C578
:101EE000F0C583C8C582C8F0A3C583C5F0C583C843
:101EF000C582C822A42582F582E5F03583F58322C8
:101F0000EF4E6012EF60010EEDBB010B89828A83F8
:101F1000F0A3DFFCDEFA2289F05007F709DFFCA905
:101F2000F022BBFEFCF309DFFCA9F022CBEFCB12C1
:101F300011F9E0FEA3E0FF12114DE0FCA3E0FDC3A8
:101F40009FEC9E5003021FDAE42DFFEC3404FE12D6
:101F500011F9E0FCA3E0FDC3EF9DFFEE9C12110917
:101F6000EEF0A3EFF01211F9E0FEA3E0FF12114D25
:101F7000E0FCA3E0C39FFFEC9E12108BEEF0A3EFFA
:101F8000F01212CEE493FE740193FF12108CE0FC69
:101F9000A3E0FDD39FEC9E40241212CEE493FE7486
:101FA0000193FFC3ED9FFFEC9EC313FEEF13FF12DF
:101FB00012CE7401932FFFE4933EFE801312108C17
:101FC000E0FEA3E0FF7C007D63121E130D121E25B0
:101FD00012108CEEF0A3EFF0803C12114DE0FEA346
:101FE000E0FF1211F9E0FCA3E0C39FEC9EC3940450
:101FF00075F002EB5012121090E4F0A3F012110AE7
:102000007404F0A3E4F0800E121090E4F0A3F01238
:10201000110AE4F0A3F0EB6402704C12108C12125F
:102020008194CCEE94014010EF243412132324CC7D
:10203000121087EEF0A3EFF012108C1213369003FB
:1020400054F0EDA3F012110A1212819440EE94069E
:1020500040081210EEEEF0A3EFF012110A12133640
:10206000900358F0EDA3F0EB6401704C12108C1249
:10207000128194D6EE94014010EF242A12132324E7
:10208000D6121087EEF0A3EFF012108C12133690D8
:102090000356F0EDA3F012110A1212819440EE944F
:1020A0000640081210EEEEF0A3EFF012110A121320
:1020B0003690035AF0EDA3F0223F3F3F3F3F3F3FB2
:1020C0003F3F0032003217707530001E0032000AA8
:1020D000000F0064000A000A000000000000000079
:1020E00000000000000101010D0E0F0304050607AA
:1020F00008090A0B0C0001020032003200320032E3
:10210000003200320032003200320032003200323F
:10211000003200320032003200370037003700371B
:1021200000370037003700370037003700370037F7
:102130000037003700370037002800280028002823
:10214000002800280028002800280028002800284F
:102150000028002800280028002D002D002D002D2B
:10216000002D002D002D002D002D002D002D002D07
:10217000002D002D002D002D006E006E006E006EF3
:10218000006E006E006E006E006E006E006E006EDF
:10219000006E006E006E006E0073007300730073BB
:1021A0000073007300730073007300730073007397
:1021B00000730073007300730064006400640064C3
:1021C00000640064006400640064006400640064EF
:1021D0000064006400640064002D002D002D002DBB
:1021E000002D002D002D002D002D002D002D002D87
:1021F000002D002D002D002D00FA00FA00FA00FA43
:1022000000FA00FA00FA00FA00FA00FA00FA00FAFE
:1022100000FA00FA00FA00FA9003D01213D09000EE
:1022200003E0FF9003D1E0FEC39F400302232B1283
:1022300012AAE060030222E274CF2E1212ECE0FF39
:1022400070219003D1E075F002A424C0F582E5F07E
:1022500034011212B5EE121090E0FAA3E0C39DEA29
:102260009C5019EF6401706512143912136B12122D
:10227000B5EF121090121354EE9C40519003D1E030
:10228000FF9003D0F01212EA7401F074CC2F1212F6
:10229000AD7401F09001D5E0FFB47E149003D1E05D
:1022A000FE9001D5F0A374011212887401F0800D24
:1022B0009003D1E06F60069001D67402F09003D1D4
:1022C000E0FF122EA79003D1E0FF122E2E9003D133
:1022D000E0FF122D0FEF604A9003D11212E9E4F0F3
:1022E00080401214391213741212B5EF12109012AA
:1022F0001354EE9C40159003D1E09003D0F0122DC2
:1023000041EF601E9001DD7402F0229003D1E0FFE6
:1023100024CC1212ADE4F0122EB69003D1E0FF12DD
:102320002E119003D1E004F002221E9001CEE07045
:102330001D9001CDE070179001D6E0D39400400EBF
:102340009001D5E024D212128C74011213CC9003A8
:10235000D0E0FF9001DAE06F6002EFF0229001DD43
:10236000E024FE601B146021147003022433240354
:1023700060030224769001DD7402F0E490021FF005
:102380001226CD9001DD7403F012188A9001D7E077
:10239000700302241490021FE004F0E49003CFF0D5
:1023A000900003E0FF9003CFE0C39F5067E4FF90ED
:1023B00003CFE0FE1211B61213F912131AEE121027
:1023C000E4F5831213F912130BEFB409E29003CF73
:1023D000E0FF12108DE4F0A3F0EF12110B7404F083
:1023E000A3E4F0EFB40210E4900354F0A3F09003E0
:1023F000587404F0E4A3F0EFB40110E4900356F035
:10240000A3F090035A7404F0E4A3F09003CFE00427
:10241000F00223A090021FE0C394034059900002F1
:10242000747EF0E49001D8F090021FF09001DD740A
:1024300004F02212188A9001D7E0603A121BF3E4EC
:102440009003CFF0900003E0FE9003CFE0FFC39E27
:102450005016122C61122B959003CFE0FF121F2C07
:102460009003CFE004F080DC122D731222181229A1
:10247000049001DDEFF022C0E0C083C082C0D0E84C
:10248000C0E0E9C0E0EAC0E0EBC0E0EFC0E0D2AFFE
:10249000E5DB30E415E5DB30E1028025900349E51A
:1024A000DFF09003CAE4F0022543E5DB30E5059058
:1024B0000346802BE5DB30E119E5DB20E003022554
:1024C000439003CC12102112102A121DB2F5DF0224
:1024D00025439003CAE0700DA3E5DFF09003CA74B2
:1024E00001F00225439003CBE090288493FFB4FFD2
:1024F0000E900349E5DFF09003CBE004F0803EEF5F
:10250000640F9003CC702B1210219003CBE0FF12CC
:10251000103E540F121DDF9003CC1210219003CBFC
:10252000E0FF04F012103EFFE5DF54F04F121DDF14
:10253000800B12102112102AE5DF121DF1900348C2
:10254000E004F075DBFFD0E0FFD0E0FBD0E0FAD094
:10255000E0F9D0E0F8D0D0D082D083D0E032900340
:102560005DE0FE6410704EFF900003E0FDEFC39D40
:102570004003022605EF25E02498F582E434211279
:1025800011731211E62478F582E4342112117312CA
:10259000136B1211EE24B8F582E434211211731278
:1025A00013741211EE24D8F582E43421121173123F
:1025B0001301022568EE6420705DFF900003E0FEC9
:1025C000EFC39E5040EF25E02418F582E434211239
:1025D00011731211E624F8F582E4342012117312FB
:1025E000136B1211EE2438F582E4342112117312A8
:1025F00013741211EE2458F582E43421121173126F
:1026000013010225BB9001BCA3E090034EF09001A2
:10261000BEA3E090034FF022E49003D1F0FF9003BB
:10262000D0F0EF14601E14603514604C14605B240D
:102630000470749003D27401F0A3742FF0A3745843
:10264000F00226A112101E900001121DB2FED394BA
:102650001F4003121037121D996E704B80431210E9
:102660001E900002121DB2FED394064003121037D2
:10267000121D996E7031802912101E900003121DD8
:10268000B2FE121D996E701F801712101E9000046A
:10269000121DB2FE648B6003121037121D996E700A
:1026A000069003D0E004F00FEF64056003022622D9
:1026B0009003D0E0B40504A37401F09003D1E0FDD1
:1026C000600790035EE0547FF0CFEDCF227E017F64
:1026D000D87D007B017A007904121F00122BE09054
:1026E000035D7410F012255EE4FE900003E0FFEE3F
:1026F000C39F506AE4FC75F088EE1210CF1211AA45
:10270000121312EE121243F583E5822C1210B7E475
:10271000F0EE12119C121312EE1213BE2C1210B70F
:1027200012124DF583E5822C1210B7E4F0CFEECFF4
:10273000CDECCD12104E122E810CEC640970B71244
:102740001273F583E4F0CFEECF122EA7122EB6123D
:1027500012AAE4121288E41213CC0E0226EA9001A7
:10276000DA747EF0900002F0E49001D9F022758ACC
:1027700050538AEF9003E87411F09003E67422F04E
:102780009003E97433F075997F759A80E4FFFEC277
:102790009620970AD296309705E49003E8F00FBF91
:1027A00000010EEF640A4E70E67590FF75993F7553
:1027B0009AC0E4FEFF2097069003E67427F0209667
:1027C0000C9003E67426F02097037428F00FBF00E6
:1027D000010EEF640A4E70DDE4F5AD75AEF075AF35
:1027E00009F5AC7589FF75913F75991FF59675933D
:1027F0001FF59BF595F592F59A75800CD28A90039A
:10280000E704F022022C25E493A3F8E493A3400309
:10281000F68001F208DFF48029E493A3F85407243A
:102820000CC8C333C4540F4420C8834004F45680FA
:102830000146F6DFE4800B0102040810204080907E
:102840002DC8E47E019360BCA3FF543F30E50954DA
:102850001FFEE493A360010ECF54C025E060A840A2
:10286000B8E493A3FAE493A3F8E493A3C8C582C899
:10287000CAC583CAF0A3C8C582C8CAC583CADFE96E
:10288000DEE780BE0F00FF00000000000000FFFF39
:10289000FFFFFFFFFFFFFF0000000000000000003F
:1028A0000000000000000000000000000000000028
:1028B0000000000000000000000000000000000018
:1028C0000000000000000000000000000000000008
:1028D00000000000000000000000000000000000F8
:1028E00000000000000000000000000000000000E8
:1028F00000000000000000000000000000000000D8
:10290000000000009001DDE0B402037F0222E4FC3D
:10291000900003E0FEECC39E506674D22C12128C21
:10292000E06401705874CC2C1212ADE0FE701D9062
:10293000034AE054F0F0ECB40204E04409F0EC6423
:1029400001702890034AE0440AF0801FEE64017091
:102950001A90034AE054F0F0ECB40204E04401F0B1
:10296000ECB4010790034AE04402F074D22C121236
:102970008CE4F0C28A000000000000D28A0C809033
:102980007F04229003CF7410F0A3E4F0A3743FF00F
:10299000A374FFF0E4FDFCF990034BE064AA7050CF
:1029A00074AAF0758A10538AEF0000009003CFE0FC
:1029B000FEA3E02DF582EE3CF583E493FF69F90D6B
:1029C000BD00010CBC2FE5BDFFE29003D1E0FEA3EA
:1029D000E0F5828E83E49369700890034B7407F0EE
:1029E0008005E490034BF0758A50538AEF00000095
:1029F00022902EC0E4F0902ECB74F4F0902F58E08B
:102A0000540F2450902EC8F0902ECC7448F0902E85
:102A1000C97428F0A3743FF0902E4074811211D92C
:102A2000F0A3F0A3041211D97402F0A37482F09001
:102A30002EC67414F0902EC17490F0A37401F0A30C
:102A40007420F0A37409F043E310122DEE900003FC
:102A5000EFF022C0E0C0F0C083C082C0D0E8C0E088
:102A6000ECC0E0EDC0E0EEC0E0EFC0E0D2AF90011E
:102A7000DCE004F0C3940A4017E4F012112B2401A7
:102A8000FFE43EFEE43DFDE43CFC9002B9121EB7BB
:102A9000D0E0FFD0E0FED0E0FDD0E0FCD0E0F8D008
:102AA000D0D082D083D0F0D0E0329003E4EDF0902B
:102AB00003E3EFF0A3E0FE12121DF583E5822E1270
:102AC00010B7E060329003E3E012137DC083C08250
:102AD0009003E4E0D082D08312111A9020CC12111E
:102AE0008240149003E4E0FF9003E3E012121E1210
:102AF00010B2E4F07F01227F00229003E4EDF09019
:102B000003E3EFF0A3E0FE12122AF583E5822E1212
:102B100010B7E060329003E3E012138BC083C082F1
:102B20009003E4E0D082D08312111A9020CE1211CB
:102B30008240149003E4E0FF9003E3E012122B12B2
:102B400010B2E4F07F01227F00229001C4A3E09044
:102B500003A2F09001C2A3E09003A3F09001BEA3F2
:102B6000E09003A4F09001BCA3E09003A5F09001D5
:102B7000CAA3E09003A6F09001C8A3E09003A7F0D9
:102B80009021FC7401939003A8F09021FA740193B2
:102B90009003A9F0229003E7E06044900008E0FE73
:102BA000A3E0FFC39470EE941750069003E97426D7
:102BB000F0C3900007E09470900006E09417501264
:102BC0009003E97427F0C3EF9470EE9417500374E8
:102BD00028F0E49003E7F09003E9E0900352F0223C
:102BE0007E007F807D007B017A03794A121F00906E
:102BF000034A7408F0A314F0A314F090035C74ABC0
:102C0000F090035E7487F09003E8E0900350F0903A
:102C100003E6E0900351F09003E9E0900352F012D4
:102C20002618022B4A75200153A87F12276E122EF8
:102C3000C5122E95122DA143A880758DE0122E4B42
:102C4000EF24E0600A2410700AC283C2828004D29A
:102C500083D28212255E122983438D2012235D8048
:102C6000DCCBEFCBEB64027017121139E090039AC2
:102C7000F012114DA3E090039BF0ECA3F0EDA3F054
:102C8000EB64017017121139E090039EF012114DA0
:102C9000A3E090039FF0ECA3F0EDA3F0229003E3F8
:102CA00012133F50309003E3E0FFEB12121E12109C
:102CB000B2E07021EB12121E1210B27401F0121168
:102CC0002BFFEB12137DC083C0829003E3E0D08220
:102CD000D08312140B229003E312133F5030900361
:102CE000E3E0FFEB12122B1210B2E07021EB121294
:102CF0002B1210B27401F012112BFFEB12138BC0C8
:102D000083C0829003E3E0D082D08312140B229020
:102D100003D2EFF0E0FF24DE121297E06020EF1202
:102D200013991211201213D79020C412118E400E45
:102D30009003D2E024DE121297E4F07F01227F009C
:102D4000229003D2EFF0E0FF24AA1212A2E060204A
:102D5000EF1213A71211201213D79020C812118E50
:102D6000400E9003D2E024AA1212A2E4F07F0122C6
:102D70007F0022E4FFFE900003E0FDEEC39D501BA8
:102D8000EF12108D1212B7EE121090E0FAA3E0D3FA
:102D90009DEA9C4003CFEECF0E80DB9001DBEFF08D
:102DA000229003CC7401F0A37403F0A3744AF0E4FE
:102DB000F5DA75DA4043DA2075D74075DA5843A959
:102DC0000875B80875F8082241021F004101DC00AF
:102DD0004103CA004103CB004203440000410346C3
:102DE0000041034800410347004103491000902E71
:102DF000C5E4F0902ECDF0A3F0FFFEEE9020D89326
:102E0000600974202F1213F1EEF00F0EEEB410EBE8
:102E1000221213415017121294E07011121294747E
:102E200001F012112BFFEB121399121EB72212138D
:102E300041501712129FE0701112129F7401F0128C
:102E4000112BFFEB1213A7121EB722E4FD900346CD
:102E5000E0601190034AE0FE54F0FDEE540FF0E400
:102E6000900346F0CFEDCF229002B9121EC30000AE
:102E700000007E007F0A7D007B017A0179ED021F50
:102E800000EFD39403500D12122AF583E5822D1220
:102E900010B7E4F02275B28E75B6F9E4F5B743B217
:102EA0000143AA01022E68EFD39403500874DE2F69
:102EB000121297E4F022EFD39403500874AA2F1251
:102EC00012A2E4F0221229F19001DD7401F0022631
:102ED000CDEE30E707C3E49FFFE49EFE2200000032
:102EE00000000000000000000000000000000000E2
:102EF00000000000000000000000000000000000D2
:102F000000000000000000000000000000000000C1
:102F100000000000000000000000000000000000B1
:103FF0000000000000000000000000000000003D84
:00000001FF
