:100000004D424E014D3448504601040001000000AD
:100010006000000000C000000000000000000000C0
:100020000000330100000000000000000004000098
:10003000010046010100230000040000008C0000C4
:100040000200110124002A0000900000001C0000A2
:10005000030011012B002F0000AC00000014000071
:100060000038002021020000000000000000000015
:100070000000000000000000000000000000000080
:100080000000000000000000000000000000000070
:10009000000000000000000000000000550000000B
:1000A00057000000450100006D00000081000000C5
:1000B00000000000FEE7034B01221A70024B0022F1
:1000C000DA7770470000002008000050034B01223F
:1000D0005A70A0230022DB051A7070470000002030
:1000E000034B01229A70A0230022DB059A7070470F
:1000F000000000208D23013B002B01D0C046FAE711
:10010000044B10221B78DBB21807C00F13401843B2
:100110007047C0462B0000500F4BF7B518261E70D5
:100120000E4BA0271E70FFF7E5FFFF050B4B01AC40
:1001300000252C3760701D703E70FFF7DBFF064B0B
:1001400020703D701D7023786278181C504040006C
:1001500013400343D8B2FEBD2A0000502D000050CA
:100160000023036030B50B601312012B13D104235D
:10017000013B10D3084DD4B25D5D641BF8D4074A2F
:100180009D001268AA58002A05D012190260044A7C
:10019000D35C1C1B0C6030BDD4030000D0030000F6
:1001A000D803000070B58022D2051379DBB2002B92
:1001B00019D1294C6360A360284B1289261C251C89
:1001C0001B6892B210361435E260301C291C002BDB
:1001D00006D098472169002932D1E268301C291CD9
:1001E000FFF7BEFF2CE0012B0CD11B4B1869002838
:1001F00026D099685C69A14222DA4C1C9C60137A73
:1002000043541DE0022B16D1134C2369002B17D049
:1002100060686169884213DA1B5C1BBAD360104BBB
:100220001B68002B03D0E268101880B298476368FF
:100230000133636004E0032B02D1074B00229A6074
:10024000C0468023DB0501221A70C04602221A70C4
:1002500000221A7070BDC046000000203800002047
:100260003400002080230222DB05FF321A600421C3
:10027000024AFF31118000221A70704706000040C8
:10028000F0B5A023DB059B68554A1F218DB0DBB27A
:100290001160D12B0BD0D02B01D80133DBB2A022BF
:1002A000D2059168FF20814319439160F1E74D4BDE
:1002B0004D4A191D043B934203D200221A600B1CC5
:1002C000F6E7FFF7CFFF494A8023DB021A80484A4E
:1002D0000027093A92B25A809F80C046454ADE887C
:1002E000454D10685268454C0A922A8809ABB6B24F
:1002F0001A8123625E810990FFF70EFFA023DB05C0
:10030000DA7C06AB1A704D225A705A71342145229C
:1003100099709A7148210B22D9701A7250210122CA
:100320001971D8715A7263623423FF336946029798
:100330000B8102ABA36104AB0497E3615A70304BAD
:100340000397DA892F4B05975F882F4B211C1B8859
:1003500028310B70211C1B0A29310B702B480123FB
:100360005B4203702A492B480B7003702A490B70BB
:10037000211C2E312F340B7023702B889E4229D1E3
:10038000264B9A4226D0BA4224D1254EF7899F4265
:1003900020D0F689B446234E7788BC451AD1224F27
:1003A000F889984216D0FF89EB889F4212D1174BEB
:1003B00017481A70120A73880270164A9BB21648C0
:1003C00013701B0A0370EB889BB20B701B0A23701F
:1003D00000F04EF8154B02221A6062B6FEE7C046E6
:1003E00028000050040000203C0000200004000011
:1003F00000C00000F0BF0000F8BF000000000020B7
:1004000000040000FC8F0000FE0300002A00002012
:100410002B0000202C0000202D000020FFFF0000FA
:1004200000900000FCAB000000AC000000E100E028
:10043000180000202030407008080C0AFFFFFFFF62
:10044000FFFFFFFFFFFFFFFFFFFFFFFFFFFFFFFFBC
:10045000FFFFFFFFFFFFFFFFFFFFFFFFFFFF330176
:100460004D344850434F5432000000000000460114
:10047000F0B5CDB006AF03F0A8FC05F05BF9F8616C
:1004800008F0A6F908F0D4F908F0F2FD00F08CFDB0
:10049000CA4ACB4B1A60CB4ACB4B1A6005F04AF9DB
:1004A000F862052800D1F9E216D8022800D1A1E2AD
:1004B00007D800282BD0012800D18EE2FC6AFC610D
:1004C000ECE7FD6A032D00D1D9E2042DF6D105F049
:1004D000B7F902F09FFBDCE2FC6A092C00D1F4E2E0
:1004E0000AD8062C00D1E2E2082CE7D105F0A8F9E1
:1004F000012002F07BF8E3E2FD6A0B2D00D1F9E266
:1005000000D2EBE20C2DD9D105F09AF904E305F005
:1005100027F9041E18D00128D0D1AC4B02221B6849
:10052000391C1D6A5031FD601D691A62BD60FD6A8B
:100530001D61281C3F232A1C8D803D650B7105F031
:10054000F9F9BD627C62A9E00124012C02D0022CE1
:100550000BD08CE0002002F049F803F05BF8C0B249
:1005600005F036FA022001F0ADFE984B6C461B6890
:100570003C625D681C681B696C43E3189B000A338E
:10058000DB08DB0068463E1CC01AD43685460021D5
:10059000301C142208F092FA3B1C7A1C8433FF3280
:1005A0005A60183A9A60283ADE601A61884E143A06
:1005B000391CFA677831143A8A60326806AD5361A3
:1005C000844BA4001B682C19BC62546091611560B7
:1005D0002B331A7869465200131C0833DB08DB0002
:1005E000C91A8D4606AC201C00217C6208F066FA10
:1005F000281CB96A00F0E8FDFC69002C01D005F068
:100600001FF9754B00221B681A6005F0DBF9041C0A
:1006100003F000F8A04204D0201C03F000F80224EC
:100620001CE07C6A3A1C00943B1CB96A8432783323
:10063000281C01F033FD684B68491B68041C1A68CC
:100640008A4201D001321A60002807D105F088F8EB
:10065000002803D105F06EF80028D6D032680023B8
:1006600013605360536193613D6AFB61AD4605F0D1
:1006700077F8002800D021E705F05CF8002800D1C9
:1006800063E71BE7022C0FD005F06AF8012800D0C1
:100690009CE105F04FF8002800D097E17C6A012C1E
:1006A000F0D1022001F00EFE484B6C4619687C60C8
:1006B0004D680E6808696E4333189B000A33DB08E7
:1006C000DB00E21A95463B1C3A1CD43344325A6094
:1006D000043A9A60381C043ADA603430043A90677D
:1006E000886949693025414389000A31C908C90030
:1006F0006846401A06ACED198546D56706ADAAB026
:1007000006A8C021AAB0C8517D61391C06ADAAB0A7
:10071000C03106A84D6088602D491A61096874329D
:100720004B612D4B3C628A611A683D6AD36DB600FD
:10073000126EAE190024FC63BE610D604E60009223
:100740007869396ABA6905F07BFEFD69A54201D076
:1007500005F076F80020391C5831A223021C8C8049
:10076000BC650B7105F0E6F81B4B1B681C60002490
:100770006D463D6105F026F97D1C3B1CFF35783345
:100780003A1C6B619832124B6A60143AAA601B687B
:10079000383AEA60061C043A0020B867F8672A6114
:1007A0001D61F864B86402F035FFF861B04217D0FB
:1007B000301C022502F033FF7D62EAE0955900000B
:1007C00038000020115A000034000020A803002047
:1007D000400000205C1000203C000020FFFFFF7F55
:1007E000002C5CD1CF4B6D461B683D6098695A69FF
:1007F000410001324A43131C0833DB08DB00E91ACD
:100800008D4606AE301C211C08F058F9BA6AC64D58
:10081000082A0AD12A68D36D126E00927869396A63
:10082000BA6905F00DFEBC6236E0042003F0C2F8A0
:100830002B68301CD96D7A6905F088FE051E012DE4
:1008400010D1052003F0B6F8391C60318C803C666D
:10085000A323201C221C2C1C00250B7105F06AF818
:10086000BD6219E0B14D311C28684278786905F005
:1008700045FF2968087802F0D2FE02F0E7FE2B68F7
:10088000587802F0A9FC201C02F0DEFCF86902F0A6
:10089000C6FE02F0FFFE7C623D68AD4671E0A34BF0
:1008A00001241B689878A04B1B68586702F094FCE1
:1008B000052003F057F83B1CAC330093386AB96944
:1008C0002A1C283300F076FF7862002859D1381CA2
:1008D000C030B96A07F0FAFCB862032804D00728D0
:1008E00000D029E1182405E0381CC03007F0BAFE1A
:1008F000041E09D004F042FF661E0123B3401840D5
:10090000F04000D118E104E003F020F802F000FF0D
:1009100036E03D1CE835281C0021172208F0CEF8EF
:10092000F6B202232B706C70072E04D9143CE4B28B
:10093000032C00D915E1391CE8316A4631C931C2AE
:1009400011C911C208883B1C10808978C03391708E
:10095000186859689A68DB6800F00AFE02F0F6FF32
:10096000012002F02EFC002004F002FF0022391CBE
:1009700070310E23101C8A803A670B7104F0DAFF85
:100980000124694B6A491B681A688A4201D0013206
:100990001A60684D00222B681A613869796A8546A9
:1009A000914208D104F0DCFE012804D104F0C2FE1B
:1009B000002800D1DCE62A6800231360536013612D
:1009C000536193617C68FB61A5465DE6554BFD680C
:1009D0001B68BC681D621C6170E504F031FF04F007
:1009E000A9FE0128FBD007F0CFFE00F0DDFA04F0ED
:1009F0005BFC63E500F07CFE4E4B1B68586900F021
:100A0000A3FE04F09BFD002003F0C4F803F028F8D7
:100A100000F0ACF802F034FAE8300378002B03D091
:100A2000002003F0FFFF02E0F86A01F04BFC04F045
:100A300007FF04F01FFF032812D006D801280CD0AE
:100A4000022815D100F074FF12E005280ED00AD359
:100A500006280DD102F092FB0AE000F0CFFE07E07D
:100A600000F0FAFF04E004F03BFA01E002F074FB4E
:100A700004F060FE0228DCD000F04CFE1EE504F01D
:100A8000DFFE012001F01EFC04F054FE0328FBD021
:100A900014E504F04FFE0428FBD00FE504F0D0FE6F
:100AA00000F0F0F904F046FE0528FBD006E504F05E
:100AB000C7FE03F0BFF904F03DFE0628FBD0FDE4BD
:100AC00004F038FE0828FBD0F8E404F0B9FE04F086
:100AD00051F804F02FFE0928FBD0EFE404F0B0FE3B
:100AE000002002F067FF03F063F804F023FE0A28F9
:100AF000F6D0E3E404F0A4FE002002F026FA002081
:100B000002F058FF03F054F804F014FE0B28F6D05E
:100B1000012002F01AFAD1E404F00CFE0C28FBD0FC
:100B2000CCE4C046A80300203C0000206010002058
:100B3000FFFFFF7F40000020BD6A082D00D0E3E6E4
:100B400002F004FF012002F03CFB0024391C683154
:100B5000A223201C221C8C80BC660B7104F0EAFED0
:100B60000FE7281C172104F03DFDF7E6F8B5184DF6
:100B70007146281C764603F004FA164C276802F0EA
:100B80000DFE7865276802F00DFEB865276802F053
:100B90000DFEF865276802F00DFE3866276802F042
:100BA0005BFE7866276802F02DFF0B4A0B4912683E
:100BB0000968B866D078097C236841431967C22167
:100BC000063249005A50281C311C03F0F1F9F8BDD7
:100BD0000D0B00003C000020601000205C10002085
:100BE000014B18607047C0465C100020014B18682C
:100BF0007047C0465C100020014B18607047C0462B
:100C000060100020014B18687047C046601000203B
:100C1000014B18687047C0463C000020014B5868E3
:100C20007047C0463C00002038B50C4C7146201C73
:100C3000754603F0A6F90A4B201C1B689A68002A27
:100C400004DD1C6911190122643100DB00227933B3
:100C5000291C1A7003F0ACF938BDC046C90B00005E
:100C60003C000020F0B52C4F73468BB07146381C09
:100C7000019303F086F9294DB6222B685200995C46
:100C80001A1C7932002904D1A8214900595C002995
:100C900001D0002111701478002C20D0DA6F03A944
:100CA00007921A69002408929B6807AA09930323F4
:100CB0004B708B707C235B42CB7001261023201C71
:100CC0008C800E700B7104F035FE2B68DA6F022AEF
:100CD00002DC9219DA6718E0DC67341C15E01A6947
:100CE00005A907929B680920089301230B70022332
:100CF0004B708B707C235B42CB7007AA64238C8083
:100D00000B7104F017FE2B68DC67381C019903F0A7
:100D10004FF9201C0BB0F0BD050C00003C0000207A
:100D200038B5054C75467146201C03F02AF9291C7C
:100D3000201C03F03DF938BDC10C000038B5054C4E
:100D400075467146201C03F01CF9291C201C03F079
:100D50002FF938BDDD0C000038B5054C75467146DD
:100D6000201C03F00EF9291C201C03F021F938BDCA
:100D7000F90C000082B0F0B589B0109C151C0F93DF
:100D80000693029407900E1C119C02F06DF84779AF
:100D90003A4B04978279964206D11B6800211A6E5D
:100DA000AB00D05A03910BE01A68354BD26D19682D
:100DB000731C896803964B43EB1801339B00D05A90
:100DC0000499714349194A00A4182388069E019387
:100DD000019F7318874203D8C61B029FBE521CE0B6
:100DE000029EB61805960027F65F013610D01F78D0
:100DF0007EB2B446013601DA013703E06646002EC2
:100E000006DD013F1F7002235B42238001202FE09B
:100E1000069F79180F78002F01D120800CE07FB257
:100E20007C1C05D1019E059F301A3880002002E00D
:100E3000012F01D1FF2008701978039C049E079FA1
:100E400048B274437D19002805DC029EB25E01326F
:100E500008D0002906D12A5700203E2A08DC01319B
:100E6000197005E02A57002A01DD013919700020A8
:100E700009B0F0BC08BC02B01847C0463C000020D6
:100E8000A8030020F0B571468DB074464248049422
:100E900003F077F801F0E8FF039004F05DFE3F4CAB
:100EA0003F4B256880202F681E683E490197000649
:100EB000019A013A02921DD36B68013B17D3019A44
:100EC000AF68F46D5743DF197A1C9F00F71980371C
:100ED000920005971759059ABC4617686446E71BA8
:100EE000B84200DA381CB942E7DD391CE5E7029F59
:100EF0000197DDE70A906B4600206C46988301233A
:100F0000237602236376A3767C235B42E3760B9100
:100F1000542306A90AAA237704F00CFD1F4F80254D
:100F20003B68204F1B6902970193DCB21C4B2D06D6
:100F30001E68013CE4B2FF2C15D0376E039805976C
:100F4000417A019807F04EFD059BA700FA58B76E4D
:100F50008900CB59D31A9D4200DA1D1C029F9F4283
:100F6000E7DD0293E5E708A901230B7002234B702C
:100F70008B707C23029C5B420020CB700AAA6B23FF
:100F800088800A950B710B9404F0D4FC02480499F4
:100F900003F00EF80DB0F0BD250E0000A8030020F0
:100FA0003C000020FFFFFF7F37B5114C7146201C2D
:100FB000754602F0E6FF05F01BFC02F089FD021EFB
:100FC00007D16946A923888000900B7104F0B2FC18
:100FD000FEE7084B1B6803CB01F0C4FF05F020FCC3
:100FE000FFF7C4FD291C201C02F0E2FF37BDC046FC
:100FF000490F0000A8030020F0B589B000AF744687
:101000003861F9606D487146BA607C6002F0B9FFE2
:1010100002F06CFF83000A33DB08DB006D46ED1A3B
:10102000AD46041C281C7D6102F068FF6300083394
:10103000DB08DB006846C01A854602F07BFF604B88
:101040006E461A68131CFC33D96A632906DD012039
:1010500000214042D962186499645962131CFC3320
:10106000D96A9D6A0131D962632D07DD0021012013
:101070009962404259640121D8635962131CFC33C0
:10108000996A986B0131996201280ADD0125A52032
:10109000002140006D4299631552A7204000115273
:1010A0001963131CFC33996B01319963596B012946
:1010B0000BDD0125A420002140006D42596315522B
:1010C000A6204000115201211963131CFC33596BF7
:1010D00000250131596301233B763A4B391C1B68CB
:1010E00018311B7980327B76BB760423FB76022095
:1010F0005B23BD833B7704F01DFC2B1C291C013CAA
:1011000008D37D69A200AA5889186200B25A9B18B8
:101110009BB2F4E72A4D2868AC46021C4B3278613A
:10112000FF3200207C692518A22464002E1934683F
:101130008C4200D231603D35FF352C688C4200D99D
:10114000296095889D4200D2938015889D4200D9E0
:1011500013800438051C023A0835E3D16046026862
:101160003D69131CFC335C6A1B6BA1005118FC31F8
:10117000486CC96B5B00411A2980A420A621D318B2
:1011800040004900595A1B5AFC68CB1A23800D4B6A
:10119000BD681B685B689900681851180022043A02
:1011A000013B04D38C18855880342560F7E7034849
:1011B000796802F0FDFEBD4609B0F0BD990F000050
:1011C0003C000020A8030020F0B5254E85B07346F2
:1011D000051C0C1C301C7146039302F0D2FE214FFB
:1011E00000213B68281CDA68920007F067FC3B6826
:1011F00000211A69201C920007F060FC04F09AFCA0
:101200000090C778184E002F0BD0002002F0D2FBC0
:101210003368281CDA6D211C1B6E05F0D7F8013FDE
:10122000F0E73368DA6D5B6E0192029302F0A4FA84
:10123000061C02F0ABFA0299031C321C019804F060
:1012400091FC009B211CDA78281C04F0A3FD381CBB
:1012500002F0B0FB0248039902F0AAFE05B0F0BD0F
:1012600069110000A80300203C000020F0B593B0F5
:1012700002AF7346B86079608E4871463B6002F0F9
:1012800080FE8D4B68461A688C4D136892689E1CD0
:101290005200564301335208311C53430831C908E8
:1012A000C900401A8546013302AC5B00E3187B613C
:1012B000834B79691B682868D9609C60FA600021BB
:1012C0003C22083007F0FAFB321C0021201C07F0FA
:1012D000F5FB2B68B868191CDA6D08315B6E00905D
:1012E000201C04F091FE2B68061C78681A6E191CED
:1012F0009B6E00900831786904F0EEFD0643F6B26B
:101300003E612E68301C311C4431083004F0AAFDC7
:101310006C4A2B681268F0641020115E586B88428A
:101320000EDC1220115E986B884209DB1420115EDE
:10133000D86B884204DC1621525E1B6C934223DA80
:10134000381C17222830002107F0B8FB012328227F
:10135000D35504F021FA002816D104F045F80028EE
:1013600012D0564B1B681B68FF2B00DDFF23292082
:10137000C355381C1721283004F034F9524802F0C4
:101380004DFE01F00DFEE4E74B4E022533680021CF
:101390001A6858683A769A688023BA765B420132B6
:1013A000B9832B435200391C7876FB76A21853235D
:1013B000012018313B7704F0BDFA30680123202268
:1013C000D3550021037CB98422222121CB55D3554A
:1013D00080235B422B432320C35524216D23CB550F
:1013E000391C012020317A6904F0A4FA33682822DC
:1013F00018682921D0555A682A20CA5599685A1D5B
:10140000C155D27F2B20C2551B692C212D22CB55D3
:10141000D35D7F229343802040422B4303432D2101
:10142000CB55FB68002201335B00E318391C012017
:1014300028310093131C04F049FAFFF7F5FBFFF77E
:1014400011FC002827D11D4D2B68D86D02F01AFC25
:101450002B68D86C02F0F0FA02F0B8F83A69002A6A
:101460000DD12B68211C1A1C08325B6FB86804F080
:10147000F3FB2B6878685A6F796904F049FC022005
:1014800001F0E2FE786905F087FA28680024503000
:1014900006F0A0FB00E02C1C094B00221B6805484D
:1014A0009A60DA60396802F083FD201CBD4611B0F5
:1014B000F0BDC0460D120000A80300203C00002033
:1014C000400000206010002010270000F7B5254ED6
:1014D0007146301C754602F054FD05F09BF9224C14
:1014E000E430236801781A1C6D321278002902D189
:1014F00051B2481C04D100275F60BA420DD119E0F7
:1015000058681A6F904202DA586801305860012911
:1015100010D05B6893420DDB012700223B1C69461B
:101520000E33101C8A8000920B7104F003FA2368BA
:101530006D331F7023681A1C6D321278002A03D194
:101540000A4A1268D27804E0012A03D1074A1268D5
:1015500012795A67586F01F03FFE301C291C02F0C7
:1015600027FDF7BD6D1400003C0000206010002036
:10157000F0B5124C8BB006900791201C7146754651
:101580000892099302F0FDFC05F044F96B4610AA9D
:10159000C2CAC2C342CA42C31188F03019809278CD
:1015A0009A70066807990698089A099BB047201C0C
:1015B000291C02F0FDFC0BB0F0BDC0461115000067
:1015C000F0B595B002AF74460E1C7862714646487D
:1015D0003A627C6002F0D5FC04F0BEFAF86005F0D7
:1015E00019F96C4692B03C6002AC92B0FC6102AC5E
:1015F0008AB0BC6102AC90B07C6102AC8AB002AD32
:10160000B86088B000214022F8693C6107F056FAC2
:1016100000214022B86907F051FA002120227869A0
:1016200007F04CFA00214022386907F047FA02AC73
:10163000281C0021202207F041FA201C0021202232
:1016400007F03CFAFA69BB6992B03A637A697B6346
:101650003D643B6902ADBA6300214022281CFB6354
:101660007C6407F02BFA214C381C22682C30516D19
:10167000936D443200922A1C06F0CEFA2368381C7F
:10168000596D2C309B6D2A1C009605F091FE381C7C
:101690002C30796A321C3B6A06F0BEF82368786AFF
:1016A000596D9A6D06F0CEF93C68786AA546311CF2
:1016B0003A6A05F0A1F9BB680B4CE4331B78002BA8
:1016C0000AD1FA681379002B06D004F049F80128F2
:1016D00002D0012001F075FD201C796802F068FC41
:1016E000BD4613B0F0BDC046611500003C000020AF
:1016F00038B5074C7146201C754602F042FC07F0D5
:1017000015F801F0B7FB291C201C02F051FC38BD74
:101710009116000038B50B4C7146201C754602F03E
:1017200030FC07F0B5F807F007F801F0A3FB002044
:1017300002F030FA01F022FD291C201C02F038FCD6
:1017400038BDC046B5160000F0B5194CB1B07346AF
:101750007146071C07AE201C1425019302F011FCF2
:101760002A1C301C002107F0A9F92A1C02A812AD7E
:10177000002107F0A3F9281C0021282207F09EF978
:1017800026AB02AA391C0CA80D931CAB0E93109229
:101790000F96119505F07EF905F0B0F90CA805F04B
:1017A00075FA201C019902F003FC31B0F0BDC0466F
:1017B000E9160000F7B5754601950F4D0E1C071C84
:1017C0007146281C00921C1C02F0DBFB311C381CEB
:1017D000FFF74CFD061E03D0201CFFF7B5FF04E009
:1017E0000098211C089AFFF7EBFE281C019902F0D3
:1017F000DFFB301CFEBDC04655170000F0B589B0B8
:1018000000AF7546714646483D6002F0BAFB454C54
:101810006E4622680ACA5943CA1852000832D208D2
:10182000D200B61A5B00404AB5465B0812686D46A6
:101830007B614B005E08EB181362D561FD60BE60F2
:1018400001F012FB7860002002F0B4F822683749FA
:1018500053680968013B1CD3980014688446601ED5
:101860003861F7D34E6E604635589668C86D74433C
:101870001C190134A40026580024AE4200DD741B5C
:101880003E697D697543FE685D196D00AC533C6926
:10189000E5E7264BB9681569FA681E684B00D3184E
:1018A000AC00BB607D617969043C0139796114D376
:1018B000336E78683B61417A281C07F093F8B06E6C
:1018C0003B6989001A590B587969D31A4A00D943E0
:1018D000C917B8680B408352E5E7FFF721FA114DAD
:1018E000381C2B68F9681A791E687A76BA765A1D00
:1018F0001B693E76D27F3B777E235B421830FA76B7
:101900007B7703F087FD084B00221B680448DA61EF
:101910001A62396802F04CFBBD4609B0F0BDC04602
:101920009D170000A8030020400000203C0000207C
:10193000F0B58DB000AF744671464348FC6002F0CC
:1019400020FB01F091FA414C6D46236844CB724371
:1019500093195B000833DB08DB00ED1AAD46281C49
:101960007D623B4D69462B685200D86150088A1849
:101970001A623862002002F01DF876002168354AAC
:10198000760876000B6810687242BA615A1E564398
:101990008446786A86197E6100205C1EFC6118D33B
:1019A0007C694A6804193C61013A0ED355007D6098
:1019B0008D683C695D4355196E1CB5006646F66D31
:1019C000AD592E1C7D686653EEE7BA69FB69801835
:1019D000E3E73D6A7E6A1F4A0B696C00361910689E
:1019E000B4469A00043A013B05D3046E5900A55849
:1019F00066467552F6E7FFF7A1F9144C29202368D3
:101A00002A211A791E682825C255CA555A1D1B69F4
:101A1000EE552C25D27F381CEB557E235B42796A2C
:101A20002B242D262830E255F35503F0F3FC084C07
:101A3000002223680448DA611A62F96802F0B8FAF1
:101A4000BD460DB0F0BDC046D1180000A80300206F
:101A5000400000203C000020F0B58FB000AF74467D
:101A600071466248FC6002F08CFA01F0FDF9604DAD
:101A70002C6860682168386241430B18DA1D5B00EE
:101A8000D2080833D2006846DB08801ADB0085469E
:101A9000F961C01A574BF9696A461B6856185A62B1
:101AA00085469E62FA62B8610021101CE26807F068
:101AB00005F82269301C002107F000F84E4B3C6A03
:101AC0001B686200FC69520878331B787A616200F7
:101AD00052083A61BB62BD6A002D5ED0002001F061
:101AE00069FF434B44491A680E685368013B2AD387
:101AF0001068411EFAD39568F46D684318180130D8
:101B000080000059BD69786078697C68484318187E
:101B10004000405F001BFF2800DDFF203D6AFC6A9B
:101B20004D437D62C543E418ED170540BC60201CA1
:101B30007C6A055578697C684843BD69181840007F
:101B40004453081CD5E713693C695D007D62E018C9
:101B5000BD69294A400028181668B8600022023A78
:101B6000013B16D3786A356E8118B86849004C5924
:101B7000815E091BFF2900DDFF21F869FD6A2D1830
:101B80007D60CD43ED172940B8687D688452E954E3
:101B9000E5E7BC6A013CBC629DE7FFF7DDF8144C49
:101BA0003121236832241A7918683025CA55E25544
:101BB0005A1D1B69E8553420D27FC3557F235B42F1
:101BC0003521381CCB553325F96A3030EA5503F0FE
:101BD00021FC084BBC6A1B6804485C629C62F96883
:101BE00002F0E6F9BD460FB0F0BDC046F91900009D
:101BF000A8030020400000203C000020F0B57746FC
:101C000091B0041C0E1CA5487146059702F0B9F965
:101C100003F0A2FF049004F0FDFD2378A04D002BFB
:101C200008D1B23003785A1E9341DBB20393002BE4
:101C300006D001E0012703972B680022FC3305E062
:101C40002B68FC33DA6DFE2A01DC0132DA652B6881
:101C5000AA21039F490000225A5497425BD1542085
:101C6000FF301C5C021C002C08D0185C40B202281B
:101C700000D0012058540021995475E1A8277F0015
:101C8000DC5D1A1CFC32002C0AD001245C54039940
:101C90001954D955039F5221FF315F54176664E1EF
:101CA000146E002C09DD013C012C01D0146632E0D9
:101CB000039F176603225A5457E1C221490059581D
:101CC00008887849884226D07748B42100684900BE
:101CD000595AC08888421ED8744CD26D2768787CC7
:101CE000824218DB0EAA1180B52149005B5A039F7E
:101CF00006A9538001230B7002234B708B70CB70AD
:101D0000381C15238F800B7103F014FE22682B689A
:101D1000927CFC331A66654F3C68E07C002800D05A
:101D200022E103995E4D002900D082E02D688023D6
:101D3000FF33EB5C002B54D0231C2A331B78002B81
:101D40004FD02B1C0E91FC339F6FB4235B00EA5ADB
:101D50007B009A53231C2B33197803984B00F618F9
:101D6000031C994206D05A00B21A023A1288013373
:101D70008018F6E706F0E0FD0E90A28B2B1CFC33DA
:101D8000904202DADA6F013200E00022DA67221CA8
:101D90002C321278D86F904218DD7C2308A90025D8
:101DA0005B420124CB70281C16230EAA8D800C7078
:101DB0000B714C708C7003F0BDFD394B281C1B68F7
:101DC000FC339D67DD6703F0F7FDCEE0221C2B326C
:101DD0001278013A974202DA01379F6701E0002248
:101DE0009A67FC356A6EA37F2D4D9A4219DB002459
:101DF0000AA91223201C221C8C800A940B7103F068
:101E000099FD2A682948131CFC33996E006801313A
:101E10009966C07F814204DB9C66AA2302215B0095
:101E2000D1542A68A921002349005354FC32536637
:101E300044E02B681A1CFC321066BF2252009A5CE8
:101E4000002A3BD0B4267600995B0EAAB5241180F7
:101E500064001B5B0CA9538001230B7002234B70A1
:101E60008B70CB70192388800B7103F063FD2B6896
:101E70003A689D5B908BA9214900854218D21C5B72
:101E8000108D844214D2595C002917D1FC33596E4D
:101E9000927F914212DA013159660FE09D1B0000DA
:101EA0003C000020FFFF0000601000205C100020BC
:101EB00001225A54FC3300225A669A662E4DBF22E4
:101EC0002B6852009A5C002A4ED1049F3A79002A6E
:101ED00047D0A82252009C5C002C45D1274E986820
:101EE0003768398B7A8BBB8AFF8A009703F0DCFD59
:101EF00036682B68318C728C071C9868B38CF68C12
:101F0000009603F0D1FD2B68B42252009E5A522550
:101F1000B521FF354900BE4202DA5A5A824213DB2C
:101F200008AA16805B5A0EA95380022300200126BE
:101F30004B708B70CB70172388800E700B7103F081
:101F4000F9FC0D4B1B685E550B4B1B685A5D002A54
:101F50000AD0039F002F07D00121A8228A4099545C
:101F600003E05221FF315A5401240548059902F03B
:101F70001FF8201C11B0F0BD3C0000205C100020B8
:101F80009D1B0000F0B5764685B003963F4E714626
:101F9000051C301C01F0F5FF3D4C52222368FF3236
:101FA000995CB6225200002906D0BF214900595C35
:101FB000002901D1012199549A5C002A5ED0A822FF
:101FC000344800215200995402680291126A0F1C91
:101FD000013A0CD3EE685000805B0028F8D07E1CDC
:101FE00000B2F7B28142F3DA011C0292F0E7BF229D
:101FF00052009A5C0192002A24D1C02676009B5D93
:10200000002B08D0244B1B6803CB04F073F9204B42
:1020100001981B689855B62322685B00D35C002B9F
:1020200010D0012F0ED901231A4E2B7033681B6A72
:10203000013B09D3029EB342FAD0E8685A0000215E
:102040001152F5E7002F03D023680022FC3305E08E
:102050002368FC335A6F032A01DC01325A67236874
:102060001A1CFC32526F032A0ADDB62200215200EC
:1020700099540121A8228A40995401E0FC335A67FF
:102080000248039901F094FF05B0F0BD251F000040
:102090003C000020A803002040000020F0B5A1B0C3
:1020A00002AF7546B861F961804871467A61FB609C
:1020B000BD6001F066FFFFF709FA002001F052FC55
:1020C0007B4EB4213368B522490052005818991844
:1020D0005A6EFEF791FF3368B42252009A5A3C1CA4
:1020E00060342280B52252009B5A20256380002351
:1020F000BB840123EB55212002252221C555CD5556
:1021000023222420391CC355D5550C202031221CF4
:1021100003F010FC674B28211B6829201A68CA5558
:1021200059689A68C1552A20C255591DC97F1B6933
:102130002B20C1552C21CB552D200423C3553368AA
:102140000132DB6DAA409A180092391C0022281C2B
:102150002831131C03F0BAFBB869F969FFF786F858
:10216000B861002803D07869FFF7EEFA7EE06D468B
:102170008CB03D6102AD8CB07D6002AD8AB03D6037
:102180003E1C02AD4C36FD613D1C3835301CB96932
:10219000142206F093FC281CB969142206F08EFC68
:1021A000B9692822F86906F089FC434B25611B6850
:1021B00078683968FD696060A160E6606561201C2F
:1021C0001C617969FA68FFF7FBF99022D159201C4C
:1021D000FFF714FD201CFFF7D5FE201C04F056FD70
:1021E00025786C46AB000733DB08DB00E41AA54614
:1021F00002AC7C612E1C1224F86E035F002B09DDFB
:102200007A69013E7B6FB0006100101859180422F2
:1022100006F012FC023CA31CEED1264B31211B68B8
:1022200030245A681868CA559A68E0553224E25535
:102230000533DB7F3320C3557E235B423520C355F6
:102240001B4B01321B6852009B6D00249A183421ED
:10225000CC550092391C7B69032030312A1C03F0D5
:1022600035FB154B1B681C613C69A54601F06EFBF4
:1022700001F04EFA0E4B1A68AA235B00D05600F00C
:10228000C3FB041E00D1BC690C4B1B681A680C4BC5
:102290009A4202D001F0CEFDFEE70448B96801F091
:1022A00087FE201CBD461FB0F0BDC0463D2000008B
:1022B0003C000020A80300204000002084100020E3
:1022C000CDCDCDCDF0B59BB002AF74467146F86070
:1022D000C148BC6001F055FE00F0C6FD061C00F0D0
:1022E000DBFDB86100F0CCFDBC4B6D461C6878612D
:1022F000E36800211A1C0E32D208D200AD1A2269FE
:10230000AD460E32D208D2006846801A02AD85462C
:102310007D6202ADBD6272799A18131C0E33DB0820
:10232000DB00C01A53000E33DB08DB008546C01A01
:1023300002AD8546C01A3D6202AD854602A8F8612D
:10234000386A06F0BBFBE1687279281C521801213B
:102350005200494206F0B2FBE3687279F869D2187C
:1023600052009F4906F0AAFB7B69BD65E7331D78E3
:10237000E268786A002D0BD0B96906F05DFBF025A4
:102380002269BC69AD00B86A611906F055FB07E027
:10239000291C06F093FB2269B86A291C06F08EFB03
:1023A000402400253C61FD62B96A786A02F06CFB4A
:1023B000032001F0FFFA894D00202B6838871A6846
:1023C000586834213524CA55E0559A6804243723C7
:1023D000DC55844C51233820C35523683621CA5517
:1023E000DB6D01329200391C9A180220343103F05F
:1023F000A1FA01233C20C3552B6800221B7C4021FD
:10240000CA533D213E22CB55D35504253F23DD55EC
:1024100040205A23C3552368391C1A6E02203C31D0
:1024200003F088FAB479013C631C33D07579013D1F
:102430006A1CF8D07379F9696343EB185B005A5A48
:10244000694B9A42F3D03A6A58237A607A65F96503
:10245000DB19694605CB05C1211C7B68786A2A1CFB
:10246000FEF788FC002803D0FB6A01339BB2FB62B5
:102470007B69386AE7331A7873796343EB18002A6B
:1024800004D0C15CB869C25C8A1800E0C25C796A99
:10249000CA54CCE7F479013C601C37D0B179737928
:1024A000FD694B43E3185B005A5B4F4B9A42F2D0F5
:1024B0003D6A58207D607D65C019FD698446FD65D3
:1024C0006846624628CA28C0221C7B68B86AFEF7A4
:1024D00051FC002803D0FB6A01339BB2FB627B698D
:1024E0007279E7331878B1793D6A4A432B1900288D
:1024F00008D0BD69F0212819890040189A5C03783A
:10250000D31800E09B5CBD6A2B55C4E7334BFC6AD3
:102510001B68DA681B69D3189C4206DA3B69013BE9
:10252000DBB23B61002B00D03EE7FD68022D3FD0BF
:10253000786AB96A02F0A8FA002448207C64C4537F
:10254000B3794421CB557379472045224625D3558D
:10255000EB55C35D7F2101258B4380222B435242E3
:102560001343C35548211D23CB55391C7A6A0820D3
:10257000443103F0DFF9391C4C31FC648C800D7060
:10258000F3797F224B708B70CB78082093431D43E7
:1025900080235B421D43BA6A1E230B71CD7003F08A
:1025A000C9F90D48B96801F003FDBD4619B0F0BD89
:1025B000B379013BBCD37279013AFAD371797D6961
:1025C00059437C6A8918E8186118F8300C7800784B
:1025D00020180870F0E7C04665220000A80300201C
:1025E000FFFF00003C000020FEFF0000F0B5A5B09A
:1025F00000AF72467146B861BC48BA6001F0C1FCD8
:10260000BB4C2368DB687B635B0001333B6500F0F8
:10261000F1FF2368FF22DB68F865D31A984200DDDA
:10262000FB65F86D00F0EEFF396D68464D002B1C20
:102630000833DB08DB00C21A95467865002468463B
:102640006421CC530123B864602261206221D355F8
:10265000C355CB557C235B426322D3556420B12301
:10266000391C3A1CC35560315C32201C03F062F9FE
:10267000F96D7A6B8B1A9BB2396D8C4205DAB86CA6
:102680006200191981520134F6E700246C22C8B2A5
:10269000D4530126682369216A22C855D055DE55D6
:1026A000F86402236B20391CC3556831201CBA6CB6
:1026B00003F040F92B1C796D08338D46DB08DB00F5
:1026C0006A46D21A9546D21A694695463963FA6225
:1026D00001F00CFC7861301C00F004FE211C2A1C67
:1026E000F86A06F0EBF9211C386B2A1C06F0E6F9B3
:1026F000386D69468000031C0A33DB08DB00C91A09
:102700008D46C91A7B69F8619B006846B8628D46A0
:102710007962FB60BC640021FA69B86A06F0CEF900
:10272000786AFF21FA6906F0C9F900207865704BD4
:10273000786D1B689B6898424FDA796BFA6DC9B265
:10274000501AC0B2F96300F06AFF00F033FF00F0E6
:10275000BFFD7D6ABC6A0026386D0136F217C30FD3
:1027600086425341DBB2BB63002B08D1F96BFA6D93
:10277000701A8018C0B200F052FF00F01BFFFB6817
:1027800068460A33DB08DB00C11A8D466B463861A8
:10279000181C7B6401F0B2FB00231A1C79698A4281
:1027A00005DA786C9100415801325B18F6E722682F
:1027B000934200D923602868834200D22B60396994
:1027C000BA6B8D4604350434002A02D100F080FD36
:1027D000C2E77B6D01337B65A9E70021454D796533
:1027E0000C1C3A6D944219DABA6A796AA300D0587F
:1027F000CB58C01A854206DDFA6D796BA3185B1AB7
:102800003B62051C3C647A6D824200DA786500F018
:1028100053FD396B6300C8520134E2E7786D00F074
:102820004BFD334B1B68DB88984206DABB69012BF2
:1028300003D0F86D796B386239642F4D386C2C6891
:102840000222796AFC34904032234158A362642307
:102850000026E36201236263A36366622663F86372
:10286000081C796000F028FDFA6BBB6AE063D05861
:102870002C6800F021FD2B680121A5225200FC34B8
:10288000494260649952B869A72252009E520128B9
:1028900034D1FA6A331C396D8B4209DA386B59002E
:1028A000415A1088884200D2118001330232F2E787
:1028B0003A6CF86A53001A5AB96C131C8A4200D257
:1028C0000B1C9BB27021BB640123CB557422FB6CA3
:1028D0000020D05372217122D355CB55732202238D
:1028E000391CD3557031FA6A19E0C0468D250000B5
:1028F00060100020FFFFFF7F3C000020786D00F09B
:10290000DBFC391C80B278310222B864F86C0123F8
:10291000CA703A6B487088708E800B70301C03F060
:1029200009F8386C8823D8533A6A3B6B8A214600F1
:10293000CA539E19BA6C33888E21CA538C20391C15
:102940008031C35301230B7004234B708B7000251F
:1029500002233A1CCB70281CB22388328D800B7165
:1029600002F0E8FF244CC220236840001858318848
:10297000028891421CD905F08BFF051C05F0E8FE8A
:102980000378061C002B08D0012003F015F82368FB
:10299000C221023649005E5019E0002D17D1174BB5
:1029A0001B68DB7C002B12D1012002F0F9FF0EE046
:1029B0008022FF329B5C002B09D0281C02F0FCFF18
:1029C0000F4A23681268C220063240001A50B969C3
:1029D00000290AD13A6AD0B200F021FE0948B9684C
:1029E00001F0E6FABD4625B0F0BD02F0A3FE0828CE
:1029F00000D190E6EEE7C0463C0000205C100020CD
:102A0000601000208D250000F0B57F4C724691B01B
:102A10007146071C201C039201F0B3FA05F038FF41
:102A2000051C02F0D5FE794BBE22196852008A5C63
:102A3000061C1C1C824221D000280CD000226B46B0
:102A40009A8269463B230B75101C04A90492032546
:102A500002F070FF0EE006A93C23321C888006902D
:102A60000B7102F067FFBF2322685B00D55C6B1E11
:102A70009D41EDB2BE2321685B00CE5402F0B6FE4C
:102A80002168BE235B00CA5C061C002A23D17E237A
:102A9000FF33C95C81421ED0002809D008A9392320
:102AA000101C8A8008920B71022502F043FF0EE091
:102AB0000AA93A23321C88800A900B7102F03AFF6F
:102AC000BF2322685B00D55C6B1E9D41EDB223687D
:102AD0007E21FF315E5402F035FE019002F06AFE65
:102AE000032F03D0019A002A04D108E0019B01269C
:102AF000002B4BD0002002F02DFE012646E0BE2325
:102B000021685B00CB5A019E0293002B3ED1012F1E
:102B100002D0022F04D00FE0381C02F041FF0BE07E
:102B2000029802F03DFF80232268FF33D35C002B24
:102B300002D0029802F040FF02F02CFFBF23216870
:102B40005B00CB5C071C002283421ED0904209D060
:102B50000CA91123101C8A800C920B71012502F024
:102B6000E9FE08E00EA913233A1C88800E900B7131
:102B700002F0E0FE3D1C01212368C0228A409954E6
:102B8000BF228A409F54002600E0161C05F080FEFC
:102B9000A84216D0281C05F075FE05F049FE00205D
:102BA00000F0F8FF002002F007FF236880220021D8
:102BB000FF329954164A01261168C222063152008A
:102BC000995005F065FE05F0C3FD0378002B09D090
:102BD00002F0ECFE22688023FF33D15C814201D0F9
:102BE000D054012602F01EFE041C03F013FE0379EC
:102BF000A34200D0047102F007FE0348039901F0DC
:102C0000D7F9301C11B0F0BDA92900003C0000200C
:102C100060100020F0B599B000AF7546714680484D
:102C20003D6001F0AEF97F4C092123687E4E1A1CED
:102C30006D3212784A43191C6B3109789B7952180E
:102C40009B09D318FB6200F00FF9236800201A1CBF
:102C50006F329B7912789B09D318BB6201F0E2FEB8
:102C6000B5446D46A2B0FD616D46A2B0BD610A26B5
:102C70006D467D617E637D6BF86A05217A6BADB22E
:102C80003D610F2602F0C2F8B86A05217A6B02F0A6
:102C9000BDF83E633D6BF86A05213A6BADB27D60CD
:102CA000002602F0C1F8B86A05213A6B02F0BCF8C0
:102CB000FE63FD6B05200026684302F0D5F8BE6375
:102CC0007E623E62574E0223306805210370F86A27
:102CD00000F076FE554A0A211268554D92682B681D
:102CE0005143DA6D06318B00D45AF969BA6B7B6AAD
:102CF0008C5224B21B197B62336801221A70B86AA5
:102D0000052100F05DFE2B68BE6B5B6E3D6A5B6962
:102D10000236E41A2D1980233D62BE639B009E4259
:102D2000D0D12B12FE6B7D690021AB537D6A00224E
:102D300000232C12FE69705A0231001B404300B27E
:102D4000B860C017F8608020BD68FE688000521926
:102D500073418142EED1FE6B1B06120ABD69710000
:102D60001A4302366A50FE63082EA2D13D694026FE
:102D7000F5537D6842260024F5534C26F4534A232C
:102D80000226DE550121482049228023C155D6550F
:102D90005B42391C3A1C33434B25201C48314032DE
:102DA000EB5502F0C7FD01225021CA558021542065
:102DB00049420425C4530E4352205322391C512347
:102DC000C555D655201C50317A69DD5502F0B2FD4B
:102DD0005C23DC5359218023CD55012058265A22EB
:102DE0005B42391CF055D5555B261D43201C5831DC
:102DF000BA69F55502F09EFD3D6B03353D63422DEA
:102E000000D047E77E6B01367E63102E00D032E79C
:102E10000348396801F0CCF8BD4619B0F0BDC04692
:102E2000B52B0000D8010020F8FBFFFFA80300200D
:102E30003C000020014B18687047C046CC010020C0
:102E4000014B58687047C046CC010020014B986880
:102E50007047C046CC01002070470000014B18604D
:102E60007047C0466C100020014B18687047C04680
:102E70006C100020014B18607047C046681000209D
:102E8000014B18687047C04668100020014B18605D
:102E90007047C04664100020014B18687047C04658
:102EA00064100020014B18687047C046D80100200C
:102EB00010B50D4B00201B78AA2B12D10B4B1C78A0
:102EC0000B4B64B218780B4B40B219780A4B2018A0
:102ED0001A780A4B49B21B7840188018C01A43422E
:102EE0005841C0B210BDC04650000200510002005F
:102EF000520002005300020054000200550002007C
:102F00008023DB020022188059809A80C046024B41
:102F1000188880B27047C0460600040082B00022C4
:102F2000019201AB55221A70392252429A70012245
:102F3000DA70019AA023DB059A6102B07047A023E2
:102F4000DB059869C001C00F70470122A023DB0593
:102F50001040020602499869084010439861704782
:102F6000FFFFFFFE82B00022019201220A40891871
:102F700001303F2201AB1040C9B21870481C023129
:102F800002408900D9705A70019AA023DB05DA61EA
:102F9000196A024A0A401A6202B07047FFCFFFFF67
:102FA0000002064B000A0138002258609A60052290
:102FB0001A60C0461A68D103FCD5704710E000E0E3
:102FC000F0B55C4B85B01F6803AD3E1CE0360424B1
:102FD000311C221C281C05F02FFDB378327819070C
:102FE000E3400193F37828781B071B0F0093120727
:102FF0000F239843120F104328706878012630433E
:103000000226B043A043C72420406870A878019EE0
:103010009843090F0843340118402043A870E8780A
:10302000009E9843031C334310208343EB700398A6
:10303000A023DB05FA25D8606D00A023DB05DC6842
:103040003D48013D2040D860DC688020C00020431E
:10305000D860002DF1D1E1373C78DE68E4063748CE
:10306000A40FE40230402043D860DC688020800058
:103070002043D860DC68802080012043D8600C1C8D
:10308000161CFFF715FF002812D02D4F8820397825
:103090001E34C9B205F050FC39784443C9B28820C7
:1030A00005F04AFC0F3646431E3C0F3E002C03DB66
:1030B000251E0F2D00DD0F250F239E4200DD1E1C57
:1030C000A024E4051D402B041E4AE5681E48154057
:1030D0001D43E560F343E268DB171E400F239A436C
:1030E0001E401643E660E368F022934380221343B8
:1030F000E360E368154D164E2B40E360E368334010
:10310000E360FFF74DFFE26880235B051343E36054
:10311000009A10481306E26816401E43E660FFF767
:103120003FFF019EE268330515401D43E56005B091
:10313000F0BDC04668100020FFFBFFFFFFE7FFFF68
:1031400054000200FFFFF0FFFF0F0000FFFF0FFF22
:10315000FFFFFFF0FF6F0000064A074B12680120D7
:10316000D832126819789040021C0A43D2B21A7001
:103170007047C046D8010020290000500549064B81
:1031800009681A78D83109680120884082431A708A
:103190007047C046D801002029000050044B187821
:1031A000044B1B68D8331B68184101231840704733
:1031B00029000050D8010020A0230122DB055A700D
:1031C0007047044B82B0019001AA188092789A70DF
:1031D00002B070472400005007B500F001FF064B15
:1031E000019001AA188092789A70044B00221A70FC
:1031F000034B0122DA7707BD2400005000000020B5
:103200000800005007B500F009FF064B019001AA25
:10321000188092789A70044B00221A70034B012296
:10322000DA7707BD2400005000000020080000509D
:10323000034B00221A70034B0122DA777047C04615
:10324000000000200800005072B6084B1B5C002BE9
:1032500003D1C04662B630BFF6E762B6A023DB05F5
:103260009968034A0A409A607047C04600000020EF
:10327000FFFFF9FFA023DB055A680121120E5868F1
:103280009143034A090602400A435A607047C04608
:10329000FFFFFFFE08B5074B1B681A1CF0321278BF
:1032A000F1331B78520001325043994005F044FB42
:1032B00008BDC0466810002008B5044B1B68F333F6
:1032C000197849000131FFF7E5FF08BD68100020BB
:1032D00008B5A0230120DB055870FFF7B5FFFFF705
:1032E000C9FF08BDF0B5644D85B02F68041C391CBA
:1032F00004280BD1221CCC3103A805F09DFB391CFE
:10330000D031221C5D4805F097FB27E0D431042220
:1033100003A805F091FB391CA023D831042257489B
:10332000DE0505F089FBFDF773FC8023FF33C35CEA
:10333000002B13D005F0ACFA05F00AFA0779716991
:103340007F224F4B17401940BF04394371614179C7
:103350000A40716992040B4013437361A023DB059B
:1033600058696A460006117B800F1F220230400117
:103370001140014368460173039919611E691640A3
:10338000FFF796FD00280AD03E4B882019780436B6
:10339000C9B205F0D1FA46430023043E03D4331EDC
:1033A0001F2B00DD1F23A022D205108A1F210B40F6
:1033B000884303431382022C14D006DC002C11D066
:1033C000012C2DD12B68F23325E0042C07D024DB0F
:1033D000052C25D12B680024EC33019320E02B68C9
:1033E000E93318E0FDF714FCB6235B00C35C002B47
:1033F00003D0254B1B685D330DE08023FF33C35C96
:10340000002B06D005F044FA05F0A2F90630019031
:1034100006E02B68EF33019302E02B68F533FAE7FF
:10342000019AA023DB05596910783F22104091438F
:103430000143596101995D6948781F21084013498A
:10344000C0022940014359611149640009680C19FF
:10345000211C773108785968104091430143596025
:103460007834217858680A4011020A4A02400A4317
:103470005A6005B0F0BDC04668100020140000502E
:10348000FFFF03FE540002006C100020FF07FFFF47
:10349000D8010020FFC0FFFF294BF0B51A68294B67
:1034A00085B01B68F2331B785B069B0E0193931D5E
:1034B000D97F00238D005519581E5B18002B27D08B
:1034C00053181B1826331B788024D3185E78A0234A
:1034D000DB055F68E4033C435C60019CB6062404A2
:1034E00000945F68B60EBC46174F64462740009CA8
:1034F00027435F60C046243676008400F65A2C19B4
:10350000883426605E68114C34405C60031CD3E74D
:103510006F460293BB8101233B72931DDB7F7F21AA
:103520007B72BB72FB7A88328B4304210B43FB72A4
:103530000F20B02302A93B7302F0FCF905B0F0BDE7
:10354000D801002068100020FFFFC0FFFFFFBFFF71
:10355000F0B585B0FFF7A0FF154B00251E68B31D21
:10356000DC7F631C9B005B420093A300F318019374
:10357000009B043D9D4208D0019A012157198837CC
:103580003868FFF787FE3860F2E76A4600239381C8
:10359000012313720423D372B023547294721373F1
:1035A000321C88320F2002A902F0C4F905B0F0BD28
:1035B000D8010020044B00225A70A023DB055A706A
:1035C00001221A707047C04600000020A023DB05CE
:1035D0009968064A0A40802189020A439A60044A8F
:1035E0000021917001229A707047C046FFFFF9FFD9
:1035F00000000020024B1B680833D86F7047C0469C
:10360000D8010020024B1B680833D8677047C046BA
:10361000D8010020A023DB059868C0B2704730B500
:10362000A023DB059B68DBB283420ED001DA0133B5
:1036300000E0013BA022D2059568FF211C1C8D43B0
:103640000C40291C21439160EEE730BDA023DB052F
:103650009968802252020A439A609968094A0A408E
:103660009A609A68120112099A60D968064A0A405B
:10367000DA60D968054A0A40DA60D968044A0A4023
:10368000DA607047FFFFFFF0FFFEFFFFFFDFFFFF85
:10369000FFFFFFEF1B4B10B51A680121131CDE332F
:1036A0001878A023DB059C680840174900042140D6
:1036B00001439960DF3210789C68144900070009C3
:1036C00021400143996011789A680909120109079C
:1036D00012090A439A60D968802252000A43DA60CC
:1036E000D968802292010A43DA60D96880225205A3
:1036F0000A43DA60C923013B002B01D0C046FAE738
:1037000010BDC04668100020FFFFFEFFFFFFFFF066
:1037100010B5A024E405A36800201B011B09A360C9
:10372000E268124B1340E360E268114B1340E36020
:10373000FFF78AFD0F4B1B68DF331A78A368120965
:103740001B0112071B091343A360E26880235B007F
:103750001343E360E26880239B011343E360C923C2
:10376000013B002B01D0C046FAE710BDFFFEFFFF72
:10377000FFDFFFFF68100020034B1B68F033187851
:10378000400001307047C04668100020024B1B68A3
:10379000F13318787047C046681000200048704721
:1037A000001000500048704700200050004870474B
:1037B00000400050074B01201B685B799A1C0340B6
:1037C000D318054A1268663210785843034B8000BC
:1037D000C01870476C100020D80100200440005031
:1037E000F7B51B4B051C1C68A3795F1E15D36279C6
:1037F000013A10D36079561C811C019101210840C7
:1038000001990818584331181248890009180868A6
:10381000E8400860ECE73B1CE7E7FFF7CBFFA37A43
:10382000002201339C466346013B9C460FD3617ADC
:1038300096000191861900230199994205D09F00B5
:10384000F1590133E940F151F6E75218EBE7F7BDC2
:103850006C10002000400050074B01201B685B7972
:103860009A1C0340D318054A1268723210785843E4
:10387000034B8000C01870476C100020D801002056
:1038800004400050F7B52D4B1D682A7853B2042B25
:103890001ED12B4B1B68EB331F782A4B1968022370
:1038A0005E1E4AD34A79013A10D34C79551CA01CAC
:1038B000019001200440019804195C432819224C0E
:1038C000800000190468FC400460ECE7331CE7E763
:1038D000002A32D0022B0ED1FDF79AF9B6235B00F5
:1038E000C35C002B03D0174B1B685F3322E0144BE3
:1038F0001B68F1331EE0032B03D1114B1B68F73318
:1039000018E0012B11D1FFF7A7FF0E4B061C1B6817
:103910005C79013C11D32B193A331B789B009859E1
:10392000FFF7CAFCA300F050F3E7052B05D1044BC9
:103930001B68EE331878FFF753FFF7BDD80100205E
:10394000681000206C1000200040005008B5A02333
:103950000120DB055870FFF777FCFFF78BFCFFF7C2
:1039600091FF08BD70B5041C104E114D11D10120FE
:10397000FFF7B8FC336801221A70A023DB056C70D6
:103980005C701A70FFF7E2FFFFF774FCFFF7E0FDD1
:103990000224201CFFF7A6FC336800221C70A02321
:1039A000DB056A705A7001221A7070BDD8010020C0
:1039B0000000002008B5FFF7D5FFFFF7C7FF08BDDF
:1039C00008B5A023DB05011C58683F221140904335
:1039D0000843586059685868114001310A40110283
:1039E000064A02400A4306495A6000224A705A7049
:1039F00001221A70FFF7AAFF08BDC046FFC0FFFFF3
:103A000000000020094B01211A685379D0799A1CD3
:103A10000B40D318064A013012686A3212785343B9
:103A2000C018044B8000C0187047C0466C100020BE
:103A3000D80100200040005010B5A023DB051C6A0F
:103A40000005064A000D010422400A431A621A6A60
:103A5000120B12031043186210BDC046FFFF00F0A6
:103A6000164B13B51C68A023DC34211CDB0514485D
:103A700004229B6804F0E0FF2478FFF719FA00287D
:103A80000CD0104B104A1B781278201C52B20092B6
:103A90005BB21021D12202F007F82418002C01DAC1
:103AA000002402E0FF2C00DDFF24084BE0B21B687D
:103AB0000833DC67FFF7B3FD13BDC0466810002074
:103AC000080000505300020052000200D8010020FC
:103AD00008B5FFF7C5FFFFF773FAFFF71FFA234B8F
:103AE000C022920098582249014099509958FF20CD
:103AF000814340200143995098581E49014080203D
:103B0000000401439950985880210002000A0906D8
:103B100001439950012102221A60082019600421F2
:103B200019601860144B00205860144B1869014349
:103B30001961134B1B68197A124B1B68D833002983
:103B400000D1032210491A6000230B700F49A022F4
:103B50000B700F49D2050B709363D36B9B0E9B06C2
:103B6000D36362B600F082FA08BDC04600E100E00F
:103B7000FF00FFFFFFFF00FFFCE100E000ED00E0C1
:103B80006C100020D80100202900005028000050AF
:103B90002A00005008B5002801D0012801D100F00A
:103BA00065FAFFF75DFFFFF70BFAFFF7B7F908BDFE
:103BB000F0B5214B13211B680224DA7A0023133A53
:103BC000D2B291425B41E41AA023DB0558693F223F
:103BD000596810408022D2030A43A3B05A60411EA4
:103BE000A023C9B2DB0502AAFF2910D05F683F26D7
:103BF000124D0E4036043D4035435D60C046251CE5
:103C000024356D005D5B4B00D5520139E8E75C68F7
:103C10000B4921405960694600238B8001230B70BA
:103C2000022348708870CB700320B3230B7101F01E
:103C300081FE23B0F0BDC0466C100020FFFFC0FF26
:103C4000FFFFBFFF10B5A020C00544694906E4018D
:103C5000E409214341617F210A4044699104074AF4
:103C600022400A430649426100224A704270012202
:103C70000270002B01D0FFF769FE10BDFFFF03FEAD
:103C800000000020F7B5041C02F0B2FD124B1A68C8
:103C900000235068411C0191019D16689D420CDB78
:103CA000976801367E4399008C469E19002165462F
:103CB000B600615101333151EEE701239E420ADB28
:103CC000956800215D43AF002D180135AD003951D5
:103CD00001332951F2E7F7BDA8030020044B054941
:103CE00000221A6059609A6005221A607047C04627
:103CF00010E000E0FFFFFF0010B5A023DB059C688B
:103D00009968E623C943C9B25943E403E40F064B5B
:103D10000134A040C918041C044804F00DFE011C25
:103D2000201C04F009FE10BD5C5D000040420F0045
:103D3000014B00221A60704710E000E030B50D4DD5
:103D40000D48AB6885B0C01A0193FFF7D5FF02A9F3
:103D5000012300240B704B708B7004230190CB70F7
:103D6000201C6F2301AA8C800B7101F0E3FD2C60F5
:103D700005B030BD10E000E0FFFFFF00A023DB0531
:103D8000D87CC0B270478023DB0500BA09BAD8607E
:103D90001961704737B5051C0424291C221C68468C
:103DA00004F04AFE2919221C01A804F045FE0099DE
:103DB00080230ABADB05DA6001990ABA1A6137BDB5
:103DC00040BA80B2704700BA70470023114A1249C6
:103DD0009A188A4204D21149C95804331160F5E790
:103DE0000F4B104A191D043B934203D200221A6064
:103DF0000B1CF6E70C4B0D4A1360EFF308820433FB
:103E0000191D043B9A4203D9094818600B1CF7E7B7
:103E10007047C0463C000020BC030020108C00000E
:103E2000C00300205C100020A4100020841000209B
:103E3000CDCDCDCDF0B5294D89B029482C6800F005
:103E4000EDF8FFF7ADF80026264FBC4222D28037AE
:103E50003B1B2027832B00DC9F1002A9FAB2012311
:103E600000204A708A70BF10221C0B70CB708880B3
:103E700001F060FD231C3A1C013A08D3002E04D146
:103E800019491868884200D01E1C0433F4E7BF00AB
:103E9000E419D9E72B6804A9F31A00250193042338
:103EA0000124CB70281CA72301AA8D800C704C70B4
:103EB0008C700B71843701F03DFD06A90420C87099
:103EC000A823BE1B281C01AA8D8001960C704C7083
:103ED0008C700B7101F02EFD09B0F0BD8410002034
:103EE000801A060080370020CDCDCDCD024B1B6857
:103EF0000633D87F7047C046D801002070B5051C36
:103F0000FFF7AAFC0A4B1C68A31DDB7F9A00AD18C3
:103F10000022511ED218002A09D0E2185218263267
:103F20001278920016588A00AE500A1CF1E770BD54
:103F3000D801002030B50B4B1B689A1DD27F94002E
:103F40001C195300C01800230133D11A013107D0C6
:103F50009D00651B883559002D6849424552F3E79D
:103F600030BDC046D8010020A02382B080B2DB055E
:103F7000D88502B07047A023DB05D88D82B002B08F
:103F8000704770B5051CFEF761FF0468061C013C14
:103F900008D37268E300D3181A68AA42F7D15B68A5
:103FA0009847F4E7014B013D1D6070BD7010002083
:103FB00070B5051CFEF74AFF8468061C013C08D357
:103FC000F268E300D3181A68AA42F7D15B689847F1
:103FD000F4E7024B013D1D6070BDC046701000202B
:103FE00038B5A023DB0599689D68C943E623C9B2AB
:103FF0005943084B041CC918074804F09DFC064BA4
:10400000ED035843ED0F01352841211C04F094FCC9
:1040100038BDC0465C5D000040420F0038B5A023AB
:10402000DB0599689C68C943E623C9B25943064B2E
:10403000051CC918054804F07FFC6843E403E40F3D
:104040000134204138BDC0465C5D000040420F0095
:10405000002801D0133907E0122902DD262902DDEC
:104060001239491000E000E0081C7047F0B5E24B3F
:10407000B1B01B680293DC79002C00D187E1533387
:104080001B780021133BDBB21322081C9A424841E3
:10409000C4B20594022609AC361A1422201C04F07E
:1040A0000DFD029D6F7A02982B1ABB4210DA2B1C71
:1040B000533319780598FFF7CBFF132800D9CEE3C7
:1040C000235C0135B34200DBC9E301332354EAE743
:1040D000CA4B00251B68291C049363331D70049B85
:1040E000882266331D700EA804F0E8FC291C1422F7
:1040F000201C04F0E3FCC24B0EA81968442288314E
:1041000004F09AFC022E04D11FA80EA9442204F048
:1041100093FC0025029C0395029D6B7A671B01347A
:104120009F4234DA231C52331D780598291CFFF76F
:104130008FFF09AA115C6E118C4606961121664606
:104140007143069E0EAB89191F26354006310126A4
:104150008900AE40351CCE583543CD50049D3F23D9
:10416000E919061C1E40583106968F796646B5013E
:10417000069E9F433E431E4063460133039F2E43EA
:10418000DBB28E7113549F42C6DA0393C4E7049BDB
:10419000039E0027F6B2653306961E7004970297B9
:1041A0000597954B059E1A68937A9E4200DBA1E025
:1041B000059C1319583319780123081C20381D1C3D
:1041C00083408D409801039CAC468009002C18D098
:1041D000013C442363430EAD00265E55EB181D1CC5
:1041E0001F2905DC5F6A66461E62BB0E9B0606E061
:1041F0001E626F6A8301BE0E9B09B60633436B6273
:10420000E4E77E4B527A1968231C934210DAC818EF
:10421000583085794426A806AD097543049F800E61
:10422000281801370EADFF18281807710133ECE785
:10423000734B049E1B68B6181A1C8A328933177890
:104240001D78FF06AD060496FF0EAD0EFEF730FE9C
:10425000002813D06B4E882031780137C9B204F0A2
:104260006BFB31784743C9B2882004F065FB023507
:104270004543013F023D0026781C03D03E1E1F2E01
:1042800000DD1F263F2D01DD3F2502E0EB43DB175C
:104290001D40029944274F435B4ABF1803998C4243
:1042A0001EDA4422111C61430EAB5918301C1F2327
:1042B00018400790887801349843031C07980343FB
:1042C0008B70281C3F231840079048789843031CA4
:1042D000079803434B70381C04F0AEFB4437DDE70E
:1042E000CB43029C059DDB170B40E418013502947B
:1042F000059556E7414B029F1C68FBB2211C6431B7
:104300000B70CB70069D00238B7105310D70517AB7
:104310000EAA8B420FDAE018583085794426A80699
:10432000AD097543049F800E28180137FF18121835
:1043300017710133ECE7029F44237B439A1A1AAEAC
:1043400004920025039FBD4218DA44276F430EA84C
:10435000C719786A0021820E920639627A62301C8F
:10436000142204F0ABFB0499284A013588188019FF
:10437000391C442204F060FB4436E3E7FB43DB17BF
:10438000029D3B40EB186834039323700DE01B4DF6
:10439000211C28680422633004F090FB2868211C4B
:1043A0006730042204F08AFB0394134B00211C683D
:1043B0001322E37A0E1C133BDBB29A424E41F7B252
:1043C000059709A802271422BF1B04F077FB667922
:1043D000251C2B1BB3421BDAE97A0598FFF738FE40
:1043E000132800D93BE209AB1A5C0135BA4200DB65
:1043F00035E201321A54ECE76C100020D80100209D
:10440000681000205400020000800050D07F00504F
:10441000A34D03982E680122331C6B331870DA7099
:10442000002188220EA804F049FB0021142209A8CB
:1044300004F044FB9B4B0EA819684422443104F05D
:10444000FBFA022F04D11FA80EA9442204F0F4FAAB
:104450000027251C04972F1B0697637901359F427F
:104460003CDAAF7A0598391CFFF7F2FD09A9095C1F
:104470000EAB0291029A44215143091859182A1B84
:104480000A71791109AA0791115C11225143079A07
:1044900089188A1D1F210F4001219200B9400F1C6D
:1044A000D1580F43D750069F3F23F219011C029F9A
:1044B00019400691BF0151780797069F99430F4312
:1044C00007991F40029B0F4357700133049FDBB2D3
:1044D00009AA13549F42BEDA0493BCE7049C6D36CC
:1044E000E4B201250694347002956F4A029B166867
:1044F000013BB279934200DB82E0F6182836F2796C
:104500000121101C20380E1C814096408901049D19
:10451000B4468909002D18D0013D44246C43029F04
:104520000EA827540419201C002626622030476854
:10453000BE0EB60646601F2A02DC60462062E9E72E
:104540008C01A40926434660E4E7564A1268D31852
:1045500045321478FF33A4065E7FA40EFEF7A8FC54
:10456000002812D0514F882039780136C9B204F0A2
:10457000E3F939784643C9B2882004F0DDF9023402
:104580004443013E023C711C03D0351E1F2D00DD4B
:104590001F253F2C01DD3F2402E0E343DB171C40D5
:1045A000039E039F079644267E4341483618039F87
:1045B0000798391A049FB9421EDA442251430EABC0
:1045C00059188F781F239F43281C18403B1C034316
:1045D0004F788B703F239F43201C18403B1C039F48
:1045E00003434B703B2F00DD39E1301C013704F0F1
:1045F00023FA44360397DAE7029C0134029474E705
:10460000274B039D1C68029F221CEBB26C32137077
:10461000D370231C069DFFB272331F70013B1D70C7
:1046200009A8002114220297002504F047FAA31DCF
:10463000DD7773799D423DDA7319DF7A0598391C6D
:10464000FFF706FD09AB1B5C0493002B0BD1A31DE8
:10465000D97F4A1C6118DA770731EBB20EAACB7703
:10466000013311180B710EAB1A18127961199446A7
:1046700001225242944462463A310A7079111F2253
:1046800017400631012294468900BA40171CCA58C7
:1046900065441743049ACF50624409AB1A54C8E7E3
:1046A000D8010020681000206C1000205400020087
:1046B00000800050D64B1B6845331C78A406A40E1E
:1046C000FEF7F6FB00280AD0D24B88201978023476
:1046D000C9B204F031F944430023023C03D4231E41
:1046E0003F2B00DD3F230EACA2781F218A43617867
:1046F000A2703F229143666A1340029D0B43637090
:10470000B30E25709B06002563621AA8291C14228B
:10471000256204F0D3F9039F3B2F00DD9FE0442086
:104720007843BD49442240180137211C04F084F924
:104730000397BA4F03983E68C7B2331C70331F709B
:104740000D3B1B78321C7732311C137057706F3160
:1047500009780B3A5173311C7B3197730B701278C7
:10476000331C7C33301C1A707D30022204F064F953
:10477000AB4B13221B68291C0293DB7A201C133BD2
:10478000DBB29A426941CAB206920222521A331C23
:10479000733304920122DA701F70291C882204F0FE
:1047A0008DF9291C142209A804F088F9984B201CC3
:1047B0001968442204F040F9049D022D04D11FA879
:1047C000211C442204F038F9029C00270497029F20
:1047D000029DE71B05976B7901349F4238DAA57A71
:1047E0000698291CFFF734FC09A90F5C4421794382
:1047F000029A0EAB09185918A21A0A71691109AA6E
:104800000791115C11225143079A89188A1D1F21B3
:104810000D4001219200A9400D1CD1580D43D550E7
:10482000059D3F2372195178051C99438C46B901A7
:104830001D40059161460D431D40059B01371D43F9
:104840005570FFB209AD2F54049DBD42BFDABDE7DC
:10485000331C049E753300271E70029701E0002070
:10486000D4E0049A002A14D0013A442151430EA8FE
:104870004118CE6A00204D6A08628862B00E800638
:10488000CB78AC0EC8622020A40603434C62CB70E8
:10489000E8E7634B029A1F68B879BC460590029C12
:1048A000059D131BAB4247DA029C61460B1B9B180C
:1048B0002F33187851100123061C1940203E1F1C6D
:1048C000E5B20791B3400499069587401E1C002964
:1048D00030D0013944234B43029C0EAD01345C556A
:1048E000069CEB18079D64B20194AC420FD01F28C0
:1048F00003DC1C6A3C431C62E9E75C6A251C354307
:10490000AD01A40EAD09A4062C435C62DFE71F28AD
:1049100003DC9C6A3C439C62D9E71C1CDB6A334382
:104920009B019B090193E36A9D0E019BAD062B43FE
:10493000E362CCE70132B2E7354B1B685A195D7868
:10494000FF32AD06577FAD0EFEF7B2FA002813D046
:10495000304C882021780137C9B203F0EDFF21786F
:104960004743C9B2882003F0E7FF02354543013FC2
:10497000023D00247E1C03D03C1E1F2C00DD1F24A2
:104980003F263F2D02DCEE43F6172E40039F4425C1
:104990007D43214805972D18039F0598391A049FD8
:1049A000B9421FDA442251430EAB59188F781F23A6
:1049B0009F43201C18403B1C03434F788B703F23C0
:1049C0009F43301C18403B1C039F03434B703C2FFC
:1049D00000D144E7281C04F02FF8039F4435013729
:1049E0000397D9E7029C01340294022C00D038E7E7
:1049F0000A4B039D1B68EAB2191C7431181C0A701B
:104A0000733000788033C8721A70012031B0F0BD65
:104A1000681000205400020000800050D8010020DF
:104A20006C100020F8B5164D061C2B68002463336B
:104A30001F782B68E1191A1C6432127801349142F4
:104A400009DAE319442058430E4B311CC0181422D4
:104A500004F034F8EDE76B331F7800242B68E2197B
:104A60006C331B7801349A4209DAE3194420584325
:104A7000044B311CC018142204F020F8EEE7F8BDF6
:104A8000D8010020EC7F0050F0B5374B85B01B6893
:104A900002901A1C039163321578344A0020116881
:104AA000041C8A7A94422BDA021C4F7A161ABE42F0
:104AB0001FDA9E195836B679B7090096EF194426C1
:104AC0007E432B4FB4463E1C009F66440196BE06B3
:104AD000039FB60EB446BE5C3F2E00DD3F26F6B205
:104AE0000096019E0132371C6744009E30373E70AD
:104AF000DBE7181C6530007801342D18101CD0E756
:104B00001A1C6B32147800208A79904229DA00222C
:104B10004D790195AA421EDA9E187678B709E719F1
:104B2000039744273D1C039FB6067D43AC46104DBA
:104B3000B60E2F1C019D674445430397029FBF1883
:104B40007D5D3F2D00DD3F25039FEDB2BE19303660
:104B500035700132DCE71A1C6D3212780130A4186E
:104B6000D2E705B0F0BDC046D80100206C1000208F
:104B700000800050F0B5A24B95B01C686846A37940
:104B8000627900AF5A43131C0E33DB08DB00C01AF6
:104B900093000E33DB08DB008546C01A6D46854660
:104BA000FD616D463D61E3792726191C0E319B009E
:104BB000C9080E33C900DB08401ADB008546C01A5D
:104BC0006D468546BD6100216D46F869FD6003F0C4
:104BD00075FFA379627900215A433869920003F086
:104BE0006DFFE2790021B86903F068FFE279F868A7
:104BF0009200002103F062FF0023F3552722D05DCD
:104C00007F4E3E2800D9C8E0FFF70CFF0020FEF7DA
:104C1000D1FE2721C95D30687961002283799A42EB
:104C200035DA00234179541C8B422EDA161C4E4390
:104C30009E198D1CBE600126AC4631406144614323
:104C40008919C9188D006F493E696D182D687D60FE
:104C5000BD68AD00A9597D68A94214D27D69FE697D
:104C6000B9687554417901258E1C0D4075196C4346
:104C700051430134E418634EA400A4192468591860
:104C80003D6989004C510133CCE7221CC6E7FEF791
:104C900091FD5B4B27261B68F65D002278613B6027
:104CA000BE607A603D687E68AB7A9E421CDAFE6820
:104CB000940035197E69111C3419002338685A187C
:104CC000407A83420CDA9A00A858A658B04205D21E
:104CD000BE69B8687618F054A658AE500133EDE7B7
:104CE000796801317960DDE7012529212A22002434
:104CF000CD55D55528202B23391C3A1CC555DD55DB
:104D00002C261D23201C28312732BC85F35500F0AA
:104D100011FE3B4E3C633368BC869A793020C25505
:104D20005B7931211A1CCB552A400233D31833202A
:104D30003222D355C25D7F218A43042002433321AE
:104D4000CA5531499B0051223420C2555A18391C8A
:104D5000201C303100F0EEFD33683822BC63BC8784
:104D6000D555DB793B2039253A26F355EB55C35D04
:104D70007F218B4304221343C519391C2B70201C3F
:104D80005A2338313C267A69F35500F0D3FD2720A9
:104D9000C35DC11901330B7030E7391C4031002469
:104DA00033683C648C809A797F250A705B79FA6954
:104DB0004B708B70CB780820AB4301252B43CB7015
:104DC0001D230B7100F0B6FD391C48313368BC64FB
:104DD0008C800D70DB797F264B708B70CB78BA6935
:104DE000B3431D4308201E230B71CD7000F0A2FDBC
:104DF000F869B969FFF748FEBD4615B0F0BDC04679
:104E00006C100020004000500440005044235843E0
:104E1000044B111CC018C2780F2319409A430A434F
:104E2000C27070470080005038B5051C141CFEF796
:104E30003FF8002808D00A4B882019780234C9B2FC
:104E400003F07AFD4443023C44206843054A3F2373
:104E5000801802781C409A431443047038BDC04641
:104E6000540002000180005010B5041CFEF720F829
:104E7000002808D0084B882019780434C9B203F000
:104E80005BFD4443043CA023DB05198A1F22144028
:104E900091430C431C8210BD5400020030B50F4BEF
:104EA0001B689979884203DA1B182833D87914E0F3
:104EB0005A798D18411AA84202DA5B18D87A0CE0A8
:104EC0009C7A8A1A2D19A84203DA9B18583318784D
:104ED00003E0141B1B195033D87830BD6C10002030
:104EE000F0B5DA4D99B02B68A02459799A7900AFC2
:104EF0008A18597A9B7A5218D3181A1C5A43E40517
:104F0000A668BB62D31DDB08DB006846C01A854675
:104F10006B46FF21BB6103F0D1FDFF20FFF77EF858
:104F2000CB496A46081AF860B86AF6B2C000031C9A
:104F30000E33DB08DB00D21A9546BA6A786192001C
:104F4000131C0A33DB086846DB007862C01A85460A
:104F50006B463A613B6200220023BA63FB63BD4BA0
:104F6000E2681340E3602B685C79B84B013C1B6836
:104F7000611C14D01B19381CD97A5830202203F038
:104F80003DFDB86D60218300C919CB18FA6D283B2F
:104F90000121186891400A1C02431A60E5E79C79D8
:104FA000AA4B013C1B68621C15D01B192833381C06
:104FB000D9795830202203F021FDBA6D602093008A
:104FC000C019FA6DC3180121283B91400A1C1968C9
:104FD0000A431A60E4E75C7A9C4B013C1B68611C45
:104FE00015D01B195033381CD9785830202203F0C3
:104FF00005FDB86D60218300C919CB18FA6D283BF7
:105000000121186891400A1C02431A60E4E79C7A67
:10501000013C621C17D08D4B381C1B6858301B1983
:1050200058331978202203F0E9FCBA6D6020930010
:10503000C019FA6DC3180121283B91400A1C196858
:105040000A431A60E4E7FF239E1BE6235E43824C7B
:105050003419BC60BC69FC6100247C637C6BB86A59
:10506000844200DBE1E000217A69786A03F026FDE2
:10507000A02400213A69386A03F020FDE4050023EA
:105080002363636B9B0E9B066363BD6BA563F86B29
:10509000F862E36B86019B0EB6099B063343E3631C
:1050A0006420FEF7BBFFFDF77BFF786BFFF7F6FE92
:1050B000C1B2381C5030202203F0A0FCB96BFA6B4F
:1050C0007B6D39647A643A6D0121994060200B1C34
:1050D000C01991004118081C203802689A430260E8
:1050E000386D131C00280AD028390A6853409A01E9
:1050F000636B92099B0E9B061343636301E06B4055
:105100002363A024E405A563E36B0A209B0E9B06A2
:105110001E43E663FEF782FFFDF742FFE26B80234A
:10512000DB041343E363396CFA6A4D40A5637B6C7F
:1051300001265A40E36B92019B0E92099B06134392
:10514000E363FEF7CBFD7C6C3D6C7B6AA446434A6F
:10515000FC689168A14214DB414A644610685268B9
:10516000284022405C68944203D3F0D11C688442FA
:10517000EDD23C6ADA60B2009860A1500136083383
:10518000E5E7FEF7D5FDA023DB05D96B354A0A40DC
:10519000DA63012E41D0741E786AE4000419013EDE
:1051A000002E3AD0231C083B1A6821685B689143A3
:1051B0006268BD6A9A43B300B964FA64013DFB6258
:1051C0007A6B954227D0281CFFF768FE011C381C1B
:1051D0005830202203F012FCFB6D0122B86D9A407A
:1051E0006021131CC91982008A18183A12681A42E1
:1051F0000FD0FB6A3A6AB968D258154B1A489B1A05
:105200003B6303F099FB011C386B03F047FBF96922
:105210004855013DD4E7083CC1E77C6BB86A0134CE
:105220007C63FC692418FC6118E7C3B2381C583051
:105230000370437083700023C3700371B969012345
:10524000437100F0E7F8BD4619B0F0BD6C100020C6
:10525000FFFFFF00FFFF0FFF5C5D000010E000E0BC
:1052600040000050FFFFFFFB40420F00014B186061
:105270007047C04678100020014B18687047C04640
:1052800078100020014B18607047C0467410002051
:10529000014B18687047C04674100020014B186815
:1052A0007047C046DC010020F7B5334F73467146A6
:1052B000381C0193FEF765FEFBF798FC009001F0A7
:1052C00097FA061CFDF7D0FD2C4D1022041C009906
:1052D000286803F0B1FB32882B68381C1A74120A54
:1052E0005A74B2889A74120ADA74254A126805321E
:1052F000D27F002A03D0A2791A75627902E062791E
:105300001A75A2795A75E2799A751E4A6B681288E5
:105310001A70120A5A701C4A52889A70120ADA706D
:105320001A4A52881A71120A5A71194AD2889A7105
:10533000120ADA71174AAB68920A1A70164A920A70
:105340005A70164A920A9A70154A920ADA70154AE9
:10535000920A1A71144A920A5A71144A920A9A715C
:10536000134A0199920ADA71A023DB05DA7C6B6992
:105370001A70FEF71DFEF7BD49520000E001002043
:10538000A8030020FE030000FC8F0000FCAB00001F
:10539000F8BF00000000000000040000000400004E
:1053A000009000000090000000AC000000AC000085
:1053B00000C00000F7B50A4C7146061C201C75465B
:1053C000FEF7DFFD074A694681CA81C16B46B60018
:1053D000F658201C291CFEF7EBFD301CFEBDC04614
:1053E00055530000F88A000070B5084C7146201C27
:1053F0007646FEF7C6FD064B201CDB69311C5D7846
:10540000EDB2FEF7D5FD281C70BDC04689530000E3
:10541000E0010020F8B5144D041C0F1C281C714637
:105420007646FEF7AEFD114BFF215A6A1170104906
:105430009C620F60A0782778596B474320793F180A
:1054400060794006400E784308609869A021017099
:10545000D969281C1378FF2B02D10B78022BF9D0C5
:10546000311CFEF7A5FDF8BDB5530000E00100209A
:10547000D404002038B50D4C7146201C7546FEF74B
:1054800080FD0B4AD1694B780A49DBB20B72012BC4
:1054900005D0022B05D1936901225A7001E0FDF776
:1054A0005BFE291C201CFEF783FD38BD155400004F
:1054B000E0010020D404002038B50D4C7146201CBA
:1054C0007546FEF75EFD0B4BDB68002B0BD00A4ADE
:1054D000DBB2106C7F2119404832017093700133A8
:1054E0005370FFF7C7FF291C201CFEF761FD38BD74
:1054F00059540000D4040020E001002038B50C4CC1
:105500007146201C7546FEF73CFD0A4B1B7A012BA9
:1055100006D0022B06D1084B00229B695A7001E08D
:10552000FDF72CFE291C201CFEF742FD38BDC046AD
:105530009D540000D4040020E0010020F7B5254E62
:105540007346301C71460193FEF71BFD224C00256B
:10555000224E337A012B07D0002B25D0022B24D1E9
:105560001F4B9B695D7820E0FDF718FE051C002CA1
:105570000CD1FDF703FE2E23FF33013B002B01D09E
:10558000C046FAE7FDF7E8FD134C0BE0124A9442DF
:1055900008D0002806D12E23FF33013B002B01D079
:1055A000C046FAE7013C00E01D1C0D4FFA69537834
:1055B000327A9A4206D0FFF7A1FFFB69074A5B786F
:1055C000137201E0002DC3D102480199FEF7F0FCEF
:1055D000F7BDC046DD540000FFFF0000D4040020EA
:1055E000E0010020F7B5164D7346071C0E1C281C61
:1055F00071460193FEF7C5FCFFF7A0FF114C802216
:10560000236C52421978606C0A431A70391C321CA0
:1056100003F012FA236CF6B218787F229043311C03
:105620001140021C0A431A704834A670FFF722FF8B
:10563000FFF784FF281C0199FEF7BAFCF7BDC046AE
:1056400085550000E0010020F7B5184D7446071C91
:105650000E1C281C714600920194FEF792FCFFF785
:105660006DFF134C8022236C52421978606C0A4300
:105670001A70391C321C03F0DFF9009B03225A43D5
:10568000236C02321E78D2B27F21101C8E43084058
:10569000311C014319704834A270FFF7EBFEFFF78D
:1056A0004DFF281C0199FEF783FCF7BDE95500006A
:1056B000E0010020F8B5FBF799FA01F099F8FDF741
:1056C000D3FB194C656B03F027F86860FFF7ECFD1E
:1056D000164DE36B2A681088020A5A711871FFF799
:1056E00069FEE36BC6B29E712B6801365F680337B3
:1056F0004743381C00F0E9F93A1C0021051C2064DE
:1057000003F0DCF9231C4833013500225E70656428
:105710009A7002F0FBFF064B5860A023DB059A7CD1
:10572000E36C1A70F8BDC046E0010020781000203C
:10573000D4040020024BDB691878C0B27047C04621
:10574000E0010020024BDB699878C0B27047C04688
:10575000E0010020014BDB6998707047E0010020F8
:10576000024BDB69D878C0B27047C046E001002028
:10577000014BDB69D8707047E0010020014BDB6909
:1057800058687047E0010020024BDB695A68586096
:105790007047C046E0010020024BDB69187AC0B2B6
:1057A0007047C046E0010020014BDB69187270476A
:1057B000E0010020024BDB69587AC0B27047C04656
:1057C000E0010020014BDB6958727047E0010020C6
:1057D000024BDB69D87AC0B27047C046E0010020B6
:1057E000014BDB69D8727047E0010020024BDB6996
:1057F000987AC0B27047C046E0010020014BDB69D7
:1058000098727047E0010020024BDB69187BC0B240
:105810007047C046E0010020014BDB6918737047F8
:10582000E0010020024BDB69587BC0B27047C046E4
:10583000E0010020014BDB6958737047E001002054
:10584000034BA0229B691A701A78A02AFCD07047DB
:10585000E0010020034BC2B29B691A701A788242A1
:10586000FCD07047E0010020014B5B6A1870704764
:10587000E0010020024B5B6A1878C0B27047C04656
:10588000E0010020014B1B68188870477810002049
:1058900008B5FFF753FE024B0022DA6008BDC04690
:1058A000D404002070B5074B074CDA6BE668011C86
:1058B0009579586C2A1C8019751903F0BDF8E560BC
:1058C00070BDC046E0010020D404002073B56C46D2
:1058D000E271164A0734556D2E78864224D1FF2096
:1058E00028701366131C94331B6820789B68800013
:1058F0009165D46518710E4B06980C7818608878FD
:10590000536B60430C79497900194906490E4143AC
:1059100019609169A0230B70516DD2690B78FF2B30
:1059200002D11378002BF9D073BDC046E0010020EE
:10593000D404002070B5144C636B1D79EDB2012DB9
:1059400021D1854058781E78000230439E78360475
:105950003043DE7836063043284214D0FF201871D9
:105960000A48A16302608C780D78C9786C434906B7
:10597000490E074A6143506B9269016077211170AB
:105980001A79FF2AFCD070BD60020020D4040020E8
:10599000E0010020014BDB6B1878704760020020AB
:1059A000014BDB6B1870704760020020014BDB6B12
:1059B0005878704760020020014BDB6B58707047CD
:1059C00060020020014BDB6B98787047600200207A
:1059D000014BDB6B9870704760020020014BDB6B62
:1059E000D878704760020020014BDB6BD87070479D
:1059F00060020020002303600B601B4BF7B59A4246
:105A000030DC1312194C122B1BD89B00E418646E67
:105A1000002C27D0E368013B5D1C23D0D5B2019553
:105A200065681E1CEF5C019D013BED1BF4D42768EB
:105A3000B300DB59002B15D05B190360A3689B5D95
:105A40000EE0A36B266B013B0CD35D00755B551B11
:105A5000F9D4E66A9B00F25852190260626BD3587F
:105A60005D1B0D60F7BDC046FFEF0000E0010020A8
:105A7000C02208B5D2000B4B904206D19B691A7820
:105A8000052A0DD005221A700AE01B6C84221B78AF
:105A900092005B065B0E9B18984201D1FFF72EFD2A
:105AA00008BDC046E001002038B5051C1C1C181CB0
:105AB0008D4209DB0498954206DAC01A6D1A6843D4
:105AC000511A02F039FF201838BD044A0330136818
:105AD0008010800018181060181C70478410002077
