:40000000021C5E020009222222323202000AE4F5A975AAFF75AB0375801F2202002EE4F5FA75F91843F90443E8022202002F32323232320200303200000000020031000090
:4000400000000002003200000000000200360000000000020C05EC4D6011E8497017ED33EC3304600DE4FCFFFEFD22E933E8330470F802031F1202EA58046009E4CC248114
:400080005006285009020329284003020326C0E0EB4A7044B98006D0E0FB020315EF4E701CBD8008EBFFEAFEE9FD80EBE98DF0A4FEE5F002013FE9CDF9EAFEEBFFEF89F0DF
:4000C000A4FCE5F0CE89F0A42EFFE435F0CD89F0A42DFEE435F08067EF4E7005BD80D780C3EF8BF0A4ACF0EE8BF0A42CFCE435F0F8EF8AF0A42CE5F038FCE433CB8DF0A437
:400100002CFCE5F03BF8EE8AF0A42CFCE5F038F8E433CF89F0A42CFCE5F038CF3400CE89F0A42FFFE5F03EFEE433C98DF0A42EFEE5F039CD8AF0A42FFFE5F03EFEE43DFD6E
:4001400033D0E0FB50070BBB000F020329EC2CFCEF33FFEE33FEED33FD020301020329EC5D046005E85904700302031F1202EA580460F6EC4860F2EC7004FDFEFF22C8603A
:40018000DB2481C85009C398600250060203269850CAF582E9294B4A7005AB8202031575F0007C1A7880C3EF9BEE9AED99400DC3EF9BFFEE9AFEED99FDE842F0DC23ACF02F
:4001C000D0E0FFD0E0FED0E0FDAB8220E7101BEB60BAEC2CFCEF33FFEE33FEED33FD020301E803F830E705C0F075F000EF2FFFEE33FEED33FD40B830E7C280AA74F8CC6416
:4002000080CCC86480C8F58204604FC3EB9FF5F0EA9E42F0E99D42F0E89C45F0603C501DE5825FFFE582D313CB5BCBF42B5582FB50280ABA002409B9002008801DE5825BD1
:40024000FBE582D313CF5FCFF4C3132F5582FF50090EBE00050DBD00010CC3EB9FF5F0EA9E42F0E99D42F0E89C45F06007CC4820E701B3EC2275F020800E75F01080057546
:40028000F0087D007E007F003392D530D5031204DDEC334010EF33FFEE33FEED33FDEC33FCD5F0ED22E5F0247EA2D513CC92E7CDCEFF22EDD2E7CD33EC3392D52481400663
:4002C000E4FFFEFDFC22FCE4CFCECDCC24E0501174FF80EDC3CC13CCCD13CDCE13CECF13CF0470F030D5DE0204DDE9D2E7C933E833F892D5EDD2E7CD33EC33FC5002B2D550
:4003000022EC30E7100FBF000C0EBE00080DBD00040BEB6014A2D5EB13FCED92E7FD2274FFFCFDFEFF22E480F8A2D574FF13FC7D80E480EFE709F608DFFA8046E709F20805
:40034000DFFA803E88828C83E709F0A3DFFA8032E309F608DFFA8078E309F208DFFA807088828C83E309F0A3DFFA806489828A83E0A3F608DFFA805889828A83E0A3F20821
:40038000DFFA804C80D280FA80C680D4806980F28033801080A680EA809A80A880DA80E280CA803389828A83ECFAE493A3C8C582C8CCC583CCF0A3C8C582C8CCC583CCDF11
:4003C000E9DEE7800D89828A83E493A3F608DFF9ECFAA9F0EDFB2289828A83ECFAE0A3C8C582C8CCC583CCF0A3C8C582C8CCC583CCDFEADEE880DB89828A83E493A3F20899
:40040000DFF980CC88F0EF60010E4E60C388F0ED2402B4040050B9F582EB2402B4040050AF232345822390038473EF8DF0A4A8F0CF8CF0A428CE8DF0A42EFE22BC000BBE8B
:400440000029EF8DF084FFADF022E4CCF875F008EF2FFFEE33FEEC33FCEE9DEC984005FCEE9DFE0FD5F0E9E4CEFD22EDF8F5F0EE8420D21CFEADF075F008EF2FFFED33FD46
:400480004007985006D5F0F222C398FD0FD5F0EA22C2D5EC30E709B2D5E4C39DFDE49CFCEE30E715B2D5E4C39FFFE49EFE12043CC3E49DFDE49CFC800312043C30D507C3F6
:4004C000E49FFFE49EFE22C5F0F8A3E028F0C5F0F8E582158270021583E038F022C3E49FFFE49EFEE49DFDE49CFC22ECF0A3EDF0A3EEF0A3EFF022A8828583F0D083D08288
:4005000012050E12050E12050E12050EE473E493A3C583C5F0C583C8C582C8F0A3C583C5F0C583C8C582C822A42582F582E5F03583F58322EF4E6012EF60010EEDBB010B1F
:4005400089828A83F0A3DFFCDEFA2289F05007F709DFFCA9F022BBFEFCF309DFFCA9F02275F008758200EF2FFFEE33FECD33CDCC33CCC58233C5829BED9AEC99E58298406F
:400580000CF582EE9BFEED9AFDEC99FC0FD5F0D6E4CEFBE4CDFAE4CCF9A88222B800C1B90059BA002DEC8BF084CFCECDFCE5F0CBF97818EF2FFFEE33FEED33FDEC33FCEBEA
:4005C00033FB10D703994004EB99FB0FD8E5E4F9FA227818EF2FFFEE33FEED33FDEC33FCC933C910D7059BE99A4007EC9BFCE99AF90FD8E0E4C9FAE4CCFB2275F010EF2FDB
:40060000FFEE33FEED33FDCC33CCC833C810D7079BEC9AE899400AED9BFDEC9AFCE899F80FD5F0DAE4CDFBE4CCFAE4C8F92290029AE064AA6002E14112164C6002E14190A6
:40064000029B1215B690029D12163690029DE0540F90027FF090029E12161B90029EE05407900281F090029FE0900283F09002A0E0900284F09002A1E0900285F09002A2A3
:40068000E030E0047F0180027F0090028F12165330E1047F0180027F0090028E12165330E2047F0180027F0090028D12165330E3047F0180027F0090028CEFF09002A3E01D
:4006C000540F900286F09002A4E0900287F09002A5E0900288F09002A6E0FEA3E09002891215BD9002A8E0547F90028BF09002A2E030E4047F0180027F00900290EFF0907F
:4007000002A91215D39002ABE0900293F09002AC1215FC9002AEE0900296F09002AFE030E7047F0180027F00900297EFF09002AFE05403900299F09002B0E0900298F08035
:400740007790027CE4F0A3740CF0A37403F0A3F0A37401F0A37403F09002837408F0A37464F0A3F0E490028FF090028E04F0E490028DF090028CF09002867403F0A374211E
:40078000F0A37410F0A3E4F0A3740CF0A3741EF0E4900290F0A3F0A37414F0A37496F0A3E4F0A37403F0A3740FF0A37401F0900299F09002987420F0900281E0FF900280D6
:4007C000E02F900282F022900351EEF0A3EFF0900351A3E0F5CA90035112220FC333CE33CED8F912221DCEC313CE13D8F91221F743CD2075D101E5D130E2FB220000000070
:40080000E4900351F0900283E0FF900352E4F0A3EF120A59120B55120A33E0FEA3E0D394E0EE942E4010120A5A120B55120A33742EF0A374E0F0120A5A120B5D120A3312E2
:400840000A3D120B55120A33120BDAFFEC9EAD07FC90028DE0B4011EE508701AD374FC9DEC6480F874FF648098500BC3EC648094805003E4FCFDC3EC64809480500D900397
:40088000517401F0C3E49DFDE49CFCAB05AA04EAF5BBEBF5BA120A5A120B5D120A33120BA6F5BDEDF5BC43B90C43B901E5B930E7FB53B971AFB5EFFEADB47C00E42DFFEC85
:4008C0003EFE120A26EEF0A3EFF0900351E06401700E120A26120B89120A26EEF0A3EFF0900297E064017071E51130E1047F0180027F00EF7063E50870024125120A28C083
:4009000083C082120A61120A9FFFEE9CD082D083F0A3EFF0120A26C083C082E0FEA3E0FFE508120BAD120A33120A9FFFEE9CD082D083F0A3EFF090007FE064016002412576
:40094000120A26C083C082E0FEA3E0FFE509120A8B120A9FFFEE9C411DE50870024125120A66E0FEA3E0FFC3900353E09FEE6480F8900352E0648098503C120A26C083C06E
:4009800082E0FEA3E0FFC006C007900284120B21C004C005C006C007120A66120BA612027AD003D002D001D000120BE1C3D0E09FFFD0E09E411D900352120B89120A66126B
:4009C0000BDAEE6480F8EC648098E50875F040503C120A2BC083C082E0FEA3E0FFC006C007900285120B21C004C005C006C007120A66120BA612027AD003D002D001D00085
:400A0000120BE1C3D0E09FFFD0E09E8010120A2BC083C082120A61120A9FFFEE9CD082D083F0A3EFF022E50875F040A42420F582E43400F583E50975F00202052875F04059
:400A4000E0FEA3E0FFE508A422E50875F040A4243CF582E43400F583E4F0E50875F040A422E0FEA3E0FFE50925E02420F582E43400F583222434F582E43400F583E58225EF
:400A80001BF582E43583F58322E51B25E0242EF582E43401F58322E0FEA3E0FF9000C9E0FCA3E0FDC3EF9D222430F582E43400F583E0FAA3E0C39DEC6480F8EA64809822FF
:400AC000F583E4F0E51C75F040A422E51B25E0241EF582E43401F5832275F01EA424CBF582E43400F583222432F582E43400F58322E51B25E02491F582E43400F58322F537
:400B00008375F002E51B120528E4F0A322FFE51B25E024B1F582E43400F583EE8FF00204C7E0FCE412027FE4FBFA79C8784202015FE50825E02407F582E4340122E51B255C
:400B4000E0240EF582E43401F583222430F582E43400F583222410F582E43400222400F582E4340022243FF582E4340022E0FEA3E0FF900352E02FF0900351E03EF0051B98
:400B8000222433F582E4340022E0FEA3E0FFC3E49FFFE49EFE22243DF582E4340022243EF582E4340022E0FCA3E0FDEC22C454F024A1F582E43400229000C9EEF0A3EFF0FE
:400BC00022EC6480F8EE64809822E0FEA3E0FF7C0022F0051BE51B640822E0FCA3E0C39F221200560202B3900298E0FF900080E0229000C8E0FF9000C6E022900282E0FF44
:400C0000E509C39F22C0E0C0F0C083C082C0D075D000C000C001C002C003C004C005C006C007E5E430E455E5E420E102A17885E31A751701E51AB4151A24081220A6E0F59B
:400C4000E37409251AF582E43403F583E0900330F0A178E51AB41605900330801AE51AC3942850051220A2800EE51AC394805002A1781220AEF583E0F5E3A178E5E430E27A
:400C800029E517B40105751700801BE51AC3942850051220DF800AE51AC3948040081220AEF583E0F5E3051AA178E5E420E102A178E51AC3940F50051220DFA171741AD337
:400CC000951A5027E51A942150211220A2E5E3F0E51A641C6002A1761220A2E0D394965002A1761220A27496F0A176E51A640F70591220A2E5E3F0E51130E0047F00800254
:400D00007F01EF6401703B1220A2E0F5104311011220D8E51020E20C20E40920E30620E50330E705751208804DE51030E0057512028043E51030E10575120480391220D5D7
:400D400080341220A2E510F0802CE51AB47E05900307801FE51AB47F0B900306E5E3F01219BF8012E51AC39480400B7518011220AEF583E5E3F0051A75E2C0D007D006D06F
:400D800005D004D003D002D001D000D0D0D082D083D0F0D0E03290026AE0F8A3E0F9A3E0FAA3E0FB900032E0FEA3E0FFEE3395E0FDFCEB2FFFEA3EFEE93DFDE83CFC90021D
:400DC0006A1204EB900275E004F0C3940A5002C18DE0FBE4FAF9F890026AE0FCA3E0FDA3E0FEA3E0FF12212F900279EEF0A3EFF0E4900275F090026A1204F7000000009066
:400E00000278E0D394004003E014F0900293E0FF900276E0C39F403BA31222F5E0FCA3E0FDC390027AE09DFD900279E09CFCC3648094805007C3E49DFDE49CFCD390029247
:400E4000E09D900291E09C5010900296E0900278F08006900276E004F0900279E0FCA3E0FD9002771222F5ECF0A3EDF0900277E004F0C39F4002E4F0900278E090026EF06E
:400E800090027912230890026FF0EDA3F0122305900271F0EDA3F0900278E0D394004026900072E0FEA3E0FFD39400EE648094804014900294E0FCA3E0FDEF9DFFEE9C90EB
:400EC0000072F0A3EFF0122305900273F0EDA3F02290007CE064016002E194900080F0F51B120AF1E4F0A3F0051BE51BB408F290007FE064016002E1FFF51B120B3DE0FEE5
:400F0000A3E0FFE51B120A68120BDAFFEC9EFE120ACBEEF0A3EFF0120ACBE0FEA3E0D39400EE6480948040059002848010120ACBE0FEC3EE648094805036900285120B211D
:400F4000C004C005C006C007120ACB120BA612027AD003D002D001D000120BE1120ACB120A9FFFEE9CFE120A89EEF0A3EFF08007120A89E4F0A3F0120A89E0FEA3E0FFE534
:400F80001B25E0120BB0F583EEF0A3EF120BD26002C1FB22900080E004F0E4F51BE51B25E02460F582E43400F583E0FEA3E0FF120AF1120B1B120BE7FDC39F4034120AF13C
:400FC000C083C082120BCA120491D082D083EEF0A3EFF0120AF1E0FEA3E0FF900299E0FDEFA805088006CEA2E713CE13D8F8120B0D120BD370A7120BE7C39F4002E4F02250
:40100000E4FF90028FE064017036E51130E2047E0180027E00EE701490027CE0FCA3E0FD120A5A120AA8402A7F018026900289E0FCA3E0FD120A5A120AA840167F01801277
:4010400090027CE0FCA3E0FD120A5A120AA840027F0190028EE0B40113EFB4010F9000C8E0FE9000C7E0C39E5002E4FFEF64017069120A5A243CF582E43400F583740112FB
:401080000A59120B65F583E07048120A5A120B96F583E004FFF090027EE0FEEFD39E50022137120A5A120B65F5837401120A59120B96F583E4F0F51BE51B120A68E0FEA361
:4010C000E0FF120B3DEEF0A3EFF0051BE51BB408E722120A5A120B9E8011120A5A120B65F583E0700B120A49120B96F583E4F022120A5A120B9EF583E004FFF090027FE0F2
:40110000FEEFD39E4031120A49120B65120A56120B9EF583E4F0F51B120A89E0FEA3E0120B0D120B3DE4F0A3F0120A89E4F0A3F0051BE51BB408E12212147490029A74AAB0
:40114000F09002F37455F090027CE090029BF090027CA3E090029C12160D90029D1215E690029EF0900283E090029FF0900284E09002A0F0900285E09002A1F090028FE09D
:40118000B401047F0180027F009002A2EFF0E0FF90028EE0B401047E0280027E0012162FE0FF90028DE0B401047E0480027E0012162FE0FF90028CE0B401047E0880027EE7
:4011C0000012162F900286E0540F9002A3F0900287E09002A4F0900288E09002A5F0900289E09002A6F0900289A3E09002A7F090028BE0547F9002A8F09002A2E0FF90024F
:4012000090E0B401047E1080027E0012162F900291E09002A9F0900291A3E09002AAF0900293E09002ABF0900294E09002ACF0900294A3E09002ADF0900296E09002AEF02A
:40124000900297E0B401047F8080027F009002AF12165A9002AFF0900298E09002B0F02290027CE0900309F090027CA3E090030A12160D90030B1215E690030CF09002832E
:40128000E090030DF0900284E090030EF0900285E090030FF090028FE0B401047F0180027F00900310EFF0E0FF90028EE0B401047E0280027E00121628E0FF90028DE0B4F7
:4012C00001047E0480027E00121628E0FF90028CE0B401047E0880027E00121628900286E0900311F0900287E0900312F0900288E0900313F0900289E0900314F090028954
:40130000A3E0900315F090028BE0547F900316F0900310E0FF900290E0B401047E1080027E00121628900291E0900322F0900291A3E0900323F0900293E0900324F09002DC
:4013400094E0900325F0900294A3E0900326F0900296E0900327F0900297E0B401047F8080027F0090032812165A900328F0900298E0900329F0227F647E0012237B1200A8
:401380000E12217312180012239C1218E91222D5EF60FAE5126401600BE51264026005E512B40402816112230F1218E9120800E5086003121CEAE50B700F121A8BE50860B1
:4013C000051210008003121F03E50A6002816CE50B6002816CD3E5169400E51594004008E516151670021515122000900297E0B40111E51130E1047F0180027F00EF7003A9
:40140000120ED1E51130E1047F0180027F00EF602890028FE0B4012190007CE07018900288E0FF0513E513C39F400EE4F5137514017512028003E4F513E5126408702DE561
:40144000C830E7FB53C87C43F90453F9F7121E33E5126401600BE51264026005E512B40405121474618443F9081218E9850A08850B09618D9003091215B690030B1216366F
:4014800090030BE0540F90027FF090030C12161B90030CE05407900281F090030DE0900283F090030EE0900284F090030FE0900285F0900310E030E0047F0180027F00904E
:4014C000028F12166430E1047F0180027F0090028E12166430E2047F0180027F0090028D12166430E3047F0180027F0090028CEFF0900311E0900286F0900312E09002878C
:40150000F0900313E0900288F0900314E0FEA3E09002891215DA900316E090028BF0900310E030E4047F0180027F00900290EFF09003221215D3900324E0900293F0900366
:40154000251215FC900327E0900296F0900328E030E7047F0180027F00900297EFF0900328E05403900299F0900329E0900298F0229002B174A5F09002F2745AF078B27C19
:40158000027D017B017A0379317E007F2012040478D27C027D017B017A0079007E007F1012040478E27C027A0079407D017B017E007F10020404E0FEA3E090027C7C0024CA
:4015C00000FFEC3EF0A3EFF0227E027F9A7B5AE4FDFC22E0FEA3E09002917C002400FFEC3EF0A3EFF022540F4FF0900280E0540733333354F8FFA3E054074F22E0FEA3E05D
:401600002400FFEC3E900294F0A3EFF022F090027EE0540FC454F0FFA3E022E05438131313541F900280F022EF4E900310F022EF4E9002A2F022E054F0C4540F90027EF0B8
:4016400022F583E4F090027BE004F0229002F3E0645522EFF09002A2E022EFF0900299E054034F22EFF0900310E022E50870069000C6E004F0120BF16F7053E50860201222
:401680000AD9C083C0829000C5E0D082D083120A37120A97120BC140069000C7E014F0120B31F583C083C08275F01E120A40120ADDC083C0829000C5E0D082D083120A37AE
:4016C000120A9FFFEE9CD082D083F0A3EFF0120A5A120AE7E0FEA3E0FFE508120AD9C083C0829000C5E0FDD082D083120A37EEF0A3EF120A59120AE7E0FEA3E0FF120B318F
:40170000120B19E5086018120AD975F002ED120528120A97120BC140069000C7E004F0120BF1FEC39F4015120B31F583E0FCA3E0FD120A5A120B4BECF0A3EDF0E508B401C3
:401740001CEEC39F40069000C6E014F09000C8E0FF9000C5E004F0C39F4002E4F022E4F50AE4F50BE50A12206B12205FE4F0A3744BF09003511204F700000000E4F51E127F
:4017800018E9E5C830E7FB53C87D122076122052EEF0A3EFF0900351E0F8A3E0F9A3E0FAA3E0FB122052E0FEA3E0FFE4FDEB2FFFEA3EFEED39FDEC38FC9003511204EB05E1
:4017C0001EE51EC3940540B7E47B05FAF9F8900351E0FCA3E0FDA3E0FEA3E0FF12212F122052EEF0A3EFF0050BE50BC394085002E164050AE50AC394025002E1612200009A
:401800007511011222A7E4F5A8F5E812000612000712000812001E122368D2AF1223A6E512B4040612062E121260E51264016009E51264026003121F6BE51130E1047F0149
:4018400080027F00EF7013121B39121E9BE4900319F0A3F0A3F0A3F080031222861221B690028BE0900316F0E5126401700612238D122286E4F5125311FE1222A7E514B4AC
:40188000012B431104E511F0E4F5149002C0E0900319F09002C1E090031AF09002D0E090031BF09002D1E090031CF080065311FB1222A7121D5D900319E07004A3E060132F
:4018C00090031BE07004A3E0600990028BE030E702800EE51130E2047F0180027F00BF0104E4F51D22751D0222E50A602224FE600F1460111460132403701775C1028012B1
:4019000075C101800D75C108800875C110800375C104E50BB41000400221AA90192125E0732141214921512159216121692171217921812186218B21902195219A219F212F
:40194000A475CDFF75CCFF806175CDFF75CCFE805975CDFF75CCFC805175CDFF75CCF8804975CDFF75CCF0804175CDFF75CCE0803975CDFF75CCC0803175CDFF75CC8080B3
:401980002975CDFF802175CDFE801C75CDFC801775CDF8801275CDF0800D75CDE0800875CDC0800375CD80E4F5CCE50A12206B12205FE0FEA3E0F5CEEEF5CF43C80F22908B
:4019C0000306E0FF247C607214607B2484B410004002417D9019DE25E0500205837321FE410A4116413A4146415241674122412E417D417D417D417D417D417D41739003CE
:401A0000047400F0A374C1F0417D1220CC2410F582E4340080461220CC2400F582E43400803A1220CC2420F582E43400802E1220C424A1F582E4340080221220C424B2F59A
:401A400082E4340280161220C424D2F582E43402800A1220C42431F582E43403AD82900304F0A3EDF080169003047402F0A3746EF0800A9003047402F0A374F4F0EFC3944A
:401A800080400475180122E4F51822E4900351F0A3F0E5086058900280E0F51B900282E0FFE51BC39F501D120A5A120A6AC083C082120A5A120A74E0D082D083120A37127A
:401AC0000B6D80D8900281E0FD7C00900351E0FEA3E0FF120491120A5A120AE7EEF0A3EFF0900290E064017034120D96802FE4F51B120A5A120A6A75F002E51B12052812CF
:401B00000B6DE51BB408EA900351120BCA7D08120491120A5A120AE7EEF0A3EFF090028EE0B4010302166B120A5A120AE7120A3D120B4BEEF0A3EFF02212175EE4F51CE460
:401B4000F51BE51C122088E51B120528E0FCA3E0FDE412027A122099AB0FAA0EA90DA80C7F007E407D1C7C4612015F122099E4FBFA799678421200561220997F007EFF7DC3
:401B80007F7C47AB0FAA0EA90DA80C1201FC600E400C750F00750EFF750D7F750C47AF0FAE0EAD0DAC0C1202B3122069F58375F002E51B120528EEF0A3EFF0051BE51B641F
:401BC0000860026142051CE51C64026002613F227515017516F4E490010BF0A3F0A3F0900080F0F51CE4F51B120AC4120B55F583E51B120A37E4F0A3120AC3120B5D120A7E
:401C0000FF120AC3120A74E4F0E51CC454F02481F582E43400120AFFF0E51C120BAD120AFF120BD270C2120AC4120B96120AC0120B9E120AC0243CF582E43400120AC01230
:401C40000B65120AC0120B4BE4F0A3120AC3120AE7E4F0A3F0051CE51C6402708822787FE4F6D8FD75811F021CA5021377E493A3F8E493A34003F68001F208DFF48029E404
:401C800093A3F85407240CC8C333C4540F4420C8834004F456800146F6DFE4800B0102040810204080902354E47E019360BCA3FF543F30E509541FFEE493A360010ECF54B6
:401CC000C025E060A840B8E493A3FAE493A3F8E493A3C8C582C8CAC583CAF0A3C8C582C8CAC583CADFE9DEE780BE120BFB501C120A5A2434F582E43400F583E5822509121B
:401D00000A81E509F06055AF09A159120BFB404C120A5A120A6AC083C082120A5A120B81F583E5822F120A81E0D082D083120A37E0FEA3E0FF120A26120A9F120BC1501C70
:401D4000900282E0FF120A5A120B81F583E5822F120A81E509F0EF14FF121DC822E49000C5F0A3F0A3F0F51CE51C120B33F583E4F0A3F0F51BE51C120AD9120B01F0051BF4
:401D8000E51BB40FF0051CE51CB402DC900286E09000C8F0E51130E2047F0180027F00EF700590027C8003900289E0FEA3E0FF120BB8900287E0FD7C0012042A120BB87DA6
:401DC00064120491120BB8228F1BE51BC394014061120A5A120A6AC083C082120A5A120B81120A7BE0D082D083120A37120A3D120A6AC083C082120A5A120A74E0FDD082A1
:401E0000D083120A37E0FAA3E0D39FEE120AB84021120A5A120B81120A7BE0FF120A5A120A74EF120A59120B81120A7BEDF0151BA1CA22E510540CFFBF0C06751201531037
:401E4000F3E51030E2031223AFE51030E40312233FE51030E303122327E51030E5031220E9E51030E707C2821222AED282E51264016017E51030E005751202800DE51030CD
:401E8000E1057512048003E4F512E51270031220D5E4F510900317E510F02212239C1218E91222D5EF60FA120A5A120B55120A33120A3D120B5D120A33120B1B900351E0AD
:401EC000B4041E120A5A120B5D120A33C083C082120BCA7D0512043CD082D083EEF0A3EFF012230FE50A700FE50B700B900351E004F0C39405500B1218E9850A08850B09B9
:401F0000C1A122900030E0FEA3E0FFC3EE648094805003120B8ED3EF94CCEE64809480403CD3EF9499EE64809481401790010DE004F0D39403401190028CE0B4010A751234
:401F4000028005E490010DF090010CE004F0D3940340177403F090010B74C8F022E490010CF090010BE0600214F0225311FD900318E511F090029AE064AA704B12164C70C5
:401F8000469002B1E064A5703E9002F2E0645A7036431102900318E511F078317C037D017B017A0279B27E007F2012040478007C007A0279D21215AB78407C007D017B0197
:401FC0007A0279E21215AF22900351EEF0A3EFF0900351A3E0F5CA90035112220FC333CE33CED8F912221DCEC313CE13D8F91221F775D102E5D130E2FB221215C9021FC814
:40200000531DFE90007FE0B40103431D01E51DD3940040028001D39280900070120BA690031DF0EDA3F0A3E51DF0E4F51C120AC4120B4BE0FEA3E0FFE51C25E024C1F582A2
:40204000E43400F583EEF0A3EFF0051CE51CB402DC22E50A75F040A42410F582E43400F583E50B75F002020528E51CC454F02431F582E434032243F904AFD6EFFEADD57CDF
:4020800000E42DFFEC3EFE2275F040A42410F582E43400F58375F002228F0F8E0E8D0D8C0C227408251AF582E43403F58322E51A2480FFE434FFFE900304E0FCA3E02FF573
:4020C00082EC3E22900307E0C454F022900307E075F040A4225311FE900318E511F0227408251AF582E4340322E49002B1F09002F2F090027BF090027BE0FFC39420500DBD
:4021000074B22FF582E4340212164180E9E490027BF090027BE0FFC39420500D74D22FF582E4340212164180E91215C90207C7C2D5E830E70FB2D5E4C39BFBE49AFAE49950
:40214000F9E498F8EC30E717B2D512216512059CE4C39BFBE49AFAE499F9E498F8800312059C30D50DE4C39FFFE49EFEE49DFDE49CFC22E4F51E7408251EF582E43403F501
:4021800083E4F0051EE51EB428EC121FFA12062E121260E4900320F0A37437F0E4F510900317E510F0751101A3E511F0E4F512F514F513F5182290034FE0FEA3E0FFC390D8
:4021C0000340E09FFF90033FE09EFEC3648094805007C3E49FFFE49EFE90028BE0FD547FFCFBD3EF9B7480F86E985005ED4480F02290028BECF022F5CCEB14FF5407C433A2
:4022000054E042CCEF54F8131313541FF5CD22E05403A3F5CB7E00ED543F78022242CBEC5407FEED54C0780622E4900275F0A3F0A3F0A3F0A3F0A3F090026A1204F70000A7
:402240000000E4F51F746E251FF582E43402F583E4F0051FE51FB407EC22E4F51CE4F51B122069F583E51B122063E4F0A3F0051BE51BB408EB051CE51CB402E1E4F5C3431B
:40228000F50843C3042290033FE0FCA3E0FDEC900319F0EDA3F090034FE0FCA3E0FDEC90031BF0EDA3F022900318E511F02212147412113B9002B2E0FFF46013EF7004A31A
:4022C000E0600C9002B174A5F09002F2745AF01215C90207C7E5C820E7037F002253C87C122076E508122088E509120528EEF0A3EFF07F0122E075F002A4243EF582E5F03E
:402300003401F58322900072E0FCA3E0FDEC22050AE50AC39402400EE4F50A050BE50B94084003E4F50B2290029AE0B4AA0512164C60031211381215711215C90207C77E7E
:40234000007F5A7D007B017A02799A1205341215C90207C75002F450524F582053554D2056302E353520200075E1B475E29043A84043B84043E80443F80422E4FDFCC3ED5B
:402380009FEC9E50070DBD00010C80F22212147412113B1215711215C90207C7E4F50AF50BF508F5092212225A121BD00222291211381215C90207C70000000000000000EF
:404000000037008F000000000000000000000000000000000000000000000000000000000000000000000000000000000000000000000000000000000000000000000000BA
:00000001FF
