:40000000020EFB020009222222323202000AE4F5A975AAFF75AB0375801F2202002EE4F5FA75F91843F90443E8022202002F32323232320200303200000000020031000001
:400040000000000200320000000000020036000000000002061CEC4D6011E8497017ED33EC3304600DE4FCFFFEFD22E933E8330470F802031F1202EA58046009E4CC248103
:400080005006285009020329284003020326C0E0EB4A7044B98006D0E0FB020315EF4E701CBD8008EBFFEAFEE9FD80EBE98DF0A4FEE5F002013FE9CDF9EAFEEBFFEF89F0DF
:4000C000A4FCE5F0CE89F0A42EFFE435F0CD89F0A42DFEE435F08067EF4E7005BD80D780C3EF8BF0A4ACF0EE8BF0A42CFCE435F0F8EF8AF0A42CE5F038FCE433CB8DF0A437
:400100002CFCE5F03BF8EE8AF0A42CFCE5F038F8E433CF89F0A42CFCE5F038CF3400CE89F0A42FFFE5F03EFEE433C98DF0A42EFEE5F039CD8AF0A42FFFE5F03EFEE43DFD6E
:4001400033D0E0FB50070BBB000F020329EC2CFCEF33FFEE33FEED33FD020301020329EC5D046005E85904700302031F1202EA580460F6EC4860F2EC7004FDFEFF22C8603A
:40018000DB2481C85009C398600250060203269850CAF582E9294B4A7005AB8202031575F0007C1A7880C3EF9BEE9AED99400DC3EF9BFFEE9AFEED99FDE842F0DC23ACF02F
:4001C000D0E0FFD0E0FED0E0FDAB8220E7101BEB60BAEC2CFCEF33FFEE33FEED33FD020301E803F830E705C0F075F000EF2FFFEE33FEED33FD40B830E7C280AA74F8CC6416
:4002000080CCC86480C8F58204604FC3EB9FF5F0EA9E42F0E99D42F0E89C45F0603C501DE5825FFFE582D313CB5BCBF42B5582FB50280ABA002409B9002008801DE5825BD1
:40024000FBE582D313CF5FCFF4C3132F5582FF50090EBE00050DBD00010CC3EB9FF5F0EA9E42F0E99D42F0E89C45F06007CC4820E701B3EC2275F020800E75F01080057546
:40028000F0087D007E007F003392D530D5031204CBEC334010EF33FFEE33FEED33FDEC33FCD5F0ED22E5F0247EA2D513CC92E7CDCEFF22EDD2E7CD33EC3392D52481400675
:4002C000E4FFFEFDFC22FCE4CFCECDCC24E0501174FF80EDC3CC13CCCD13CDCE13CECF13CF0470F030D5DE0204CBE9D2E7C933E833F892D5EDD2E7CD33EC33FC5002B2D562
:4003000022EC30E7100FBF000C0EBE00080DBD00040BEB6014A2D5EB13FCED92E7FD2274FFFCFDFEFF22E480F8A2D574FF13FC7D80E480EFE709F608DFFA8046E709F20805
:40034000DFFA803E88828C83E709F0A3DFFA8032E309F608DFFA8078E309F208DFFA807088828C83E309F0A3DFFA806489828A83E0A3F608DFFA805889828A83E0A3F20821
:40038000DFFA804C80D280FA80C680D4806980F28033801080A680EA809A80A880DA80E280CA803389828A83ECFAE493A3C8C582C8CCC583CCF0A3C8C582C8CCC583CCDF11
:4003C000E9DEE7800D89828A83E493A3F608DFF9ECFAA9F0EDFB2289828A83ECFAE0A3C8C582C8CCC583CCF0A3C8C582C8CCC583CCDFEADEE880DB89828A83E493A3F20899
:40040000DFF980CC88F0EF60010E4E60C388F0ED2402B4040050B9F582EB2402B4040050AF232345822390038473BC000BBE0029EF8DF084FFADF022E4CCF875F008EF2F7D
:40044000FFEE33FEEC33FCEE9DEC984005FCEE9DFE0FD5F0E9E4CEFD22EDF8F5F0EE8420D21CFEADF075F008EF2FFFED33FD4007985006D5F0F222C398FD0FD5F0EA22C248
:40048000D5EC30E709B2D5E4C39DFDE49CFCEE30E715B2D5E4C39FFFE49EFE12042AC3E49DFDE49CFC800312042A30D507C3E49FFFE49EFE22C5F0F8A3E028F0C5F0F8E524
:4004C00082158270021583E038F022C3E49FFFE49EFEE49DFDE49CFC22ECF0A3EDF0A3EEF0A3EFF022A8828583F0D083D0821204FC1204FC1204FC1204FCE473E493A3C508
:4005000083C5F0C583C8C582C8F0A3C583C5F0C583C8C582C822A42582F582E5F03583F58322EF4E6012EF60010EEDBB010B89828A83F0A3DFFCDEFA2289F05007F709DFBA
:40054000FCA9F022BBFEFCF309DFFCA9F02275F008758200EF2FFFEE33FECD33CDCC33CCC58233C5829BED9AEC99E58298400CF582EE9BFEED9AFDEC99FC0FD5F0D6E4CE33
:40058000FBE4CDFAE4CCF9A88222B800C1B90059BA002DEC8BF084CFCECDFCE5F0CBF97818EF2FFFEE33FEED33FDEC33FCEB33FB10D703994004EB99FB0FD8E5E4F9FA221C
:4005C0007818EF2FFFEE33FEED33FDEC33FCC933C910D7059BE99A4007EC9BFCE99AF90FD8E0E4C9FAE4CCFB2275F010EF2FFFEE33FEED33FDCC33CCC833C810D7079BECD6
:400600009AE899400AED9BFDEC9AFCE899F80FD5F0DAE4CDFBE4CCFAE4C8F922C0E0C0F0C083C082C0D075D000C000C001C002C003C004C005C006C007E5E430E455E5E449
:4006400020E102E1DA85E31B751901E51BB40E1A24ED121692E0F5E374EE251BF582E43400F583E0900115F0E1DAE51BB40F05900115801AE51BC39428500512168E800E51
:40068000E51BC394805002E1DA12169AF583E0F5E3E1DAE5E430E22FE519B401057519008021E51BC39428500B74ED251BF582E43400800AE51BC39480400812169AF583CB
:4006C000E0F5E3051BE1DAE5E420E102E1DAE51BD394084002E1BD12168EE5E3F0E51B24FEB407004002E1D89006F225E05002058373E100E117E121E12BE14CE161E178C2
:400700009000EEE0FEA3E07C002400FFEC3E900084F0A3EFF0E1D89000F0E0900086F0E1D89000F1E0900087F0E1D89000F2E0FF5438131313541F900088F0EF5407FFA305
:40074000F0900088E02F90008AF0E1D89000F3E0FF54F0C4540F90008BF0EF540FA3F0E1D89000F4E0547F90008DF01215E390008DE09000F4F08060E51130E03812168E96
:40078000E0F5105311FE1216B3E51020E20920E40620E30330E505751208803CE51030E0057512028032E51030E10575120480281216B0802312168EE510F0801BE51BB4BA
:4007C0007E089000ECE5E3F0800EE51BB47F099000EBE5E3F0121089051B75E2C0D007D006D005D004D003D002D001D000D0D0D082D083D0F0D0E032121726020F870000F6
:40080000E4900136F0120A78120AC1120A69E0FEA3E0D39470EE94174010120A78120AC1120A697417F0A37470F0120A78120AC9120A69120A73120AC1120A69E0FCA3E0D0
:40084000C39FFFEC9EAD07FCC364809480500D9001367401F0C3E49DFDE49CFCAB05AA04EAF5BBEBF5BA120A78120AC9120A69120B05F5BDEDF5BC43B90C43B901E5B93007
:40088000E7FB53B971AFB5EFFEADB47C00E42DFFEC3EFE120A5CEEF0A3EFF0900136E064017017120A5CE0FEA3E0FFC3E49FFFE49EFE120A5CEEF0A3EFF0E508700221878C
:4008C000120A94E0FEA3E0D39408EE64809480403F120A5CC083C082E0FEA3E0FFC006C007900086120AEDC004C005C006C007120A94120B0512027AD003D002D001D0004E
:400900001200561202B3C3D0E09FFFD0E09E217F120A94E0FEA3E0C394F8EE6480947FE50875F03E503F120A61C083C082E0FEA3E0FFC006C007900087120AEDC004C0058D
:40094000C006C007120A94120B0512027AD003D002D001D0001200561202B3C3D0E09FFFD0E09E801A120A61C083C082E0FEA3E0FF120A94E0FCA3E0FDC3EF9DFFEE9CD006
:4009800082D083F0A3EFF022E50A602224FE600F1460111460132403701775C102801275C101800D75C108800875C110800375C104E50BB41000400241499009C025E0736A
:4009C00021E021E821F021F8410041084110411841204125412A412F41344139413E414375CDFF75CCFF806175CDFF75CCFE805975CDFF75CCFC805175CDFF75CCF88049AE
:400A000075CDFF75CCF0804175CDFF75CCE0803975CDFF75CCC0803175CDFF75CC80802975CDFF802175CDFE801C75CDFC801775CDF8801275CDF0800D75CDE0800875CDC0
:400A4000C0800375CD80E4F5CC121520121516E0FEA3E0F5CEEEF5CF43C80F22E50875F03EA42420F582E43400F583E50975F002020516E0FEA3E0FFE50875F03EA422246B
:400A800032F582E43400F583E5822515F582E43583F58322E50925E02420F582E43400F58322F583E4F0E51675F03EA4222430F582E43400F58322243DF582E43400F583BA
:400AC000222410F582E43400222400F582E4340022E0FEA3E0FF900137E02FF0900136E03EF00515222431F582E4340022E0FCE412027FE4FBFA79C8784202015F243AF500
:400B000082E4340022E0FCA3E0FDEC22243BF582E4340022243CF582E434002290008AE0FFE509C39F2274A5F09000D7745AF078977C007D017B017A0179167E007F201217
:400B4000040478B77C007D017B017A0079007E007F1012040478C77C007A00793E7D017B017E007F1002040490008E74AAF09000D87455F0900084E0FCA3E0FDEC90008FE9
:400B8000F0EDA3F0900086E0900091F0900087E0900092F0900088E0540733333354F8FFA3E054074F900093F090008BE0540FC454F0FFA3E0540F4F900094F090008DE093
:400BC000547F900095F0227E007F8E7B4BE4FDFC22F0A37408F0A37464F0A3F0A322F583E4F0900083E004F0229000D8E06455227F647E001217E912000E12100012110980
:400C000012180D120988121775EF60FAE512640160EBE512640260E5E512640460DF121795120988120800E50860031211FFE50B700F121184E5086005120D3880031214B7
:400C400010E50A704DE50B7049D3E5149400E51394004008E5141514700215131214B8E5126408702DE5C830E7FB53C87C43F90453F9F71213B4E51264016081E5126402F5
:400C8000700261FDE5126404700261FD43F908120988850A08850B098106E4F50AE4F50B121520121516E4F0A37464F09001361204E500000000E4F518120988E5C830E7F3
:400CC000FB53C87D12152D121509EEF0A3EFF0900136E0F8A3E0F9A3E0FAA3E0FB121509E0FEA3E0FFE4FDEB2FFFEA3EFEED39FDEC38FC9001361204D90518E518C3940548
:400D000040B7E47B05FAF9F8900136E0FCA3E0FDA3E0FEA3E0FF12159F121509EEF0A3EFF0050BE50BC39408500281A0050AE50AC394025002819D22900084120A73120A77
:400D4000ADE0FCA3E0C39FEE6480F8EC6480984036120A78120AFDF5837401F0120A78120AB7E07020120A78120B0CF583E004FFF090008BE0FEEFD39E4059120A78120A52
:400D8000B7740180148043120A78120AB7E07012120A78120AFDF583E4F0120A78120B0C802E120A78120B14F583E004FFF090008CE0FEEFD39E401C120A78120AFDF58398
:400DC000E4F0120A78120AB7E4F0120A78120B14F583E4F022120C9AE4F516E4F515E51612153FE515120516E0FCA3E0FDE412027A121550AB0FAA0EA90DA80C7F007E4036
:400E00007D9C7C4512015F121550E4FBFA79C878421200561215507F007EFF7D7F7C47AB0FAA0EA90DA80C1201FC600E400C750F00750EFF750D7F750C47AF0FAE0EAD0DD9
:400E4000AC0C1202B3E516121522F58375F002E515120516EEF0A3EFF00515E51564086002A1DE0516E51664026002A1DB2290008EE064AA705E120BE9705990008FE0FEC6
:400E8000A3E07C002400FFEC3E900084F0A3EFF0900091E0900086F0900092E0900087F0900093E0FF5438131313541F900088F0EF5407A3F0900094E0FF54F0C4540F9033
:400EC000008BF0EF540FA3F0900095E0547F90008DF08018900084E4120BD17401F0A37403F090008BF0A3F0A3741EF0900089E0FF900088E02F90008AF022787FE4F6D809
:400F0000FD75811B020F42020BF0E493A3F8E493A34003F68001F208DFF48029E493A3F85407240CC8C333C4540F4420C8834004F456800146F6DFE4800B010204081020EE
:400F400040809017C2E47E019360BCA3FF543F30E509541FFEE493A360010ECF54C025E060A840B8E493A3FAE493A3F8E493A3C8C582C8CAC583CAF0A3C8C582C8CAC58392
:400F8000CADFE9DEE780BE7513017514F4E4900080F0A3F0A3F0F516E4F515120AA6120AC1F583E515120A6DE4F0A3120AA5120AC9F58375F002E515120516E4F0A3120A43
:400FC000A5120A7FE4F00515E515B408CE120AA6120B0C120AA2120B14120AA2120AFD120AA2243DF582E43400120AA2120AADE4F0A3F00516E5166402709D220000000047
:40100000E4F51874ED2518F582E43400F583E4F00518E518B428EC121820120E6E900084E0FCA3E09000EE12176E900086E09000F0F0900087E09000F1F0900088E05407E3
:4010400033333354F8FFA3E054074F9000F2F090008BE0540FC454F0FFA3E0540F4F9000F3F090008DE0547F9000F4F0E4900103F0A37420F0E4F5109000F5E510F0E4F5E1
:4010800011A3E511F0E4F512229000EBE024FE601F14602D14603B14604414604D24F6605D240F70639000E97400F0A3747CF0229000ECE075F03EA42410F582E43400807F
:4010C000339000ECE075F03EA42400F582E4340080221216BA2497F582E4340080161216BA24B7F582E43400800A1216BA2416F582E43401AF829000E9F0A3EFF0229000B3
:40110000E97400F0A374D9F022E4F5119000F6E511F0E4F5A8F5E812000612000712000812001E1217D6D2AF1207F8121465E512B40403120E6EE51264016009E5126402B3
:401140006003121357E51120E113120DD512127AE49000F7F0A3F0A3F0A3F080031217541215E390008DE09000F4F0E51264017006121800121754E4F5124311019000F626
:40118000E511F022E4900136F0A3F0E5086048900088E0F51590008AE0FFE515C39F501D120A78120A98C083C082120A78120A7FE0D082D083120A6D120AD180D890008938
:4011C000E0FD7C00900136E0FEA3E0FF12047F120A78120AAD8022E4F515E515120A96120AD1E515B408F3900136E0FEA3E0FF7C007D0812047F900030EEF0A3EFF022129A
:401200000B1C501C120A782432F582E43400F583E5822509120A8CE509F0605DAF094176120B1C4054120A78120A98C083C082120A78120AE5F583E5822F120A8CE0D082CC
:40124000D083120A6DE0FEA3E0FF120A5CE0FCA3E0FDC3EF9DEC6480F8EE648098501A90008A120A76120AE5F583E5822F120A8CE509F0EF14FF1212E92212180D12098827
:40128000121775EF60FA120A78120AC1120A69120A73120AC9120A69EE8FF01204B5900136E0B40422120A78120AC9120A69C083C082E0FEA3E0FF7C007D0512042AD0822C
:4012C000D083EEF0A3EFF0121795E50A700FE50B700B900136E004F0C39405500B120988850A08850B094180228F15E515C394014064120A78120A98C083C082120A78128F
:401300000AE5120A86E0D082D083120A6D120A73120A98C083C082120A78120A7FE0FDD082D083120A6DE0FAA3E0D39FEE6480F8EA6480984020120A78120AE5120A861264
:401340000A76120A7FEFF0120A78120AE5120A86EDF0151541EB225311FD9000F6E511F090008EE064AA704B120BE97046900096E064A5703E9000D7E0645A7036431102D9
:401380009000F6E511F078167C017D017B017A0079977E007F2012040478007C007A0079B7120B5D783E7C007D017B017A0079C7120B6122E510540CFFBF0C06751201535D
:4013C00010F3E51030E203121817E51030E4031217ADE51030E303121623E51030E503121559E51264016017E51030E005751202800DE51030E1057512048003E4F512E5FE
:401400001270031216B0E4F5109000F5E510F022900030E0FEA3E0FFC3EE648094805007C3E49FFFE49EFED3EF94CCEE648094804025D3EF9499EE648094815005E49000E9
:4014400082F0900081E004F0D3940340177403F090008074C8F022E4900081F0900080E0600214F022E4900136F0F50AE4F50B121520121516E4F0A374C8F0050BE50BB4D9
:4014800008ED050AE50AB402E312180D900136E0C3940A5022120988121775EF60FA121795E50A700AE50B7006900136E004F0850A08850B0980D522E4F51790007BE0B407
:4014C0000103751701E51720E003D38001C3928090006E120B059000FBF0EDA3F0A3E517F0E4F516120AA6120AADE0FEA3E0FFE51625E0247CF582E43400F583EEF0A3EF98
:40150000F00516E516B402DC22E50A75F03EA42410F582E43400F583E50B75F002020516E50AC454F02416F582E434012243F904AFD6EFFEADD57C00E42DFFEC3EFE2275AA
:40154000F03EA42410F582E43400F58375F002228F0F8E0E8D0D8C0C22E4900096F09000D7F0900083F0900083E0FFC39420500D74972FF582E43400120BDE80E9E490008C
:4015800083F0900083E0FFC39420500D74B72FF582E43400120BDE80E9120BC7021659C2D5E830E70FB2D5E4C39BFBE49AFAE499F9E498F8EC30E717B2D51215D512058A47
:4015C000E4C39BFBE49AFAE499F9E498F8800312058A30D50DE4C39FFFE49EFEE49DFDE49CFC22900134E0FEA3E0FFC3900125E09FFF900124E09EFEC3648094805007C313
:40160000E49FFFE49EFE90008DE0547FFDFBD3EF9B7480F86E984003EDF02290008DE04480F02290008EE0B4AA05120BE9601E90008E74AAF09000D87455F0E490008F1235
:401640000BD1740BF0A37433F0A3741EF0900096120B26120BC7021659900136EEF0A3EFF0900136A3E0F5CA90013612170CC333CE33CED8F912171ACEC313CE13D8F91295
:4016800016F443CD2075D101E5D130E2FB2274ED251BF582E43400F58322E51B2480FFE434FFFE9000E9E0FCA3E02FF582EC3E224311019000F6E511F0229000ECE0C45421
:4016C000F022900136EEF0A3EFF0900136A3E0F5CA90013612170CC333CE33CED8F912171ACEC313CE13D8F91216F475D102E5D130E2FB22F5CCEB14FF5407C43354E042AD
:40170000CCEF54F8131313541FF5CD22E05403A3F5CB7E00ED543F78022242CBEC5407FEED54C0780622E4F516E4F515E516121522F583E51512151AE4F0A3F00515E5159C
:40174000B408E90516E516B402DFE4F5C343F50843C30422900124E0FCA3E0FDEC9000F7F0EDA3F0900134E0FCA3E09000F9FDECF0EDA3F022E5C820E7037F002253C87C06
:4017800012152DE50812153FE509120516EEF0A3EFF07F0122050AE50AC39402400EE4F50A050BE50B94084003E4F50B227E007F4B7D007B017A00798E120522120BC70217
:4017C00016595000D941544D4630344520502056302E3332200075E1B475E29043A84043B84043E80443F80422E4FDFCC3ED9FEC9E50070DBD00010C80F222000000000058
:40180000120B68A3120B26120BC7021659E4F50AF50BF508F50922120B68120BC7021659120BC70216C2000000000000000000000000000000000000000000000000000050
:4040000000200061000000000000000000000000000000000000000000000000000000000000000000000000000000000000000000000000000000000000000000000000FF
:00000001FF
