:1000000002221602AE29A216E4332202011CB40217
:1000100004A9B7EA2224FFA997EA2202ADFDB4029F
:1000200004A9B6EA2224FFA996EA22025A317F6087
:10003000A9C2EA740112122C7F061204687F06021C
:1000400008B822027825A20DE43322020FFF120F16
:100050003702120FEBAA08B28622220200760102B2
:10006000040810204080F5FDE5FE2202AF5AD201BF
:10007000023A75020EE7CA7BCA6BCA5BCA4BCA2B2F
:10008000CA1BCA0BC0D0C083C082D20D7E0F318480
:10009000693000047A7331947E7331940A375E3488
:1000A00000046804D20C8002C20C7E34001F793038
:1000B0000004C2C3120FCD1278B77E1F318469319C
:1000C00000025E340040682E6CAA7E1002AC1A7EDC
:1000D0001F31847F712DF06917009C591031880BF6
:1000E000A0BEA00378E4691100A47A1731906931A9
:1000F00000A27A37318EA9C1C4D082D083D0D0DAA1
:100100000BDA1BDA2BDA4BDA5BDA6BDA7B327D1334
:100110007E1F31D11B1A10C2C6D2EE223222542CBD
:10012000CA3B7F307401121274297300EF2E70FFE6
:10013000920129B300F01212457F03120BB87F031E
:1001400012056E297300060A377E0F31847930005C
:10015000242973009F0A273E243E243E243E243E49
:10016000243E243E24693300FB4D327E0F318479D6
:10017000300002297300060A47297300010A579DBF
:1001800054F53029B300A1700B29B300F429730092
:10019000F31209F3297300A12E70FF9201E53012CA
:1001A0000964693300F97E0F3184793000286923AE
:1001B00000F73E243E243E243E243E243E24297360
:1001C00000F60A372D327E0F31847930002A2973E8
:1001D00000F50A377E0F31847930002C7E3400011F
:1001E0007E0F3184793000347E34010B7E0F3184F0
:1001F0007930002E297300010A377E0F318479305F
:100200000010693300A47E0F31847930001C6933FB
:1002100000A67E0F31847930001E6CAA7E5002AC9D
:100220005A691300FD2D127E0400FF0B0A307E0F69
:1002300031842D12793000440BA0BEA00C40DDDAD1
:100240003B22CAF87F507CFB7E3400247E08002BC2
:100250007E240002122A8AE52BBEB0003802416CCF
:10026000E52BBEB0142802416C7EF12BBEF0143891
:1002700002419A7E3421B4793500027E3421987986
:10028000350004BEF0816802419374237A5BB07438
:100290001C615A74017A5BB0615A7CBF14BEB01401
:1002A000400261287EA003A49002AC730202EA021D
:1002B00002EA0203280202EA0203280202F0020212
:1002C000EA0202FE0203280202EA0202FE0202EA37
:1002D0000203280202FE02032802032802030C0282
:1002E00002EA02031A02031A41EA7E3421886102FB
:1002F0007E3421B4793500027E34217961347E3434
:1003000021B4793500027E34219861347E34216F26
:10031000793500027E34215D61347E3421417935A6
:1003200000027E34215D61347E3421B479350002CF
:100330007E342198793500047E7003AC7F7D232EB6
:100340002421D87A51827A4183E4937A5BB02E34A7
:1003500021D97A71827A6183E49339B50001DAF8A0
:1003600022CAF87F707E7BF029770001BC7F2802CB
:100370007CF7691700066D007E3400F274FF1223CB
:10038000137F07120D92A9D6CB6CAA802D6C7780B3
:100390001F7E100BAC1A0A172D013E0469170006C8
:1003A0002D106D000B0A206E24FFFF1B0A200B701E
:1003B00029670001BC6738D90BA07E7B60BC6A3816
:1003C000CC693700067E0F31E7793000047C4F6C32
:1003D000550A3F2D327E0F31E77930000C6D117ECA
:1003E0001F31E71B1A107E3400D0120DEA6CAABE32
:1003F000A00450187E7004AC7A7CB77E1F31E76988
:1004000041002660421E441478FB803BBEA0085089
:100410001B0A3A1B363E343E347CB77E1F31E769F7
:1004200041002860221E441478FB801B0A3A9E3447
:1004300000083E343E347CB77E1F31E76941002A14
:1004400060051E441478FB5E44000F7E5002AC5AD7
:10045000693700062D326D221B1A400BA0BEA00B7F
:10046000408DA9C6CBDAF822297000922990009419
:100470002960009329800089BE800438046CAA801A
:1004800021BE800838057EA0018017BE8010380587
:100490007EA002800DBE802038057EA00380037EF2
:1004A000A004BE900328037E9003BE803F28037EF5
:1004B000803FBE600128037E6001BE700228026C8E
:1004C000770A283E243E243E243E243E247C896C28
:1004D000993E443E443E442D420A263E243E243E5C
:1004E000243E242D240A373E343E342D327E7F3183
:1004F000D17937000229B000887C4B6C5529B000B7
:10050000870A3B2D327E7F317C793700806930004D
:100510009C7E7F31D17937000C6930009A5E34E0DF
:100520000F29B000880A2B1B243E243E243E243E83
:10053000242D327E7F317C793700820A2A3E243E88
:10054000243E243E2429B000950A3B2D327E7F3183
:10055000D179370006693000987E7F31D179370034
:1005600008693000967E0F31D17930000A227F6011
:100570007401121274293600F12926009F291600F1
:10058000A0BE200228037E2002BE104028037E1059
:10059000407E3400047CB260053E341478FB7C0756
:1005A0000A317E2F3184793200127C73AC700A21BB
:1005B0001220287C270A327E2F3184793200147C65
:1005C00073AC70292600F20A22AD320A218D327DE9
:1005D000437C73AC700A211220287CA77C2A7CB94A
:1005E0002CABBEA00C50037EA00CBE200C50037E92
:1005F000200C0A200A311220287DE30A3A0B34AD80
:100600003E0B34BE34020040047E3401FF29460014
:10061000F37E5002AC450AF2ADFE2D2F0B24BE2412
:10062000020040047E2401FF0A137E7F3184791783
:10063000000A1E247C456C551E342D327E0F3184F9
:100640007930000C0A3A7E0F318479300022227F03
:1006500021A9D6CB693000047E7F31E779370004C9
:10066000693000087E7F31E779370006693000067F
:100670007E7F31E779370008297000017C476C558F
:100680007E0B700A372D327E7F31E77937000C29D7
:100690007000020A371B347E7F31E77937000A6920
:1006A00030000A7E7F31E77937000E6930000C7E1A
:1006B0007F31E7793700106930000E7E7F31E779AE
:1006C000370012297000037C276C337E1F31E71B33
:1006D0001A107E3400A0120DEA7E1F31E769110066
:1006E0001A7A2B306911001C393200016911001689
:1006F00079120002691100187912000469110022B0
:100700007912000669110024791200086911001E8F
:100710007912000A693100207932000CA9C6CB2277
:10072000CA3B7C577C4B5E4003693000045E603FEF
:100730006CAA0A4A69F0000A69E000082DF47E7B81
:10074000B00AFB7D4F7C896C997DF40AEA69D00080
:100750000E69C0000C2DDE7E6BB00A4B2D4F7ED093
:1007600028ACD57EF002ACFA7DD72DD67EF0F0AC69
:10077000F42DD77E7F31CD2DFD7947018C0BA0BEA6
:10078000A00E78AE6CAA7E9002AC9A69F000020BC3
:100790000AE02DF40B7A407ED028ACD57EF002AC76
:1007A000FA7DD72DD67EF0F0ACF42DD77E7F31CDFB
:1007B0002DFD794701800BA0BEA00440C97E90F0BA
:1007C000AC947428ACB57DF52DF47E2F31CD2D5F22
:1007D00079320188693000067E30F0AC347428AC80
:1007E0005B2D217E0F31CD2D127930018ADA3B222B
:1007F0000563312018130F0D0C0A090807060504BC
:100800007C7B7E7F31846947000C6C883E4469079D
:10081000000A695700021E541E541E541E541E54D2
:100820001E541E545E5400037E14000470020135F1
:100830003E141478FB7CA30ADAADD07DCD6D11791E
:1008400017008C7CB77002014E1ED41478FBBED406
:1008500001003802015C7ED401000168BED40010A2
:10086000400201687ED400107D3D1211320A1B7EC9
:100870001F3184791100907E1F318479D1008E7EE2
:100880007F318469370008AD3C8D3D793700927E19
:100890001400067E1F3184791100947D249D200A66
:1008A0003AAD327E0F3184793000967E3400107E6E
:1008B0000F31847930009822CA79297000070A27FD
:1008C0007E0B700A372D326D446CAA7E5002AC5AF2
:1008D0007E7F317C2DF2794700020BA0BEA02378E9
:1008E000EA6CAA804F0A2A7F702DF229670048BE61
:1008F0006023501D29B700B07C8B6C997E5002ACF0
:10090000567E7F317C2DF20BF50B7A204D241B7A1D
:10091000200A2A7F702DF229B700480A4B7E500228
:10092000AC5A7E7F317C2DF20BF50B7A204D241BC7
:100930007A200BA0BC7A38AD6CAA801D0A3A2D3102
:100940007D2029B1006B0A4B7EF002ACFA7E1F318C
:100950007C2D37794100480BA029B00001BCBA3882
:10096000DBDA79227C5B7E0F318469400022300122
:100970006B6DFF7D3FBE5010282E7E54FFFF7950D7
:1009800000429E50106CAA80117EE400017CBA6087
:10099000053EE41478FB2D3E0BA0BC5A38EB7E6F6D
:1009A000318479360040802579F000406CAA8011AE
:1009B0007EF400017CBA60053EF41478FB2D3F0BF9
:1009C000A0BC5A38EB7E7F3184793700427D342ECB
:1009D00034000C7E7F318479370016226D337930F4
:1009E00000407E0F3184793000427E1F318479418E
:1009F0000016227C177C3B6D337E2F3184793200C8
:100A0000407E2F3184793200427E7F3184695700E5
:100A1000127CAB693700021E341E341E341E341E95
:100A2000341E341E345E3400037CB77E4400046000
:100A3000053E441478FB7C290A220A3A1220280A2F
:100A4000232D327CB77C616C770A0B1E042D037951
:100A500007000C7C73AC720A2A1220287E0F3184A6
:100A6000793000166D337E0F31847930002222A94F
:100A7000D6CB693000067E2F31E779320004693029
:100A800000087E2F31E779320008297000027C4788
:100A90006C55297000030A372D327E2F31E77932E9
:100AA000000C7E0B707C47297000010A372D327EC6
:100AB0002F31E77932000A297000040A377E2F317E
:100AC000E77932000E29B0000554017C2B6C337E8F
:100AD0001F31E71B1A107E3400C0120DEAA9C6CBE5
:100AE00022CA797CAB5EA0036C777E5002AC57695A
:100AF000D0000E69C0000C2DD2296600010AF67DD7
:100B00004F7C896C997DF47E6B600A462D4F7EF098
:100B1000F0ACFA2D277E7F31CD2DF2794702540BB0
:100B200070BE700E40C4694000047EF0F0ACFA7EE6
:100B30001F31CD2D37794102506930000674F0A481
:100B40007E0F31CD2D1579300252DA7922A9D6CB1C
:100B5000C217693000047E2F31E779320004693012
:100B600000067E2F31E779320006693000087E2FBB
:100B700031E7793200087E0B707C476C5529700094
:100B8000010A372D327E2F31E77932000C297000AF
:100B9000020A377E2F31E77932000E29B000035464
:100BA000010A5B7CABE47E1F31E71B1A5069300001
:100BB0000A120DEAA9C6CB22693000AA7E2F318421
:100BC00079320006295000A20A557D231E249D2556
:100BD0007E2F3184792200187D231E241B257E2F31
:100BE000318479220038692000F91E349D329E3408
:100BF000000A7E2F318479320026297000A30A373B
:100C00007E2F31847932001A297000070A277E0B63
:100C1000702D327E2F3184793200080208B8A9D6AF
:100C2000CB693000047E2F31E7793200046930004F
:100C3000067E2F31E779320006693000087E2F31B9
:100C4000E7793200087E0B707C476C5529700001F3
:100C50000A372D327E2F31E77932000C29700002DD
:100C60000A377E0F31E77930000E6D117E1F31E7B4
:100C70001B1A107E3400E0120DEAA9C6CB22CA3B33
:100C8000F5237F417F30E5247E080025120242E5EE
:100C900023BEB02328037523236CAA80360A3A2D7D
:100CA000397D287E1BB0BEB125400D74230A4A7FD2
:100CB000032D147A0BB080197E1BB00A3B2E35270A
:100CC0007A71827A6183E4930A4A7F132D347A1B06
:100CD000B00BA0E523BCBA38C4DA3B22A9D6CB6955
:100CE0002000047E2F31E779220004692000087E6D
:100CF0002F31E7792200087E0B500A557CABE4299E
:100D00005000010A252D257E2F31E77922000C297C
:100D10005000020A257E0F31E77920000E7E0F3148
:100D2000E77930000A6D117E1F31E71B1A107E34FF
:100D30000040120DEAA9C6CB227CAB7E3400017EB6
:100D40000F31D17930000EC216E47AB331CC5EA0F7
:100D5000030A1A3E147E1F317C1B1A107E0F317C51
:100D60002E1400840B0A304E70201B0A30740112BE
:100D700011EC7E0F31D10B0A304E700C1B0A30A9DA
:100D8000D3CD7E0F31D10B150B0A304E70011B0AEB
:100D900030227F10A9D6CB691100027E2F31E7796E
:100DA000120004691100047E2F31E77912000669F0
:100DB0001100067E2F31E7791200087E1B300A03EE
:100DC0007E140100AD10297100010A372D317E0F0C
:100DD00031E77930000C6D117E1F31E71B1A107E50
:100DE000340060120DEAA9C6CB22A9D7CB7D234ED1
:100DF00050017E0F31E70B0A304D321B0A30801E46
:100E00007E0F31E70B0A307D235E240008BE2400EC
:100E100008780BA9D7CB4E70041B0A30D2177E0F6F
:100E200031E70B0A307D235E248000BE24800078E9
:100E3000CF4E60401B0A306D117E1F31E71B1A1028
:100E400022CA3BF5237F417F30E5247E080025122E
:100E500002426CAA80360A3A2D397D287E1BB0BE2C
:100E6000B126400D741C0A4A7F032D147A0BB08002
:100E7000197E1BB00A3B2E35297A71827A6183E490
:100E8000930A4A7F132D347A1BB00BA0E523BCBA1A
:100E900038C4DA3B22CAF87DE27DD37CFBBE300148
:100EA00028067EF40010800FBE300028067EF40075
:100EB0000880047EF400047D1F6D006D337E2400E5
:100EC000101220C77F017D3D6D2212205A7D1E1217
:100ED00020747404ACBF7E0F31842D1579300082EC
:100EE00079200080DAF822CA7BCA6BCA5BCA4BCA77
:100EF0002BCA1BCA0BC0D0C083C082D2167E0F3152
:100F0000D10B0A307C577A5331CC4E700C1B0A300F
:100F1000C2C66D337E0F31D17930000E120FCD1263
:100F200078B7D082D083D0D0DA0BDA1BDA2BDA4B49
:100F3000DA5BDA6BDA7B3274031211ECA9D1C47E6E
:100F40000F317C2E1400840B0A304E70201B0A30A7
:100F50007E1400017E1F317C1B1A107E0F31840B22
:100F6000160B0A304E70011B0A30C20DE47AB33101
:100F7000947E1F317C0B1A305E34000178F37402CA
:100F80000211EC7C6B6CAA80177E9002AC9A7E7F7B
:100F900031CD2DF40B7A207F702DF41B7A200BA01D
:100FA000BC7A38E56CAA80207E5002AC5A7E7F3134
:100FB000CD2DF2692700380AF70A4A2D4F3E447FAB
:100FC000702DF41B7A200BA0BC6A38DC227E0F3116
:100FD0007C2E1400840B0A305E70DF1B0A30740311
:100FE0001211EC7E1400037E1F317C1B1A107E1F31
:100FF000317C0B1A305E34000178F3E40211EC32DC
:10100000CA797CAB5EA0036C777E5002AC577F60E0
:101010002DD2296600010AF67D4F7C896C997DF4FA
:101020007E6B600A462D4F7EF0F0ACFA2D277E7F56
:1010300031CD2DF2794702540B70BE700E40CADAE2
:101040007922295000F1AC5B7E0F31846930000CAD
:101050000A563E54BE24020040047E2401FFBD25F2
:10106000281F2E14000C6C661B0A301E247C456C55
:10107000557E0F31842E14000C0B0A304D321B0AA2
:1010800030227C6B6CAA7E5028AC577E9002AC9AC2
:101090002D427E50F0AC562D247E7F31CD2DF2694D
:1010A00027018C6C440A4A7F602DD47E6BB07C8B08
:1010B0006C994D247927018C0BA0BEA00E40C7224D
:1010C0007C6B6CAA7E5028AC577E9002AC9A2D4265
:1010D0007E50F0AC562D247E7F31CD2DF269270154
:1010E0008C6C550A4A7F602DD47E6BB00A4B4D2420
:1010F0007927018C0BA0BEA00E40C922A9D6CB54E3
:101100003F5E701F7C2B6C333E143E142E14000582
:101110000A373E343E343E343E343E342D317E0F69
:1011200031E7793000027E0F31E779200014A9C63B
:10113000CB227D236C667E3002AC362E1422C47A1C
:1011400031827A2183E4930A1BBD1228070B60BE0B
:10115000601440E27E7002AC672E3422C57A718240
:101160007A6183E493222E3404007E0F3184793037
:1011700000607E3404009D327E0F3184793000623D
:101180007E3400017E0F3184793000640A3B7E0F8B
:10119000318479300066227CA5BE34000028100A14
:1011A0001B3E147D237C456C552D210A3A80080A8C
:1011B0002B3E247C676C772D327E0F31D179300045
:1011C00004227CA77E1F317C6941008A5E44100F97
:1011D0000A1A3E143E143E143E140A5BC42354E023
:1011E0007CABE42D514D457941008A227E0F317C44
:1011F000693000845E70E71BB1680C14680C0BB199
:1012000078054E701080034E700879300084227E7D
:1012100034001F7E0F318479300004A9D2CD7E0FB7
:1012200031840B0A304E70011B0A3022BEB00028F8
:101230000AA9D7CAA9D3CBA9D2CB22A9C7CAA9C305
:10124000CBA9C2CB2230010A54030A3B2E34020040
:1012500080026D337E0F31847930003A227E0F3167
:101260007C6930008A60054E601080035E60EF7913
:1012700030008A22BEB0002809A9D6CAD2CDA9D191
:10128000CB22A9C6CAC2CDA9C1CB227E34000F7E13
:101290000F318479300004C2C3D2EB22504000E603
:1012A000F4020402101610F8E4D8D8E2F60200188E
:1012B000200A081C1802EEE8F4081A2C2E2A5040C6
:1012C00000FAFE080E0A02F2E2D8D8DAEA02101892
:1012D0000014061404F0E2E2EE04182E3A36302E22
:1012E000504000EAFA0208181C1602ECE0DEE6FCA8
:1012F0000C160022200E1A1604F2F2FA0A1E323AD6
:101300003430504000EAFCFEF8040E06EAD6D2D88B
:10131000F00A0C0C001C020220240AECEE021A3423
:101320003C240A026532001422282C2A24180CFEC0
:1013300004101A28343A00F0F4FC0A162230383C23
:101340003A3838383838653200101C282E2C2C28B2
:10135000201C1216242E383E00E4DCE0E8F2FC04E7
:10136000101A24241E1C181665320022323A3C380A
:101370003630281C0E0E202C364000E8E8F0FC0C1D
:101380001A2634404A545652504C653200142228D2
:101390002A28241E160C101E28303A4000F2F4FAB7
:1013A000020C18222E3A3E3A3A3836366033002282
:1013B0003034301C0A0C20323E3A2C180A0200F05D
:1013C000F8081A2A2C2C2C324458666C6E70603344
:1013D000001C1C12080E1824303A3E3A3222181211
:1013E000000E1A26322E2E2E34404A5664747A7F0E
:1013F0006033001C1C0C020E1A262A2A24180CFE2C
:10140000F6F0000816242C2C2C34404C545C6062FE
:101410006666613600DCD4CECCCEDAECFC080A007D
:10142000F4E4D8D000223448586A76787464584A74
:1014300042424246613600E8DACAC4C0C0CAD6E2B7
:10144000EEEEE4D4C8C200060E1E2A343E44423EEC
:10145000382C2626282A613600E4DAD0CACCD8E611
:10146000F40006FCEEE2D2CC00101C2836444A48B8
:10147000423A2E262424262C6337001622303A3C8A
:1014800036302C2A262422201E1E000000000008D0
:101490001624303E4A56626C747C633700101C265A
:1014A00030383C34302C28282422222200FEFEFE34
:1014B000FEFE040A14202C34404A545A643800CEEC
:1014C000C6CAD8EEFA02F2DCC8CADAF20006000494
:1014D00014283642506676766A56422E201A6438B0
:1014E00000CAD0EC0008FCE8D2CCD6F00206F4EE3C
:1014F000001C2E3C50667A7C76604836200A020238
:101500006438001020302E200EFCF80418262E1C03
:101510000C0600222C3A4A50524A3E281C160CFE59
:10152000FEFE6438002C3A34200CFE041628383AAB
:101530002816080600EEF80E222E384E5C5A483265
:10154000241A0A026438000E141002F2EEFC0C1A7F
:1015500026281A0C00FC001E2C383C362C1E160EB9
:1015600004F8F4F4F8FE623900D0C4C6D8EAF4FCFA
:1015700002FEFCFAFAFAFAFA00001228362E2010BF
:10158000FC0A1E34465E6A74623900EADCD0CAD0B6
:10159000DEF20004FAF0EAE4E0E000E8EAF4081819
:1015A000181006021024384A5864623900D6CED288
:1015B000DCF60608FEFAF4F0ECEAEAE80016283653
:1015C0003828160E1E2A3A485A6A787F366100E497
:1015D000D2CCCCD4E4F0F8FCFCF8F8FC040A00F817
:1015E000081A242C26180C020010222E32323661E2
:1015F00000E6D6CEC2C0C0C6D0DAE4EEF4F0F0F613
:1016000000F6FC040E1822303A342C1C1624303418
:10161000366100E8D8CCC2C4CCD8E8F6FCF2E8E4E5
:10162000EAF400F2F60214242C281E0E060C1A28E6
:101630003438426200F6F4EEF0FE0E1E221E14064E
:10164000F4E6E8EE00182634382A242836444E50B2
:101650004C463C3A426200FCFAF8F6F8FC0C1E30AC
:10166000342E200EFEF80026324258544032303AD2
:101670004E5C6868625E426200040608080A0C104C
:101680001C2E3A3C3220100A002036425664766AFC
:101690005C585C6C787C7E7E426200F4F0ECE8E2A0
:1016A000E2E8F40A1C1C1200F2EC002E42546676AA
:1016B0007462524A4E62707A7E7E346300F0DED2EB
:1016C000CAC8C8C8CACED6E2ECF8020800F8FC08BE
:1016D000121E28303C48545A5A564C48346300E491
:1016E000D8CEC6C0C0C0C0C2C4C8D0D8DEE40012C4
:1016F000202A384450565E666C74787A7A76346361
:1017000000EEE2D4CCC4C2C2C2C6CEDCEAF4FC0015
:1017100000ECEEF4FC0A14202A364046443C322AFF
:10172000376400D8E0F0FC04080E0E0600FCFAFC5A
:101730000C1600142C200AF2E2CAC6DAF0061C3697
:101740003A3A376400CECCD6ECFC0206080A060210
:101750000202060800F80E282A1200EAD0BED0E8DD
:10176000FE142630376400E2E6F6040C101A1E1848
:10177000120E0C0C10140010201E0CFAECD6C2CE67
:10178000E0F0021420283365001E2C342A1E1206B5
:10179000FCF6F8000E1A262E00FEFAF2E4E2E4E867
:1017A000F0000E1A201C1612336500202420120AA5
:1017B00000FEFEFE020A1424343E00EAE0D2CED43B
:1017C000E2F2FC08141C1C180C0433650008182CE9
:1017D00030241606FCF2F2F2F402121E001010027F
:1017E000F0E0E2ECFA0C1C2E3C4A504E3365001A35
:1017F0002A302E241A0CFEF4F2F2FA08141A000011
:10180000FCEEDCD4D4D8E2F0000E181C1C1C3365AE
:101810000018222628261C0E02F8F4F4FA082234B6
:1018200000EEE4D8D0BEBCC0C6D2E20A181A0E0838
:10183000356700CEC6C8D0E2F6FEFCF8F6F4EADA68
:10184000C8C200FC102232322612122C425A6A7090
:101850006A64356700DECCC8CAD6E4F2FEFCFAF64C
:10186000EADACCC400E8F0FE0E1C201A0E1628346A
:10187000444C4A44356700DAD6E8F2F6F6F4F0EA6A
:10188000E6D8C8C0CCD40004181A080C1A2A3A4E5C
:101890005E7274645652356700D8D6E4F6000606C8
:1018A000060602F8E8D2C8C800243C4A3E2C182696
:1018B0003A485C727C7A706870680000FEFEFEFE3A
:1018C000FE00061224363C3C3A3A00243642566466
:1018D0007060523E3A48586A787F706800EEE8E4DB
:1018E000E2DEDEE4F204101A1A1818160020364858
:1018F0005A687062504444505E6A767F343C00F00F
:10190000E4DAD2CCC6C2CAD2DCE6EEF8FE020006A9
:101910000A10161C20262C34363A40484E50523EAF
:101920000010181E2A323A3E362C241E160E0604CB
:1019300000080E12161A20262C3238383E42464A2B
:10194000523E000E161C262E343A3E3C3A32281CDB
:10195000140E00020204080C10141C242A2E343E1B
:101960004246523E000C1820262620140C0600FA8F
:10197000F4EEEAEE000610181C22242A32363C420D
:101980004A4E544E535E00060A0E1214181C2226AC
:10199000282C32383C3E00F0E8DED8D2CAC2C6CC91
:1019A000D2DAE6F2F8FC54760004080C1214181C83
:1019B00022282C30363A3E3E000C1820262C343E8D
:1019C0003A322A20180E0804716B00F6F2EEECF49D
:1019D000020E1A1408FA0414222A0022303E3C2E69
:1019E0001E1A1C2C32343C485054716B000000000D
:1019F0000002061A2A2E240E12283640003C566C8D
:101A00006858402C304456585A6C787F716B00F6F9
:101A1000F2ECE8E8ECF40004F8F400121E280022CE
:101A2000324250564A3C323A4446484E5256444C52
:101A30000000000000000000060E16202A323A4086
:101A40000012202A343C4650545252545456565890
:101A5000326D00080C1216181C222A2C3034363A2B
:101A60003C3E00E2D8CAD0E2ECECDED0C8C6D4E2FC
:101A7000ECF2326D0008101A2222201C1C22262CA7
:101A8000383E3E3E00DCCEC4CEDAE8F6FCECDCCEDE
:101A9000CCDAECFA326D00000204080E161A18189F
:101AA000202830383C400026382C1A06FE14281C0A
:101AB0000AF802142630326D000002040A181C1CB9
:101AC0001E242C3A3E3E3E3E002A281404FE0C1EE4
:101AD000221200F802162630406E0002FEFC0006BC
:101AE0000E1624343A36322E2E2E00324654422E12
:101AF0001C0C0000102232465860306F00EADEDC19
:101B0000DCE0E8F2000A141A18100802000A18248F
:101B10002E383E3E3A362A1A10060202306F00185E
:101B20001E1E1A1206F8ECE2E0E0E2ECF80000F209
:101B3000E6D8C6BAB8BCC6D8E4F0FC060806306FD2
:101B400000E6E0DEE0E8F2FE0A161C1C18120802AD
:101B500000F6EEE0D4C8C0BEBEC6D2E0ECFA020287
:101B6000306F00E4D2C8C4C4C8D8E4F6FE0202FE56
:101B7000F8F600E8F40214203444443628180AF831
:101B8000ECE6306F00ECE8E8F0000C141A1A1406CA
:101B9000F6EAE0DE00284454646452402C1E06F24B
:101BA000FA0A2C44306F00F2F2F4000C14202C2EB0
:101BB000302C1C1006FE00101E2A3234322C201449
:101BC0000A00F2F2F4FC306F00E4DEDEE2ECF8042E
:101BD000141C1C1A160C04FE000C1622303A3E3C53
:101BE000362A201408000000306F001820201C1630
:101BF0000AFCF2E6E2E2E6F2FC02000A1622303AC1
:101C000040423E34281C0E040000306F00FAF0E41D
:101C1000D8CAC4C4C6CCD8E8F4FE000200182024F8
:101C2000241E1204F6E6DEDEE4F2FC04306F00044B
:101C300012202A343C3E3832261A0C000000001ACA
:101C40002426221A0CFEEEE6DEDEE2F0FC02306F05
:101C500000081628343A3E3E3A32241608020000A4
:101C600000E4D6D6DCE8F602101C22241E1206FE82
:101C7000306F00F6EADED6CCC6C6CAD4E4F0FC0269
:101C8000040400EAE6E6EAF6000C1A2628241E12EE
:101C90000A04457000FAF6F0F0F2F6FA020E1E2C75
:101CA000220EFEF80030445A5A44321E0AFEFC0846
:101CB0001C282E32457000FEFEFE00040E1C2E383D
:101CC0003C382A1A0A0400DCC6B8A8988A808088A2
:101CD00096A4B0B4B6B6437100D4CCD4E6F606F8F8
:101CE000EADED6D0D2E4F6FE00122832281804121A
:101CF000263C546A76726662437100D8D4D6E2F408
:101D0000FE00FCF8F4F4F4000C14000A1A303C3223
:101D1000221A2A384C5A6C726A64437100CCC0C4CF
:101D2000CCE0EAF4F6ECE8E0E0E0F0FC00FE0E26A1
:101D300036301E04FC12243A4C686C627372000C3C
:101D40000E101010101010121618222C383E00140D
:101D5000222A343E463E34261A120600040C7372C0
:101D600000040606060404080A10161E2C343A4025
:101D70000014222A3844402E24181006060E161C81
:101D8000467200E0D0C6C2C8D6E4F4FAF6ECDCCE67
:101D9000C4C000EEF40416222A303A4C5A646A6A2F
:101DA0005E56467300DAD0CCD0DEEAF606080600AE
:101DB000F2E0D8D200040E18242A2A282C36404CEF
:101DC00056565454467300EEE6DEE2EAF4000A1674
:101DD0001C180C02FAF400162430383A3A3C3C3C09
:101DE000464E5C666E74467300E6D6CCC2C0C4CE66
:101DF000DAE6F2FCFAECDCD200F8FC04101C282E27
:101E0000323438404C5E6C78467300F4EEECF2FAF3
:101E100002080802F8F0E2DAD4CE000C1822282CCE
:101E20003036404C565E64686868467300F0E0D215
:101E3000C8C6D0DEECFA02FCF0E4D8D200F0F4F828
:101E4000020E1A1E20222A3840444444555400F001
:101E5000EAE6E4ECF8020E18201A120C080400144A
:101E6000222C363A3A3834322C22140A02FC5554C9
:101E700000E8E0D6D0D2D8E8F6020C0802FAF8F66C
:101E800000142232404C4E4C4A484034281A100864
:101E9000477500F8F8FA08161E242A2A241C1A206E
:101EA0002E36002032404234281A0C020C1E2E3AE4
:101EB000403E477500FCFC00101E2A32363A383688
:101EC00036363638002840525C503C281404122420
:101ED00036485C643177000204080C12181C1E247A
:101EE0002A2E32363A3E0018242A241206061422DC
:101EF00026180AFEF6F031770004080E14181A1C92
:101F00001C1E202830383C40001C2A362C180C009F
:101F10000A1A26322E140600727900FE000E161ED2
:101F20001A14120C08FEF6E8E2E20016201A100459
:101F30000A1622303C464A443C36727900020A1A9C
:101F4000222A302A282826241808FAF4002E3E30A7
:101F5000200E0014283E4E6272786E66727900FA86
:101F6000FAFE0C1C2C36342C28201A0E06000022F7
:101F7000384A44361A0606162844566C787F727919
:101F80000014161826363C363432302C24140C0833
:101F900000FE0C1810FEF802121E2C3C484C48445F
:101FA000657A001624303020180E00FA0410202A1A
:101FB00032380002020008141E28323C3E3A3838FB
:101FC0003836657A0014202E362E261A120A0A1484
:101FD000222E3A4000FEFCFC0006101C2832383A43
:101FE0003A3A3A3A657A00101C242C2C28221C1804
:101FF0001416222E384000F6F0EAEAF0FA08121C15
:10200000282E2C28221E004600060A0E141A1C2216
:1020100026282C32343A3E40000B141C262E343C29
:10202000424850565C646A6EC2D57CB430E708B250
:10203000D56E24FFFF0B247CB630E712B2D56E3488
:10204000FFFF0B348D326E24FFFF0B2480028D3294
:1020500030D5066E34FFFF0B34227D51AD037D0277
:102060007D21AD052D12AD352D21227D02AD31AD85
:10207000102D21226D0074104D00780B4D22782711
:102080008D317D126D22227D437D326D222F112DE7
:10209000445002A50FBF1040049F100B901478ED20
:1020A0007F016D227D34227D417D138D247D022FA1
:1020B000004004BD0440049D040B141478F17D23FA
:1020C0007D317D106D0022C2D57CB030E708B2D5DD
:1020D0009F229F207F027CB430E713B2D59F229FBE
:1020E000217F121220769F229F207F0280031220E0
:1020F0007630D5069F229F217F12226CAA4D11684F
:102100001A1E54680E0B38201B18200B350B151B9C
:102110005478F250067E39407A1940226CAA4D114B
:10212000681E1E54500C7E1B007A190068120B1C8E
:102130000B140B1A001B18000B1D0B151B5478F207
:1021400022000102030405060708090A0B0C0D0E04
:102150000F10111213141C1D1E1F2021220001023A
:102160000304050607080E0F1011121314151600AC
:10217000010203041C1D1E1F20000102030E0F108C
:10218000111213141516171800010203040506078F
:10219000081C1D1E1F202122000102030405060742
:1021A00008090A0B0C0D0E0F101112131415161737
:1021B00018191A1B000102030405060708090A0B77
:1021C0000C0D0E0F101112131415161718191A1BD7
:1021D0001C1D1E1F20212200010101101C02101CC9
:1021E000000101040F1C000101061B0F070E1C0853
:1021F00023150001010A10190B141C0C0F18000103
:10220000010E2315000101000101110A121210191B
:10221000131C10141A107584017E443FFFE47A49A0
:10222000B01B4478F97EF83487750C00750D00C238
:1022300008C209751B00C20EC20FC211751C00C274
:1022400012751D00751E00C213C214C20A75190052
:10225000751A64C215751F00D205D206D207D216B0
:10226000C20CD20D7E0400FF7E1423550B0A405D84
:1022700044681A692000020B0E0B44800A7E0BB0E2
:102280007A29B00B240B0C1B4478F280DF02281251
:102290000000004700CB01000010FDC7FB7EFBFBE8
:1022A00001BB0C9E19002145000E010F0210031105
:1022B0000412051306140715081609170A180B1936
:1022C0000C1A0D1BDF22C321A920941F811E701D33
:1022D000621C551B4A1A4119381831172B1625153F
:1022E00021141C13191216111310110F100ECAF815
:1022F0007F20800A7E1BF07A2BF00B340B5469FF91
:10230000FFFC7DEF1BE479EFFFFC4DFF78E67F10CB
:10231000DAF8227D437F1080071B447A0BB00B1440
:102320004D4478F522320119010002F804E705CE88
:1023300006C207B508FF00010200FF01020001FF0D
:1023400002000102FF7D23BE24000048037D3222EB
:102350006D339D322200042D2F000000000001315A
:10236000EB0100011ECA010001306200000230B41E
:102370000000000230B60000000130B8000001315A
:10238000EC00000131ED00000103FF00000230BA53
:102390000000000630BC000000000000000230C257
:1023A0000000000130C400000230C50000003D30D4
:1023B000C700000000000000000000000000000056
:1023C000000000000000000000000000000000000D
:1023D00000000000000000000000000000000000FD
:1023E00000000000000000000000000000000002EB
:1023F00031040000000128CA0000012A0B0000017E
:102400002A0C00003C310700000000000000000022
:1024100000000000000000000000000000000000BC
:1024200000000000000000000000000000000000AC
:10243000000000000000000000000000000000009C
:10244000000000000131430000012F840100012F32
:10245000850000022F8700000001240400000124F1
:102460000500000124060000022F89000000012F52
:102470008B0100012FFD0000013000000001300140
:1024800000000131EE00000631D53FFFFD3D3F0F5A
:10249000000131DB66000131E200000131E30000A0
:1024A0000131E400000131E500000131E6000001E6
:1024B000005F00000103FC0000012C170000022C4B
:1024C00038000000012C7600000131DC00000131F1
:1024D000DD00000231DE0000000131E06400013166
:1024E000E100000131EF00000131F0000002262878
:1024F000000000022636263E0001263C0000012690
:102500003D000001281E000001281F0000102820A7
:1025100000000000000000000000000000000000BB
:1025200000042834000000000001283800000131B8
:10253000C1000002314400000001314AFF000231B5
:1025400053000000043156000000200002315A0000
:1025500000000431CD00005000000431D1000064BF
:10256000000004317C00006C000004318000006831
:10257000C000043184000068000004319500004070
:1025800000000431E700006000000003E8000C01D7
:10259000F40320000A014A02BC000900C801F4004B
:1025A00006003C012C0006003C00640006003C00D4
:1025B0005000060000000E1C2305DC003203E8007A
:1025C000280000001E00000000000012344C124FD2
:1025D000811227DD124CE10225DA1225EB7EB323AE
:1025E0005C12956F74017AB32F8E22129CAF740126
:1025F0007AB32F8B227E3460A312263312385812FE
:102600003E6B12669312344C123854123452124FED
:1026100081124FBD1227DD124CE1124FB10225DAB3
:102620007E3461547E2400FF0B1A307A3722A07E5C
:102630003461567E2400FF0B1A30227E34614E1224
:10264000263312BEEA1226337A3722AD1226207ABA
:102650003722A27E3461581226337A3722A47EB301
:102660002F95B401167E3462331226337A3722ABAB
:102670007E3462351226337A3722AD7EB32140B4E0
:1026800001377E34623D1226337A3722AB7E3462C4
:102690003F1226337A3722AD7E3462411226337AD6
:1026A0003722A07E3462431226337A3722A27E3448
:1026B00062451226337A3722A47EB3225470217EDB
:1026C0002722AB7D327E140004AD137D311228D554
:1026D000BE34005028047E3400502D327A3722ABAD
:1026E000227E3461541226337A37212D7E3461BA2A
:1026F0001226337A3721317E3461B81226337A3785
:10270000212F7E3462111226337A3721337E3461D1
:10271000BC1226337A3721357E3461BE1226337AD5
:102720003721377E3461C01226337A3721397E341F
:1027300061C21226337A37213B9061C4E4937AB3A5
:10274000213DE47AB3214012A5BC3E347E081ECB65
:10275000E4022313906099E4937AB3229E90609EE2
:10276000E4937AB3229F1226207A3722A27E146144
:102770005812B7D57A2722A47A3722A690609DE412
:10278000937AB322AA7E34614E12263312BEEA1225
:1027900026337A3722AD7E346152122633125F4CD3
:1027A0007A3722AF7E3462111226337A3722B19003
:1027B000609FE4937AB322B59060A0E4937AB32249
:1027C000B67E3460A11226337A3722B77E34615A3E
:1027D0001226337A3722B3E47AB31620221266DE49
:1027E0001278A30227E67E3400036D220227EF7DD4
:1027F000437EA33199BEA00550167E7004AC7A5971
:1028000043319C5923319E7CBA047AB33199C32257
:10281000D322123E6B1228341266931225CB7EB35C
:10282000302924FD68090BB178F4125BB580EF12F2
:102830003EBD80EA7E5425C57E4400FF6932000417
:10284000692200020B2A107A1D257A15237E340096
:10285000207E0800237E240006122A8A7E34614EE0
:102860001226331E341E347A7330027E34615012C5
:1028700026330E340E347A7330037E3461541226BC
:10288000331228D57A73300412262F1228D57A7382
:1028900030057E3461581226331228D57A733006FB
:1028A0007E34615A1226331228D57A7330077E346B
:1028B000005ACA397E34615E7E2400FF7E083008EB
:1028C0001222EE1BFDE5247AB33033E5277AB330CC
:1028D00022220B28301E341E341E341E3422CAD845
:1028E000CA79700C7E0828CB122A7974FF12231340
:1028F0006CFF41277E5007AC5F49D221D21ED41E07
:10290000D41ED41ED449C221D41EC41EC41EC41E4B
:10291000C409E221D62E2421461228D21B28307E5B
:102920005007AC5F2E2421481228D21B2830740790
:10293000ACBF19E5214A7407ACBF097521D71975D9
:10294000214B7407ACBF097521D81975214C7CAE99
:102950005EA00F0A2A122A79BD23480241257CEA8B
:102960000A3E09B32218BEB00378024125B401071C
:1029700074FF122A3741250A3E091328CBA5B9FF57
:10298000387401122A377407ACBF59D52146740731
:10299000ACBF59C521486CDD12BECC7E5007AC5D82
:1029A0007E3015AC3E2D122E1428D574071220FB54
:1029B0000BD0BED00378E1806CBE10034004E4125B
:1029C0002A370A3E090328CB7E1007AC017E30155A
:1029D000AC3E7DB12DB059DB28D559CB28D77EB37D
:1029E000225B7013E4122A3E122A8174017E301594
:1029F000AC3E122A3E801D493B28D5122A810A3E50
:102A0000094328CB7E5007AC457E7015AC7E2D3235
:102A1000493328D77407ACBF593521480A3E2E34B4
:102A200028CB12A7EA0BF0906099E493BCBF280270
:102A300001F4DA79DAD8220A3E19B328CB222E140F
:102A400028D56D007CAB6D336C554CAA7E90077811
:102A50000A122A720B7A402D348009122A726947B1
:102A600000022D340B50BE500340DF7E2400038D46
:102A70003222AC957F702DF422906099E4930A3B4A
:102A8000227407ACBF59352146227D427F607D0309
:102A900012AFD17402122B1F7DF34EF400014EF4DD
:102AA000000A122AC47A45357D306D227F0612B0A5
:102AB000335EF4FFFD122AC4022ABBA9C5CAE47A18
:102AC000B331EF2274027D3F7D237C6B0A147C734B
:102AD0007D527CAB7EB331EFB4A53C12BEB175B56F
:102AE00001A936B3FC122B18A936B3FC122B18A976
:102AF00036B3FCA9C6B37A61B5A936B3FCA9C6B38F
:102B00007A71B5A936B3FCA9C6B37AA1B5A936B313
:102B1000FCA9C6B3A9D2B422A9C6B375B500227C5C
:102B20006B6C776CAA7EB331EFB4A54612BEB1755B
:102B3000B505A936B3FC122B18A936B3FC122B1815
:102B4000A936B3FCA9C6B37A61B5A936B3FC122B7A
:102B500018A936B3FC122B18A936B3FCA9C6B37E4C
:102B600071B575B500A936B3FCA9C6B37EA1B5A9E8
:102B7000D2B47C476C550A3A4D32226D337E080040
:102B8000237E240012122A8AE53320E71BA9D5CB25
:102B900074037E7126122BA9740B7E712E122BA941
:102BA000740C7E712F122C0F22F5FD7A71FE22A972
:102BB000D5CB74027E703F122BA9740F1200667C75
:102BC0007B740F5E70FE122BA9740C120066547F8A
:102BD0006808740C7E70F8122BA9906117E4930AB0
:102BE0003B2E340003126FDE0A370B35740E122BA6
:102BF000A974071200667C7B5E70FB906002E49310
:102C00000A2B3E243E247C654C767407022C0F125E
:102C10002BA975FDFFA9C5CB22CAD8CA797DC3905F
:102C20006050E4937CFB906051E4937C0B0A300A83
:102C30005F2D530B547CEB7E3460A3122633123885
:102C400058A9D0C4A9D5CB74071200667C0B7407B1
:102C50007E700F122C0F7E1400787E1F3180791148
:102C600000067E1400807E1F3180791100087E14DA
:102C7000000C7E1F318079110010BEC4000278085C
:102C8000122E1A4E300180164DCC7E1F31807808EE
:102C9000122E0D5E30FB8006122E0D4E30041B1AD4
:102CA000107E1F317C69D10084691100907D412E16
:102CB0003400905E20F61B1A107EB33033BEB0068F
:102CC0004003B4FF0F122E295E30E6122E264E145A
:102CD00001A4800D122E295E14FEE6122E264E301F
:102CE000A41B1A10BEC400027830122E1A5E140003
:102CF0000F122E174E30501258DE12BE6412BE57FD
:102D000068FB12BE361EF41EE450044EF48000141C
:102D100078F37D1F7A172D33A1C96CDDA1C34CDD7B
:102D200078046C11802BBCFD40120A5D0915230547
:102D3000BE102340037E10220B1080150A3F0A5D4F
:102D40009D5309152328BE101C40037E101B2E1016
:102D500024122E1A5E14000F1B1A100A513E543E04
:102D6000543E543E54122E1A4D151258DE12BE64B3
:102D700012BE5768FB7E14000179110012BEC40018
:102D800001782012BE6412BE5768FB12BE361EF4D4
:102D90001EE450044EF480001478F37D1F7402ACDE
:102DA000BD801A12BE3E1EF41EE450044EF4800094
:102DB0001478F37D1F0A3E0A5D2D533E5459152D9C
:102DC000350BD0BCED2802A11EA9D5CB74077C70B1
:102DD000122C0FA9C0C47E1F317C79D100847E1FC4
:102DE000317C794100906D557E1F3180795100060C
:102DF0007E1F3180795100087E1F3180795100108B
:102E00007E1F31807951000EDA79DAD8222E340013
:102E10000E0B1A104E30081B1A107E1F31802E34F4
:102E2000000E0B1A10221B1A107E1F317C2E34004C
:102E3000840B1A1022CAF87CABBEA0343802E123FE
:102E4000BEA03578077EB3235D023021BEA0366870
:102E500005BEA037781F7E35087D230B247A250810
:102E60002E372D2D7E39B0BEA03768030230217574
:102E70001836023021BEA0386805BEA039781C7E05
:102E8000F330877CBF047AB33087BEA039780375EE
:102E900018380A3F09B3236E023021BEA03A6805F4
:102EA000BEA03B781C7EF330897CBF047AB33089A6
:102EB000BEA03B780375183A0A3F09B3239102304C
:102EC00021BEA0FB78077EB3235F023021BEA03C69
:102ED0006805BEA03D781C7EF3308B7CBF047AB3BE
:102EE000308BBEA03D780375183C0A3F09B322C75A
:102EF000023021BEA03E6805BEA03F781C7EF330A4
:102F00008D7CBF047AB3308DBEA03F780375183E28
:102F10000A3F09B322EA023021BEA040400EBEA003
:102F20004838090A3A09B33063023021BEA04E681E
:102F300005BEA04F781F7EF330A87CBF047AB33063
:102F4000A8BEA04F780375184E0A3F2E372D2B7E52
:102F500039B0023021BEA0516805BEA05278297E4A
:102F60001460006D002E0400FF7EB330B30A3B6D89
:102F7000222F107E1B70047AB330B3BEA0527803A8
:102F80007518517CB7023021BEA05C6805BEA05DFB
:102F9000781A7EF3307C7CBF047AB3307CBEA05DAF
:102FA000780375185C7CBF12A04B8075BEA0604092
:102FB0000DBEA06C38080A3A09B331548063BEA034
:102FC000F46805BEA0F578187E350A7D230B247AB7
:102FD000250A09B32D33BEA0F578467518F4804153
:102FE000BEA0F06805BEA0F178097C1A2E101EA5BF
:102FF000E7802EBEA0F26805BEA0F3781B7E150EFA
:103000003E147E1F2D2F2D310B1A30BEA0F27804F6
:103010000A56800D7D538009BEA0FD7803E480012F
:10302000E4DAF82212358AB40119CA397E1830A3BD
:103030007E081EC21222EE1BFD7E1F1EC67E0F1EC4
:10304000C28017CA397E1830A37E0823BD1222EE33
:103050001BFD7E1F23C17E0F23BD02305D7A1F231F
:10306000497A0F234522CAF87CAB4CAA78097CB771
:10307000125A71D20841C5BEA001783D7A733064FE
:10308000A5BFAD02802FA5BFAE04D20941C5A5BF23
:10309000AA05124854801EA5BFAB0A7E34057A7A71
:1030A000372D2D8010A5BFAC02800241C57E3404AF
:1030B000FC7A372D2D6D33214ABEA0044022BEA0DC
:1030C00008381DD2081232C8BEA00778076D337ABF
:1030D000350A41C5BEA008680241C512005741C566
:1030E000BEA00A7809430C207A73306D41C5BEA09A
:1030F0001E400DBEA02338081232C8430C4041C503
:10310000BEA0164012BEA018380D1232C8D20874E4
:10311000077AB3306741C5BEA0197807E47AB330A7
:103120007C41C5BEA0244007BEA02C3802416CBE25
:10313000A02D781B1232C820090241C57E63308F52
:103140007C466C550A372D323E347A350841C5BE6F
:10315000A02F400ABEA0333805430C08416CBEA026
:1031600034780F430C10BE70643802416C7E70647A
:10317000416CBEA0386805BEA0397820430C017EA2
:10318000F330887CBF047AB330880A2F1972236E1B
:10319000BEA039680241C575183841C5BEA03A685D
:1031A00005BEA03B7820430C027EF3308A7CBF042E
:1031B0007AB3308A0A2F19722391BEA03B6802416C
:1031C000C575183A41C5BEA0FB7809430C047A7353
:1031D000235F41C5BEA05078067A7330B341C5BEA7
:1031E000A03C6805BEA03D7820430C017EF3308CE6
:1031F0007CBF047AB3308C0A2F197222C7BEA03D5F
:10320000680241C575183C41C5BEA03E6805BEA018
:103210003F7820430C017EF3308E7CBF047AB330BC
:103220008E0A2F197222EABEA03F680241C57518A6
:103230003E41C5BEA040400DBEA04238081232C873
:10324000750D01800BBEA043780B1232C8750D02BC
:103250001230248070BEA04478081232C812348222
:103260008063BEA0456805BEA04678051232C880BE
:1032700054BEA04E6805BEA04F7821430D047EF3D6
:1032800030A97CBF047AB330A90A2F2E272D2B7AC0
:103290002970BEA04F782E75184E8029BEA0F04030
:1032A00024BEA0F3381F7C1A2E101E7CB7A5F7BED3
:1032B000A0F378117E15107E050E3E047E1F2D2F83
:1032C0002D301B1A10DAF8220A2A19723063227A7A
:1032D000B3234D70197E1F23C17E0F23BD12305DB5
:1032E0007E1806767A1F06F47E18047E8015B401D7
:1032F000167E1F1EC67E0F1EC212305D12668A7EAB
:103300001804007A1F06F822740112001EE412321B
:10331000CF123320E412001E74011232CF02332088
:10332000CA3B906125E4937CDB906126E4937CCBDF
:103330007E082A457E340046743F1223137E082AF5
:103340008B7E3400461223137E082AD17E34000A75
:10335000E41223137E082ADB7E34000A1223137E34
:10336000F323497E1823297A1D237E182AD17A1D3A
:10337000277CBD7C7C7E0823061234C66CEE802B35
:103380000A3E09A323290A3A2E3422A81235997C31
:10339000ABBEA01C50130A3E1234440A4A19B42A88
:1033A000457EB3234819B42A8B0BE0BCCE38D16CD0
:1033B000EE80240A3E09A32306BEA02350170A2E3E
:1033C0000A3C2D321234440A4A19B42A617EB323CE
:1033D0004819B42AA70BE0BCDE38D87EB3234A7E56
:1033E000082AE560097E182AD112B0A7800312745A
:1033F0006D6CEE7E182AE57A1F2A357402ACBE4940
:10340000352AD17A372A397402ACBE49352ADB7A9B
:10341000372A3B7E700EAC7E2E342A456D227A1FF1
:103420002A3D7E700EAC7E2E342A8B7A1F2A417E76
:10343000082A357CBF7C7E1207200BE0BEE00540E9
:10344000B2DA3B222E37234B7E39B02274017AB395
:103450003029127FE812128B1273E5E41208007E05
:103460002403D412484474011232CF1253DB7E3449
:10347000D00C12010E1233087E340001E46C5502A8
:10348000119712358AB4011CCA397E181EC27E08F3
:1034900030A31222EE1BFD12484B7E1F1EC67E0F6C
:1034A0001EC2801FCA397E1823BD7E0830A3122297
:1034B000EE1BFD7E3723C37A372D2B7E1F23C17E63
:1034C0000F23BD02305D7C577CAB6C7780500A4780
:1034D0007E7D232DF47E7B600A462E4422A87A91BD
:1034E000827A8183E4937C6BBE600D38127ED400B7
:1034F000017CB660053ED41478FB7E7D2780159E46
:10350000600E7ED400017CB660053ED41478FB7E4C
:103510007D270BF50B7A404D4D1B7A400B70BC5745
:1035200038AC6C7780580A277F702DF27E7B60BEA6
:10353000600D381112358360053E441478FB7E7DA2
:10354000270BF6802FBE601B38169E600E12358347
:1035500060053E441478FB7E7D272EF4000680141F
:103560009E601C12358360053E441478FB7E7D27E7
:103570002EF400080B7A204D241B7A200B70BCA778
:1035800038A4227E4400017CB6227EB330A77E346C
:103590000004222D322E3423357A71827A6183E43D
:1035A0009322CA3B6CFF7529007E6403E86CEEC170
:1035B000D26D337A352A7A352C7A352E7A35307AAF
:1035C00035321A2E1237077D232E24129E7A253487
:1035D0002E3412AE7A3536752501E5251A3B09538E
:1035E000315C1A252E353412359912370E7D137E33
:1035F000052EBD0158037A152EE5251A3B095331D6
:103600006C1A252E353612359912370E7D037E350C
:1036100030BD3058037A05307D312E352A7A352A6F
:103620007D302E352C7A352C2D017E3532BD30582B
:10363000037A05320525E525B4109F7E352ABE3470
:1036400001800802C1D07E373144BE352C5802C1FA
:10365000D07E352EBE34002D58767E37315ABE3599
:1036600030086D7E15347E0400FF7E18315C12BB7D
:1036700071F526BEB03848587E15367E0400FF7EB0
:1036800018316C12BB71F527BEB03848437E7127E4
:103690000E701A277E71260E701A372D327A712815
:1036A000BE7046482B7E352E2E352E2E35327A357D
:1036B00038E5281A2B7E3400649D323E342E35388E
:1036C0007A3538BE653808087E65388528297CFE3D
:1036D0000BE07E7331DBBC7E0802A1B1E529BEB0F0
:1036E00046481B1A2F1237072E34129C123599BEEA
:1036F000B0FF500A1A3F0B347A73314A8006747E49
:103700007AB3314ADA3B227E340022AD32221A3BB0
:103710009D320223457C967CA71232CF7CBA123DA3
:10372000AD7CB912001E023729CA3B906126E49392
:103730007CEB7EF3234774017AB323477E0822BED5
:1037400012046812BF177E17234B6D0090612793F8
:103750000A3BE41223137ED0077E3403E812385864
:103760006CCC80197E3400017CBD60053E34147839
:10377000FB7C6712BEE04C767A29700BC01237EEE4
:1037800038E21250CF12000660FB12BED6906125BF
:10379000E4937C7E1252B86CCC80297402ACBC4994
:1037A0003506FCBE34154050197E3400017CBD60E6
:1037B000053E341478FB7CB764FF12BEE05C7B7A74
:1037C00029700BC01237EE38D21BD0BED0005889FA
:1037D0001250F2740212BF28125062740212001EBC
:1037E0007AF323477E0822BE120468DA3B229061F6
:1037F00027E493BCBC22CAF87EF33067BEF005789C
:103800000B74017AB330671200428034BEF0047842
:1038100013123849122633123858E47AB3234F1260
:103820005270801CBEF006781D12384912263312E1
:1038300038581248BEE47AB3236B12386312BF1FA4
:1038400074027AB33067DAF82274017AB330677E93
:103850003460A3227E340DAC6D227A2731B07A37E2
:1038600031B2227EB3236B70237E3403E8123858C2
:1038700012792E50FB12751412777D201103129AC3
:10388000F074027AB3236BE47AB3161F227EB3304E
:1038900027146857147802212814686724036802E3
:1038A0002120123A6238077EB330C4B4010A127F75
:1038B000A4E47AB303FF80707EB3300830E0697E01
:1038C0003703FD7E4403E87D538D547E5330090A4F
:1038D00015BD5150117EB33052B4014C7E24009678
:1038E0008D32BD314042123A55803D123A62283342
:1038F000E47AB330277EB303FFB40103123A5BD2FC
:103900001580207E3460A5122633123858123B43AE
:103910001225F5E47AB330277AB331E1D215800865
:10392000123A5BE47AB331E1123BB702392ECAD8BE
:10393000CA797EB33027B40102800241506CDD6C3D
:10394000FF1287C67DD312792E50FB74011232CF3D
:10395000123DAD12BF177EC7235A7AC5237EE323DB
:103960004774047AB323477EC7235A5EC4003F7A64
:10397000C7235A7E0822BE120468E412001E6CAAF5
:10398000801A7E3002AC3A49C105F83EC43EC41EDE
:10399000C47E1F31CD2D311B1AC00BA01253E2384B
:1039A000E1740112001E7EB3234712B10D7C7B74BB
:1039B00008AC7B7E2400041220287D2D12B1040A5D
:1039C00037AD327A3723547E0822BE1204687E3423
:1039D00003E8123858742812880B1250E0800F80C8
:1039E00007123AC4E4123AFC2093F6123A943016C5
:1039F000F73015F4D201123A75E41212740BD0129A
:103A000084B0123A6A78187EB303FF6012E47AB386
:103A100003FF7AB322547AB322557EF001801A1242
:103A20003A6A68107EB303FF700A7EF001E47AB34D
:103A300030278005BED0324095E47AB323517E35DD
:103A4000237A37235A7AE323474CFF6803124CE169
:103A5000DA79DAD8226D337A3703FD74017AB3301C
:103A600027227E732254BE7000227E7331CC0A3727
:103A70005E34000222300106123B9502122C12BF66
:103A80004FC202023A86A9D0CE300204A9D1C9227F
:103A9000A9C1C922301605C201123A75A9D1CDA912
:103AA000C5EA301503201614123AC4A9D0CEA9C411
:103AB000C97402123AFCA9D0CEA9D4C9A9C1CDD2E9
:103AC00001023A7574817AB331DC22801D123AC446
:103AD000123DA56805C201123A757EB3319BBEB096
:103AE000026818201515E4123AFC2093E0123AC43B
:103AF000A9D1CDA9C5EA7402023AFC227CAB7EB3FF
:103B000031DCB481384CAA7805A9D0878029BEA0C1
:103B100001780FC2AFA9D0CEA9C7C9A9D187D2AFAA
:103B20008015BEA0027816C2AF209309A9D0CEA9F5
:103B3000D7C9A9D187D2AF000000000000E47AB352
:103B400031DC22123AC41287BD75CD00A9D6EBA98B
:103B5000D7CDC2CE7E0800247E180023123DF1741A
:103B600001123AFCA9C6EBA9C7CDD2CEE5247E71DD
:103B700023023B747C6BA9D5CB740F122BA97A61FD
:103B8000FC122C12123E31D200123E20123B951232
:103B9000127402122CD202123A86740122D20080D0
:103BA0001230000C123DA56807C200C201123A751E
:103BB000123ACB3015EB227401123BD620150612B7
:103BC0003B9D12006E7EB3319BB40106123D8B12F9
:103BD000006EE4023BD612BEB8500312BEFC023B9C
:103BE000E1A9C1C4A9D2C4A9C2E12230083BC208DC
:103BF0001237F67E7330687A73229E7E7330697A4C
:103C000073236A7E7330697A73234E7EB3306A60A1
:103C1000187E340002122C197E340001122C196D0A
:103C200033122C19E47AB3306A124FFD023C2FE5AF
:103C30000C7002A18AE50C30E045530CFE6C7780D5
:103C40002C7E6322C60A26096222C70A177E5322E7
:103C5000BE2D21196222C77E6322C60A260962236D
:103C60006E7E5322BE2D211962236E0B707E63225D
:103C7000C5BC6738CC12739F7E0822BE1208B8E517
:103C80000C30E106530CFD12747EE50C30E2325329
:103C90000CFB7EB3235F60097E0822BE12056E8096
:103CA0000B7EB323B27E7323B11209F37E73235FBD
:103CB0002E70FF9201906051E4939EB322C41209CA
:103CC00064E50C30E34E530CF77E7330957A732322
:103CD0005C129A067AB3005FBEB0FF680B430C20FB
:103CE0007E73005F7A73306D12A1D9120BB87E73A8
:103CF0003096BE7323AF68067A7323AFD20E300EB0
:103D000009C20E127FE8E41208001225EB7EB323ED
:103D10005C12956FE50C30E40F530CEF7E43309747
:103D20007E500AAC45124844E50C30E64E530CBFB9
:103D30007E733083BE7007280674077AB33083A978
:103D4000D5CB740E1200667C7B5E700F7E63308371
:103D50000A262E240003125EF47C654C76740E1243
:103D60002BA9120066122C127E7330867A7323619F
:103D70007E7330857A73236C12BF1FE50C30E50A21
:103D8000530CDF7EB3306D0248F02274C87AB33131
:103D9000E0C215800A123ACB30150475E9FF2212F1
:103DA0003DA568F1227EB3319BBEB0012212125DA7
:103DB000740A7CAB800E7E70038001007C671B70F0
:103DC000A5BE00F77C6A1BA0A5BE00EA2212BEB801
:103DD000500312BEFCA9D0CEA9C0C9D202123A86A5
:103DE000A9C2EA75C10675C20CD200123E20023B80
:103DF000E112BF4FC20012AE84C202123A86C20064
:103E0000123E20A9D5CB740F1200667A1BB0740F36
:103E10006C77122BA9E5FC7A0BB043FC10022C1234
:103E2000300007A9D7C1A9D7C222A9C7C1A9C7C253
:103E300022CAF8A2AFE4337CFBD20012AE84A9D030
:103E4000CBC2AFA9D09E759D00A9D09E759C20A91C
:103E5000D09EA9D49EA9D0CD7441123DB2A9D09EC6
:103E6000A9D79E2EF0FF92AFDAF822E4123DCD12D0
:103E7000AF007E3403E812385812AF53122BAF1242
:103E8000AE7A12AF0C12011D12AF1812784B12AF9E
:103E900028D2AF12AE9212AFB7122B7B123E317EF8
:103EA0000831B412AF74906050E493CAB890605176
:103EB000E4937C7B7E24FFFFDAB80210FC12481BDF
:103EC0007EB33029B4036312AF5B7E3403E812384B
:103ED00058123BEB7EB3306330E7E5124CFB124DDA
:103EE000EDCA397E1804007E0804FC1222EE1BFD88
:103EF000124DEDCA397E18047E7E08057A1222EE34
:103F00001BFD7EB3236AB4010F128735125FBC120A
:103F10007DCB128BD4123F3A12486712A0C87EB3F1
:103F20003063547F7AB330638096125FF2023F3081
:103F3000E47AB3234F7AB3236B2212886B12417455
:103F400012417412479D12417412A5D91241741284
:103F50004174023F55CA3B7523006CCC6CDD7EB3C7
:103F600022BFF5247EF3211C0ACF3EC4CAC97E18A5
:103F70001FCE7E082A351222EE1BFD6C226CEE024B
:103F800040257E0403FF7EC0FF6C3380547402AC76
:103F9000B309B52A35BEB0FF68457CB312415B60FA
:103FA0003E7402ACB309752A360A277402ACBE0906
:103FB0007531080A379D321223457D437402ACB334
:103FC00009752A350A277402ACBE097531070A370C
:103FD0009D321223452D43BD0428047D047CC30B70
:103FE00030BCF338A8BEC0FF68397E7002AC7C09D3
:103FF000B32A3509732A361242EDBE3722AB482365
:104000007E7002AC7C09532A357402ACBD19552A66
:104010007109532A3619552A7274FF19B32A350BC0
:10402000200BD00BE07E733143BC7E2803023F821D
:104030007CE2807F6DDD7E20FF6C33804E7CB3128E
:10404000415B60457E9002AC9309742A35BE70FFD7
:104050006837E524ACB77DF53EF409A42A367E1016
:1040600002AC1A2DF02EF7138A6DEE0B7A00BE0407
:10407000000058056D001B7A000B7A00BD0D080981
:104080007A71237CCA7DD07C230B30BCF338AEBE62
:1040900020FF681D7E71237402ACBD19752A711949
:1040A000C52A727EA0FF7E1002AC1219A02A350B21
:1040B000D00BE0906099E493BCBE2802013490607C
:1040C0009A1287B6A4CA597E182A717E082A351218
:1040D00022EE1BFD7CFD1241367E08310774FF1273
:1040E0002313BEF00028350A3F3E34CA397E182A11
:1040F000357E081FCE1222EE1BFD0A3F3E34CA3920
:104100007E182A357E0831071222EE1BFD6CEE80E8
:10411000077CBE1241B60BE0BCFE38F57AF33143A2
:104120007AF3211C906099E493BEB3211C50047A69
:10413000B3211CDA3B22906099E4937C7B7402AC3F
:104140007B221241367E0828B6E412231390609930
:1041500012413A7E082895E40223137C7B1247F231
:1041600009A220467CB754070A3B2E34005E123564
:10417000995CBA22CA796CFF6CEE802E7CBE12412B
:104180005B60257E340002CA39AC7E2E341FCE6DB2
:10419000227E3002AC3F2E141FCE6D001222EE1B89
:1041A000FD7CBF1241B60BF00BE01247CF38CD7A41
:1041B000F3211CDA79227E70017C677C7BC4235456
:1041C0001F7CAB7CB754070A2B2E24005E1247DA03
:1041D000E4937C7B4C66680F0A2A2E2420467E29B5
:1041E000B04CB77A29B0227CB764FF0A2A2E24206B
:1041F000467E29705C7B7A297022CAF86CFF801792
:104200007CBF1242D8BE3722AD580A7CBF124794F9
:10421000AC7F1247AC0BF01247E438E4124174DA79
:10422000F8221241747EB3211C60067EB32F846095
:1042300009E47AB32F867AB32F0B7EB32F84706F85
:104240006C3380637402ACB309251FCE09151FCFF0
:104250007CB31247F9404E6C0080427402ACB00946
:10426000952F0C09852F0D0A220A391242D0782B7E
:104270000A210A381242D078227CB31242D87EF446
:10428000622A7EE400FF0B7A20BD32580E7CB36CAC
:10429000771241B97CB27C711247B40B007E732F48
:1042A00086BC7038B60B307E73211CBC7338957E8B
:1042B000732F0B7A732F860A373E34CA397E182F34
:1042C000487E082F0C1222EE1BFDE47AB32F8422C5
:1042D0009D321223454D33227CAB7E7002AC7A09AD
:1042E000B31FCE09731FCF0242ED7E71237E53228E
:1042F000BFAC5B3E247402AC7B2D322E37138A0B8D
:10430000383022CA796DFF7EE322BF7EF322BE7E63
:10431000B3211C700261997EB322556002807A7EBF
:10432000A31FCE7E731FCF7A71236C886D006C99AA
:104330000A17801C124683081D0B80BEA0002806A9
:104340007CBA141245A712468F58031245A41B14B9
:10435000BE14000058DEE5230A1B801A12468308AB
:10436000210B80BEA00028067CBA141245A7124675
:104370008F58031245A47D310B347D130AEEBD3EE8
:1043800048DABE8003500280107D301223450A298E
:10439000122028BE3400280807E47AB32A0B812BA8
:1043A0006DEEBEA00028087CBA141242EA2DE30A82
:1043B0002F1B240A3ABD32580B7CBA047E7123129B
:1043C00042ED2DE37E700880287E5002AC577DD2EE
:1043D0002ED423257D7D7AF1827AE183E4931ADB62
:1043E000BDDE080D2E2423261247DAE4931A2B2D66
:1043F000F27C671B70A5BE00D07CBA1242EA122381
:1044000045BE3409C408042EF40028BEF400FA287E
:10441000047EF400FA7EB32A0B0AEBBDEF50087D50
:104420003F7CB77AB32A0B7EB32A0BDA79227CBDA4
:104430007C7E7F047F707C077C9B7E80047E532281
:10444000BF7E3462097DD37EC400FF0B6AC07DDC71
:104450006C11AC590AB02DB23EB42EB7138A6DAAB6
:104460000B5A20BD2C080C7E272122BE24032008D5
:1044700002A1651226331E340B5AC0BDC3080C7E40
:10448000C72122BEC403205802A1656CAA7C2980E2
:104490001C7C30BE200048117EB322BEBCB208098D
:1044A00012459A58140BA080020BA01B201A281A40
:1044B000399D321AC2BDC318D8BC8A18054E1001E6
:1044C000A1656CAA7C29801C7C30BE200048117E2E
:1044D000B322BEBCB2080912459A58140BA0800240
:1044E0000BA00B201A281A392D321AC2BDC348D886
:1044F000BC8A18054E1002806C6CAA7C30801C7C33
:1045000029BE300048117EB322BFBCB30809124552
:104510009A58140BA080020BA01B301A281A309D49
:10452000321AC3BDC318D8BC8A18054E1004803592
:104530006CAA7C30801C7C29BE300048117EB322DE
:10454000BFBCB3080912459A58140BA080020BA0F7
:104550000B301A281A302D321AC3BDC348D8BC8A72
:1045600018034E10084C11682E7E7BB0BCB9400376
:104570007A7B9029B70002BCB93804399700022928
:10458000B70001BCB040043907000129B70003BCE3
:10459000B03804390700037CB1227CB27C7312422C
:1045A000EDBD3D227CBA047C731242ED2D030B90CD
:1045B00022CA3B7CC77CFB7F406D337A35237CEC81
:1045C000801C7525007CDF800A12442E700A12467A
:1045D000781BD0BED00058F1E52560071BE0BEE097
:1045E0000058DF7CEC80237525001A3F0B347CD704
:1045F000800A12442E700D1246780BD07E7322BEB4
:10460000BC7D18EEE52560071BE0BEE00058D81A17
:104610003C0B347CE7801C7525007CDF800A12444B
:104620002E700A1246781BD0BED00058F1E52560E6
:104630000A0BE07E7322BFBC7E18DC1A3C0B347C74
:10464000E780217525001A6F0B64800A12442E70D2
:104650000D1246780BD07E7322BEBC7D18EEE52588
:10466000600A0BE07E7322BFBC7E18D77E35237DA7
:104670002339540005DA3B2205257E35230B347A95
:104680003523227CBA7C731242EDBE340078220AB4
:104690003F1B340AEABDE322CA796CFF6CEE80341A
:1046A0007CBE1242D8BE3722AB48277CBE12415B8B
:1046B00060207E340007CA39AC7E2E34204A6D2239
:1046C0007E3007AC3F2E1421466D001222EE1BFDFA
:1046D0000BF00BE01247CF38C77A73212B7AF32205
:1046E00054DA7922CAD8CA797E34622612478C12EB
:1046F00090EB5002E1877E34622A1226337A352904
:10470000906225E4937002E1877EB32140B40107F3
:104710007E34622812478C7E372122BE34044C0836
:10472000666CDD805AC2007CBD1242D87A35257C89
:10473000BD7E700112AA107A35239E35257A352365
:104740007E35253E343E341247EB7A3527BE752739
:1047500058037A75277E3527BE3523080A7E35290A
:10476000BE35250802D2007CBD1247F95002C200B6
:1047700030000A7CBD124794AC7D1247AC0BD07E52
:1047800073211CBC7D389EDA79DAD8227E2400FFA2
:104790000B1A70226C771241B97E700222128FFEC2
:1047A000128F701290151246E402422209B31FCEF6
:1047B00009731FCF7C6B7EA32F0B7E5002AC5A195E
:1047C000622F4819722F487CBA047AB32F0B227ECD
:1047D00073211CBC7E222E2422A87A51827A418326
:1047E000220246987E73211CBC7F227E2400020296
:1047F0002028C423541F0A2B227C4B7402ACB4091A
:10480000551FCE09651FCF7E732124BC75780A7EA3
:10481000732125BC767802D322C322124854124851
:104820004B6D337A350A12488412485D743C7AB372
:1048300030977E240258124844E4124FBF6D337AF9
:104840003731DE227D3274FA0211667E371EC87A55
:10485000372D2B227E340DC87A372D2D22906119E9
:10486000E4937AB3309622A20CE4337AB330917E8B
:10487000733095BE73235C680AE50C700612488499
:1048800012485D227E73235C7A7330957E73236CAD
:104890007A7330857E73236D7A7330847E732361DF
:1048A0007A7330862230000312489CA201920212D1
:1048B00049EF0248B57E73236D7A733084227440C9
:1048C0007AB3236D124E515009D200D2011248A57D
:1048D0008015740112496D7E4330827E5064AC4570
:1048E0001283D47AB3236C1248B5124C8E02489CC2
:1048F000CAD8CA797CDB9061C5E4937CABBED0801A
:1049000078187EE0FF6CFF800B12496138047CEB65
:104910007CDF0BF0BCAF38F1801ABED08178156C0B
:10492000EE6CFF800B12496140047CEB7CDF0BF0E6
:10493000BCAF38F1BCAD38026CDD7CBD12961912EB
:10494000489C124C8E1248B57E73235C7A73309566
:104950007E7323AF7A7330967AD3306DDA79DAD8F2
:10496000227E9005AC9F09B41F07BCBE22CA3B7CC7
:10497000DBE47AB323617E0822BE120BB87EC00A44
:10498000124C9E12004660FB740112000E7E1F3115
:10499000951284507D73BE74FFFF78091249E32E8F
:1049A0003400038018BE74800028071249E30B35D9
:1049B000800BBE744000280C1249E30B341B0A30F4
:1049C0001BC078BCBED00178097E1F31951283F3DD
:1049D0007D737E1F31846931001A7A7323617D37BC
:1049E000DA3B227E0F31842E14001A0B0A3022CAC1
:1049F0003B7E34FFFF7A352E7EB322BEF5257EB393
:104A000022BFF5267EB322C1F5277E3427107A35E2
:104A1000287E1840007A1D2A124C9712004660FB2F
:104A2000740112000E7E0834001287A26CFF8038D9
:104A30009F776CEE80197E1126AC1E3E047E3002FC
:104A4000AC3F2D107E1D2A2D310B1A30124C46E53D
:104A500025BCBE38E1E5250A1B6D00124C4D7402E1
:104A6000ACBF593534000BF0E527BCBF38C26CFF32
:104A700080729F776CEE124C6B1E341E2450034ED6
:104A800060801478F4124C46BEE00B78E97E140086
:104A90000B7F17122074124C527404ACBF593503AB
:104AA00070E527BEB00B282E9F777EE00B80121298
:104AB0004C6B1E341E2450034E60801478F4124C4C
:104AC00046E527BCBE38E8E5270A1B6D009E0800B6
:104AD0000B124C4D80047E3410007404ACBF593569
:104AE00003720BF0E525BCBF3888E5270A1B6D0073
:104AF0007E1802661220766CFF802E7402ACBF49CD
:104B00002534000A5FAD537E1410009D15AD12745C
:104B10000C1E141E0450034E20801478F47D217462
:104B200002ACBF592534000BF0E527BCBF38CCE5FB
:104B3000250A1B6D007E18007A1220766CFF805CBF
:104B40007404ACBF492503700A1FAD137EF4100036
:104B50009DF1ADF2740C1EF41EE450044EF480007E
:104B60001478F37D2F7404ACBF59250370E527BE7C
:104B7000B00B28267404ACBF492503722E14100014
:104B8000AD12740C1E141E0450034E20801478F4D1
:104B90007D217404ACBF592503720BF0E525BCBF21
:104BA000389E7E73307A0A376D22740C2F11147878
:104BB000FB7EF400647D1F1220747DE37AE52E7E77
:104BC00073307B0A376D22740C2F111478FB7D1F14
:104BD0001220747D636CFF80207402ACBF494534A1
:104BE00000BE452E28097E352E593534008008BD7B
:104BF000465004596534000BF0E527BCBF38DA6C29
:104C0000FF803A7404ACBF49450370BE452E2809A5
:104C10007E352E593503708008BD46500459650312
:104C20007049450372BE452E28097E352E5935033D
:104C3000728008BD465004596503720BF0E525BC2F
:104C4000BF38C0DA3B226D222F710BE0227F171292
:104C500020767F717E2528740C7D137D326D226055
:104C6000052F111478FB0B140220747E1126AC1F43
:104C70003E047E3002AC3E2D107E1D2A2D310B1AD3
:104C8000D07402ACBE49353400AD3D740C227E7345
:104C9000236C7A733085227E0822BE120BB8E41290
:104CA000000E74017E70991211C202004EB40310FE
:104CB0001277D2E412000E7E0822BE120BB88002D8
:104CC000E422124CA27401221279253802E4221245
:104CD000791D4955319CBEB00238030251AC024CDB
:104CE000ADE47AB3319B7AB3319A124CC8B4010463
:104CF0007401800274037AB3319B22CA3B12792E6D
:104D000050FB1293587EB3235CF5237EB3236CF5DE
:104D1000247EC3236D1296537EB3161F7006124C69
:104D2000E1C3A1EA124DEDCA397E1806FC7E0804E3
:104D30007E1222EE1BFD124DEDCA397E18077A7ED7
:104D40000804001222EE1BFD7EB33029B4030712C3
:104D500053EA7A3730AA74017AB3161E124F817E55
:104D6000D303FC124DF7E4121274124CE17E0804D6
:104D70007E7A0D257E1806767EB323BF1252FA7E08
:104D80000804007A0D257E1805F87EB31EC4125261
:104D9000FA129C77E5247AB3236C7AC3236D124E02
:104DA0005150057CBD124FC87E34080A7E040DC8E0
:104DB0007D207D10124E62129C6EE523129A2812FD
:104DC00092EB7EB331E1047AB331E17E7331E1BE1F
:104DD00070FA280674647AB331E17EB3161E600956
:104DE0007EB3161F6003D38001C3DA3B2290612794
:104DF000E4930A3B3E34227EA3005FBEA0FF6848D6
:104E0000BEA303FC68427405A412BF05124E4912EA
:104E10009C65124E49129C5C124E5150097EB300A3
:104E20005F124FC88006124E49129C5312A1D9122C
:104E300001207E7323610A377E0F31847930001A96
:104E40007E73005F7A7303FC227EA3005F7405A467
:104E5000227EB33029B403087EB330797002C322B6
:104E6000D3227EB322BECAD8CA797CFB7DC07DD155
:104E70007DF27DE3124E51505B6CEE800F124F5F5E
:104E8000124F457E343400124F6C0BE0BCFE38EDFF
:104E90006CEE803A124F5F6CDD801FBED00B740445
:104EA0005008ACBE493503708006ACBE493503726C
:104EB0007402ACBD593534500BD07E7322C1BC7D19
:104EC00038D9124F457E343450124F6C0BE0BCFE83
:104ED00038C2802C7AF32AF97E7322C17A732AFAB7
:104EE000E47AB32AFC74067AB32AFB7AD72AFD7ACD
:104EF000D72B017E082AF97E73236C0A37120CDC4B
:104F00007AC72B01E47AB32AFB124F567AF32AF9B7
:104F10007EB3236A700FE47AB32AFC7AD72AFD7E27
:104F2000340020801074017AB32AFC7AE72AFD7AD3
:104F3000F72AFF6D337A372B037E082AF9120B4DBF
:104F4000DA79DAD822740C7AB32AFB74017AB32A9C
:104F5000F9E47AB32AFC7E7322BF7A732AFA227E9E
:104F60007322BFAC7E3E347DBD2DB3227A372AFD3D
:104F70007D3B7A372AFF7A372B017E082AF9020C0B
:104F80001E125270123863024F8A301110124E51A5
:104F9000500312A10D127514129AF0C21122124F71
:104FA000BD127FA47A3731DE123854124F81024F7E
:104FB000B174037AB32839E47AB328942274017A5D
:104FC000B3234E7AB3236A22CAF87CFB7E340038BE
:104FD000CA39AC7F2E3400606D227E083400122264
:104FE000EE1BFD7E34008CCA39AC7F2E3401406D3F
:104FF000227E0803701222EE1BFDDAF822E50D6016
:1050000060E50D30E00A530DFE7E0822BE120468F2
:10501000E50D30E114530DFD7EB330A7700474012B
:105020008001E412BF2812534FE50D30E233530DD7
:10503000FBE47AB330A87EB330A7700F740112007E
:105040001E7E1F23C17E0F23BD800CE412001E7E36
:105050001F1EC67E0F1EC212305D7EB32349025052
:105060006222CA791253C0937C7B6CEE801F0A2E99
:10507000096223290A261247D6E4937C6BBE601C82
:1050800050090A2E1250C519B22A350BE0BC7E38E1
:10509000DD6CEE801A0A2E09622306BE6023500DD5
:1050A0000A1E0A272D211250C519B22A510BE0BC45
:1050B000AE38E26CEE1253B01210820BE0BEE00587
:1050C00040F3DA79222E27234B7E29B00A26227458
:1050D0000212001E7EB32349125062740212001E97
:1050E00074057E709B1211C21251807EB323490257
:1050F0000D39CAD8CA797EF00A74017AB323479071
:105100006127E4937CEB806B7E3403E812385812FD
:1051100050CF12000660FB12BED67EB322BE7E7355
:1051200022BF1252B86CDD803D7E5002AC5D493228
:1051300006FCBE34147850140A1D2E17234B7E191A
:10514000B0BEB000281E147A19B08018BE341928D9
:1051500028100A3D123444BEB0FF6808047A39B002
:1051600080021BE00BD0906127E493BCBD38BA4CA1
:10517000EE68087CAF1BF04CAA788DDA79DAD82279
:105180006CAA80220A3A097323292E3422A81235E8
:10519000997C7B0A477E5002AC5A7E0F317C2D12DF
:1051A000794000480BA01253E238D9227009E4126A
:1051B00051E712125D800BB4010D74011251E71218
:1051C000125D12001E8002E4227E0822BE120468D4
:1051D0007E7323470A373E343E34E47E5001121179
:1051E000971250E07401227AB3234D700A7E1F2378
:1051F000C17E0F23BD800BB4010B7E1F1EC67E0F28
:105200001EC212305D22CAD8CA797CFB7F517F4012
:105210007F151277F71253DB7EE0011250E0120087
:105220000660FB740212001E7F04906125E493CA9D
:10523000B8125457DAB81252B86CDD80187402AC48
:10524000BD7F142D350B1A207402ACBD7F052D15C2
:105250001277E40BD0906127E4937C7BBC7D38DD32
:105260001BE078B77F057CBF1252C0DA79DAD8220A
:105270007EB3234F704112792E50FBE46C776C663D
:105280001237157E0806FC7E1F06F47EB323BF127C
:10529000520674017E70017E60011237157E080788
:1052A0007A7E1F06F47EB31EC412520674027AB3CD
:1052B000234FE47AB3161E22120F83740202001EDB
:1052C000CAD8CA797CF77F7012B10D7CEB6CDD8097
:1052D000207402ACBD7F672DD50B6A306D2274043B
:1052E0002F111478FB0A1E6D001220761B6A300BFA
:1052F000D0BCFD38DCDA79DAD822CAF87CAB7F5131
:105300007F40906127E4937CFB7E0D257CBA7C7FF7
:105310001252C00A3F3E34CA397E1D257F04122234
:10532000EE1BFD7EB3234EB401226CAA801A7E7060
:1053300002AC7A7F052D130B0A207F042D130B0A74
:10534000309D321B0A300BA0BCFA38E2DAF822CAD0
:10535000791253C0937C6B6CEE80200A2E09722365
:1053600029BE701C50130A271247D6E4937C7B7E1B
:10537000B323480A2719B22A350BE0BC6E38DC6C1F
:10538000EE80170A3E09732306BE7023500A7E631F
:1053900023480A2719622A510BE0BCAE38E56CEEAF
:1053A0001253B01210C00BE0BEE00540F3DA7922D0
:1053B0007E300EAC3E2E142A356D007CBF7C7E22E2
:1053C0007CFB7E082A357E340046743F12231390FE
:1053D0006125E4937CAB906126E4227E0822BE0224
:1053E000002E906126E493BCBA226D11E412001ED7
:1053F0006CAA805B7E1002AC1A7E7F31CD2DF069E5
:10540000270100693700809D32122345BD312816DF
:105410007E7002AC7A7E0F31CD2D136920010069B8
:10542000300080126FCE7E1002AC1A7E1F31CD2D5F
:105430003069010080BE047FFF78047E147FFF691D
:10544000010100BE047FFF78047E147FFF0BA012D1
:1054500053E238A07D3122906126E4937C7B22CAFE
:10546000F87EB3161EB401566CFF80241287B3A4D5
:105470007E0F06F82D150A3F09B31F2FCAB8906199
:1054800025E4937C7BDAB81254C159351F600BF0C8
:105490007E731F58BC7F38D46CFF801A7E0F06F8CD
:1054A0000A3F09B31F43CAB8125457DAB81254C19D
:1054B00059351F880BF07E731F59BC7F38DEDAF830
:1054C000221254C97402ACBF227F506C880A271B79
:1054D000247C95BEB00240060A2B1B257C850A273A
:1054E0009E2400030A3BBD3218060A3B0B357C970D
:1054F0009F777F6780277402ACB87F152D350B1A14
:105500003012B0417D931A261A240A186D00122019
:105510005A2F617D391A261A242F710B80BC98509E
:10552000D5BE78000078020B7C74062F661478FBD9
:105530000255337F167F071220762E18002022CACC
:105540003B12BEF3752D00752E007E3722B77A35DB
:105550003B6CAA12BE93E419B320501290E1F52AD5
:1055600009B31FCFF52B7E7322BF7C6D7E08002E02
:1055700012B054F52CE52A7E7322BE7C6C7E0800A6
:105580002D12B0547CAB7E6322BF7E712DAC76E5CC
:105590002E1275AC2E37138A7A35377E34152C7A55
:1055A0003539852D31852E327AA133852C347EB361
:1055B00022AAF5357536007E0800311284487D2315
:1055C0006D337E97152E6D882F417E3715307D23E4
:1055D0006D337EB715326DAA2F517E3715347D237A
:1055E0006D337ED715366DCC2F617F740A4CE52A5A
:1055F0000A5B9D54F528C1E20A4DE52B0A5B9D54D8
:10560000F529C1CCE528BEB0005802C1CA7E73227C
:10561000BEBE71281802C1CAE529BEB0005802C139
:10562000CA7E7322BFBE71291802C1CAE5287E71E5
:10563000291242ED7E5322AA0A259D327A352FBEC9
:105640003400001802C1CA753D007E353BBE352FBF
:10565000180C7E7007AC7F2E34205012A7EAE52A82
:105660000A2BE52812370EBE340001180FE52B0A6D
:105670002BE52912370EBE340001084EE5287E7155
:10568000297C6E12A8C7F53DB4020C7E352F7D2310
:105690000E249D327A352FE53DBEB0026805E53D0A
:1056A000B401277E452F7D341A261A24E52812BF1F
:1056B000389F517D341A261A24E52912BF389F617C
:1056C00012BF309F4112BF309F7105290A2DE52B73
:1056D0000A3B2D321A27E5291A3BBD321802C104B4
:1056E00005280A2CE52A0A3B2D321A27E5281A3B01
:1056F000BD321802A1F8BE48000078020B4CBE78FB
:10570000000078020B7C74062F551478FB7F157F00
:10571000041255377ED007ACDF5936204A74062F65
:10572000661478FB1255335936204C7EB322B6608E
:105730000D1EF41EE450044EF480001478F3BE787D
:10574000007F28047E78007F7D3F7CA712BE937483
:1057500007ACBE09A5205012BE897407ACBF0975FD
:105760002050BE700F28067EA00F12BE89DA3B22A1
:1057700012545F025776CA3B6CFF1287AA7EB3169B
:105780001FB4010280030258436CCC0258347E706F
:1057900002AC7C09A31FCE7AA12609B31FCFF5273F
:1057A0007524027525024CAA680C0A2E1B24E526D6
:1057B0000A3BBD324803752401E527600C0A2D1B06
:1057C00024E5270A3BBD3248037525017523008077
:1057D0002CE523BCBC68247E71231277C009331FDB
:1057E000CF0A2AE52612BE7D18110A23E52712BE2C
:1057F0007D1808752401752501800B05237E232162
:105800001CBE212338CBE5247E71257C6C7C5F1285
:10581000553F906135E493B401167E7007AC7C7DF2
:10582000132E14204A6D002E34204C6D221258463F
:105830000BF00BC07E73211CBC7C280302578E7AB0
:10584000F3211CDA3B227F200B2A100B1A001B2AA3
:10585000001B1A102224AB681024EF681C24DE6899
:105860002624DE782F7405802D7EB331EBB4052A13
:1058700012589B125B0C0258BE7EB331EBB4051A72
:1058800012589B75E9FF227EB331EBB4050C125818
:105890009B0258D874017AB331EB227E3400017D2B
:1058A0002380127E3004800574FA123DB27C231BE3
:1058B00030A5BA00F37D321B244D3378E62202581E
:1058C000C1E47E34D7FC7E2400FF7A1BB07E34D73F
:1058D000FD7A1BB075E9FF2275E76B0258C11B1AF0
:1058E000107E34000202589F7CA77C3BA5BB0007BA
:1058F0007CBA125A71802CBE30EB6804A5BBEC094F
:105900007CB37C7A125AD0801ABE30804015BE30EB
:10591000DF38107CB324807C7A125A4DA5BB8F03EC
:10592000751701A5BBFC057CBA02585574017AB302
:1059300031EB227C6B12599278057CB60258E8B4A0
:1059400004057CB602306622309019C290E51670CC
:1059500009751601E591F51880117E7191E518120F
:105960005933051830910BC2910518E51812597377
:10597000F591227C7B6CAA12599278097CB7125956
:105980009A7CAB800AB404077CB7122E357CAB7CC2
:10599000BA227EB33063C454072270057EB33063ED
:1059A00022BEB0033815751B003010067E182E4934
:1059B00080047E182E877A1D128008BEB05E3810D3
:1059C000751B000A1B7E1D122D311B347E1BB0225D
:1059D000BEB0D36803B4D410B4D3086D337A373073
:1059E000B480021518025B54BEB0EB6803B4EC033C
:1059F000025A9CBEB080400CBEB0DF38070A3B099B
:105A0000B32F8222B4FC057EB3302922B4FD176C7B
:105A1000AA7EB3214060034EA0017EB32F956003A0
:105A20004EA0027CBA22B4FE057EB3235C2274FF32
:105A300022CA7BCA2BCA1BCA0BC083C08212594818
:105A4000D082D083DA0BDA1BDA2BDA7B327C6B2E36
:105A500060DD681C2E60FD68171B6168132E60FAFC
:105A6000680E1B60680A80000A2B19723002D20F80
:105A7000227AB33063C45407BEB0046803B402048E
:105A8000740380076003B4010774017AB3302922DC
:105A900074017AB33029E47AB3306322B4EB05E4BD
:105AA0007AB330B97E7330B90A272E2400541247D6
:105AB000DAE4937CAB7CB7047AB330B9B4030BE47B
:105AC0007AB330B96D337A3730B67518EB7CBA22B9
:105AD000BEB0EB6803B4EC337E2730B64D22780EAF
