:1000000002148A02A05FA215E4332202011CB4028A
:1000100004A9B7EA2224FFA997EA220258E3B4020E
:1000200004A9B6EA2224FFA996EA2202680B7F609F
:10003000A9C2EA740112122C7F061204687F06021C
:1000400008B822026FF2A20AE4332202011D120F45
:100050003702120FEBAA080227F0220200760102F3
:10006000040810204080F5FDE5FE22020FFF022E5D
:10007000CD2222020EE7CA7BCA6BCA5BCA4BCA2BCF
:10008000CA1BCA0BC0D0C083C082D20A7E0F2E6F9B
:10009000693000047A732E7F7E732E7F0A375E34B8
:1000A00000046804D2098002C2097E34001F79303E
:1000B0000004C2C3120FCD1270D17E1F2E6F6931A2
:1000C00000025E340040682E6CAA7E1002AC1A7EDC
:1000D0001F2E6F7F712DF06917009C59102E730B26
:1000E000A0BEA00378E4691100A47A172E7B6931C1
:1000F00000A27A372E79A9C1C4D082D083D0D0DAB9
:100100000BDA1BDA2BDA4BDA5BDA6BDA7B327D1334
:100110007E1F2EBB1B1A10C2C6D2EE223232542CC6
:10012000CA3B7F307401121274297300EF2E70FFE6
:10013000920129B300F01212457F03120BB87F031E
:1001400012056E297300060A377E0F2E6F79300074
:10015000242973009F0A273E243E243E243E243E49
:10016000243E243E24693300FB4D327E0F2E6F79EE
:10017000300002297300060A47297300010A579DBF
:1001800054F53029B300A1700B29B300F429730092
:10019000F31209F3297300A12E70FF9201E53012CA
:1001A0000964693300F97E0F2E6F793000286923C6
:1001B00000F73E243E243E243E243E243E24297360
:1001C00000F60A372D327E0F2E6F7930002A297300
:1001D00000F50A377E0F2E6F7930002C7E34000137
:1001E0007E0F2E6F793000347E34010B7E0F2E6F20
:1001F0007930002E297300010A377E0F2E6F793077
:100200000010693300A47E0F2E6F7930001C693313
:1002100000A67E0F2E6F7930001E6CAA7E5002ACB5
:100220005A691300FD2D127E0400FF0B0A307E0F69
:100230002E6F2D12793000440BA0BEA00C40DDDAE9
:100240003B22CAF87F507CFB7E3400247E08002BC2
:100250007E240002123A33E52BBEB0003802416C16
:10026000E52BBEB0142802416C7EF12BBEF0143891
:1002700002419A7E341428793500027E34140C79B8
:10028000350004BEF0816802419374237A5BB07438
:100290001C615A74017A5BB0615A7CBF14BEB01401
:1002A000400261287EA003A49002AC730202EA021D
:1002B00002EA0203280202EA0203280202F0020212
:1002C000EA0202FE0203280202EA0202FE0202EA37
:1002D0000203280202FE02032802032802030C0282
:1002E00002EA02031A02031A41EA7E3413FC610295
:1002F0007E341428793500027E3413ED61347E3467
:100300001428793500027E34140C61347E3413E3F2
:10031000793500027E3413D161347E3413B57935DA
:1003200000027E3413D161347E3414287935000202
:100330007E34140C793500047E7003AC7F7D232E4F
:1003400024144C7A51827A4183E4937A5BB02E3440
:10035000144D7A71827A6183E49339B50001DAF839
:1003600022CAF87F707E7BF029770001BC7F2802CB
:100370007CF7691700066D007E3400F274FF1215D9
:10038000967F07120D92A9D6CB6CAA802D6C778030
:100390001F7E100BAC1A0A172D013E0469170006C8
:1003A0002D106D000B0A206E24FFFF1B0A200B701E
:1003B00029670001BC6738D90BA07E7B60BC6A3816
:1003C000CC693700067E0F2ECE793000047C4F6C4E
:1003D000550A3F2D327E0F2ECE7930000C6D117EE6
:1003E0001F2ECE1B1A107E3400D0120DEA6CAABE4E
:1003F000A00450187E7004AC7A7CB77E1F2ECE69A4
:1004000041002660421E441478FB803BBEA0085089
:100410001B0A3A1B363E343E347CB77E1F2ECE6913
:1004200041002860221E441478FB801B0A3A9E3447
:1004300000083E343E347CB77E1F2ECE6941002A30
:1004400060051E441478FB5E44000F7E5002AC5AD7
:10045000693700062D326D221B1A400BA0BEA00B7F
:10046000408DA9C6CBDAF822297000922990009419
:100470002960009329800089BE800438046CAA801A
:1004800021BE800838057EA0018017BE8010380587
:100490007EA002800DBE802038057EA00380037EF2
:1004A000A004BE900328037E9003BE803F28037EF5
:1004B000803FBE600128037E6001BE700228026C8E
:1004C000770A283E243E243E243E243E247C896C28
:1004D000993E443E443E442D420A263E243E243E5C
:1004E000243E242D240A373E343E342D327E7F2E86
:1004F000BB7937000229B000887C4B6C5529B000CD
:10050000870A3B2D327E7F2E677937008069300065
:100510009C7E7F2EBB7937000C6930009A5E34E0F8
:100520000F29B000880A2B1B243E243E243E243E83
:10053000242D327E7F2E67793700820A2A3E243EA0
:10054000243E243E2429B000950A3B2D327E7F2E86
:10055000BB79370006693000987E7F2EBB79370063
:1005600008693000967E0F2EBB7930000A227F602A
:100570007401121274293600F12926009F291600F1
:10058000A0BE200228037E2002BE104028037E1059
:10059000407E3400047CB260053E341478FB7C0756
:1005A0000A317E2F2E6F793200127C73AC700A21D3
:1005B00012129C7C270A327E2F2E6F793200147C17
:1005C00073AC70292600F20A22AD320A218D327DE9
:1005D000437C73AC700A2112129C7CA77C2A7CB9E4
:1005E0002CABBEA00C50037EA00CBE200C50037E92
:1005F000200C0A200A3112129C7DE30A3A0B34AD1A
:100600003E0B34BE34020040047E3401FF29460014
:10061000F37E5002AC450AF2ADFE2D2F0B24BE2412
:10062000020040047E2401FF0A137E7F2E6F79179B
:10063000000A1E247C456C551E342D327E0F2E6F11
:100640007930000C0A3A7E0F2E6F79300022227F1B
:1006500021A9D6CB693000047E7F2ECE79370004E5
:10066000693000087E7F2ECE79370006693000069B
:100670007E7F2ECE79370008297000017C476C55AB
:100680007E0B700A372D327E7F2ECE7937000C29F3
:100690007000020A371B347E7F2ECE7937000A693C
:1006A00030000A7E7F2ECE7937000E6930000C7E36
:1006B0007F2ECE793700106930000E7E7F2ECE79E6
:1006C000370012297000037C276C337E1F2ECE1B4F
:1006D0001A107E3400A0120DEA7E1F2ECE69110082
:1006E0001A7A2B306911001C393200016911001689
:1006F00079120002691100187912000469110022B0
:100700007912000669110024791200086911001E8F
:100710007912000A693100207932000CA9C6CB2277
:10072000CA3B7C577C4B5E4003693000045E603FEF
:100730006CAA0A4A69F0000A69E000082DF47E7B81
:10074000B00AFB7D4F7C896C997DF40AEA69D00080
:100750000E69C0000C2DDE7E6BB00A4B2D4F7ED093
:1007600028ACD57EF002ACFA7DD72DD67EF0F0AC69
:10077000F42DD77E7F2EB72DFD7947018C0BA0BEBF
:10078000A00E78AE6CAA7E9002AC9A69F000020BC3
:100790000AE02DF40B7A407ED028ACD57EF002AC76
:1007A000FA7DD72DD67EF0F0ACF42DD77E7F2EB714
:1007B0002DFD794701800BA0BEA00440C97E90F0BA
:1007C000AC947428ACB57DF52DF47E2F2EB72D5F3B
:1007D00079320188693000067E30F0AC347428AC80
:1007E0005B2D217E0F2EB72D127930018ADA3B2244
:1007F0000563312018130F0D0C0A090807060504BC
:100800007C7B7E7F2E6F6947000C6C883E446907B5
:10081000000A695700021E541E541E541E541E54D2
:100820001E541E545E5400037E14000470020135F1
:100830003E141478FB7CA30ADAADD07DCD6D11791E
:1008400017008C7CB77002014E1ED41478FBBED406
:1008500001003802015C7ED401000168BED40010A2
:10086000400201687ED400107D3D1211320A1B7EC9
:100870001F2E6F791100907E1F2E6F79D1008E7E12
:100880007F2E6F69370008AD3C8D3D793700927E31
:100890001400067E1F2E6F791100947D249D200A7E
:1008A0003AAD327E0F2E6F793000967E3400107E86
:1008B0000F2E6F7930009822CA79297000070A2715
:1008C0007E0B700A372D326D446CAA7E5002AC5AF2
:1008D0007E7F2E672DF2794700020BA0BEA0237801
:1008E000EA6CAA804F0A2A7F702DF229670048BE61
:1008F0006023501D29B700B07C8B6C997E5002ACF0
:10090000567E7F2E672DF20BF50B7A204D241B7A35
:10091000200A2A7F702DF229B700480A4B7E500228
:10092000AC5A7E7F2E672DF20BF50B7A204D241BDF
:100930007A200BA0BC7A38AD6CAA801D0A3A2D3102
:100940007D2029B1006B0A4B7EF002ACFA7E1F2E8F
:10095000672D37794100480BA029B00001BCBA3897
:10096000DBDA79227C5B7E0F2E6F6940002230013A
:100970006B6DFF7D3FBE5010282E7E54FFFF7950D7
:1009800000429E50106CAA80117EE400017CBA6087
:10099000053EE41478FB2D3E0BA0BC5A38EB7E6F6D
:1009A0002E6F79360040802579F000406CAA8011C6
:1009B0007EF400017CBA60053EF41478FB2D3F0BF9
:1009C000A0BC5A38EB7E7F2E6F793700427D342EE3
:1009D00034000C7E7F2E6F79370016226D3379300C
:1009E00000407E0F2E6F793000427E1F2E6F7941BE
:1009F0000016227C177C3B6D337E2F2E6F793200E0
:100A0000407E2F2E6F793200427E7F2E6F69570015
:100A1000127CAB693700021E341E341E341E341E95
:100A2000341E341E345E3400037CB77E4400046000
:100A3000053E441478FB7C290A220A3A12129C0AC9
:100A4000232D327CB77C616C770A0B1E042D037951
:100A500007000C7C73AC720A2A12129C7E0F2E6F58
:100A6000793000166D337E0F2E6F7930002222A967
:100A7000D6CB693000067E2F2ECE79320004693045
:100A800000087E2F2ECE79320008297000027C47A4
:100A90006C55297000030A372D327E2F2ECE793205
:100AA000000C7E0B707C47297000010A372D327EC6
:100AB0002F2ECE7932000A297000040A377E2F2E9D
:100AC000CE7932000E29B0000554017C2B6C337EA8
:100AD0001F2ECE1B1A107E3400C0120DEAA9C6CB01
:100AE00022CA797CAB5EA0036C777E5002AC57695A
:100AF000D0000E69C0000C2DD2296600010AF67DD7
:100B00004F7C896C997DF47E6B600A462D4F7EF098
:100B1000F0ACFA2D277E7F2EB72DF2794702540BC9
:100B200070BE700E40C4694000047EF0F0ACFA7EE6
:100B30001F2EB72D37794102506930000674F0A49A
:100B40007E0F2EB72D1579300252DA7922A9D6CB35
:100B5000C216693000047E2F2ECE7932000469302F
:100B600000067E2F2ECE79320006693000087E2FD7
:100B70002ECE793200087E0B707C476C55297000B0
:100B8000010A372D327E2F2ECE7932000C297000CB
:100B9000020A377E2F2ECE7932000E29B000035480
:100BA000010A5B7CABE47E1F2ECE1B1A506930001D
:100BB0000A120DEAA9C6CB22693000AA7E2F2E6F39
:100BC00079320006295000A20A557D231E249D2556
:100BD0007E2F2E6F792200187D231E241B257E2F49
:100BE0002E6F79220038692000F91E349D329E3420
:100BF000000A7E2F2E6F79320026297000A30A3753
:100C00007E2F2E6F7932001A297000070A277E0B7B
:100C1000702D327E2F2E6F793200080208B8A9D6C7
:100C2000CB693000047E2F2ECE793200046930006B
:100C3000067E2F2ECE79320006693000087E2F2ED8
:100C4000CE793200087E0B707C476C55297000010C
:100C50000A372D327E2F2ECE7932000C29700002F9
:100C60000A377E0F2ECE7930000E6D117E1F2ECEEC
:100C70001B1A107E3400E0120DEAA9C6CB22CA3B33
:100C8000F5237F417F30E5247E080025120242E5EE
:100C900023BEB02328037523236CAA80360A3A2D7D
:100CA000397D287E1BB0BEB125400D74230A4A7FD2
:100CB000032D147A0BB080197E1BB00A3B2E35270A
:100CC0007A71827A6183E4930A4A7F132D347A1B06
:100CD000B00BA0E523BCBA38C4DA3B22A9D6CB6955
:100CE0002000047E2F2ECE79220004692000087E89
:100CF0002F2ECE792200087E0B500A557CABE429BA
:100D00005000010A252D257E2F2ECE7922000C2998
:100D10005000020A257E0F2ECE7920000E7E0F2E67
:100D2000CE7930000A6D117E1F2ECE1B1A107E3434
:100D30000040120DEAA9C6CB227CAB7E3400017EB6
:100D40000F2EBB7930000EC215E47AB32EB65EA02A
:100D5000030A1A3E147E1F2E671B1A107E0F2E6781
:100D60002E1400840B0A304E70201B0A30740112BE
:100D700011EC7E0F2EBB0B0A304E700C1B0A30A9F3
:100D8000D3CD7E0F2EBB0B150B0A304E70011B0A04
:100D900030227F10A9D6CB691100027E2F2ECE798A
:100DA000120004691100047E2F2ECE79120006690C
:100DB0001100067E2F2ECE791200087E1B300A030A
:100DC0007E140100AD10297100010A372D317E0F0C
:100DD0002ECE7930000C6D117E1F2ECE1B1A107E88
:100DE000340060120DEAA9C6CB22A9D7CB7D234ED1
:100DF00050017E0F2ECE0B0A304D321B0A30801E62
:100E00007E0F2ECE0B0A307D235E240008BE240008
:100E100008780BA9D7CB4E70041B0A30D2167E0F70
:100E20002ECE0B0A307D235E248000BE2480007805
:100E3000CF4E60401B0A306D117E1F2ECE1B1A1044
:100E400022CA3BF5237F417F30E5247E080025122E
:100E500002426CAA80360A3A2D397D287E1BB0BE2C
:100E6000B126400D741C0A4A7F032D147A0BB08002
:100E7000197E1BB00A3B2E35297A71827A6183E490
:100E8000930A4A7F132D347A1BB00BA0E523BCBA1A
:100E900038C4DA3B22CAF87DE27DD37CFBBE300148
:100EA00028067EF40010800FBE300028067EF40075
:100EB0000880047EF400047D1F6D006D337E2400E5
:100EC0001012133B7F017D3D6D221212CE7D1E124A
:100ED00012E87404ACBF7E0F2E6F2D15793000829E
:100EE00079200080DAF822CA7BCA6BCA5BCA4BCA77
:100EF0002BCA1BCA0BC0D0C083C082D2157E0F2E56
:100F0000BB0B0A307C577A532EB64E700C1B0A303E
:100F1000C2C66D337E0F2EBB7930000E120FCD127C
:100F200070D1D082D083D0D0DA0BDA1BDA2BDA4B37
:100F3000DA5BDA6BDA7B3274031211ECA9D1C47E6E
:100F40000F2E672E1400840B0A304E70201B0A30BF
:100F50007E1400017E1F2E671B1A107E0F2E6F0B52
:100F6000160B0A304E70011B0A30C20AE47AB32E07
:100F70007F7E1F2E670B1A305E34000178F37402F7
:100F80000211EC7C6B6CAA80177E9002AC9A7E7F7B
:100F90002EB72DF40B7A207F702DF41B7A200BA036
:100FA000BC7A38E56CAA80207E5002AC5A7E7F2E37
:100FB000B72DF2692700380AF70A4A2D4F3E447FC1
:100FC000702DF41B7A200BA0BC6A38DC227E0F2E19
:100FD000672E1400840B0A305E70DF1B0A30740326
:100FE0001211EC7E1400037E1F2E671B1A107E1F49
:100FF0002E670B1A305E34000178F3E40211EC32F4
:10100000CA797CAB5EA0036C777E5002AC577F60E0
:101010002DD2296600010AF67D4F7C896C997DF4FA
:101020007E6B600A462D4F7EF0F0ACFA2D277E7F56
:101030002EB72DF2794702540B70BE700E40CADAFB
:101040007922295000F1AC5B7E0F2E6F6930000CC5
:101050000A563E54BE24020040047E2401FFBD25F2
:10106000281F2E14000C6C661B0A301E247C456C55
:10107000557E0F2E6F2E14000C0B0A304D321B0ABA
:1010800030227C6B6CAA7E5028AC577E9002AC9AC2
:101090002D427E50F0AC562D247E7F2EB72DF26966
:1010A00027018C6C440A4A7F602DD47E6BB07C8B08
:1010B0006C994D247927018C0BA0BEA00E40C7224D
:1010C0007C6B6CAA7E5028AC577E9002AC9A2D4265
:1010D0007E50F0AC562D247E7F2EB72DF26927016D
:1010E0008C6C550A4A7F602DD47E6BB00A4B4D2420
:1010F0007927018C0BA0BEA00E40C922A9D6CB54E3
:101100003F5E701F7C2B6C333E143E142E14000582
:101110000A373E343E343E343E343E342D317E0F69
:101120002ECE793000027E0F2ECE79200014A9C673
:10113000CB227D236C667E3002AC362E1415357AB8
:1011400031827A2183E4930A1BBD1228070B60BE0B
:10115000601440E27E7002AC672E3415367A7182DC
:101160007A6183E493222E3404007E0F2E6F79304F
:1011700000607E3404009D327E0F2E6F7930006255
:101180007E3400017E0F2E6F793000640A3B7E0FA3
:101190002E6F79300066227CA5BE34000028100A2C
:1011A0001B3E147D237C456C552D210A3A80080A8C
:1011B0002B3E247C676C772D327E0F2EBB7930005E
:1011C00004227CA77E1F2E676941008A5E44100FAF
:1011D0000A1A3E143E143E143E140A5BC42354E023
:1011E0007CABE42D514D457941008A227E0F2E675C
:1011F000693000845E70E71BB1680C14680C0BB199
:1012000078054E701080034E700879300084227E7D
:1012100034001F7E0F2E6F79300004A9D2CD7E0FCF
:101220002E6F0B0A304E70011B0A3022BEB0002810
:101230000AA9D7CAA9D3CBA9D2CB22A9C7CAA9C305
:10124000CBA9C2CB2230010A54030A3B2E34020040
:1012500080026D337E0F2E6F7930003A227E0F2E82
:10126000676930008A60054E601080035E60EF7928
:1012700030008A22BEB0002809A9D6CAD2CDA9D191
:10128000CB22A9C6CAC2CDA9C1CB227E34000F7E13
:101290000F2E6F79300004C2C3D2EB22C2D57CB4CA
:1012A00030E708B2D56E24FFFF0B247CB630E7127E
:1012B000B2D56E34FFFF0B348D326E24FFFF0B244A
:1012C00080028D3230D5066E34FFFF0B34227D5103
:1012D000AD037D027D21AD052D12AD352D21227D81
:1012E00002AD31AD102D21226D0074104D00780B30
:1012F0004D2278278D317D126D22227D437D326D06
:10130000222F112D445002A50FBF1040049F100B37
:10131000901478ED7F016D227D34227D417D138D07
:10132000247D022F004004BD0440049D040B1414CE
:1013300078F17D237D317D106D0022C2D57CB030E7
:10134000E708B2D59F229F207F027CB430E713B21A
:10135000D59F229F217F121212EA9F229F207F0297
:1013600080031212EA30D5069F229F217F12226C41
:10137000AA4D11681A1E54680E0B38201B18200B3A
:10138000350B151B5478F250067E39407A194022ED
:101390006CAA4D11681E1E54500C7E1B007A190059
:1013A00068120B1C0B140B1A001B18000B1D0B15DD
:1013B0001B5478F222000102030405060708090AFB
:1013C0000B0C0D0E0F10111213141C1D1E1F2021CB
:1013D000220001020304050607080E0F1011121364
:1013E00014151600010203041C1D1E1F200001021B
:1013F000030E0F1011121314151617180001020313
:1014000004050607081C1D1E1F20212200010203DF
:101410000405060708090A0B0C0D0E0F1011121314
:101420001415161718191A1B0001020304050607E4
:1014300008090A0B0C0D0E0F1011121314151617B4
:1014400018191A1B1C1D1E1F20212200010101104A
:101450001C02101C000101040F1C000101061B0FDF
:10146000070E1C0823150001010A10190B141C0C8F
:101470000F180001010E2315000101000101110ADE
:1014800012121019131C10141A107584017E443F97
:10149000FFE47A49B01B4478F97EF83487750C0074
:1014A000750D00C207C208751B00C20BC20CC20E2C
:1014B000C20FC210751C00751D00C212C21375192F
:1014C00000751A64C214751E00D204D205D206D269
:1014D00015C209D20A7E0400FF7E1415C80B0A400B
:1014E0005D44681A692000020B0E0B44800A7E0BD3
:1014F000B07A29B00B240B0C1B4478F280DF021762
:10150000FE0000004700CB01000010FDC7FB7EFB82
:10151000FB01BB0C9E19002145000E010F021003B8
:10152000110412051306140715081609170A180BDB
:10153000190C1A0D1BDF22C321A920941F811E70D4
:101540001D621C551B4A1A4119381831172B1625D4
:101550001521141C13191216111310110F100ECA95
:10156000F87F20800A7E1BF07A2BF00B340B546935
:10157000FFFFFC7DEF1BE479EFFFFC4DFF78E67F7A
:1015800010DAF8223C03320419050004F804E705D8
:10159000CE06C407B5087D437F1080071B447A0B35
:1015A000B00B144D4478F522FF00010200FF010248
:1015B0000001FF02000102FF7D23BE24000048035A
:1015C0007D32226D339D322200042A60000000002B
:1015D00000012ED20100011ECA0100012D9300005E
:1015E000022DE5000000012DE70000012ED30000D0
:1015F000012ED400000103FF0000012ED5000001E0
:1016000028F10000012A320000012A3300003C2E9C
:101610002A000000000000000000000000000000A0
:1016200000000000000000000000000000000000BA
:1016300000000000000000000000000000000000AA
:101640000000000000000000000000000000012E6B
:10165000660000012CB50100012CB60000022CB878
:1016600000000001263E000001263F000001264048
:101670000000022CBA000000012CBC0100012D2E3C
:101680000000012D310000012D320000012ED60096
:1016900000012EC50000012EC60000012EC700006B
:1016A000012EC80000012EC9000001005F000001EA
:1016B00003FC0000012EBF0000012EC00000022E1E
:1016C000C1000000012EC36400012EC40000012EE1
:1016D000D70000012ED80000042EB70000500000F3
:1016E000042EBB0000640000042E6700006C0000A4
:1016F000042E6B000068C000042E6F00006800001C
:10170000042E800000400000042ECE000060000087
:10171000000320000C012C0226000A00C8015E0014
:1017200006003C00A00006003C00500006001E0021
:101730000000000000000000000000000E1C230557
:10174000DC003203E800280000001E00000000005A
:101750000012319A1217B312176A1270AF124314A3
:1017600002176374017AB32CBF2212714B12179FB8
:101770000217737E3400036D2202177C7D437EA323
:101780002E84BEA00550167E7004AC7A59432E8775
:1017900059232E897CBA047AB32E84C322D3226DB6
:1017A000337E2406FC12177C7E3400017E24077AE7
:1017B00002177C125E4D1238FB0217BC300E10125D
:1017C0003FCF50031246291264171266D4C20E226C
:1017D0007E3460A31218EB123892123840125A4D20
:1017E00012319A12A9201231A01217B31248911285
:1017F000176A1270AF1248AF1243140217631238FF
:1018000040121820125A4D1217517EB32D5A24FD42
:1018100068090BB178F4124A4480EF12233380EA4E
:101820007E54174B7E4400FF693200046922000297
:101830000B2A107A1D257A15237E3400207E08009D
:10184000237E240006123A337E34614E1218EB1EBA
:10185000341E347A732D337E3461501218EB0E34FB
:101860000E347A732D347E3461541218EB121A9BA5
:101870007A732D357E3461561218EB121A9B7A73E7
:101880002D361218E7121A9B7A732D377E34615A5F
:101890001218EB121A9B7A732D387E34005ACA390B
:1018A0007E34615E7E2400FF7E082D3912155F1B99
:1018B000FDE5247AB32D64E5277AB32D53227E24E7
:1018C00000FF0B1A307A3722AD7E3461547E24003B
:1018D000FF0B1A307A3722A07E3461567E2400FF37
:1018E0000B1A307A3722A27E3461587E2400FF0B17
:1018F0001A30227E34614E1218EB7A3722AB7E34D6
:1019000061501218BE7A3722A47EB32CC6B40116D9
:101910007E3462331218EB7A3722AB7E3462351292
:1019200018EB7A3722AD121AA47EB32140B40137E6
:101930007E34623D1218EB7A3722AB7E34623F125E
:1019400018EB7A3722AD7E3462411218EB7A3722D7
:10195000A07E3462431218EB7A3722A27E346245AD
:101960001218EB7A3722A47EB3225470217E2722EC
:10197000AB7D327E140004AD137D31121A9BBE3450
:10198000005028047E3400502D327A3722AB227E5C
:101990003461541218EB7A37212D7E3461BA121853
:1019A000EB7A3721317E3461B81218EB7A37212F68
:1019B0007E3462111218EB7A3721337E3461BC1207
:1019C00018EB7A3721357E3461BE1218EB7A372155
:1019D000377E3461C01218EB7A3721397E3461C208
:1019E0001218EB7A37213B9061C4E4937AB3213D1E
:1019F000E47AB321401296293E347E081ECBE402DD
:101A00001596906099E4937AB3229E90609EE49339
:101A10007AB3229F7E3461541218EB12A89E1218DA
:101A2000EB7A3722A27E14615812459A7A2722A4B3
:101A30007A3722A690609DE4937AB322AA7E34611D
:101A40004E1218EB7A3722AB7E3461501218EB122B
:101A5000A8A71218EB6E34FFFF0B347A3722AF7E43
:101A60003462111218EB7A3722B190609FE4937AB6
:101A7000B322B59060A0E4937AB322B67E3460A11D
:101A80001218EB7A3722B77E34615A1218EB7A3784
:101A900022B3E47AB31620220B28301E341E341EE3
:101AA000341E34227EB32ECB60367E34625112183F
:101AB000EB7A3722AB7E3462531218EB7A3722ADC1
:101AC0007E3461541218EB9E34001412A89E121832
:101AD000EB9E3400141218E39E3400147A3722A4CB
:101AE00022CAD8CA797DC3906050E4937CFB906091
:101AF00051E4937C0B0A300A5F2D530B547CEB7E30
:101B00003460A31218EB123892A9D0C4A9D5CB74B3
:101B1000071200667C0B74077E700F121FF47E1490
:101B200000787E1F2E6B791100067E1400807E1FC8
:101B30002E6B791100087E14000C7E1F2E6B79111C
:101B40000010BEC400027808121CE54E3001801659
:101B50004DCC7E1F2E6B7808121CD85E30FB8006A1
:101B6000121CD84E30041B1A107E1F2E6769D1003C
:101B700084691100907D412E3400905E20F61B1A7E
:101B8000107EB32D64BEB0064003B4FF0F121CF4E8
:101B90005E30E6121CF14E1401A4800D121CF45E9E
:101BA00014FEE6121CF14E30A41B1A10BEC4000233
:101BB0007831121CE55E14000F121CE24E305012F8
:101BC0001D007911000412A7D868FB12A7611EF44A
:101BD0001EE450044EF480001478F37D1F7A172A17
:101BE0006481946CDD818E4CDD78046C11802BBC9B
:101BF000FD40120A5D09152305BE102340037E1027
:101C0000220B1080150A3F0A5D9D5309152328BE3B
:101C1000101C40037E101B2E1024121CE55E1400C5
:101C20000F1B1A100A51129D633E54121CE54D15EC
:101C3000121D007911000412A7D868FB7E14000160
:101C400079110012BEC400017824121D0A79110016
:101C50000412A7D868FB12A7611EF41EE450044EBC
:101C6000F480001478F37D1F7402ACBD801A12A7B3
:101C7000691EF41EE450044EF480001478F37D1FB6
:101C80000A3E0A5D2D533E5459152A660BD0BCED11
:101C9000280261E7A9D5CB74077C70121FF4A9C094
:101CA000C47E1F2E6779D100847E1F2E6779410084
:101CB000906D557E1F2E6B795100067E1F2E6B791D
:101CC0005100087E1F2E6B795100107E1F2E6B79FC
:101CD00051000EDA79DAD8222E34000E0B1A104E8B
:101CE00030081B1A107E1F2E6B2E34000E0B1A109C
:101CF000221B1A107E1F2E672E3400840B1A10220E
:101D00001B1A107E340002121D177E1400017E1F64
:101D10002E6B227E3400017D2380127E30048005EC
:101D200074FA125EAE7C231B30A5BA00F37D321B21
:101D3000244D3378E6227E34614E1218EB7A372236
:101D4000AB7E3461501218EB12A8A71218EB6E3458
:101D5000FFFF0B347A3722AF1218C97A3722A40258
:101D60001D627E3462511218EB7A3722AB7E3462E8
:101D7000531218BE7A3722A422CAD8CA799060506A
:101D8000E4937CDB906051E4937CEB906126E493D8
:101D9000BCBE28047CFB80027CFE7AD322BE7AE3A0
:101DA00022BF9060A8E4937CAB7AA322C49060A980
:101DB000E4930A2B0A3D9D327CB77AB322C00A2AEB
:101DC0000A3E9D327A7322C1906091E4937AB322E5
:101DD000C5906094E4937AB322C60A3DCA397E3432
:101DE00060527E2400FF7E0822C712155F1BFD0A89
:101DF0003FCA397E3460757E2400FF7E0822EA12D5
:101E0000155F1BFD7E340023CA397E3460D87E24E2
:101E100000FF7E08236E12155F1BFD6C77801E7E0F
:101E20006322C60A16096122C70A070A2D2D201946
:101E30006222C70961236E1962236E0B707E6322D2
:101E4000C5BC6738DA1262A29060AAE493700E7E75
:101E50007322BE7A7322C27E7322BF800C7E7322ED
:101E6000BF7A7322C27E7322BE7A7322C312590FC5
:101E70007401123027E47AB3234E7AB3234F125BF6
:101E8000727A37235A74037AB32350E47AB3235116
:101E900074027AB323521218E77A37235474047AFF
:101EA000B323537E34000F7A3723567E34205F7A73
:101EB000372358906119E4937AB323AF90611AE401
:101EC000937AB3235D90611BE4937AB3235E740429
:101ED0007AB323609060D5E4937AB3235C12419285
:101EE000E47AB3236A7AB3236B7E3461211218EB50
:101EF0007A3723669060D3937AB3235F906123E4AB
:101F0000937AB3236D906118E4937AB3236C7E3493
:101F1000611D1218EB7A3723627E34611F1218EBB1
:101F20007A37236490611CE4937AB323617E340092
:101F3000307A3723B774027AB323B47E3400057A3B
:101F40003723B5E47AB323B37E34046D7A3723B9EB
:101F500074017AB323B074037AB323B1E47AB32360
:101F6000B274017AB323ADE47AB323AE7E341501A3
:101F70007A3723BB0A3ECA397E3460FB7E2400FFD9
:101F80007E08239112155F1BFDDA79DAD822F5FD60
:101F90007A71FE22A9D5CB74027E703F121F8E7417
:101FA0000F1200667C7B740F5E70FE121F8E740C25
:101FB000120066547F6808740C7E70F8121F8E90B1
:101FC0006117E4930A3B2E340003126FB50A370BF6
:101FD00035740E121F8E74071200667C7B5E70FBD8
:101FE000906002E4930A2B3E243E247C654C767478
:101FF00007021FF4121F8E75FDFFA9C5CB22CAF878
:102000007CABBEA034380201E4BEA03578067EB3B6
:10201000235D21DFBEA0366805BEA037781D7E3562
:10202000087D230B247A25082E372A5E7E39B0BE20
:10203000A037680221DF75183621DFBEA038680599
:10204000BEA039781B7EF32DB87CBF047AB32DB8BF
:10205000BEA03978037518380A3F09B3236E21DF13
:10206000BEA03A6805BEA03B781B7EF32DBA7CBFAC
:10207000047AB32DBABEA03B780375183A0A3F091B
:10208000B3239121DFBEA0FB78067EB3235F21DF5F
:10209000BEA03C6805BEA03D781B7EF32DBC7CBF76
:1020A000047AB32DBCBEA03D780375183C0A3F09E5
:1020B000B322C721DFBEA03E6805BEA03F781B7ECD
:1020C000F32DBE7CBF047AB32DBEBEA03F7803754E
:1020D000183E0A3F09B322EA21DFBEA040400DBEF0
:1020E000A04838080A3A09B32D9421DFBEA04E68F3
:1020F00005BEA04F781E7EF32DD97CBF047AB32D88
:10210000D9BEA04F780375184E0A3F2E372A5C7E41
:1021100039B021DFBEA0516805BEA05278287E14D8
:1021200060006D002E0400FF7EB32DE40A3B6D229B
:102130002F107E1B70047AB32DE4BEA05278037575
:1021400018517CB721DFBEA05C6805BEA05D781A7F
:102150007EF32DAD7CBF047AB32DADBEA05D7803B8
:1021600075185C7CBF1221E28075BEA060400DBE78
:10217000A06C38080A3A09B32E3F8063BEA0F46809
:1021800005BEA0F578187E350A7D230B247A250A32
:1021900009B32A64BEA0F578467518F48041BEA044
:1021A000F06805BEA0F178097C1A2E101EA5E78004
:1021B0002EBEA0F26805BEA0F3781B7E150E3E145D
:1021C0007E1F2A602D310B1A30BEA0F278040A5609
:1021D000800D7D538009BEA0FD7803E48001E4DA20
:1021E000F8227CABBEA000400E12225F28097402C8
:1021F000A44925340080517E1322BFBC1A381C7EAE
:102200000322BE0A100A212D120A3ABD31580C9D34
:10221000323E343E3449230370802D7E0322BE0AB1
:10222000200A117D412D420A3ABD3448197E100220
:10223000AC012D01BD30580E9D319D323E343E34EF
:10224000492303728002E4227E340064AD23740CBF
:102250001E341E2450034E60801478F47CB7227E16
:10226000B322BFBCBA22CA797E08002512A8B06D7D
:1022700077740212001E6CAA80227E5002AC5A496A
:102280003205F83E343E341E347E0F2EB72D120B2D
:102290000A209D231222EB1B38200BA012225F384C
:1022A000D91218E71E347A355D7E1800257F011299
:1022B00086716CAA801A1222EB0B38301215B8BD49
:1022C00037280B1222EB0B38301215B87D730BA098
:1022D00012225F38E1740212001E7E372354BD378C
:1022E000500674027AB32EB6DA79227CBA3EB02454
:1022F000250A3B22CAF880307CBF1221E20A2B1249
:10230000A85B7E7002AC7F2D312E37138A12232BEF
:102310009D351B38200BF012232B7E7322BF0A271A
:102320002D250A3FBD3248D0DAF8227EA322BE74A2
:1023300002A4221248077EB32D5AB4037112A1825F
:1023400012388E123FF97EB32D9430E7E91246C958
:10235000122769CA397E1804007E0804FC12155F32
:102360001BFD122769CA397E18047E7E08057A1281
:10237000155F1BFD7EB3236AB4010F12532612535F
:10238000991256011227731223BE7EB32140B40165
:102390000B7E24006F7E37138A1B3820124853129D
:1023A00022F47EB32D94547F7AB32D948088125FEB
:1023B000FA0223B4E47AB3234F7AB3236B227EB3B9
:1023C000214070031269D91225C01225C0126D492F
:1023D000122F571227971225C01296C91225C01224
:1023E00025C00223E5CA3B7523006CCC6CDD7EB3AF
:1023F00022BFF5247EF3211C0ACF3EC4CAC97E1831
:102400001FCE7E08240412155F1BFD6C226CEE812A
:10241000B07E0403FF7EC0FF6C3380507402ACB307
:1024200009B52404BEB0FF68417CB312277E603A30
:102430007402ACB3097524050A277402ACBE097591
:102440002E2B0A3712A9107402ACB3097524040AA2
:10245000277402ACBE09752E2A0A379D321215B8B0
:102460002D43BD0428047D047CC30B30BCF338AC81
:10247000BEC0FF68397E7002AC7C09B324040973C6
:10248000240512260ABE3722AB48237E7002AC7C9C
:10249000095324047402ACBD195524400953240582
:1024A0001955244174FF19B324040B200BD00BE001
:1024B0007E732E66BC7E280281117CE2807F6DDDFA
:1024C0007E20FF6C33804E7CB312277E60457E9069
:1024D00002AC9309742404BE70FF6837E524ACB7DE
:1024E0007DF53EF409A424057E1002AC1A2DF02ED1
:1024F000F7138A6DEE0B7A00BE04000058056D00DC
:102500001B7A000B7A00BD0D08097A71237CCA7D05
:10251000D07C230B30BCF338AEBE20FF681D7E712B
:10252000237402ACBD1975244019C524417EA0FF57
:102530007E1002AC1219A024040BD00BE09060991D
:10254000E493BCBE280281BE90609A12A28EA4CAF7
:10255000597E1824407E08240412155F1BFD7CFD63
:102560001227E47E082E2A74FF121596BEF000286A
:10257000350A3F3E34CA397E1824047E081FCE1225
:10258000155F1BFD0A3F3E34CA397E1824047E08BD
:102590002E2A12155F1BFD6CEE80077CBE12699718
:1025A0000BE0BCFE38F57AF32E667AF3211C9060BE
:1025B00099E493BEB3211C50047AB3211CDA3B2268
:1025C000CA796CFF6CEE80317CBE12277E60287E5B
:1025D000340002CA39AC7E2E341FCE6D227E30020A
:1025E000AC3F2E141FCE6D0012155F1BFD7CBF7E0D
:1025F000700112699A0BF00BE01257F338CA7AF3A4
:10260000211CDA7922E5257E71247E5322BFAC5B42
:102610003E247402AC7B2D322E37138A0B383022C5
:10262000CA796DFF7EE322BF7EF322BE7EB3211CFA
:102630007002C1B67EB322556002807A7EA31FCE9F
:102640007E731FCF7A71236C886D006C990A178096
:102650001C122754081D0B80BEA00028067CBA144B
:1026600012274412276058031227411B14BE14007E
:102670000058DEE5230A1B801A12275408210B801C
:10268000BEA00028067CBA14122744122760580303
:102690001227417D310B347D130AEEBD3E48DABE70
:1026A0008003500280107D301215B80A2912129C46
:1026B000BE3400280807E47AB32A32E13E6DEEBE4C
:1026C000A00028087CBA1412274E2DE30A2F1B24E1
:1026D0000A3ABD3258087CBA0412274E2DE37E70A8
:1026E0000980217E5002AC577DD22ED415847D7D89
:1026F00012A8D31ADBBDDE080B2E24158512698EB5
:102700001A2B2DF27C671B70A5BE00D77CBA12274E
:102710004E1215B8BE34051408042EF4008CBEF415
:1027200000FA28047EF400FA7EB32A320AEBBDEFE9
:1027300050087D3F7CB77AB32A327EB32A32DA79E9
:10274000227CBA047C7312260A2D030B90227E7120
:102750002302260A7CBA7C7312260ABE3400782231
:102760000A3F1B340AEABDE322906127E4930A3B47
:102770003E34221283DA1226207AB3225E227C7B38
:10278000122EAE09A220467CB754070A3B2E340015
:102790005E1267CF5CBA226C006C1180167CB1129D
:1027A000277E600D12A8031250AF40057E00018005
:1027B0000A0B107E73211CBC7138E2A5B801246C91
:1027C0001180187CB112277E600F12A8031250AF3F
:1027D00050077CB16C7712699A0B107E03211CBCE8
:1027E0000138E022906099E4937C7B7402AC7B22F8
:1027F00012926DB40112E47AB32ECA7AB32ECB7A58
:10280000B32ECC7AB32ECD227E082404125FF27E42
:102810003401FECA397E181F2F7E08240412155F6A
:102820001BFD7E0824041290A974017AB32ECA7E7F
:102830000824040228367F5012917A7AB32ECB7F77
:1028400005022844CA3B7F606CAA7523FF7524FFEC
:102850006CCC6CDD7E00647E70646C11802B7E50CD
:1028600002AC517F762DF229E7009F29F700A0BC2A
:10287000CE50027CCEBC0E28027C0EBCDF50027C07
:10288000DFBC7F28027C7F0B10296601EDBC61381C
:10289000CD0A270A3D9D32BE34000658160A200A8A
:1028A0003C9D32BE340006580A7EB32ECA600974BD
:1028B000018001E47AB32ECC29C601F529D601F6B0
:1028C0006C1180677E7002AC712D3D7D2C29E1007A
:1028D0009F29F100A0BCEC7804BCFD684C122A20B2
:1028E000081A0A2F0A3D9D321215B87D530A2E0A86
:1028F0003C9D321215B82D537CAB8027122A2078CC
:10290000287E7322BF7E5123AC57E5240A4B2D2429
:10291000122A45AC7E0A4F2D34127FB50B3830BDDC
:102920003208067AE1237AF1240B10290601EDBC66
:10293000013891E5237C7D12297E7DB37CBC7E71BC
:10294000247E6001122981BD3B58077CBC7E712426
:102950008004E5237C7D12297E7D13BE14FED458AD
:102960001A7D311215B87D23693601F312129CBE0F
:10297000340003580674017AB32ECDDA3B227E6010
:1029800001CA797C167C277C0B7E342710BC10286A
:10299000046C3380080AF10A409D4F7C397EB322D3
:1029A000C00AEB1BE40A419DE40AF0BDFE08060ADA
:1029B000FB1BF480060AE10AF02DFE7D7F7C4FBCF4
:1029C0001228046C55800A0AE10AF29DFE7D7F7C84
:1029D0005F7E0322C10AF01BF49DF40A42BD4F083A
:1029E000080A501B547CAB80080A410A522D547CC3
:1029F000AB7C2380247CB5801A7E1322BFAC120AE4
:102A00004B2D043E042E07138A0B0800BD03580209
:102A10007D3004BCAB50E20B20BC4250D8DA7922A6
:102A20000A2F0A3D9D321215B87D430A2E0A3C9D9D
:102A3000321215B87D232D240A3ABD23227C57ACCF
:102A40005F0AF62D2F3E242E27138A0B282022CA38
:102A5000D8CA79C2006CDD7EA322BF7CFA7E4721F2
:102A6000317EF7212F7EB3213D14681714681A2494
:102A7000C2680824FB680C2445781E7C2A7E132239
:102A8000BE801A6C227C1A80146C227E1322BE0A2D
:102A9000E10A5A2D5E7C1B80046C226C116C338021
:102AA0000F7CB3122EC0BE34025808020BD00B307C
:102AB0007EE3211CBCE338E9BED0034002810C7EDA
:102AC000A3211DBEA000380BBEE00028377EB31F37
:102AD0005770316C3380290A230A322D323E344933
:102AE00023057ABD24081749E304FCBDEF580F6D98
:102AF000339D3F122C11BDE30804D20080060B3039
:102B0000BC1338D3126F90BE3707F80802C20030EA
:102B1000001C7EB32EC8047AB32EC8BEB003281F93
:102B200074037AB32EC874017AB3214080117EB346
:102B30002EC8BEB00028087C0B1E007A032EC86C7D
:102B400000BEE0003805BEA00028517EB32140B48D
:102B5000014A6C33801D7E5002AC5309721FCE09AE
:102B6000621FCF122A3DBE24009608057E00018018
:102B7000060B30BCE338DF6C33801D7E5002AC5353
:102B80000972200A0962200B122A3DBE24FF6A58EE
:102B9000057E000180060B30BCA338DF6C33801744
:102BA0000A330A522D533E544955057ABD5408053F
:102BB0007E000180060B30BC1338E5A5B800257EE9
:102BC000B32EC9047AB32EC97E732EC9BE703228C3
:102BD0002274327AB32EC97EB321406002D213121E
:102BE0009356800F7E732EC9BE700028061E707A21
:102BF000732EC97E372122BE34003C580F7E372108
:102C000026BE34FFC40805E47AB32140DA79DAD865
:102C1000227E24000202129CCA3B7CD57CF67CC733
:102C20007CEB7EB32143700474FFA1177E18242827
:102C30007A1D3B7E0804FC122E76122D1AF5397E81
:102C400018243C7A1D3B12A85B2E1404FC6D001264
:102C50002E8F122D1A7CABE539BEB0016807BEA0DD
:102C6000016802A1156C33E539BEB00128537538EF
:102C7000008044E5390A2B122EA158170923242875
:102C80000A22092324290A322D32122C117CB7F58D
:102C90003A8003753AFFE53ABCBC4016E53ABCBD44
:102CA0004010BC3C5004BC3D4004A5BB0004740172
:102CB00080657E313A0538E539BEB13838B5E480F3
:102CC00056BEA001284F75380080420A2A122EA154
:102CD00058170923243C0A220923243D0A322D32A5
:102CE000122C117CB7F53A8003753AFFE53ABCBE69
:102CF0004016E53ABCBF4010BC3E5004BC3F400407
:102D0000A5BB00047401800F7E313A0538BEA1389E
:102D100038B9E4800274FFDA3B221E341E346C554D
:102D2000CA69CAF87C4B6CAA6DFF6CFF80707ED0BC
:102D300002ACDF7F602DD60B6AE04C5568066EE46E
:102D4000FFFF0BE4BD3E58544CFF78086D4469F01A
:102D50000002801B7CB414BCBF7F5678091BB50BE6
:102D60005A406DFF80091BB50B5A4069F600024CB2
:102D700055680C6E44FFFF0B446EF4FFFF0BF4BD6F
:102D80004E5819BDFE18150ABA7E6D3B2DDB7A6BC5
:102D9000F00BA090609BE493BCBA28060BF0BC4FEC
:102DA000388C7CBADAF8DA69227E081F5A7E340041
:102DB00003E41215967E081F5D7E340003121596FB
:102DC0007AB31F577AB31F587AB31F597AB31FC407
:102DD0007AB31FC57AB31FC67E181F43122E6F6CBD
:102DE00055122D207AB31F597E181F2F122E7F6C7B
:102DF00055122D207AB31F586C778014122E9860CC
:102E0000053E241478FB122EAA2E241F5A122EB52A
:102E10007E631F58BC6738E46C778014122E98606C
:102E2000053E241478FB122EAA2E241F5D122EB507
:102E30007EA31F59BCA738E47EB31F58A47AB31FE2
:102E4000577E181FBA122E6F7E5001122D207AB3B2
:102E50001FC67E181FB0122E7F7E5001122D207CBF
:102E6000AB7AA31FC57EB31FC6A47AB31FC4227A50
:102E70001D3B7E0F06F87EB322BF7E3722A4227A46
:102E80001D3B7EA322BF7402A47E0F06F82D157E83
:102E9000B322BE7E3722A2227CB754077E240001D3
:102EA000221B24E5380A3BBD32227CA57CB7C42313
:102EB000541F0A2B227E29604C6A7A29600B7022EB
:102EC0007CAB7E7002AC7A126C5402260ACAD8CA55
:102ED000796CFF6CEE80567CBE122EC0BE3722ABE2
:102EE00048497402ACBE09D51FCF9060ABE493BCD7
:102EF000BD78117CBE122EC07E2722AB2E2400C8C6
:102F0000BD3248277CBE12277E60207E340007CA6F
:102F100039AC7E2E34204A6D227E3007AC3F2E1411
:102F200021466D0012155F1BFD0BF00BE01257F3ED
:102F300038A57A73212B7AF322547EB31F59700778
:102F4000BEF004500280067EB31F587005E47AB3C9
:102F50002254DA79DAD822CAF86C22807912A82DA4
:102F60007CB17C70125789506B6C99805FBC926801
:102F7000597402ACB909851FCE09F51FCF6C339087
:102F800060AAE493701012A91878200A210A381256
:102F90002FE5181780127EB322C014BCB8780C0A33
:102FA000200A3F122FE518037E3001A5BB011B7CD0
:102FB000B9122EC07DF37CB2122EC0BD3F08047C36
:102FC000B980027CB26C7712699A0B907E73211CD7
:102FD000BC7938990B207E83211CBC822802E15DDC
:102FE000DAF8221A3B9D321215B8BE3400012212C3
:102FF000A8FFB40114CA397E182DD47E081EC2124F
:10300000155F1BFD1232948012CA397E182DD47EB2
:103010000823BD12155F1BFD1232B202301E7A1F4B
:1030200023497A0F2345227AB3234D70141232B20A
:1030300012301E7E1806767A1F06F47E18047E80F3
:1030400010B4011112329412301E12A8247E1804FA
:10305000007A1F06F822740112001EE412302712B3
:10306000306EE412001E740112302702306ECA3B2B
:10307000906125E4937CDB906126E4937CCB7E0811
:1030800024147E340046743F1215967E08245A7E1E
:103090003400461215967E0824A07E34000AE412FD
:1030A00015967E0824AA7E34000A1215967EF32314
:1030B000497E1823297A1D237E1824A07A1D277C97
:1030C000BD7C7C7E0823061231D06CEE802B0A3E3C
:1030D00009A323290A3A2E3415191267CF7CABBEF7
:1030E000A01C50130A3E1231920A4A19B424147ECD
:1030F000B3234819B4245A0BE0BCCE38D16CEE800F
:10310000240A3E09A32306BEA02350170A2E0A3C18
:103110002D321231920A4A19B424307EB323481951
:10312000B424760BE0BCDE38D87EB3234A7E082474
:10313000B460097E1824A012A30280031263706C8D
:10314000EE7E1824B47A1F24047402ACBE493524E0
:10315000A07A3724087402ACBE493524AA7A3724F1
:103160000A7E700EAC7E2E3424146D227A1F240C3D
:103170007E700EAC7E2E34245A7A1F24107E0824D2
:10318000047CBF7C7E1207200BE0BEE00540B2DA73
:103190003B222E37234B7E39B02274017AB32D5A4D
:1031A00012902B12128B1262E8E41208007E2403A4
:1031B000D41248307401123027125FD47E34D00C00
:1031C00012010E1230567E340001E46C5502119744
:1031D0007C577CAB6C7780500A477E7D232DF47E34
:1031E0007B600A462E4415197A91827A8183E49392
:1031F0007C6BBE600D38127ED400017CB660053E4B
:10320000D41478FB7E7D2780159E600E7ED400014D
:103210007CB660053ED41478FB7E7D270BF50B7AD7
:10322000404D4D1B7A400B70BC5738AC6C778058C2
:103230000A277F702DF27E7B60BE600D381112323E
:103240008D60053E441478FB7E7D270BF6802FBEF3
:10325000601B38169E600E12328D60053E44147855
:10326000FB7E7D272EF4000680149E601C12328D9A
:1032700060053E441478FB7E7D272EF400080B7A0F
:10328000204D241B7A200B70BCA738A4227E44005A
:10329000017CB6227E1F1EC67E0F1EC2227AB32379
:1032A0004D70051232B28006B4010612329412300B
:1032B0001E227E1F23C17E0F23BD2212A8FFB40150
:1032C00017CA397E181EC27E082DD412155F1BFD49
:1032D000124837123294801ACA397E1823BD7E08EC
:1032E0002DD412155F1BFD7E3723C37A372A5C125B
:1032F00032B202301ECAF87CAB4CAA78097CB712F5
:103300006FF9D207A154BEA001783D7A732D95A51F
:10331000BFAD02802FA5BFAE04D208A154A5BFAA9D
:1033200005124840801EA5BFAB0A7E34057A7A3765
:103330002A5E8010A5BFAC028002A1547E3404FC3A
:103340007A372A5E6D3361D9BEA0044022BEA00840
:10335000381DD207123557BEA00778076D337A356E
:103360000AA154BEA0086802A154123FF6A154BE9F
:10337000A00A7809430C207A732D9EA154BEA01E8A
:10338000400DBEA0233808123557430C40A154BE4F
:10339000A0164012BEA018380D123557D207740778
:1033A0007AB32D98A154BEA0197807E47AB32DAD55
:1033B000A154BEA0244007BEA02C380281FBBEA0B1
:1033C0002D781B123557200802A1547E632DC07C36
:1033D000466C550A372D323E347A3508A154BEA0CA
:1033E0002F400ABEA0333805430C0881FBBEA03431
:1033F000780F430C10BE7064380281FB7E706481CC
:10340000FBBEA0386805BEA0397820430C017EF3CE
:103410002DB97CBF047AB32DB90A2F1972236EBE61
:10342000A0396802A154751838A154BEA03A6805A5
:10343000BEA03B7820430C027EF32DBB7CBF047AF8
:10344000B32DBB0A2F19722391BEA03B6802A15471
:1034500075183AA154BEA0FB7809430C047A732373
:103460005FA154BEA05078067A732DE4A154BEA08B
:103470003C6805BEA03D7820430C017EF32DBD7C49
:10348000BF047AB32DBD0A2F197222C7BEA03D68B2
:1034900002A15475183CA154BEA03E6805BEA03FD1
:1034A0007820430C017EF32DBF7CBF047AB32DBF7F
:1034B0000A2F197222EABEA03F6802A15475183E75
:1034C000A154BEA040400DBEA04238081235577529
:1034D0000D01800BBEA043780B123557750D0212FB
:1034E0002FEF8070BEA04478081235571232BB808F
:1034F00063BEA0456805BEA04678051235578054C6
:10350000BEA04E6805BEA04F7821430D047EF32D6A
:10351000DA7CBF047AB32DDA0A2F2E272A5C7A29A7
:1035200070BEA04F782E75184E8029BEA0F04024A2
:10353000BEA0F3381F7C1A2E101E7CB7A5F7BEA0C4
:10354000F378117E15107E050E3E047E1F2A602D35
:10355000301B1A10DAF8220A2A19722D9422E50D6E
:103560006052E50D30E006530DFE1235ECE50D30EE
:10357000E114530DFD7EB32DD8700474018001E475
:1035800012A908126F31E50D30E229530DFBE47AE0
:10359000B32DD97EB32DD8700A740112001E1232D9
:1035A000B28007E412001E12329412301E7EB32342
:1035B00049025C1B227009E412329D12125D800BDD
:1035C000B4010D740112329D12125D12001E8002B0
:1035D000E4221235EC7E7323470A373E343E34E44E
:1035E0007E5001121197125C097401227E0822BEDE
:1035F000020468CAD8CA797EB32D58B40102800289
:10360000C1ED6CDD6CFF1280C77DD312714050FBA1
:103610007401123027125EA912A8E57EC7235A7AD8
:10362000C5237EE3234774047AB323477EC7235A16
:103630005EC4003F7AC7235A1235ECE412001E6CB8
:10364000AA801A7E3002AC3A49C105F83EC43EC495
:103650001EC47E1F2EB72D311B1AC00BA0125BC4D7
:1036600038E1740112001E7EB3234712A3F77C7B5E
:103670007408AC7B7E24000412129C7D2D12A35F83
:103680000A37AD327A3723541235EC12388E74086B
:10369000128108125C09800F8007123741E412374B
:1036A000792093F61237113015F73014F4D2011245
:1036B00036F2E41212740BD01222667E732EB60A12
:1036C000375E340002680A7EF001E47AB32D588038
:1036D00005BED03240B5E47AB323517E35237A3724
:1036E000235A7AE323474CFF68031270AFDA79DA82
:1036F000D82230010612A92702122C125FDBC20267
:10370000023703A9D0CE300204A9D1C922A9C1C968
:1037100022301505C2011236F2A9D1CDA9C5EA3071
:103720001403201514123741A9D0CEA9C4C97402BC
:10373000123779A9D0CEA9D4C9A9C1CDD2010236F8
:10374000F274817AB32EBF22801D123741125FE2DC
:103750006805C2011236F27EB32E86BEB00268182A
:10376000201415E41237792093E0123741A9D1CD06
:10377000A9C5EA7402023779227CAB7EB32EBFB4AE
:1037800081384CAA7805A9D0878029BEA001780F7E
:10379000C2AFA9D0CEA9C7C9A9D187D2AF8015BE63
:1037A000A0027816C2AF209309A9D0CEA9D7C9A983
:1037B000D187D2AF000000000000E47AB32EBF2210
:1037C000D200801230000C125FE26807C200C20112
:1037D0001236F21237483014EB22D2010236F2745C
:1037E000011237FE2014061237C01237DA7EB32ECC
:1037F00086B4010612801C1237DAE40237FE12A8E2
:10380000515003123837023809A9C1C4A9D2C4A93A
:10381000C2E12212A8515003123837A9D0CEA9C054
:10382000C9D202123703A9C2EA75C10675C20CD209
:1038300000125FC30238090A5B2E540008F5CC223F
:10384000E412381312A12812388E12A17B121F9491
:1038500012A0B012A13412005A12A140123AD01292
:10386000A150D2AF12A0BA123935123B71125EF1DB
:103870007E082E9F123B1F906050E493CAB8906060
:1038800051E4937C7B7E24FFFFDAB80210FC7E3487
:1038900003E86D227A272E9B7A372E9D22CAF87E66
:1038A000F32D98BEF005780B74017AB32D981200B1
:1038B000428034BEF00478131238F01218EB12383C
:1038C00092E47AB3234F125E4D801CBEF006781D41
:1038D0001238F01218EB123892123BCFE47AB3236D
:1038E0006B1238FB12A8F674027AB32D98DAF8221C
:1038F00074017AB32D987E3460A3227EB3236B705B
:103900001F12388E12714050FB1264171239212099
:103910000E031266D474027AB3236BE47AB3161FD3
:1039200022123FCF5003D20E22C20E22123B9F1210
:103930003B45023921D2C843ED0FC2EA75B313A942
:10394000D1B4A9C0B4123AC0E412395802394FA90F
:10395000C5CAE47AB32ED722CAF87CFB74021239A6
:10396000D74CFF78055E70DF80034E702074021222
:103970003979DAF82274067D307D237C6B0A147C59
:10398000737D527CAB7EB32ED7B4A53C123A6B75D7
:10399000B501A936B3FC1239D0A936B3FC1239D01F
:1039A000A936B3FCA9C6B37A61B5A936B3FCA9C6DA
:1039B000B37A71B5A936B3FCA9C6B37AA1B5A93655
:1039C000B3FCA9C6B3A9D2B42274047D30023979FC
:1039D000A9C6B375B500227C6B6C776CAA7EB32E3A
:1039E000D7B4A546123A6B75B505A936B3FC1239A2
:1039F000D0A936B3FC1239D0A936B3FCA9C6B37A24
:103A000061B5A936B3FC1239D0A936B3FC1239D04E
:103A1000A936B3FCA9C6B37E71B575B500A936B396
:103A2000FCA9C6B37EA1B5A9D2B47C476C550A3AAD
:103A30004D32227D427F607D03123AC074021239FA
:103A4000D77DF34EF400014EF4000A123A647A4531
:103A5000357D306D227F06123A7C5EF4FFFD123A0E
:103A60006402394F74027D3F023979A9C2B4A9C6F4
:103A7000B32274061239D77D036C1122123A8A7E62
:103A8000353512A19BA9D2B4D3227D52F5397CB62B
:103A90007CA50A44F5387F21F537A9C2B4740B120E
:103AA0003AB5E539123AB5E538123AB5E537123A82
:103AB000B5E4023AB5F5B5A936B3FCA9C6B3D3222D
:103AC000A9D5CAA9D1EAA9C1EA74A57AB32ED72289
:103AD000E47AB32D947E082B7A12A8837E082BB843
:103AE0007E34003E1215967E182B7A7A1D12123BF8
:103AF00001023AF47516007518007EB32D94F59105
:103B000022023B04906000E49354FE759100C29041
:103B1000C291C2C954FEF592D2E8C2C0D2AD22D23F
:103B2000C975F23075F38075F40C75F5016CAAE572
:103B3000F55480B480F9E5F612A8470BA0BEA00D9D
:103B400040EDC2C9227E0824047E34000CE4121524
:103B500096128AF8A9D1CB1267D81289DB7A37245A
:103B60000A7E1F13867A37240C6D33128A13020BD8
:103B70004D6D337E0800237E240012123A33E53364
:103B800020E71BA9D5CB74037E7126121F8E740B00
:103B90007E712E121F8E740C7E712F121FF4226CF8
:103BA000AA80267E5002AC5A491205F84932040018
:103BB0002D31593205F830050E4912047E4932067E
:103BC000762D31593206760BA012A4B438D5227462
:103BD000407AB3236D123FCF5009D200D201123F79
:103BE00098801C7401123C087E432DB37E5064AC57
:103BF00045127C857AB3236C7E0F2E80123C8C128A
:103C00003FA812A88C024888CA3B7CDBE47AB32325
:103C1000611247F77EC00A123FE712004660FB744C
:103C20000112000E7E1F2E80127FBC7D73BE74FFBA
:103C3000FF780C123C830B0A302E340003801EBE2A
:103C4000748000280A123C830B0A300B35800EBEAC
:103C5000744000280F123C830B0A300B341B0A30CF
:103C60001BC078B3BED00178097E1F2E80127CA4C1
:103C70007D737E1F2E6F6931001A7A7323617D3741
:103C8000DA3B227E0F2E6F2E14001A22123C960B66
:103C9000347A73236D22CA797F109F00127C4E4CB8
:103CA000AA78067E34004080776C9980430AE92E1A
:103CB000E460AC7D7E12A8D37C8B9060AAE4937004
:103CC000107EF322BFACF87EB322C10AFB2DF78031
:103CD0000E7EB322BF7EF322C0ACFB0AF82DF77D27
:103CE000EF3EE47F612DDE0B6AD06DCC2F060B908A
:103CF000BCA938B9BE08000078020B0C0A5A6D4402
:103D00007F107F021212EA7F010B0C7E34CA007E04
:103D10002400081212EABE3400FA28047E3400FAA5
:103D2000DA7922CA3B7E34FFFF7A352E7EB322BE7B
:103D3000F5257EB322BFF5267EB322C1F5277E345A
:103D40002EE07A35287E1840007A1D2A123FE012B4
:103D5000004660FB740112000E7E08340012A8B009
:103D60006CFF80389F776CEE80197E1126AC1E3E6A
:103D7000047E3002AC3F2D107E1D2A2D310B1A30EF
:103D8000123F91E525BCBE38E1E5250A1B6D001206
:103D90003FB17402ACBF593534000BF0E527BCBF0E
:103DA00038C27E3410007EA1267402A4593533FE39
:103DB0006CFF80729F776CEE12A7821E341E245017
:103DC000034E60801478F4123F91BEE00F78E97ED4
:103DD00014000F7F171212E8123FB67404ACBF59DB
:103DE000350370E527BEB00F282E9F777EE00F8049
:103DF0001212A7821E341E2450034E60801478F4E1
:103E0000123F91E527BCBE38E8E5270A1B6D009EEE
:103E100008000F123FB180047E3410007404ACBF60
:103E2000593503720BF0E525BCBF3888E5270A1B1E
:103E30006D007E1803331212EA6CFF802E7402AC00
:103E4000BF492534000A5FAD537E1410009D15ADA7
:103E500012740C1E141E0450034E20801478F47D3E
:103E6000217402ACBF592534000BF0E527BCBF38E4
:103E7000CCE5250A1B6D007E1800CC1212EA6CFFFF
:103E8000805C7404ACBF492503700A1FAD137EF437
:103E900010009DF1ADF2740C1EF41EE450044EF4BB
:103EA00080001478F37D2F7404ACBF59250370E5AE
:103EB00027BEB00F28267404ACBF492503722E1408
:103EC0001000AD12740C1E141E0450034E208014FA
:103ED00078F47D217404ACBF592503720BF0E525FD
:103EE000BCBF389E7E732DAB0A376D22740C2F1128
:103EF0001478FB7EF400647D1F1212E87DE37AE5FE
:103F00002E7E732DAC0A376D22740C2F111478FBA2
:103F10007D1F1212E87D636CFF80207402ACBF49E4
:103F2000453400BE452E28097E352E593534008093
:103F300008BD465004596534000BF0E527BCBF3876
:103F4000DA6CFF803A7404ACBF49450370BE452E5D
:103F500028097E352E593503708008BD4650045916
:103F600065037049450372BE452E28097E352E59DA
:103F70003503728008BD465004596503720BF0E5A5
:103F800025BCBF38C03002067E0D2A123C8CDA3BBD
:103F9000226D222F710BE022300003124888A2010B
:103FA0009202123D23023FA87E73236D7A732DB5D2
:103FB000227F171212EA7F717E2528740C7D137DF3
:103FC000326D2260052F111478FB0B140212E87E6B
:103FD000B32D5AB403087EB32DAA7002C322D32294
:103FE0007E0822BE120BB8E412000E74017E709996
:103FF0001211C202004EB2862230073BC2071238AD
:104000009D7E732D997A73229E7E732D9A7A7323E7
:104010006A7E732D9A7A73234E7EB32D9B60187E31
:10402000340002121AE17E340001121AE16D3312DB
:104030001AE1E47AB32D9B12355E02403DE50C7027
:10404000022191E50C30E045530CFE6C77802C7E0C
:104050006322C60A26096222C70A177E5322BE2D92
:1040600021196222C77E6322C60A260962236E7E58
:104070005322BE2D211962236E0B707E6322C5BCB4
:104080006738CC1262A27E0822BE1208B8E50C3056
:10409000E106530CFD126381E50C30E232530CFB58
:1040A0007EB3235F60097E0822BE12056E800B7E00
:1040B000B323B27E7323B11209F37E73235F2E7094
:1040C000FF9201906051E4939EB322C4120964E50B
:1040D0000C30E347530CF77E732DC67A73235C12C2
:1040E000674D7AB3005FBEB0FF680B430C207E7350
:1040F000005F7A732D9E1241921247F77E732DC78F
:10410000BE7323AF68067A7323AFD20B300B09C29C
:104110000B12902BE4120800124314E50C30E40F4C
:10412000530CEF7E432DC87E500AAC45124830E553
:104130000C30E64E530CBF7E732DB4BE70072806BC
:1041400074077AB32DB4A9D5CB740E1200667C7BAC
:104150005E700F7E632DB40A262E2400031272288F
:104160007C654C76740E121F8E120066121FF77E4D
:10417000732DB77A7323617E732DB67A73236C1215
:10418000A8F6E50C30E50A530CDF7EB32D9E024500
:10419000AC221241F47A372368227EA3005FBEA0CE
:1041A000FF6848BEA303FC68427405A412A8B812B5
:1041B00041EC1267E91241EC1267E0123FCF50095F
:1041C0007EB3005F1247BB80061241EC1247FE121D
:1041D00041921247F07E7323610A377E0F2E6F796A
:1041E00030001A7E73005F7A7303FC227EA3005FA7
:1041F0007405A4227E23235C7E332DC512A8950B63
:104200001A00AC232D10BE14000A50047E14000ABC
:104210007E63235DBE140F3C40047E140F3CBE142D
:1042200007084003E48021BE140384401690611AFD
:10423000E4937C7BBE700128047401800B7A7323A5
:104240005D800990611AE4937AB3235D7E73235DE8
:10425000BC766802D20B7E2401F47D318D327C174E
:10426000BE100728037E10077E1F2E676951008647
:10427000541F0A011286683E042D05790100866DDF
:10428000007E34B8007E24000B02133B7AB3235C1B
:10429000124192300B0CC20B12902B300004E4122E
:1042A0000800300009128FDE12431702576C227E7D
:1042B0000B707A73235C297000047A7323AF297022
:1042C00000017A732361297000037A73236D124110
:1042D000921247F0D200C201023F98CAF87CFB74E8
:1042E00005ACBF12A8B81267E91247FE1267E07A60
:1042F000F3005F7CBF1247BB1241927405ACBF094B
:10430000B51F0B129010124317121763E47AB316FD
:104310001FDAF8221245A27EB3235CCA3B7CEB6C09
:10432000FF12A8950B1AC07E732DC50AB77EB32362
:104330005DF531128F3EBED0043805E47AB32CC748
:104340000A3EAD3B7DA32DAC7530007EA32CC7BCCF
:10435000AD40028019BEA00028197405A409751F7C
:1043600007BC7E780E7CBD14BEB32CC77805E47AFA
:10437000B32CC77EC32CC780417EB32CC7047AB34D
:104380002CC77E9005AC9C09A41F07BCAE6829E52C
:10439000300ADB19CD2CCA0A9AAD9B2D9C7EA13028
:1043A0007CBA04F5307CBA7D397D2A7E3131120E1B
:1043B000950BF0BEF00350060BC0BCDC38BB7AF3A3
:1043C0002CC8DA3B22CAF87EB32CBC6007147AB33F
:1043D0002CBC80381257B07EF32D3E9061C5E4931B
:1043E000BEB00428031243174CFF780E7EB32ED6BE
:1043F000B40107E41242DB12A86512440F128E08C2
:104400007AF32ED6BEB0FF68031242DBDAF8227EC2
:10441000A32CBE7E1461C612459ABE272D2F5006CE
:1044200074017AB32CBE7E372E7D7E1461CA12458C
:104430009ABD23400E906091E4937014906092E4D2
:1044400093700D7EB32CBEB4010674027AB32CBEF9
:104450007E1461C812459ABD23500BE47AB32D3106
:1044600074027AB32CBE7E272CC4BD2350047A3745
:104470002CC47EB3212ABEB00038127EB31FC8BE42
:10448000B00038097EB31FC9BEB000282F7E14616A
:10449000CE12459ABE272D2F281D7EB32D31047ACA
:1044A000B32D31BEB032281474327AB32D3112A834
:1044B000657AB32D2E8005E47AB32D317EB32CBE00
:1044C000603474017AB32CC64CAA782AE47AB32DEE
:1044D000316CAA800D6D227E300CAC3A59212CD261
:1044E0000BA01257EB38EEE47AB32CBD6D227A277D
:1044F0002CC47A272CBAE47AB328DC7EB32CC6B459
:10450000010D74037AB328DC1245963E2480031211
:1045100045967A2722B30245197D237E1461C8127D
:1045200055E97E140005AD131E14BD12500D7E33E7
:104530002D2EBE301050457410803D7D133E14BDAD
:1045400012500D7E332D2EBE300850307408802856
:104550007E140003AD131E14BD12500D7E332D2E9C
:10456000BE300450177404800FBD32500F7E732D7F
:104570002EBE7002500674027AB32D2E7EB32D2EFD
:10458000BEB0002810147AB32D2EE47AB3161F742F
:10459000017AB31620227E14615A7E0400FF0B0AB2
:1045A0002022128FDE74017AB32CBC22CAD8CA79B9
:1045B0007CDB9061C5E4937CABBED08078187EE054
:1045C000FF6CFF800B12461D38047CEB7CDF0BF088
:1045D000BCAF38F1801ABED08178156CEE6CFF80CC
:1045E0000B12461D40047CEB7CDF0BF0BCAF38F1B6
:1045F000BCAD38026CDD7CBD1242DB12488812A8CB
:104600008C123FA87E73235C7A732DC67E7323AF12
:104610007A732DC77AD32D9EDA79DAD8227E900567
:10462000AC9F09B41F07BCBE22CAF86CFF80347E61
:1046300073005FBC7F682A7E3005AC3F1246A5CA76
:10464000397E3038AC3F1246BE12155F1BFD7E34FA
:10465000008CCA397E308CAC3F1246B312155F1BFA
:10466000FD0BF09061C5E493BCBF38C37E23005FAF
:104670007E3005AC231246A5CA397E23005F7E300A
:1046800038AC231246BE12155F1BFD7E34008CCA67
:10469000397E23005F7E308CAC231246B312155F47
:1046A0001BFDDAF8222E141F076D001242AF7E3474
:1046B0000038222E1401406D007E180370222E1443
:1046C00000606D007E18340022CA3B12714050FB1E
:1046D000128A1C7EB3235CF5237EB3236CF5247E03
:1046E000C3236D1243C57EB3161F70061270AFC38D
:1046F000E1B8122769CA397E1806FC7E08047E12CA
:10470000155F1BFD122769CA397E18077A7E0804D7
:104710000012155F1BFD7EB32D5AB40307128B6682
:104720007A372DDB74017AB3161E1217B37ED303CA
:10473000FC12419AE41212741270AF7E08047E7A61
:104740000D257E1806767EB323BF12A3A27E080431
:10475000007A0D257E1805F87EB31EC412A3A2129E
:10476000A8CAE5247AB3236C7AC3236D123FCF50D5
:10477000057CBD1247BB7E34080A7E040DC87D202F
:104780007D101264AE12A8C1E52312676F1289B2C0
:104790007EB32EC4047AB32EC47E732EC4BE70FAC8
:1047A000280674647AB32EC47EB3161E60097EB3E5
:1047B000161F6003D38001C3DA3B22CAF87CFB7E5C
:1047C000340038CA39AC7F2E3400606D227E083444
:1047D0000012155F1BFD7E34008CCA39AC7F2E346D
:1047E00001406D227E08037012155F1BFDDAF8226E
:1047F0007E0822BE0201207E0822BE020BB8097587
:104800001F097A73236C221248401248376D337A9D
:10481000350A124870124849743C7AB32DC87E2478
:104820000258124830E41248936D337A372EC12271
:104830007D3274FA0211667E371EC87A372A5C22EE
:104840007E340DC87A372A5E22906119E4937AB3D8
:104850002DC722A209E4337AB32DC27E732DC6BEC2
:1048600073235C680AE50C700612487012484922EE
:104870007E73235C7A732DC67E73236C7A732DB698
:104880007E73236D7A732DB57E7323617A732DB792
:104890002274017AB3234E7AB3236A22124891120A
:1048A00080B87A372EC112A9201217B30248AF740C
:1048B000060248B47AB32860E47AB328BB22CA3B24
:1048C0007E2322547E7822187E732140A5BF0108E2
:1048D0007E300A7EA00A80067E30067EA005A5BA3C
:1048E00000051248AF4110A5BF010B7EB3225570E1
:1048F00005740A1248B46C1141057E70077CD1AC76
:10490000D709062190BE00FF780241030A307F5785
:104910002DB37E5BE0BEE002680221E37E7004AC52
:104920007049232A344936218C12A9107E7004ACB8
:104930007049232A367E7007AC714933218E9D322F
:104940001215B87DD37EF328600A2FBD24285BBDE5
:104950002D28577E7004AC7049C32A347E7007AC92
:104960007159C3218C7E7004AC7049C32A367E70A5
:1049700007AC7159C3218EBE200028021B20A5BAA6
:104980000002800241037EB328BB047AB328BBBE79
:10499000B032406FE47AB328BB7E732860BC7A5093
:1049A000627CB7047AB3286080597E70077C51AC72
:1049B0005749C2218C7E7004AC7059C32A3449C255
:1049C000218E59C32A36BCF340067AA32860800C96
:1049D000BEF00128077CBF147AB32860E47AB328BC
:1049E000BB80204CEE781C49C6218C7E70047C5024
:1049F000AC5759C22A347E7007AC7149C3218E5915
:104A0000C22A360B10906099E493BCB1280201FAD7
:104A1000DA3B221248BE024A197EB3225B70247E22
:104A2000A328D04CAA7803E48007BEA002780674BD
:104A3000037AB328DB7E7328DCBE7328DB28047A74
:104A40007328DB2212489C1267FB7EB32D5AB401F7
:104A50006912A1827E3460A51218EB12389212807E
:104A6000CA1271D91246C950DE1253261253997ECA
:104A7000B32D57B40104E4124D721256017EB316E1
:104A80001F60067EB3161E7005126FAD38B912276F
:104A9000731223BE124F8D12006E128147124ACC40
:104AA0001274E512782B124A13127B56124D7A12A9
:104AB00058A8128036120071808D125FFA024AC027
:104AC0007EB32D57B40104E4024D7222CAF87E6809
:104AD00022186CAA80197E70FF12A879E40A4A197C
:104AE000B4240474FF19B4241619B424200BA012A2
:104AF0004D6338E27E732254A5BF00237EB32ED3CC
:104B0000700281E76CAA80107E447FFF1291707959
:104B100040001412A8ED0BA0124D6338EB81E77E24
:104B2000B32ED3703DBE700028386CAA802A7E90C8
:104B300007AC9A49342146129170793000144934F7
:104B400021487F062D127930002874010A3A19B3E2
:104B5000240419A4214A0BA07EB32254BCBA38CE37
:104B600081E76CAA8017125B3E3E34594314DC592E
:104B70004314DE59431504594315060BA0124D6327
:104B800038E46CAA80416CFF80327E7002AC7F7F7B
:104B9000062D1369300014BE347FFF681D0A4F09CB
:104BA000B42420B4FF1412A92F593214DC69300048
:104BB00028593214DE12A83A800B0BF0906099E469
:104BC00093BCBF38C50BA07EB32ED3BCBA38B76C2C
:104BD000AA80280A3A09B32416B4FF1D6CFF80107E
:104BE0000A4F09B42420B4FF0512A83A800B0BF039
:104BF000906099E493BCBF38E70BA0124D6338D3A3
:104C00006CAA801A7E7007AC7A4943214612A92FFC
:104C10005942150449332148593215060BA07EB379
:104C20002254BCBA38DE7E3414DC7A3724107E3449
:104C300015047A3724127E34152C7A3724147E73A7
:104C40002ED37A73240E7E7322547A73240F7E0837
:104C5000240E1203616CAA805D7E70FF6CFF8019C8
:104C60007E5002AC5F4912152C0A2ABD2178080A31
:104C70003F09732416800B0BF0906099E493BCBF3E
:104C800038DEBE70FF682D12A87974010A4719B486
:104C900024047E9007AC9A492421467E3002AC372A
:104CA0002D1D7D0C79200014494421487E5002AC12
:104CB0005712A8ED0BA07E632254BC6A389B6CAAE5
:104CC00080200A3A09B32404BEB0016813125B3E87
:104CD0007F062D13794000142D3D7D2C794100284D
:104CE0000BA0124D6338DB7EF322547AF32ED36C83
:104CF000AA80680A3A09B32404B4012C124D6B2926
:104D0000B1000AB40106740339B1000A124D6B29CF
:104D100031000AA5BB0306E47A1BB08032A5BB00B4
:104D20002E74027A1BB08027124D6B29B1000ABE87
:104D3000B0026802701474017A1BB07C2F0BF07EF5
:104D40003007AC2319A1214A800574037A1BB012E5
:104D50004D6B7E1BB039B1000A0BA0124D63389326
:104D6000DAF822906099E493BCBA220A3A2D3D7D8C
:104D70002C227003D28622C28622CA3B7523006C85
:104D8000FF7524007525007527036CEE7E482218F8
:104D90007EB3225D700E7EB3225970087EB3225A14
:104DA0007002E164300D067E682BB880047E682BAB
:104DB0007A7F0612A8837E7322567A6B706CDDE1CF
:104DC000257407ACBD09C521907CBC540F0A3B1269
:104DD000A937F5277CBC54F0BEB0002802E123E5DA
:104DE00027BEB0037802E1237E0800277CBC128234
:104DF000E45002E1237407ACBD09B52191F5247498
:104E000007ACBD09B52192C454F0F5257E73229EEE
:104E1000BC7C28577EB3225B702A75280F7E080061
:104E2000240A3C2E342B666D2274011277ED75280E
:104E3000207E0800250A3C2E342B706D227410123F
:104E400077ED800E0A3C09B32B66F52409B32B706D
:104E5000F5250A3C12A937B40111E40A3C19B32B19
:104E60006619B32B707524007525007EB322B5B486
:104E7000FF137524007407ACBD09B52190BEB0FFC7
:104E800068037524017E9007AC9D49B4218C49A428
:104E9000218EE527B4012C752600801D7E712674B5
:104EA00007AC7B09B32BFA540FBCBC780A49B32B6F
:104EB000F649A32BF8800C0526906099E493BEB1C7
:104EC0002638D95EB40FFF5EA40FFF097421900A43
:104ED00057C454F07CABE42DA5BE70FF6816E527DF
:104EE000BEB001680205230BF0E5270A5B12A35749
:104EF0002DB580042EB4C0007E7006AC7E7F062DDA
:104F00001379B000027F062D1379A00004E5247FF9
:104F1000062D1339B00006E5252D3D7D2C39B10055
:104F2000070BE00BD07E73229EBC7D2802A1C1E559
:104F30002339B60001BEF00038067EB3225A600A5B
:104F4000B20D1270247401124D727EB322596005A5
:104F50007F04125B48E47AB3225D7AB322597AB3B4
:104F6000225A8004E4124D721277D2CA597E182157
:104F70008C7E082BF612155F1BFD4CFF780C125A25
:104F8000FC7E082BF674FF121596DA3B2212A1B7AD
:104F9000024F93CA3B6CFF7EB3161FB4010280031D
:104FA00002507F6CEE0250737E7002AC7E126FBEB8
:104FB0007523027ED0027CBE1250EBD2001252C981
:104FC0006CCC803ABCCE68347E7002AC7C09A31FE6
:104FD000CE7AA12609B31FCFF5270A2A129630BE32
:104FE0003400031817E5270A2BE525129632BE3444
:104FF000000318087523017ED001800A0BC07E7360
:10500000211CBC7C38BEE5247E71251250AF5008AF
:105010001250827523006CDD7EB32140B401067509
:1050200023037ED0037EB32255B401177EB3211C27
:10503000B401107E37211EBE34000C4006752303D8
:105040007ED003E5237C7D7C6E7C5F127D019061C8
:1050500035E493B401167E7007AC7E7D132E1420C8
:105060004A6D002E34204C6D221271A61250820B14
:10507000F00BE01257F32803024FA87AF3211CDA51
:105080003B2212535460276C22801B7CB21250C901
:1050900050127CB212522112535C49252EAC127F61
:1050A000B51B38200B207E7322C2BC7238DD227CF7
:1050B000A77C7B9060AAE49360027CA79060ABE43D
:1050C00093BCBA7802D322C3227CAB6C7780110ADE
:1050D000272E2460AC12698EBCBA7802D3220B70E2
:1050E0009060A7E493BCB738E6C322CA797C5B7EA4
:1050F00043211CBE4001280241107E6322BF74027E
:10510000ACB509751FCE09A51FCF7C57AC567DB233
:105110003EB47E5002AC5A2DB22EB7138A6DAA90BF
:1051200060AAE49370167CFA7C177E0322C17EE3AA
:1051300022C00A566DDD9DD50AE680147CF77C1AE4
:105140007E0322C07EE322C17ED4FFFF7EE4000105
:105150000AC01BC50A5FBD5C580241100A511B54AE
:10516000BE54000048507CB1141250C950487CB164
:10517000141252130B58F07D3D12531808119DCF95
:10518000BEC4000058046D5580027D5C1253057C3E
:10519000B024FEBCBF781F9060AAE49370067D41E6
:1051A0001B44800312530D7D5412521A0B5830BD0C
:1051B0003C08031B58C00AC10BC40A5EBDC5585049
:1051C0007CB1041250C950487CB1041252130B58E0
:1051D000F07D3E12531808119DCFBEC40000580444
:1051E0006D5580027D5C1253057CB024FEBCBF78F7
:1051F0001F9060AAE49370067D411B448003125304
:105200000D7D5412521A0B5830BD3C08031B58C078
:10521000DA79221252217D137D513E542E57138A82
:10522000227CAB7E4322BF9060ABE4937C5B9060BA
:10523000AAE49370097C7AAC740A252D32227C751D
:10524000AC740A2A2D32227E6322BF9060A7E493B9
:105250006076C2116C3380609060AAE49370157C14
:1052600096AC939060ABE4930A5B1B542D457DF4A0
:105270000BF480159060ABE4930A4B1B440A56ADC7
:10528000540A432D450AF62DF47D5412521A0B5838
:1052900050BE5722AB081F7CB31250C950187D5F17
:1052A00012521A0B58E07D5412521A0B5850BD5E20
:1052B0000804D211800A0B307E7322C2BC73389866
:1052C000301105D2000252C92212535460366C22AA
:1052D000802A7CB21250C950217CB21252217D0327
:1052E0007D203E242E27138A0B283012535C59351B
:1052F0002EAC3000056D331B28300B207E7322C28C
:10530000BC7238CE222D3B7D2A1B1A50227E73227E
:10531000BF0A577D419D45223E347F452D930B4A60
:10532000C0BEF40000229060A7E49360266C338036
:105330001A7CB31250C940117CB31252217D436DC7
:10534000337D5412521A1B58300B307E2322C2BCBC
:105350002338DE226C339060A7E493227CA30B30C9
:105360007402A4226D447E3322BF6C2280207CB262
:1053700012277E601712A82D7CB1ACB30A302D53D2
:1053800012521A0B5850BD5408027D450B207E73F3
:10539000211CBC7238D87D34227E3722A01E341ED8
:1053A000347A35277E0804FC7E1804001253E07E10
:1053B0003721310E340E347A35277E08057A7E186F
:1053C000047E1253E012540E1252470253CEE47A76
:1053D000B32ED87EB32140600674017AB32ED82252
:1053E000CA3B7F317A0D237E35277A355D7E0D23CA
:1053F0007F131286717E35277A352912A28BA47EFF
:105400000D232D157F132D3512871BDA3B22CA3B46
:105410007EF322BF7EE322C07ED322C16CCC8022E9
:105420007CBC1250C950057AF12380037AD1237CC9
:105430003CAC3F3E142E17138A6D00E523128806FC
:105440000BC0BCEC38DADA3B22125354BEB0002851
:105450006E9060AAE49370677EB32140B401607ED1
:10546000231FC6BE200028576C22804B0A0209A0C9
:105470001FBA7EB322BF14BCAB783A6C1180247C77
:10548000B17C7212578950190A217E0322BF0A305B
:105490002D323E34492304FC126F90BD2358020B79
:1054A000300B107E0322BEBC0138D4BE300028036E
:1054B000740122E4220B207E031FC6BC0238AD74A7
:1054C00001227E900112573D0B1A207E14614E7E00
:1054D0000400FF0B0AD0E47AB321441255D67E347F
:1054E000FFFAAD32122C117DC30E347E2707FEBDAC
:1054F0002C581C7EC707FCBDC358146DCC9EC72218
:10550000ABBEC72126080812544960031257467ED5
:10551000B32140BEB00168067EB32EC86007E47AAE
:10552000B32145806B1255DD2805E47AB32145127D
:105530008D22500A1255D612567D7C9B80177EB361
:105540001F5870117EB31F59700B1255DD28067E4F
:1055500090031255D67EC707FABEC405DC081712A1
:1055600055DD28126D339D3DBE3721265808125552
:10557000F1E47AB321450A297E1461C01255E9ADE0
:10558000327A3721390A291255E5AD327A37213B73
:105590007EB3161F60067EB3161E70031255F112FD
:1055A0008BD7B40105E47AB32145128CC87EB326AB
:1055B0003EBEB000281F147AB3263E7018E47AB3BA
:1055C00021451257547AB3161F7AB3161E7AB321A7
:1055D0001C7AB31F572274017AB32145227E83219E
:1055E0001CBE8000227E1461C27E0400FF0B0A30C4
:1055F00022E47AB3263E7AB3214474027AB3234F6D
:10560000221256E912005712573712575C126A6F6E
:105610001254C21256607EB32D58B4011A7E346102
:10562000C0127C467E240005AD127A17213912552E
:10563000E5AD327A37213B7EB32ED46007147AB3BE
:105640002ED480067EB32144600612392C12576C8A
:105650007EB32145600912A43E128B09028F5322AA
:1056600012929360171255D67E3721393E347A371D
:1056700021397E37213B3E347A37213B227EA001FF
:105680007E4707F812573D0B1A007E34FFFAAD3003
:105690007E1400021256E108127EB321446007E432
:1056A0007AB3214580387EA00580337E34FFFBAD80
:1056B000301256E108057EA00480237E34FFFCAD45
:1056C000301256E108057EA00380137E34FFFDAD45
:1056D000301256E108057EA00280037EA0017CBA4C
:1056E000227D2112129CBD3422121D360256EFE497
:1056F0007AB3212B7E1804FC7A1F06F812A8241214
:105700002DA912A4BC7EB3161EB401187E731F57B8
:105710007A731FC77E731F597A731FC97E731F5810
:105720007A731FC812A6257EB3161FB401087E73B4
:10573000211C7A73212A221218F30256EF7E34615B
:10574000547E2400FF2274027AB3263E1257547A04
:10575000B3234F2274017AB32144E4229060A7E47A
:10576000936008301105125082C211221257B06D99
:10577000337A372D2F6CAA8005128FA10BA01257F8
:10578000EB38F6E47AB32CC7227C677C5B7C767CB2
:10579000A59060AAE49360047C757CA69060ABE45D
:1057A00093BCB778097CBA1250C95002D322C322E5
:1057B0007E372E79121A9B7A372D2F6CAA802312EE
:1057C00057EB28260A4A09642CCABC6B50127E503B
:1057D00002AC5A49422E737E700CAC6759432CD4EC
:1057E0000BA07EB32CC8BCBA38D5229061C5E49317
:1057F000BCBA227E73211CBC7E2224AB681024EF2D
:10580000681C24DE682624DE782F7405802D7EB384
:105810002ED2B4052A121D131258600258407EB3CE
:105820002ED2B4051A121D1375E9FF227EB32ED2B3
:10583000B4050C121D1302585A74017AB32ED222E9
:10584000025843E47E34D7FC7E2400FF7A1BB07EEE
:1058500034D7FD7A1BB075E9FF2275E76B02584318
:105860007E14D7E87E0400FF7E3447527E245550D4
:10587000793000021B0A207E3445207E2441447981
:10588000300006792000047E3499337E2466CC797A
:1058900030000A792000087E3441477E24464C7946
:1058A00030000E7920000C227E73212B7A73212C7C
:1058B0007E7322547A732255E47AB32258227E37BB
:1058C0002E9B0B347A372E9B7E372E9DBE372E9B18
:1058D00028030258D9220258BEE59A6005D29CA935
:1058E000D6DF22CA7BCA6BCA5BCA4BCA2BCA1BCA89
:1058F0000BC0D0C083C0821258D6D082D083D0D003
:10590000DA0BDA1BDA2BDA4BDA5BDA6BDA7B327E14
:10591000340004CA397E34612C7E2400FF7E0823C3
:10592000BD12155F1BFD7E34225F7A3723C3E47AF4
:10593000B323C17AB323C27E340004CA3912595D3D
:105940007E081EC212155F1BFD7E3423C57A371EEA
:10595000C8E47AB31EC674017AB31EC7227E3461CE
:10596000287E2400FF22E47AB32D947AB32D9590FB
:105970006050937AB32D96906051E4937AB32D974B
:10598000E47AB32D98906099937AB32D99E47AB321
:105990002D9A7AB32D9B9061C4937AB32D9D747820
:1059A0007AB32DB3906117E4937AB32DB490611854
:1059B000E4937AB32DB6906123E4937AB32DB59036
:1059C000611CE4937AB32DB7906124E4937AB32DEC
:1059D000B2E47AB32DAD74FA7AB32DAB741E7AB3F8
:1059E0002DAC74017AB32DAA7E082DB87E34002C1C
:1059F000E41215967E3460D61218EB0A367A732DAF
:105A0000C37E3460D61218EB7A732DC49060D493A1
:105A10007AB32DC59060D5E4937AB32DC67E340059
:105A200004CA3912595D7E082DD412155F1BFD740E
:105A3000017AB32DD87E340028CA397E3461D57EF0
:105A40002400FF7E081F0712155F1BFD22125966F6
:105A5000121D7912007212A8247E1804007A1F0603
:105A6000F87E0F06F87E1F06F4125ED37E18080A31
:105A70007A1F13867E340DC87A37138A7E17138AED
:105A80006D007E1F13861263F4125BC1121A02129C
:105A90005B08125AA712714B025A9B7E082ECA7ECF
:105AA000340004E4021596125AFC7E082146125A6C
:105AB000F77E0821D2125AF77E08218C74FF121546
:105AC000961283B56CAA801E74030A4A19B4221870
:105AD00019B42222125B3E5943222C7E7002AC7A0A
