:100000000060002085000000ED000000EF0000000F
:10001000F1000000F3000000F50000000000000007
:10002000000000000000000000000000F7000000D9
:10003000F700000000000000F9000000C17200009D
:10004000816B0000000000007D6F000000000000D8
:10005000A1670000B1670000C1670000D167000020
:1000600071720000A5720000000000000000000096
:10007000B9650000000000000D6B00001D6B000062
:10008000FFFF00001049114A114B9B1A40F30580F5
:10009000043BC858D0503FF7FBAF0E480E490F4AFB
:1000A000914200F0048041F8040BFFF7F9BF0948C2
:1000B0000B490C4A914200F0048041F8040BFFF711
:1000C000F9BF0948004700001CF9000000000020AB
:1000D000980100200000000098010020384D002009
:1000E000005000200060002015010000FEE7FEE740
:1000F000FEE7FEE7FEE7FEE7FEE7FEE7FEE7FEE7D8
:10010000FEE7FEE7FEE7FEE7FEE7FEE7FEE7FEE7C7
:10011000FEE700BF2DE9F04F994B8FB0186800251E
:100120000D90C5F2020503F093FD03F09FFD0AF068
:1001300069FB06F0E5FB07E040F2D826C2F20006B4
:100140003778002F40F08B80AA8802F400518CB2DF
:10015000002CF1D00021C5F202018A8802F400547B
:10016000A5B2002DF9D10026C5F21006C02740F235
:10017000CC130895C2F2000386F83C7008981978F1
:10018000DFF8109201250B9009907E4C7E4EDFF82F
:1001900008827E4FDFF804B2002900F0AC80002D09
:1001A00040F0C98040F2A121C2F200010A78A2B158
:1001B0003578002D00F09A8140F2E320C2F2000071
:1001C00040F2A12A03780021C2F2000A8AF8001046
:1001D000002B00F0C1810D25257040F2C200C2F253
:1001E0000000037859B24B1C05D09BF80020FF2576
:1001F00022708BF8005040F23C20C2F200000178DF
:1002000040F243223378C2F20002117073B940F217
:10021000A80CC2F2000C9CF8005068B2012800F053
:100220008881421C00F09B81E9B208913378002B51
:1002300000F02881B8F80020551CAAB294F90000FB
:10024000A8F80020102838D8DFE800F00D3737373D
:100250003737373737373737AA96969696004C4B4D
:100260000120187076E740F24321C2F200010B78BA
:10027000002B40F00F83099DB5F5E16F01DA6A1C90
:10028000099203F0F1FA002002F05AFF3578002DB0
:1002900000F0518142F2AC45C2F2000595F8AC2065
:1002A000002A40F0768140F2B0310D20C2F2000108
:1002B0002070087840B201F04DFA40F2F225D9F8EA
:1002C00000301620C2F2000598472A7852B140F259
:1002D0004820C2F200000178002940F021813A78DC
:1002E000012A2BD0002540F2CC13C2F2000319786A
:1002F00000297FF454AF40F2F62EC2F2000E8EF8C1
:10030000001003F0B3FC0C22227003F0BDFC01F0DE
:100310002FFC01F0E9FE002D40F0238103F002FDE7
:1003200040F2CC1040F2F6230125C2F20000C2F2E6
:10033000000305701D7003F035FB33E738780128A2
:10034000FCD012490B78022BCCD140F2B435C2F26A
:100350000005012001F038FEEA7C40F2CC1A42F0A0
:100360000103A96CEB7431200025C2F2000A884712
:100370008AF800500025B6E700F0A6FA20709CE746
:10038000D4F20000B4120020490200203102002003
:10039000A0020020F445002068070020C2000020D1
:1003A00040F2DC200023C2F20000036040F2D411CE
:1003B000BC4840F2E01540F2F22240F29C3CC2F20E
:1003C0000001C2F2000CC2F20005C2F200024FF0BE
:1003D000010A0B602B608CF81030ACF80030038001
:1003E00043808380C3800381438182F800A009F0A9
:1003F000E1F842F2AC43C2F2000393F86D104D1ED7
:1004000039B35046079502F09BFE079A02F00100AF
:100410000A9009F057F9079B5D1ED3B10A9939B1CB
:100420005046013D02F08CFE09F04CF96B1C10D0D7
:10043000AA4601200AF1FF3502F082FE09F042F9D6
:10044000012002F07DFEAAF1020A09F03BF9002D1D
:10045000EFD109F0E9F840F2E322C2F2000210788D
:1004600010B1914B002119701D20D9F80050A847F8
:1004700040F2A80EFF22C2F2000E00208EF80020EB
:1004800020701AE708980DF1380E0EEB000111F8F4
:10049000043CB8F80000190102B2CD1AB2EB450FC6
:1004A00009DB40F2A60AC2F2000ABAF8005064352D
:1004B000ADB2A52D13D9C91AB2EB810F07DB40F2FB
:1004C000A605C2F20005B5F90010642907DDB425C0
:1004D00005FB03F39A4202DA431C9AB2AEE600220D
:1004E00001200B2107F076FD0122A7E60020C5F2CE
:1004F0000200838803F400518AB2002AF9D0002553
:10050000C5F20205A88800F4005399B20029F9D178
:1005100040F2A1250C22C2F20005227029705CE68F
:1005200000F020FF614B1D78002D7FF4D8AE002530
:10053000D9E608907AE640F29C10C2F200000178F9
:1005400091B1057001F0C0F940F2B03EC2F2000E68
:100550008EF800502846ADE60E2222703DE6089344
:1005600064E606F0FDF9D9E607910520D9F80030D8
:10057000984709F0FDFB079970B940F2A12040F2BD
:10058000B031C2F200000122C2F20001027008780C
:1005900090E606F005FE86E644F2F452C2F200024E
:1005A000062015680791A84702F05EFD00F0CCFF19
:1005B00040F2432CC2F2000C9CF80000079B00287C
:1005C00040F0598140F2F8620021C2F2000203209B
:1005D0001170D9F80050A84740F2F860C2F200004C
:1005E0000378002B64D040F2D823C2F200031878BD
:1005F00078B340F2E412C2F2000213689AB240F2F9
:10060000DC1140F2432EC2F20001C2F2000E096872
:1006100040F2F4159EF80000C2F200052A806980BD
:10062000002840F03C81022B00F3D48040F2E4101B
:100630000133C2F20000036040F2DC1140F2B03A34
:100640000022C2F20001C2F2000A0A609AF8000019
:1006500030E60B9D0B9B691C042B00F3B280099ABA
:10066000B2F5E16F80F2AD800022C5F2020207E030
:1006700040F2D825C2F200052B78002B40F0BA805A
:10068000958805F400539DB2002DF1D001303C282F
:10069000F6D140F2E4150323C2F200051A462B609E
:1006A0000B91ACE79E030020E3020020F202002041
:1006B00040F2E41144F2F452C2F20001C2F200022C
:1006C0000B6015680720A84705F020FE44F2F4509F
:1006D000C2F200000368092098470021C5F210010A
:1006E000CA6F95B2002D00F08D8005F043FF40F2F7
:1006F000302EC2F2000E9EF8000020B909F03EFE36
:10070000002800F09D8005F03FFF0023C5F2100394
:10071000D96F8AB2002A00F090800A20D9F80050E0
:10072000A84740F24320C2F200000378002B40F0BB
:100730009180D9F800300C209847012003F04CFB41
:1007400044F2F052C2F2000215680120A847D9F81D
:1007500000100D20884703F035FB05F085F905F002
:10076000FBFD1120D9F8003098471420D9F800205B
:10077000904700F069FF002851D042F2AC40C2F22D
:10078000000090F8AC50002D54D14A494A484FF42B
:10079000A8720EF08DFD40F24221C2F200010B78EA
:1007A000002B43D142F2AC42C2F2000292F8AC00FC
:1007B00007F05EFD48BB40F2B030C2F200000078A6
:1007C00078E540F2E41CC2F2000CDCF800300B913A
:1007D0009AB214E703F072F840F2DD0540F2E4113A
:1007E00000200C22C2F20001C2F200052270086053
:1007F000287021E740F2B03CC2F2000C9CF80000E7
:100800000B9157E503F06AF86FE72C4D4FF2386310
:100810002978C0F200035A5C500006F093FC40F2C5
:10082000B03AC2F2000A9AF8000043E5002007F04F
:100830001FFDB7E706F0B4FCA7E703F07BF86CE711
:1008400003F03CF840F2B0310C25C2F200012570F3
:1008500008782FE5022200250F210820009201913F
:10086000029003920495059504201921144A1E2331
:1008700007F0C6FA5DE704200F21512202258DE81A
:10088000270004930593012019210E4A382307F00D
:10089000B7FA97E60120792107F0F4F9EBE400209C
:1008A0000221102207F032FA40F2E413C2F20003F0
:1008B0001B68B8E68C2C00205C310020AC240020A2
:1008C0005B1D002004170020A0F10D0370B5032B61
:1008D00000F22F81DFE813F0040022004F0018011E
:1008E000A04EA14D00242C70347001F0B9F9012004
:1008F00030708C2006F0D2F89C4E0B25013D0BD0B9
:10090000012002F059FE41F65830347003F028F807
:100910000A2006F0C3F8F1E70E240DE1924D2E787F
:1009200026B100200146287001F010FB904C914D3B
:1009300008F040FE94F86D600024A6420BD0012020
:1009400002F03AFE08F0BEFE297811B10A2006F046
:10095000A5F80134F1E7874B00241C7008F064FE11
:10096000854B86481A78FF210170002A00F0E38049
:100970001C700F24E0E0824802786AB17F4D0024A9
:1009800095F90060784904700120331B5A420870C1
:1009900052EB030101F0DAFA73480478002C30D0EE
:1009A00078490D782DB1784EB38803F0020290B2E9
:1009B00038B3754CA188264601F40055A8B218B981
:1009C000012105F0B1FE03E00120014605F0ACFE77
:1009D0006E4B1A7872B1B4886B4804F400518DB232
:1009E00035B9868806F400539AB2002AF9D004E09B
:1009F000838802E0022006F00FF80120002105F0B4
:100A000093FE634E002002F0D7FD624D346805204E
:100A1000A047002409F0ACF903202C703168884706
:100A200028785D4BD8B11A68022A03DC541C1C607C
:100A30000F2465E01C60594B1C78194634B15848A6
:100A40000278012A02D8541C047001E000230B70C4
:100A50005448554A0021017011700E2450E0534A49
:100A6000186014783CB102F09FFC444991F90000F1
:100A700000283FD105E009F081FC0028F3D10E24C5
:100A80003EE0434C07202368984705F03FFC22686E
:100A9000092090474649C86F0C4683B20BB902F053
:100AA0001DFF05F067FD05F06FFDE26F91B209B91A
:100AB00002F040FF364C0A202368984722680C2039
:100AC0009047012003F088F921680D2088473948B4
:100AD000036801209847012004F078FD03F072F9C3
:100AE00004F0C2FF05F038FC22681120904724680A
:100AF0001E20A04730490878002814BF10240F2476
:100B00002D4B197809B917E01024002104200A465A
:100B100007F060FA642005F0C1FF01F095F80328A2
:100B20000CD0642005F0BAFF01F08EF8032813D131
:100B300004E0044600E00F2460B270BD1F49204865
:100B40001D4A00230B70137003701E490F481E4A84
:100B50000B7003701370EFE7174A002010700F241A
:100B6000EAE700BFF602002098010020A201002061
:100B7000AC240020A9000020E3020020A8000020EF
:100B8000E9010020F402002000000250A20200202F
:100B9000F4450020F8060020E4010020CD010020EB
:100BA000ED010020EF010020F001002030020020C4
:100BB00000001050F0450020CF010020CC010020A3
:100BC00049020020D80200203F0200202DE9F84F02
:100BD0002F4B187808B101F06FF92E4901222E4EE3
:100BE0002B4D2E4C0A70B3788BB929780029FAD195
:100BF000A38803F4005080B20028F4D1A28802F444
:100C000080518BB2002BEED000F0CEFFEBE7224CF0
:100C1000204D00201E4AA0702870117809B101F003
:100C20008FF81B4D1E491F4C0F23581EC3B2FF2BBC
:100C30002CD0192214204FF0302A03F101094FF073
:100C40004058013AD2B2FF2AEFD02E782EB100FBE5
:100C5000023731F81760B6B210E000FB0237DFF858
:100C600048C031F817B03AF817601CF80370B6B2F4
:100C700034F817701FFA8BFBF61B5E44571C4FF0BD
:100C8000180C0CFB079748F82760DAE7BDE8F88FE7
:100C9000490200203E020020EC45002000000250E6
:100CA00000200030F43D002090F600002DE9F04FC8
:100CB000ADF2FC5D002140F2EE2206A80EF001FB31
:100CC00000214FF4E06274480EF0FBFA00214FF46B
:100CD000E06272480EF0F5FA00214FF4607270483D
:100CE0000EF0EFFA00214FF460726E480EF0E9FA50
:100CF00000214FF407726C480EF0E3FA4FF6FF71D3
:100D000040F2EE22C2A80EF0DCFA1822002168465A
:100D10000EF0D7FA654B0022D87B9A73012806D9CA
:100D200001210324D97383F8504002F0CFFD604DB8
:100D30005E4C2E7AE37A771E207BFA1AE57B111A35
:100D400069435C4F5C4E3D78317085B901233B703F
:100D500008F030FC94F86D602C46A64205D0FFF7F1
:100D600035FF013408F0AEFCF7E708F05DFC4FF00A
:100D70000009524C228890B2814545DAFFF726FFE0
:100D8000C2AFDFF844814E4E07F52F77B5AD0F2483
:100D90004FF0180B04F1FF3A9CB35146022008F0C3
:100DA000D3FC424B192193F80EC000B24B1E09B37D
:100DB0000BFB01424FF0405151F8222091B241FA11
:100DC0000CF256F82310891846F8231035F8131042
:100DD000121A914237F81310B8BF25F81320914228
:100DE00058F82310C8BF27F813208A1848F8232082
:100DF0001946DBE7A8F17008323F703E323D544699
:100E0000C8E709F10109B4E7C2A901F52F70DFF8BD
:100E1000B0E02C492C4F294DB5AC002256000EEB0A
:100E2000060907EB060A294E192306EB0208284E8D
:100E300006EB020C13F1FF331ED3B5F800B059F8DE
:100E400023601FFA8BFBB6FBFBF628F8136034F81F
:100E500013B030F81360C6EB0B06FF2EA8BFFF26B9
:100E6000B5F800B0CE545AF823601FFA8BFBB6FBDE
:100E7000FBF62CF81360DDE7383A323C32381E3985
:100E800012F5527FCAD102F0F1FE02F01FFD7FB0D1
:100E90000DF5806DBDE8F08FF4360020700700205E
:100EA0002C210020DC2D00203C1D0020AC24002043
:100EB0008C1A0020F302002027210020C00000200F
:100EC000143D0020E01E0020900D00203C24002056
:100ED000EC3000202DE9F04FADF66C2D002140F2F2
:100EE000EE2267A80EF0EDF9002140F2DC520DF27F
:100EF0008C400EF0E6F9002140F2771209A80EF0BE
:100F0000E0F900214FF407727F480EF0DAF97F4CC8
:100F100000214FF460727E480EF0D3F901260323BE
:100F2000002584F85030E673A57302F0CFFC7948B1
:100F3000067008F03FFB94F86D702C46A74205D070
:100F4000FFF744FE013408F0BDFBF7E708F06CFB47
:100F5000FFF73CFE0DF5C17102910B460E224FF0DA
:100F600030241426182706FB072534F81500D85519
:100F700017F1FF37F7D2013A193B551CF2D1664EF3
:100F80003120716C88471323F45C03F110076D4620
:100F900013F1FF337C55F7D24FF000085F4EFFF797
:100FA00015FE029835460E2200211427B446182358
:100FB00007FB03264FF0302434F8166010F803E0E6
:100FC000F4B2EC54A64518BF012113F1FF33EFD260
:100FD000013A1E3D1938541CE9D16446002959D004
:100FE000029EDFF82CC10DF58B600E224C4D642360
:100FF0000DF28C41571903FB021103970023F518DA
:101000002F7E5FB34FF0140919F1FF3905D30DF1AD
:10101000100A1AF809B0BB45F6D1039F4FF01C0E19
:1010200097F900A00F6E0EFB0A9B00EB430ECDF864
:1010300004B00BF1FF3A97FBF8FBBEF930703CF8B7
:101040001AA0C7EB0B0EBEF1000FACBF0AEB0E07E8
:101050000AF10007DDF804A02CF81A700F6E00EBFF
:10106000430E97FBF8F7AEF83070E7183F7E013B70
:101070002F7600250D66043913F1190FBFD1013AFF
:1010800032381E3C193E511CB0D1B9F1130F31D08A
:101090004FF000080DF28C4608F1010806F5AF6527
:1010A0000E244FF040574FF0180A2146022008F056
:1010B0004BFB1649192291F80EC0002304F1010ED2
:1010C00000B2043B13F1680F0FD00AFB02E657F899
:1010D0002660E9181FFA86FB4BFA0CF6C0EB060BEC
:1010E0004E6E013A5E444E66EBE7013C643D631C84
:1010F000DBD153E702F0BAFD0DF51B7D0DF5006D58
:10110000BDE8F04F02F0E2BB3C1D0020AC24002003
:10111000DC2D0020F3020020B4030020E01E00209C
:1011200090F600002DE9F04FADF6542D002140F26D
:10113000EE2261A80DF2744B0EF0C3F80DF10C090C
:10114000002140F2DC5258460EF0BBF8002140F27C
:10115000771248460EF0B5F800214FF407727B482D
:101160000EF0AFF800214FF4607279480EF0A9F844
:10117000784B0021012203209973DA7383F8500021
:1011800002F0A4FB744B754914256C1EE5B2FF2DCB
:1011900002D0485D5855F8E76F4B31209A6C904764
:1011A0006C4C6F490120087008F004FA94F86D50F7
:1011B0000024A54205D0FFF709FD013408F082FAAA
:1011C000F7E708F031FA1924FFF700FD0F234FF07D
:1011D000302014215D1EEBB2FF2B0ED004FB03F573
:1011E0001922013AD2B2FF2AF4D001FB023630F8BC
:1011F0001670AE1809F80670F3E74FF00008CDF846
:101200000480FFF7E3FC4FF030250F220021142467
:10121000013AD2B2FF2A1CD019231E27574303FBE1
:1012200002F6013BDBB2FF2BF2D004FB032035F8C2
:101230001000DFF818C1C0B207EB030E0CF80E0067
:1012400006EB030E19F80EC08445EAD00121019186
:10125000E7E7002941D00F220121501EC2B2FF2A28
:1012600034D019231E261C2706FB02FC03FB02F4C4
:1012700007FB02FE013BDBB2FF2BEED0334E0CEB43
:101280000307F55DE61819F80600002D18BF0021C8
:1012900070B15BF826700EEB030A97FBF8F061AFB4
:1012A00037F81660801B2A4E20EAE07726F81A707D
:1012B000E0185BF8207009F8005097FBF8F600255D
:1012C00061AF27F810604BF82050D3E7019B13B1B2
:1012D00091BB884601E0DDF8048008F101080F2485
:1012E0001926013CE4B2FF2C8BD00220214608F0E5
:1012F0002BFA184F192397F80EC006FB04F704F1D8
:10130000010E00B25D1EEBB2FF2BEAD018215A1C71
:1013100001FB02E24FF0405555F82210FA181FFA6F
:1013200081FA4AFA0CF55BF82210C0EB050A01EBD2
:101330000A054BF82250E5E702F098FC0DF5157D03
:101340000DF5006DBDE8F04F02F0C0BA3C1D002065
:101350002C210020AC240020B4030020A0F60000C3
:10136000F30200202DE9F84F684BFF22684C1A70F9
:1013700066486849684A90F900300878002800F00B
:10138000B980107840B28342F7D063495F4A0B7846
:1013900058B21370062800F2AA80DFE800F00410AB
:1013A000168F921298005D4A5D495E4801230B60DA
:1013B000137003681820984700225B4803E0FFF78A
:1013C00075FC56480122027091E0032604204FF478
:1013D000C871012584F850600523207321830026FD
:1013E000B42752484FF6FF714FF46072E57384F8EA
:1013F0003060A772E3720DF064FF4D4D4FF040581E
:1014000055F8182C55F8107C55F8083C28682264CB
:101410006764A364E06402F059FA464800214FF47F
:10142000E0620DF04EFF02274FF01809FFF7CEFBE8
:1014300094F80EC0404A0F234FF0AB0E03F1FF3A71
:10144000B3B11921481E81B109FB013158F82110AF
:101450001FFA81FB4BFA0CF191FBFEFB52F82010B6
:10146000594442F820100146ECE7703A5346E5E74C
:10147000013FDBD11922711C91FBF2FE02FB1E1E03
:101480003A462E4FA9462C4D192305EB4205B918B3
:1014900013F1FF3304D3B342FAD073452CD1F7E7ED
:1014A000383A12F5527FEED14D4601362035192ECD
:1014B000A6D102F0DBFB02F009FA82E7FFF732FE69
:1014C00001E0FFF707FD184A0021117079E71C4978
:1014D00001250D700F4B1B48124900221A70057030
:1014E0000A68192090470E4B0C481D60057006F0E5
:1014F00031FD3DE7BDE8F88F55F8230031F813C002
:1015000040088445C4DD21F81300C1E7AA0000208B
:10151000AC24002048020020A40000200317002073
:10152000FC060020F4450020F30200202C210020BE
:10153000F0F20000F4360020143D00203C2400208E
:10154000A1020020E30200202DE9F0013B4AD37AFA
:10155000002B69D05E1EF0B20D2B46B265DD4FF058
:101560000E08927A002A5AD0571E172AFFB257DD6A
:101570004FF0180CB0455FDB4FFA8CFC7FB20CF1DA
:101580000105C6EBC6002E4BE91B07EB80024D00A0
:1015900003EB420208F101080021BC4515DBB2F95A
:1015A00000000223AC1EAB42C4F3400401440CD043
:1015B0001CB1B2F90200042304E0D45E0233D05E11
:1015C00009190233AB420144F7D10136383246459E
:1015D000E3D189B21B4B1A7C501CC0B2062823F8F9
:1015E000121026D81874598998891A894018D988F0
:1015F00080189A884018598880181A8841188818C5
:1016000044F6251281B2C2F29242A2FB0102881A6C
:1016100002EB50018A08DA81BDE8F00170471746F5
:10162000531C5FFA83FCA5E71E46591C4FFA81F84C
:1016300097E700211974D6E70021CBE7A402002028
:101640000C2900209C030020394B3A491A68F0B459
:10165000002412F0FF000C70374B35D11C78002CA1
:1016600061D0364B364C93F8C0602578AE4208D234
:10167000344D93F8C1702E780136F6B2B7422E7011
:101680004AD33148C28900202070B3F8C600904286
:1016900034D22E4C294A92F8C80022780132D2B2B4
:1016A000904222702A4A107804D201300025C0B23C
:1016B0002570107093F8C930834228D20020107032
:1016C00003220A70F0BC704718781F4A1B4BD2895E
:1016D00040B9B3F8BC409442D7D21949194B0870AD
:1016E0001870EFE7B3F8BE00904212D9144804789E
:1016F00001340470B3F8C6009042CAD3144A93F878
:10170000C9301078114C002583422570D6D30120B2
:10171000D8E70B480470EDE70C4B2A701A700C4B9D
:101720001A700222CDE70848044BC289ADE700BF1A
:101730008C2C0020B00300209F010020AC2400204E
:101740009B0100209A0100209C03002099010020A9
:101750009E01002002282DE9F00F4FD003283ED033
:10176000012802D0BDE8F00F7047514D514B287051
:101770004120A3F884001E2042F2A051A3F8860065
:101780004FF6EC704FF47A72A3F87200A3F8AE1023
:101790004FF42570A3F8B0104FF4A571A3F8B21060
:1017A000A3F8B4005A213A20A3F8B620A3F8B82031
:1017B00064220224A3F87620A3F87810A3F87A0014
:1017C000222230214FF4203083F88A4083F89B4056
:1017D000A3F87C20A3F87E10C3F88000C2E7364B44
:1017E00036491A78002A57D00A88501C82B2082A33
:1017F0000A805AD0324B01211970B3E7314E2D4B7C
:10180000B6F88490B6F8868096F88AC096F89B70F1
:1018100096F89BA0B6F8AE50B6F8B040B6F8B20055
:10182000B6F8B410B6F8B6204FF0000BA3F8B62007
:10183000B6F8B820A3F88490A3F8B820B6F87620BC
:10184000A3F88680A3F87620B6F8782083F88AC0BB
:10185000A3F87820B6F87A2083F89B70A3F87A2052
:10186000B6F87C20A3F8AE50A3F87C20B6F87E2012
:10187000D6F88060A3F87E200D4AC3F880604FFA46
:101880008AF682F800B0A3F87260A3F8B040A3F81B
:10189000B200A3F8B41065E70888421E90B2088031
:1018A0000028A7D101211970A4E700211970A1E730
:1018B0009F010020AC2400209C000020A0010020FB
:1018C0009C010020083E0020F8B5494B93F83050A9
:1018D000002D40F08780474C474922780E7A42F02D
:1018E000010020702778FF2265F3410727702178D7
:1018F00065F382012170207840F008072770217875
:1019000065F30411217020783C4965F3451020707F
:101910002778098865F3861727701A2066700A27CA
:10192000B426A270E2706671A571E5716572A0724D
:10193000E57225736773A67B01EB410746F0010052
:10194000A073A67B988E46F00206A673E67BC1EBD9
:10195000C70146F0010601EB8101E6730918588EB4
:101960008EB222740DF00CFA1FA3D3E900230DF000
:1019700097FB0DF07DFCC0F30722C3B230466274C2
:10198000A3740DF0FDF918A3D3E900230DF088FB33
:101990000DF06EFCC0F30721C0B2E1742075627DCA
:1019A000152065F305026275A37DA26C65F3010342
:1019B000A375A17D65F30511A175E37D65F30103B1
:1019C000E375E17D65F30411E175E37D65F345138E
:1019D000E375217E192365F305012176EF216376F6
:1019E000A1769047F8BD00BF3333333333B336406D
:1019F000AC240020B40300208C1A0020A001002099
:101A000040F2B433C2F2000300221A605A609A60B6
:101A1000DA601A615A619A61DA611A625A629A62EC
:101A2000DA621A635A639A63DA631A64704700BF12
:101A300010B42D4C4208A35C10F0010014BF03F059
:101A40000F031B095BB2072B32D0062B32D0052BBC
:101A500032D0042B32D0032B32D0022B32D0012BC8
:101A600032D0002B32D00F2B32D00E2B32D00D2B98
:101A700032D00C2B32D00B2B32D00A2B32D0092B88
:101A800013D00F2359184BB20F2BA8BF0F231749A0
:101A900023EAE373CB5CA15C20B963F30711A15483
:101AA00010BC704763F30301F9E70E23DBB2E9E7EB
:101AB0000023FBE70123F9E70223F7E70323F5E718
:101AC0000423F3E70523F1E70623EFE70723EDE718
:101AD0000823EBE70923E9E70A23E7E70B23E5E718
:101AE0000C23E3E70D23E1E7B403002018F6000020
:101AF000821E062A38B503460BD9074D074C084805
:101B0000294634F81320C05C05F0EEF8E96C044671
:101B10008847204638BD00BFB403002034000020B1
:101B20000000002038B5831E062B04460CD90D4D4D
:101B3000E86C80470C490D4A085D32F814202946AC
:101B4000BDE8384005F042B9074B0849185C31F848
:101B50001410022C0CBF03220222BDE8384005F00D
:101B6000A7B900BFB403002000000020340000200B
:101B7000094B0A4A0A480B495A64002283F850204C
:101B8000986483F85120D96483F8522083F8532055
:101B900083F85420704700BFB4030020251B0000C9
:101BA000F11A0000011A000070B5254B254C1D7874
:101BB00000F001062078002D14BF0325022540F017
:101BC000010121702378A26C43F00200207021787B
:101BD000212041F00403237021786FF3C3012170A9
:101BE000237843F010012170237866F345132370A6
:101BF000217865F3871121709047012004F066FF7A
:101C00002078A26C40F0010323702178212041F05C
:101C100002032370217841F00403237021786FF3CD
:101C2000C301217023786FF304132370217866F3C6
:101C300045112170237865F387132370904770BD99
:101C400049020020B403002010B540F2B434C2F2BF
:101C50000004636C13209847E07800F0070010BD83
:101C6000354B40F63C705886A0F5AF6098865A20F8
:101C70009872032083F86A003220188340F21130F2
:101C8000988240F2712098834FF425700121D88307
:101C900018840420D973997383F86B1083F8291082
:101CA00083F824000C2183F82600244883F82C10A4
:101CB00083F82D100F2183F828100179072048435D
:101CC000A3F884100A2190FBF1F0A3F88600092004
:101CD00083F87400062083F86C0083F86E100520EA
:101CE00083F870104FF6F67183F86D00A3F8721048
:101CF000F6200931002283F86F00A3F8C6101420E3
:101D0000182183F8512083F82A201A7183F8AC2017
:101D100083F88A2083F88D0083F8CA10A3F89020F6
:101D2000A3F8922083F89420A3F89620A3F8982093
:101D300083F89A2001F0CABDAC2400207046002030
:101D400070B55A4B00F001061A78054666F300029A
:101D500057481A70017811B1DC79062201E0DC796C
:101D6000052262F30614DC711878524C6FF34100BF
:101D70001870197894F86B2062F3051119701878AF
:101D800040F040021A705978042060F3060159703F
:101D9000238A23B10922B3FBF2F1CCB200E0012483
:101DA00042488470C378434C6FF3C713C370628A90
:101DB0002AB10923B2FBF3F404F07F0100E0012112
:101DC000C27861F30602C2703A48838A2BB10921B6
:101DD000B3FBF1F2C2F3002400E01C463348017962
:101DE00064F30001017123B10924B3FBF4F2D3B20F
:101DF00000E0012343712F48C18A29B10923B1FBB7
:101E0000F3F404F07F0200E00122284CA07962F391
:101E10000600A071E179012262F30301E171237AE6
:101E2000032060F303032372217A60F30711217208
:101E3000637A072060F303036372617A41F0100351
:101E40006372607A40F020016172A37A0E2062F31F
:101E50000613A372A26C90471548017821B31DBBED
:101E6000237866F300032370227866F34102227020
:101E7000207865F382002070217865F3C30121701A
:101E800023780C4965F304132370227865F3451217
:101E900022702078042266F3C71020700B7810207F
:101EA0006370A16CA270884770BD00BFB4030020AE
:101EB00049020020AC240020F8B5224C237843F0DE
:101EC00001002070217841F00202227025781E4A1C
:101ED0006FF38205257026786FF3C3062670277886
:101EE00004266FF3041727702378A76C6FF345134C
:101EF0002370207840F080012170157810206570E3
:101F0000A670B847322390202370A16C6070122015
:101F1000884701258B22002702262270A36C65705A
:101F20001020A770E67098470B202070A16C657098
:101F30001020A770E67088472846BDE8F840FFF7F4
:101F4000FFBE00BFB4030020AC24002038B51C4BFA
:101F500005241A7864F303021A701D7845F0100204
:101F60001A705C7844F001055D705A7842F0020402
:101F70005C705D7860F382055D705A786FF3C30220
:101F80005A70104A5C7892F86A5065F305145C70D8
:101F90001C4660B101290CBF92F8D42092F8D520DC
:101FA0005B7802F0030060F38713637003E05978F5
:101FB00060F387115970024A2E20916C884738BD12
:101FC000B4030020AC2400202DE9F04F87B038B9CD
:101FD000414BDD7CB5F120014A4252EB010500E0A6
:101FE00000253E4C666DA76D02963B4EE36DD4F81E
:101FF00060A0D4F86490F47C3178039704F00F0764
:10200000049301F0010205970023354F04F0010805
:1020100001921C46D9B218B98DB316F803C01CE062
:102020008A0808D0012A08D0022A08D0032A0CBF47
:1020300052464A4604E0029A02E0039A00E0049AFB
:10204000132908D003F0030C4FEACC0B22FA0BF251
:102050005FFA82FC01E04FF01E0CFA7BBCFBF2FB46
:102060000BFB12C297F80FB012F0FF0FBCFBFBFC8A
:102070000CBF0022012262445FFA82FC01E016F8E4
:1020800003C029B9019A0CF0FE0C4CEA020C0BE0DB
:10209000132909D10CF0FE0CD0B9CDB90599092945
:1020A00016D04CEA080C13E0644507D9132904D173
:1020B0000CF102045FFA84FC00E0A446094964467E
:1020C00001F803C00133142BA4D107B0BDE8F08F91
:1020D0006445EDD8F2E700BF24040020AC240020C2
:1020E000083E0020B40300202DE9F74F3B4D3C4C47
:1020F0002B7873B1FFF7A8FD58B901222270394B34
:10210000394A0D2183F850001170287003B0BDE8E2
:10211000F08F207860B1334C01202070A36C984779
:102120002F480178002939D0052004F0B7FC35E0AC
:102130002E490A7882B12E4C25786DB12D4EB78884
:1021400007F4005398B20028F9D02A498A8802F48B
:102150000054A5B2002DF9D1224E01203070B76C89
:10216000B847244B988800F400518AB2002AF9D06D
:10217000204CA58805F40056B7B2002FF9D11D4BAD
:10218000988800F400518AB2002AF9D0194CA58829
:1021900005F40056B7B2002FF9D1BCE7626C3120CC
:1021A0009047104F1448154900230125FE5CFC5C44
:1021B0005A5C1E546608B6EB520F18BF0025013357
:1021C000142BF3D10C4F0E4C387800F00101217024
:1021D000044CB9B1666C3220B04715E0A002002073
:1021E00049020020B4030020B4120020F2020020B3
:1021F000480200200000025024040020A0F6000045
:10220000A2010020E26C9047A36C3220CC4C98478E
:102210002846FFF7D9FEA36C312098472378C94D93
:1022200043F0010323702378012743F00203237056
:10223000237895F830202F2062F3820323702378CF
:1022400095F82B204FF47A7662F3051323702378E8
:1022500095F82A20DFF8F48262F38713237095F84B
:10226000242095F8253002F00F0242EA0312637829
:1022700062F30403637095F8262095F8273002F086
:102280000F0242EA0312A37862F30403A370E37817
:1022900067F30403E370237967F30403237163791D
:1022A00095F82D2062F30303637195F82C20637970
:1022B00062F30713637195F82E206FF02D039B1ABC
:1022C000A27903F03F0363F30502A271E27963F39D
:1022D0000502E27195F8282095F8293002F00F02E6
:1022E00042EA0312237A62F30403237295F82F2043
:1022F000637A62F30103637295F86820A37A62F34C
:102300000203A372A36C984723780F206FF3000396
:10231000237023786FF304132370637867F301034A
:1023200063708E23A370E37843F00303E370E378D4
:102330006FF38203E370E37867F30513E370E378E8
:1023400067F38713E370A36C984723783B432370AC
:10235000237843F010032370EA7B03235A43637806
:1023600062F306036370288B70430CF009FD72A3BF
:10237000D3E900230CF094FE0CF07AFFA378C0F3AD
:10238000014262F30103A370C0F30723C0B2E370FC
:102390002071688B70430CF0F3FC67A3D3E9002332
:1023A0000CF07EFE0CF064FF6379C0F3014262F32F
:1023B00001036371C0F30723C0B2A371E071B8F8E1
:1023C000020070430CF0DCFC5BA3D3E900230CF0AB
:1023D00067FE0CF04DFF237AC0F3034262F3030360
:1023E0002372C0F30723C0B26372A072B8F804006E
:1023F00070430CF0C5FC50A3D3E900230CF050FE51
:102400000CF036FFE37AC0F3034262F30303E37296
:10241000C0F30723C0B223736073688C70430CF061
:10242000AFFC45A3D3E900230CF03AFE0CF020FFEB
:10243000A37BC0F3014262F30103A373C0F307233C
:10244000C0B2E3732074637C6FF306036374B8F85F
:10245000060070430CF094FC37A3D3E900230CF082
:102460001FFE0CF005FFA37CC0F3034262F30303DD
:10247000A374C0F30723C0B2E3742075A36C1120CA
:1024800098472378122043F002032370237895F8AD
:10249000502062F3071323702B4B6278197861F395
:1024A000871262706278597861F3051262706278FF
:1024B000997861F3830262706278D97861F30102DE
:1024C0006270A278197961F38712A270A2785979A3
:1024D00061F30512A270A278997961F38302A27068
:1024E000A278D97961F30102A270197AE27861F3D6
:1024F0008712E270597AE27861F30512E270E278AD
:10250000997A61F38302E270E278D97A61F3010289
:10251000E2702279197B61F3871222712279597B4B
:1025200061F3051222719A7B237962F3830323718D
:10253000A36C98470CE000BF0000000000C04640BC
:10254000B4030020AC240020B4F600008C1A002054
:10255000384B1B785BB1207802216FF301002070AB
:102560006170A6786FF30106A670E77011E0EB8E3C
:102570002078C3F3012767F301002070D9B261709E
:102580002E8FA278C6F3012363F30102F7B2A27083
:10259000E770237995F83A20072662F30103237147
:1025A000AD8F6079C5F30127E9B267F3010060716F
:1025B000A171214C0422E6712272637A03256FF324
:1025C00001036372A76CA5721420B84720781B4AD8
:1025D00040F00101217026786FF3410626702578BE
:1025E00092F8303063F3820525702078D3F101072B
:1025F00038BF002767F3C30020702178104B6FF3BA
:10260000041121702678FF276FF345162670227873
:1026100000216FF3861222701D7AB420054E65707A
:10262000A770E7706071A171E171327852B1617287
:10263000AF2309E049020020B4030020AC240020AD
:102640008C1A002062721A2300270A20A372E772F4
:1026500027736073A17BCC4D41F00106A673A27B6A
:10266000CA4E42F00203A373E77BFF2147F001004B
:10267000E073708E21740CF083FBC1A3D3E90023B7
:102680000CF00EFD0CF0F4FDC0F30722C3B262742F
:10269000B08EA3740CF074FBB9A3D3E900230CF043
:1026A000FFFC0CF0E5FDC0F30727C0B2E77420750E
:1026B000B74C2678697D06B10126B34C66F3050157
:1026C0006975A57DEF266FF30105A575A27DA56C43
:1026D0006FF30512A275E37D4FF00E0B6FF301034C
:1026E000E375E77D4FF0740A6FF30417E775E07D3B
:1026F00019276FF34510E075217E15206FF3050152
:1027000021766776A676A14EA847336C4FF025094F
:102710001D0EDAB2C3F30720C3F30741736C2270B6
:102720006070DAB2A170C3F30720E570C3F307410C
:102730001D0EB36C22716071DAB2A171C3F3072070
:10274000E571C3F307411D0EF36C22726072DAB2B9
:10275000A172C3F30720E572C3F307411D0E227374
:102760006073A173E57300252574A36C657417204D
:10277000A574E574984722784FF0800865F300024D
:102780002270207865F3410020702178182065F3CD
:10279000820121706378A16C65F301036370627834
:1027A00065F30512627088477A48F37A027A317BC2
:1027B000D01A421A2178501E82B241F001002070D6
:1027C0002178013341F0020020702178DBB241F022
:1027D000040020702178707B60F3C30121702078A1
:1027E00065F304102070217865F34511217020787D
:1027F00040F040012170207840F080012170617824
:10280000C2F3032060F30301D2B26170A270E370DF
:10281000217960F30301032021716271A371A26C1D
:10282000E571257260723846904727785B2147F042
:1028300001037D22B6202370A76C6570A170E5703E
:10284000207162711A20B8472846FFF7ADF9237846
:1028500043F001012170207865F341002070277852
:1028600096F869202A2062F38207277023780127CF
:1028700065F3C30323706178782267F30101617007
:102880000521A570A36CE17025716571A271E571D8
:1028900084F808B084F809A0A57284F80B9084F835
:1028A0000C808DE8060098472078062267F3010027
:1028B00020706570A270E57025710199A36C61713B
:1028C0002B20A57184F807B084F808A0657284F8FD
:1028D0000A9084F80B80019198472078072167F3CC
:1028E000010020706570A170E5702571019AA36CDC
:1028F00062712C20A57184F807B084F808A0657275
:1029000084F80A9084F80B80019198472078082277
:1029100067F30100207021783C2365F38701217063
:102920006570A270E5702571637101980F22A02374
:10293000D021A071E1712D202272A16C63728847B1
:102940002078009A62F303002070237843F010018E
:102950002170607838436070627842F002036370DF
:10296000617865F382016170607865F3C30060701F
:1029700096F86A2063782E2062F3051363700BE0EB
:102980003333333333B33640B4030020AC24002058
:10299000490200208C1A00206178A26C65F387112F
:1029A00061709047636C284698478948037833B133
:1029B0000B2121706770A5700225E57023E0277850
:1029C00096F8535065F300072770227896F8521056
:1029D00061F341022270207840F0040525702778C9
:1029E00063F3C3072770217863F304112170227801
:1029F00063F345122270207863F3C7102070367895
:102A000004236670A370734C4FF0030AA76C102068
:102A1000B84784F800A06278A66C6FF30412627065
:102A200060784FF00A096FF3010060701C20B04716
:102A3000237815266FF30003237021784FF01608D2
:102A400041F0020525702778E02547F00402227046
:102A50006078442769F306006070A36C84F80280F4
:102A60001D20E77026716571984721786FF300018A
:102A70002170227842F00200207023781E2043F05B
:102A8000040121706278A36C69F30602627084F815
:102A90000280E77026716571984720786FF3000017
:102AA0002070217841F002022270237843F0040064
:102AB000207061781F2069F30601617084F802803C
:102AC000E7702671A76C6571B84726787D2046F0BF
:102AD00001052570227801256FF3410222702378C9
:102AE000A76C6FF30413237084F801A0A070E17841
:102AF00024206FF30301E1702571B8472678F02791
:102B00006FF300062670627890266FF30002627001
:102B1000A570E378A16C6FF30003E3702571677112
:102B2000A0796FF30000A071E57125202672884717
:102B300022786FF3000222706378A26C6FF30003B7
:102B40006370A570E0786FF30000E0702571677125
:102B5000A17926206FF30001A171E57126729047DB
:102B600023786FF3000323706078A36C6FF3000089
:102B70006070A570E17827206FF30001E170257186
:102B80006771A2796FF30002A271E571267298470E
:102B900020786FF300002070617828206FF3000127
:102BA0006170A570E278A16C6FF30002E27025718C
:102BB0006771A3796FF30003A371E57126728847EB
:102BC000054890F8510003B0BDE8F04FFFF7B8B8E2
:102BD00049020020B4030020AC240020AFF30080A1
:102BE000F8B500280D4D0F4614BF7C264A2614BFA9
:102BF0004B240024B44210D82B782BB9182C94BF46
:102C00004FF0FF30002000E00020C11949B22046FB
:102C10000134FEF70DFFE4B2ECE7F8BD49020020F5
:102C20002DE9F04F724B89B06C4603F1200518680E
:102C30005968224603C20833AB421446F7D16D4BA4
:102C4000192593F8286093F8290006F00F0141EA4E
:102C500000176F4393F82C20674993F824B008AC11
:102C600004EB4200323793F8252091F800A00BF0D6
:102C70000F0446F2A815BEB242F2283744EA021108
:102C800093F82680BAF1000F0CBFA946B946052774
:102C900007FB01F593F8272008F00F0444EA02111E
:102CA00007FB01F705F1060B544DDC7A197B2A7AF4
:102CB000DB7B07F106086718D51B5D43504B0021ED
:102CC00030F8200CEFB203F132048C4600229D5AFA
:102CD0003832B2F5FC7FAC44F9D100229D18B5F82A
:102CE000F8513832B2F5A87F2944F7D10233A34214
:102CF000ECD134B2172694FBF6F2564299FBF7FA60
:102D00000AFB06F5E12200EB45044FF47A739CFBC5
:102D1000F2F503FB04FA95FBF7F4744300EB44036C
:102D20009AFBF3F202FB0BF5642495FBF4F36FF0CE
:102D3000090909FB0B324FF0960B91FBFBF191FB5C
:102D4000F7F77E4300EB46009AFBF0FA0AFB08FA1D
:102D50009AFBF4F409FB084142F210735A435943B9
:102D600041F24F2C92FBFCF5EAB291FBFCF451B21C
:102D70000029E3B24FF00A0008DD91FBF0F600FBFA
:102D8000161149B204290CDD2A1809E04AB191FB59
:102D9000F0F600FB161148B2011D02DAA5F10A0295
:102DA000D2B259B200294FF00A0008DD91FBF0F5CC
:102DB00000FB151149B204290CDD231809E04BB1C1
:102DC00091FBF0F500FB151148B2011D02DAA4F1E8
:102DD0000A03DBB20B490A2052B25BB292FBF0F25B
:102DE00093FBF0F00A80488009B0BDE8F08F00BF87
:102DF000F8F50000AC240020490200208C1A0020C5
:102E0000041700200C04002010B500230E491A46B8
:102E10005818C47C013B04F0010013F1140F40EA80
:102E20004202F5D1C2F34310C1B2C2F34302D3B29E
:102E3000CC0818BF40F0F001044CD80818BF42F08D
:102E4000F0032180638010BD240400200C040020C6
:102E500010B5064C3120636C9847E07CA26C40F0C2
:102E60000101E1743120904710BD00BFB403002080
:102E700010B5044C3120636C9847E07C00F00100F1
:102E800010BD00BFB40300202DE9F04F6A4B6B4F1B
:102E900093F9000001220128DFF8B891397808BFC2
:102EA0007878FC7883B0019189F8002008BF019000
:102EB000002C00F0B780624CDFF89CB1002020604D
:102EC0008BF800005F4D604EDFF89081DFF890A135
:102ED00008E0226849F2E031531CC0F204018B4241
:102EE000236041D8AA78002A48D19BF80010002915
:102EF00044D10021C5F20201888800F4005398B241
:102F000020B98A8802F480518BB253BB30780028F4
:102F1000DFD0FEF799FEB8B998F800206AB940F200
:102F2000D821C2F200010B78002BD2D044F270609D
:102F3000C2F20000427B002A5ED0012300208BF801
:102F400000308AF85000C4E7FA78002AC1D1019B0A
:102F50004FF23861C0F20001C85C400804F032F959
:102F6000B7E7FEF721FED1E7FEF76EFE03284ED04D
:102F7000334A00201060AA78002AB6D0FB78002BD4
:102F800057D00020A87089F800009BF8002082BB71
:102F90002E4E0E224FF04055C2EBC207B80000F192
:102FA0001804511C36F8147001F5167345F8237097
:102FB00017235C1EE4B203F1010CC31836F813901A
:102FC000671C631E00EB040836F818800CEB4C0CF1
:102FD00007EB4707DBB201EBCC0C01EBC707FF2B7C
:102FE00045F82C9045F82780E3D1013AD2B2FF2A68
:102FF000D2D103B0BDE8F08F817B00293FF469AFE7
:10300000012300208BF800308AF8500061E700238C
:10301000DFF850E0194601201A468EF8003004F01F
:10302000D9FF5FE70A4D019EAB5D580804F0CAF86E
:1030300041E704F0F5F8A4E7A8000020AC24002044
:10304000DC020020EC450020F8020020B81200202D
:1030500038F600003E02002049020020F402002061
:10306000B4030020CC01002010B52E4B2E482F4A6F
:103070009978037810782E4A10B958B2013003D1EC
:103080000024146073B91BE03C204143106888425F
:1030900001DA01301060012B12D0254B1A688A42E8
:1030A0000EDB01242349087828B104F10E03002027
:1030B000D9B204F0E7FD1C4A1F48012114700170C9
:1030C0001D4B1A786AB318490020187091F9003026
:1030D000144A012B194B08BF5078197818BF107883
:1030E00041F001021A70197841F002021A70197841
:1030F00041F004021A7019786FF3C30119701A783D
:103100006FF304121A7019786FF3451119701A7859
:103110006FF3C7121A705870042098709B6C1020BF
:10312000984710BDAC240020A8000020A405002072
:10313000A801002043020020F1020020B403002077
:103140002DE9F04F8B4BDFF8488293F9001083B0E4
:1031500001220129DFF83CA2009008BF98F8011075
:1031600098F8000098F8034001908AF8002008BF02
:103170000191002C00F0F4807F4CDFF81CB200239A
:1031800023608BF800307D4D7D4EDFF810927D4F2F
:1031900008E0226849F2E033511CC0F2040399426E
:1031A000216043D8A97800294BD19BF80020002A40
:1031B00047D10022C5F20202918801F4005080B28A
:1031C00020B9938803F4805291B261BB3078002813
:1031D000DFD0FEF739FDC0B999F8003073B940F27D
:1031E000D822C2F2000211780029D2D044F27060D5
:1031F000C2F20000437B002B00F09C8001210020E4
:103200008BF8001087F85000C3E798F80330002BC4
:10321000BFD101994FF23862C0F20002505C400801
:1032200003F0D0FFB5E7FEF7BFFCCFE7FEF70CFDDC
:10323000032800F08A80504AA978002010600029F5
:10324000B3D098F80300002800F091800023AB7001
:103250008AF800309BF8001000293BD1DFF840C10C
:10326000494E4FF00E084FF04051009CC8EBC80982
:1032700008F101024FEA8909002C2ED109F1180743
:103280003CF8175002F5167441F824501723581EC5
:10329000C0B25D1C441C09EB030A09EB00030138B2
:1032A0003CF81A7005EB450B04EB44043CF8135052
:1032B000C3B202EBCB0B02EBC404FF2B41F82B7023
:1032C00041F82450E3D108F1FF385FFA88F8B8F1EB
:1032D000FF0FCAD103B0BDE8F08F09F1180536F829
:1032E000157002F5167041F8207017235C1EE0B2CD
:1032F0005D1C441C09EB030A09EB0003013836F896
:103300001A7005EB450B04EB440436F81350C3B2B6
:1033100002EBCB0B02EBC404FF2B41F82B7041F8FE
:103320002450E3D108F1FF385FFA88F8B8F1FF0FB5
:103330009BD1CFE7827B002A3FF42BAF01210020F5
:103340008BF8001087F8500023E70023DFF854E0E3
:10335000194601201A468EF8003004F03BFE21E7A2
:103360000A4D019EAF5D780803F02CFF04E703F0DF
:1033700057FF6BE7A8000020DC020020EC4500208E
:10338000F8020020B4030020B812002038F6000034
:10339000AC2400203E02002049020020F40200205C
:1033A00074330020CC0100202DE9F04F784ADFF87B
:1033B00000A2DFF8009250789AF8003083B00190B4
:1033C00099F800B0002B00F095807249B1F918709F
:1033D000072F00F39380002F40F3898000216E4D6A
:1033E000DFF8B881084675E0002B00F0A380C3EB3E
:1033F000031602EB460438F91410684E0429D8BFAE
:1034000000215C1CC4EB041402EB440436F91440A4
:10341000042C00DD09190D2B09DC9C1CC4EB0414E1
:1034200002EB440436F91440042C00DD0919182A73
:103430005BD8002B00F08180541CC3EB031604EB17
:10344000460638F91660DFF854C1042E00DD8919EC
:103450005E1CC6EB061604EB46063CF91660042E0D
:1034600000DD89190D2B09DC9E1CC6EB061604EB4A
:1034700046063CF91660042E00DD8919182C22D866
:10348000002B54D00232C3EB031402EB440638F98C
:103490001640424E042C00DD09195C1CC4EB0414D8
:1034A00002EB440436F91440042C00DD09190D2BFD
:1034B00009DC0233C3EB031302EB430236F912308B
:1034C000042B00DDC918282918DC0130C0B2B8422D
:1034D00001460CDA05EB4104627815F81130511EF3
:1034E000182981D90021182AA3D9541CC6E7002223
:1034F0008AF800202A4B1868002828DD4FFA8BFB39
:10350000284C002525606CB25C4534D0264B1A78D7
:10351000002A35D10120254B844289F800501870CB
:103520000FD0002003B0BDE8F04F03F0DFB91B4E11
:103530000232B2E7194E194663E7DFF860C0541C47
:1035400086E7204603B0BDE8F04F03F0CFB94FFA4D
:103550008BFBBBF1FF3FD3D0124B01991A6891420C
:103560000CDD501CBBF1010F186004D0814202DC5D
:1035700001252C46CAE703B0BDE8F08F0125C2E75C
:1035800005F10E010020C9B204F07CFBC2E700BFC8
:1035900038F60000A40200204C0200207C0E00201F
:1035A000E4010020A801002043020020E9010020DE
:1035B000A4050020A80000202DE9F04F85B00021CF
:1035C0004FF4607203900026A1480BF07AFE31465A
:1035D0004FF460729F480BF074FEFEF76DFC9E4D39
:1035E0009E4C9F4FDFF87C92AA46C5F202064FF030
:1035F00001082B78002B00F01081A678002EFCD05B
:10360000002700204FF40056FEF79AFBC3F2000695
:10361000A7702F700E2402970F2542F2AC42C2F21F
:10362000000292F8BA30002B40F0F0800299039F1C
:103630008AB2002F7CD104F5F07736F81700C4EB7E
:10364000C40183B2C90041F2B82743F2743841F291
:1036500004793231C2F20007C2F20009981AC2F2AC
:10366000000801EB070B80B201EB080705F5167E99
:1036700049444FF0405A27F8020C2BF8023CABF1BA
:10368000020C4AF82E00023F881E21F8023C4FF03F
:10369000180B4FF0170909EB890304EB830136F887
:1036A000113009F1FF319BB2C2EB030801EB810A33
:1036B0001FFA88FE0BEB4B0B04EB8A08CDF8008059
:1036C00005EBCB0B4FF0405A27F802EC2CF8023CEC
:1036D0004AF82BE0DDF800E020F8023C36F81E3016
:1036E00009EB49099BB2C2EB030AA0F1020805EB02
:1036F000C90E1FFA8AF08B464FF0405127F8040C90
:103700002CF8043C043F41F82E00ACF1040CA8F165
:10371000020028F8023C0BF1FF39BBF1000FBAD1CF
:103720002546013C002D7FF478AF05B0BDE8F08F51
:1037300004F5F07336F81300C4EBC401C90041F27C
:10374000B82743F2743B83B23231C2F20007C2F2AF
:10375000000B41F2047001EB070C01EB0B0E9F1AFA
:10376000C2F2000009182EF8027C05F516704FF021
:1037700040572CF8023CACF1020947F82030A1F187
:10378000020C21F8023CAEF102081821172303EBCA
:10379000830004EB800736F8170001EB410180B28B
:1037A0005F1EC2EB000B28F802BC05EBC10107EB62
:1037B000870A4FF0405B29F8020C04EB8A0E4BF8A5
:1037C00021002CF8020C36F81E0003EB430380B2F4
:1037D000ACF1020A05EBC303C2EB000C28F804CCE1
:1037E00029F8040C39464BF82300A9F10409A8F183
:1037F0000408AAF1020C2AF8020C7B1E002FC6D185
:103800002546013C002D7FF408AF8EE700202146BD
:1038100005F09AFF80B2029008E7A07800287FF4B4
:10382000EFAE397800297FF4E4AE99F80020002A41
:103830007FF4DFAEB38803F0020081B200293FF4C9
:10384000D8AE022003F0E8F88AF80080D1E600BF85
:10385000B812002074330020E2020020EC45002062
:10386000A2020020F4020020104B186818B9104979
:103870000A68110118D50F4B01200F4A18700B4B25
:1038800002F11401934205D2C81A1428D4BF1B18A0
:103890001433F7E706490A68120104D5086820F0D6
:1038A00000630B607047FEE7704700BF00500020C8
:1038B000A000002043020020EC5F002008B502F0C9
:1038C000EDFB0020BDE8084004F0D2BC08B500F0D4
:1038D000DBF9BDE80840FEF707BC00BF4FF04053DE
:1038E0001149D3F8382910B4D3F89809D3F83C49D2
:1038F000D3F89C290968C2F307428A4211DDC0F35C
:10390000074090420DDBC4F30744944209DBD3F82F
:103910009C490648A1B20124047005480280C3F8FE
:103920009C1910BC704700BF18210020A301002083
:10393000A4010020084B1A786AB14FF040520748A2
:10394000D2F89C19B0F9000089B241EA0040C2F8EF
:103950009C0900221A707047A3010020A4010020D6
:1039600038B50D4B1878A0B9FFF75AF90B4D0C4C30
:10397000696C32208847002094F90010FFF730F975
:10398000012094F90210FFF72BF9AA6C322090471E
:1039900038BDFFF739FAE9E7A2010020B40300209F
:1039A0000C0400202DE9F04F85B0FFF761FAA14B20
:1039B0001978002940F03B8120B19F480278002A05
:1039C00040F035819D4C9C4B94F8BA6019780027E3
:1039D000039684F8BA7019B9FFF756FAFFF754FA4C
:1039E000FFF736FA4FF000080220954C0290464649
:1039F000029F7A1E12F0FF03029300F01481914897
:103A000000214FF4E0620BF05CFC8E4F0325013D7A
:103A100028D0FFF739FA0F214FF0180C4FF01C0E89
:103A20004A1ED3B2FF2BF2D00EFB03F9192203F189
:103A3000010A0193501EC2B2FF2A11D0531C0CFB85
:103A400003A04FF0405151F8203009EB020157F824
:103A500021001FFA83FB0BEB000347F82130E9E755
:103A60000199DDE7DFF8DC914FF6FF732F46AE4694
:103A70000F22501EC2B2FF2A1FD01C2101FB02FAE6
:103A800019200196461EF0B2FF2814D00AEB000C54
:103A900059F82C106C4E49081FFA81FB8D42B8BFB3
:103AA0005D468B42C8BF5B46082A26F81CB094BF0F
:103AB0008E447F18E6E7019EDBE7A380E580962130
:103AC000ED1AE123BEFBF3FEB7FBF1F72581A4F865
:103AD0000AE0A781FFF744FF0025FFF7D5F900238F
:103AE0004FF6FF7299469A460F200138C0B2FF2860
:103AF0001FD04FF0190E00F1010B0EF1FF3C5FFAE1
:103B00008CFEBEF1FF0FF0D018270EF1010107FB6C
:103B100001B14FF0405757F821108FB2BB42B8BFE8
:103B2000BBB2BA42C8BFBAB2082894BFBA44B944BB
:103B3000E3E7B3F5FA4F03D843F2DB718A4263D867
:103B4000EF0761D4B3F5FA4F23D9280621D423888F
:103B500060885F1C411C721C08F10109278061808C
:103B6000D6B25FFA89F845F08205DFF8E09032209E
:103B7000D9F844309847002071B2FFF731F801209E
:103B80004FFA88F1FFF72CF8D9F848703220B8477F
:103B9000A3E743F2DB77BA4210D829060ED4278870
:103BA0006188781E4A1E013E08F1FF38208062803D
:103BB000F6B25FFA88F845F08405D6E7B3F5FA4F18
:103BC00001D92F0605D443F2DB7082421CD82806A7
:103BD0001AD505F00201CFB23FB120886288411E9C
:103BE000531E21806380FF260AE005F00400C1B265
:103BF00051B126886388721C5F1C22806780012671
:103C000045F00105B046B0E7981AE281E12196221D
:103C1000BAFBF1FAB9FBF2F923826082A4F814A08E
:103C2000A4F81690E4E60549039E81F8BA6005B051
:103C3000BDE8F08F49020020A2010020AC24002042
:103C40000C040020F436002004170020B4030020E8
:103C500043F608604FF6440108B5C0F20001D822CF
:103C6000C2F200000BF024FB08BD00BF42F2AC40E2
:103C700043F6086108B5C2F20001D822C2F2000082
:103C80000BF016FB08BD00BFF8B542F2AC43C2F220
:103C90000003D98BDD7B9C8B91FBF5F0621A8618B3
:103CA0009F7AB1B2B3F812E001FB07F71E8AB3F8AE
:103CB00016C09A8A7644B3F820E006EB4C0641F62B
:103CC0008C2302EB420C44F2F452C2F2000366442D
:103CD0009EFBF5F597FBF4F4C2F200029880598040
:103CE0001E80DD801C72116800208847F8BD00BF6F
:103CF00043785AB20D2A01DC591C417003785AB23C
:103D0000002A01DD591E0170C3785AB2172A01DC5E
:103D1000591CC17083785AB2002A01DD591E817086
:103D2000704700BF2248F0B4B0F9A01048F68904EB
:103D3000B0F99E20C8F6880448F21F5384FB015650
:103D4000C5F2EB1383FB02577418D517CE17C5EBDA
:103D50002717C6EB2414174E174B3DB200273760C8
:103D600090F8AD00192624B21E600F265E609D609B
:103D7000DC60C0B91148124C0260216048F21F5447
:103D800002EB4202C5F2EB1484FB0210D117C1EB27
:103D900020144FF458624FF0405000215C611C61C8
:103DA000F0BC0BF08EBA0548016005490A60E5E7F2
:103DB000AC2400208C2C0020981A0020841A0020AB
:103DC0006C07002042F68C40C2F2000000214FF444
:103DD000A8720BF076BA00BF2DE9F04FDFF8C8B239
:103DE000A9B000214FF460720A90A8480BF069FA5C
:103DF00000214FF4A87258460BF063FAA4497F22C1
:103E0000FF238BF84C218BF84A218BF84D318BF82E
:103E10004B318BF848218BF846218BF849318BF8D0
:103E200047318BF844218BF842218BF845318BF8D0
:103E300043318BF840218BF83E218BF841318BF8D0
:103E40003F318BF83C218BF83A218BF83D318BF8D0
:103E50003B318BF838218BF836218BF839318BF8D0
:103E600037318BF834218BF832218BF835318BF8D0
:103E700033318BF830218BF82E218BF831318BF8D0
:103E80002F318BF82C218BF82A2148788BF82D3193
:103E900044B20D2C8BF82B318BF828218BF826217E
:103EA0008BF829318BF827318BF824218BF82221CC
:103EB0008BF825318BF823318BF820218BF81E21CC
:103EC0008BF821318BF81F318BF81C218BF81A21CC
:103ED0008BF81D318BF81B318BF818218BF81621CC
:103EE0008BF819318BF817318BF814218BF81221CC
:103EF0008BF815318BF8133103DC441CE5B24D709F
:103F00006CB20A784FFA82FEBEF1000F07DD531E35
:103F10005F485FFA83FC80F800C04FFA8CFE91F88E
:103F200003A04FFA8AF5172D06DC0AF10108584A5A
:103F30005FFA88FA82F803A089784BB2002B03DD80
:103F400001395348C9B281707445A046C0F25D85FD
:103F5000504E514A96F9009096F9010096F9027078
:103F600096F903404D4D08EB09061E95013608EB06
:103F70000005241A381A92F903700C9692F9003051
:103F800092F902C0069792F901200C9F0592A7EBC7
:103F90000712C0EB001742484FFA8AFA0068013551
:103FA00025901E98CDF83CA0808AC5EB0515C4EB82
:103FB0000414CDF824C0DDF83CA049B26D006400C3
:103FC000089010910E95374812940699099D059C0A
:103FD000C8EBC8060AEB860652009A440D9200EB25
:103FE00046060AF1010CCA1AE81ACE447F00E31A09
:103FF0000B96CDF844E01397CDF850C0159216906B
:10400000C24617930F9F109EB742C0F285810AF1F6
:1040100001010C9DC1EB0112149C07EB4203C5EB9F
:10402000051041F63C5741F63C5940F67C6204EBE2
:104030004001C2F20007C2F20009C2F2000201EB25
:104040000908DE1902EB4309109B0E985D1E129FB2
:10405000DDF854E009950D9D0E99139AC41905EBEE
:104060000E078B18179D19941A970D9C16990D9F82
:10407000621801367C1900201893D64645460F9BDE
:104080001B921C948246B0467CE000BF2C2100208D
:104090002C33002030F6000034F60000A40200208B
:1040A0001821002088250020A80500200A9F002F45
:1040B00000F02981B9F90210D2B294000BEB040789
:1040C000079402F110007C680590059E01FB0E44E8
:1040D0005BF826007C6001FB030707980397039FAA
:1040E000841802F144004BF826700BEB800696F919
:1040F00002700BEB44041D97089F01370897B4F832
:104100007C70CF190597B4F882700C370697059F1D
:10411000A4F87C70069FA4F88270089CA7B21D9C2E
:10412000089774450BEB8007C8BF86F802E097F943
:1041300003600BEB80047645B8BF87F803E094F981
:1041400004700BEB80009F42C8BF2371079C90F95D
:104150000560A2189E420BEB4207B8BF4371B7F946
:104160007E007837814203DDF9807B7287F808E0B2
:10417000099C013B013DA342AAF1020AA9F10209EF
:1041800000F0C98018F80169A6F110006F2840F20C
:104190001D84721ED1B20E2988D90A9F002F00F00B
:1041A000B680B9F902100029E2DD1A9E199A701939
:1041B000805C471E0E2F00F20E84012703263C462A
:1041C0000796844002268DF8980003220420209050
:1041D0001D92069605971B9842191898105C421E6E
:1041E0000E2A219012D802460120904004420DD19F
:1041F00028AA04432198D21902F8080C069F209A95
:104200001D98059706903746079E07921C9A0E98B0
:104210005219105C421E0E2A1F900ED80246012031
:104220009040044209D128AAD21937461F9E044360
:10423000069802F8086C079E05902878421E0E2A00
:1042400000F2F38301228240144240F0EE8328AA58
:10425000D71907F8080C3746259891FBF7F68142E5
:10426000079640F3DF8307F110020592D4B27E1E59
:10427000002E069688F8014040F32284079C079E92
:1042800004FB0EF203FB06F607981D92059A84B212
:104290000020112A2096229440F0CC83CDF884800F
:1042A0000646F04623930DF1A00C0CEB000414F825
:1042B000080CDDF874E0421ED2B294000BEB04004F
:1042C000A3184468103274444460DDF880C05BF881
:1042D00022000BEB430300EB0C044BF82240B3F835
:1042E0007C00229A01361418A3F87C40069BF6B293
:1042F000079AB342C2EB01013046D4DCC646239B89
:10430000DDF88480DDE30B9E36F90A10D4E60B9CC1
:1043100034F90A1047E7F2460C9E0D9A0E980B9955
:10432000119B771E1E321E3838399F420C970AF1B6
:10433000FF3A0D920E900B917FF464AE089E1E9F83
:10434000BE82BBF87C00BF4D002800F0D8822A6CEA
:104350006C6895F8131103B2E401D00194FBF3F4F7
:1043600090FBF3F24BB20D2B6C602A6440F3E182B8
:104370009BF8125168B2002803DDB24A6B1E82F826
:1043800012319BF815114DB2172D40F3CD829BF8D9
:1043900014114AB2002A03DDAA484D1E80F81451B8
:1043A000BBF88620A74B002A00F021835D6C9C6837
:1043B00093F8171112B2E401E80194FBF2F490FBB8
:1043C000F2F54AB20D2A9C605D6440F3A9829BF825
:1043D000163158B2002803DD9A4A5D1E82F8165144
:1043E0009BF819114BB2172B40F395829BF81811CB
:1043F0004AB2002A03DD93484B1E80F81831BBF8FF
:104400009050904B002D00F00583DC68986C93F879
:104410001B2129B2E50195FBF1F4C00155B290FBD7
:10442000F1F10D2DDC60996440F38C829BF81A3118
:1044300058B2002803DD834D591E85F81A119BF8E8
:104440001D315AB2172A40F378829BF81C516BB287
:10445000002B03DD7B4A681E82F81C01BBF89A1012
:10446000784D002900F0D482EB6C2C6995F81F215F
:1044700009B2E401D80194FBF1F490FBF1F351B2DD
:104480000D292C61EB6440F36A829BF81E5168B2DF
:10449000002803DD6B496B1E81F81E319BF821510A
:1044A0006AB2172A40F356829BF820114DB2002DB4
:1044B00003DD644A481E82F82001BBF8A410614B5A
:1044C000002900F0A0821D6D5C6993F8232109B2D8
:1044D000E401E80194FBF1F490FBF1F551B20D29F0
:1044E0005C611D6540F344829BF8223158B200287C
:1044F00003DD54495D1E81F822519BF825315AB2E3
:10450000172A40F330829BF824114BB2002B03DDB5
:104510004C4A481E82F82401BBF8AE50494B002D8E
:1045200000F06D829C69586D93F8272129B2E5014E
:1045300095FBF1F4C00155B290FBF1F10D2D9C619A
:10454000596540F319829BF8263158B2002803DDE3
:104550003C4D591E85F826119BF829315AB2172A6D
:1045600040F317829BF828516BB2002B03DD354ACC
:10457000681E82F82801BBF8B810324D002900F0FF
:104580004F82AB6DEC6995F82B2109B2E401D8019B
:1045900094FBF1F490FBF1F351B20D29EC61AB65A2
:1045A00040F3F3819BF82A5168B2002803DD2549C6
:1045B0006B1E81F82A319BF82D516AB2172A40F3FD
:1045C000DF819BF82C114DB2002D03DD1D4A481EE2
:1045D00082F82C01BBF8C2101A4B002900F01C8293
:1045E000DD6D1C6A93F82F2109B2E401E80194FB08
:1045F000F1F490FBF1F551B20D291C62DD6502DC8E
:10460000013283F82F219BF82E3158B2002803DDA8
:104610000C495D1E81F82E519BF831315AB2172A90
:1046200040F3BC819BF830114BB2002B03DD054AEF
:10463000481E82F83001BBF8CC50024B002D00F030
:10464000ED8101E0A80500205C6A186E93F8332123
:1046500029B2E50195FBF1F4C00155B290FBF1F1EF
:104660000D2D5C62196602DC013283F833219BF860
:10467000323158B2002803DDB44D591E85F832118D
:104680009BF835315AB2172A40F392819BF8345186
:104690006BB2002B03DDAD4A681E82F83401BBF813
:1046A000D610AA4D002900F0A4816B6EAC6A95F873
:1046B000372109B2E401D80194FBF1F490FBF1F346
:1046C00051B20D29AC626B6602DC013285F83721EC
:1046D0009BF8365168B2002803DD9C496B1E81F8B7
:1046E00036319BF839516AB2172A40F35C819BF846
:1046F00038114DB2002D03DD944A481E82F838016E
:10470000BBF8E010914B002900F075819D6EDC6ACA
:1047100093F83B2109B2E401E80194FBF1F490FB2A
:10472000F1F551B20D29DC629D6602DC013283F89D
:104730003B219BF83A3158B2002803DD83495D1EC6
:1047400081F83A519BF83D315AB2172A40F335812E
:104750009BF83C114BB2002B03DD7C4A481E82F8CB
:104760003C01BBF8EA50794B002D00F046811C6BF0
:10477000D86E93F83F2129B2E50195FBF1F4C00111
:1047800055B290FBF1F10D2D1C63D96602DC0132AC
:1047900083F83F219BF83E3158B2002803DD6B4D72
:1047A000591E85F83E119BF841315AB2172A03DC95
:1047B0006649581C81F841019BF840516BB2002BAF
:1047C00003DD624A681E82F84001BBF8F4105F4DB9
:1047D000002900F016812B6F6C6B95F8432109B20C
:1047E000E401D80194FBF1F490FBF1F351B20D29EF
:1047F0006C632B6702DC013285F843219BF8425140
:1048000068B2002803DD51496B1E81F842319BF8E4
:1048100045516AB2172A03DC4C4B681C83F84501EA
:104820009BF844114DB2002D03DD484A481E82F822
:104830004401BBF8FE10454B002900F035825D6F46
:104840009C6B93F8472109B2E401E80194FBF1F471
:1048500090FBF1F551B20D299C635D6702DC0132DA
:1048600083F847219BF8463158B2002803DD3749C9
:104870005D1E81F846519BF849315AB2172A03DC74
:10488000324D581C85F849019BF848114BB2002B5A
:1048900003DD2E4A481E82F84801BBF808512B4B15
:1048A000002D00F00382DC6B986F93F84B112AB255
:1048B000E50195FBF2F4C0014DB290FBF2F20D2D33
:1048C000DC639A677EDD9BF84A3158B2002803DD2D
:1048D0001E4A5D1E82F84A519BF84D114BB2172BB0
:1048E00003DC1A4D481C85F84D019BF84C114AB267
:1048F000002A03DD15484B1E80F84C310F201E9D09
:10490000CBF80000B5F91610114B09B99A8ADA8272
:1049100029B0BDE8F08F0D4D481C85F8190165E5FB
:10492000013183F8171152E5084B481C83F8150133
:104930002DE5013185F813111AE50449581C81F859
:104940001D0182E5013283F81B216FE5A8050020D7
:10495000A4020020BB4B681C83F82101A4E50132AE
:1049600085F81F2191E5B74D581C85F82501CAE54A
:10497000013283F82321B7E5013283F82721E2E5EC
:10498000B04B681C83F82D011BE6013285F82B2102
:1049900008E6AC49581C81F82901E3E5A94D581CEB
:1049A00085F831013EE6A74B681C83F839019EE685
:1049B000A449581C81F8350168E6A24D581C85F8B9
:1049C0003D01C5E6013183F84B117CE7002188F8F1
:1049D0000110FFF7CDBB0224002701260322079414
:1049E0001D94209206963C460597FFF7F4BB0120E4
:1049F00085E7092083E70A2081E70B207FE7052070
:104A00007DE70C207BE7042079E78F4D1E9598E425
:104A1000032074E7022072E7072070E708206EE7A2
:104A200006206CE71124059421E4059C002C3FF43A
:104A30009FAB11E44FF22866C0F20006F45DCDF89A
:104A40007C80049721940646F0461F460DF1A00C89
:104A50000CEB000313F8080CDDF874E0421ED2B230
:104A600094000BEB0400A3184468103274444460B3
:104A7000DDF880C05BF822000BEB430300EB0C0475
:104A80004BF82240B3F87C00229AB3F882E0141865
:104A9000219A239402EB0E04239A0136A3F87C207A
:104AA000A3F88240069BF6B20798B342C0EB01011F
:104AB0003046CBDC3B46C646049FDDF87C8000E0F8
:104AC000002028AC201810F8086C721ED0B28400A8
:104AD00007940BEB0402079C00F1100620185468A1
:104AE0000BEB400001FB0E4454605BF8262001FBF9
:104AF00003244BF82640B0F87C60059A8919A0F889
:104B00007C107830112A3FF433AB4FF22864C0F2A6
:104B100000044689E15D8A194281069800287FF7E2
:104B200027AB0126BC191D9300220794CDF818E08D
:104B300033464FFA83FEBE457ADA28A98A1812F85E
:104B4000080C01EB0E06441EE2B20121914016F85A
:104B5000086C0591741E07990EF1010C42F22C1697
:104B6000C2F200066FEA0C004018E1B206EB420404
:104B7000059E00F0010091421F94B6B205907AD9CB
:104B8000012000FA01F142F22C10C2F2000030F8CC
:104B90001240214320F81210079C0CF10101A142A0
:104BA000604645D0059CC4B128A800EB0C0E1EF849
:104BB000084C601EC0B2904267D842F22C14C2F278
:104BC000000434F810C046EA0C0E24F810E0DDF8BA
:104BD0001CE00846013171452AD01F9C1F9328AB69
:104BE000181810F8083C581EC0B2904239D9012359
:104BF00003FA00F0B4F800E04EEA0003238028A88E
:104C0000431813F808CC01310CF1FF300591C1B203
:104C100091421BD94FF0010C0CFA01F1238843EAB1
:104C2000010020800598079B411C9942D7D11F9B0A
:104C30001A460133BB427FF47CAFDDF818E01D9BC0
:104C4000FFF796BAA8050020A402002042F22C1318
:104C5000C2F2000333F8110046EA000E23F811E017
:104C6000E0E742F22C1CC2F2000C3CF81030334357
:104C70002CF81030C3E742F22C10C2F2000030F8DA
:104C80001140344320F8114086E74FF0010404FA44
:104C900000F042F22C14C2F2000434F812C04CEAC4
:104CA000000024F8120092E70D2028E60E2026E6E8
:104CB0002DE9F00F8346B0B04FEA800000EB0B0502
:104CC00027900BF110000990279E40F2A854C2F2E1
:104CD0000004DDF8249004EB060C04EB450788463D
:104CE000DCF80450A24607F1780154F82940B7F9DE
:104CF0007C704FEA880605FB07F904FB07F506EB15
:104D000008000AEB40000695B24408F1100505952D
:104D1000DAF8045040F2A85A0495059DC2F2000A40
:104D20005AF82550B0F97C400595049DDDF818A08F
:104D300005FB0499059D0B9305FB04A53C1999FB04
:104D4000F4F795FBF4F43DB2CCF80450DDF824C040
:104D500040F2A85527B2C2F2000545F82C7014683D
:104D6000914605EB8B02C2F81241B0F87E20B1F9F2
:104D700006500BF1010714B27830FBB2A5421B9329
:104D800004DA457A007ACA804D720872279940F297
:104D9000A85A01EB0B07C2F2000A06EB08020AEB65
:104DA00047030AEB4202B3F87C10B2F87C40B3F838
:104DB0008250B2F8820008F101076418401979B2F4
:104DC000A3F87C40A3F8820000230E29A2F87C30CF
:104DD0004FDC8F4E4FF0010C06EB48031D8806EBAD
:104DE0004B0045FA01F5EA0707EA0C0600F1CF830C
:104DF00001257A1952B20E2A3BDCA6B11C886A182A
:104E000044FA02F414F0010F08D00CFA02F20488FC
:104E1000144304801C8824EA02021A8001357A199E
:104E200052B20E2A25DC1E886A1C6D1846FA05F659
:104E300016F0010F02EB010408D00CFA05F5068804
:104E40002E4306801E8826EA05051D801D8845FA2A
:104E500004F5ED0708D50CFA04F405882543058010
:104E60001D8825EA04041C80551C7A1952B20E2AAA
:104E7000D9DDB8F1000F39DD012101FA08F601FA98
:104E80000BF56348F443034633F8022B1FFA85FC05
:104E9000324200EB4B05A4B28A4607EA01000AD071
:104EA000BBF1000F40F3878342EA0C0223F8022C87
:104EB000224023F8022C02220121BA4216D00028F7
:104EC00000F03B831988534B31420AD0BBF1010FEC
:104ED00040F3688341EA0C0123F8021C214023F8C7
:104EE000021C11460132BA4240F0278399F800C0F3
:104EF00099F901304FFA8CF29A42CDF850C000F384
:104F0000FE82454F97F9016097F903400596059990
:104F1000161997F900A097F90200049657180499FA
:104F200002EB0A0502EB000C08956E1C7D1C0CF1CF
:104F3000010701F1010C0599CAEB04042894CAEB9E
:104F400001042A94C2EB021205922A9ACAEB0000CD
:104F5000C2EBC20206924FF23462C0F2000292F932
:104F60000320299010924FF23462C0F2000292F9AD
:104F70000220CCEB0C1C11924FF23462C0F2000202
:104F800092F90120089812924FF23462C0F20002A6
:104F900092F90020289CCDF810C0DDF8A4C013922F
:104FA000059AC0EBC001C6EB0616C4EBC400C7EB04
:104FB0000717CCEBCC04DDF89CC0520076008900CA
:104FC0007F00E34417921696C5EB051599F903C0C7
:104FD0000A9106991997049A40F2A8576D00C2F2F7
:104FE0000007189556008000A4008D00CAF1010A40
:104FF00007EB4B0B1A962B902C942D95CDF8B8A05F
:10500000CDF854B0CDF8BC80CDF8189006E000BFC4
:105010002C2100203021002030F60000DDF818801F
:1050200098F802B04FFA8BF9E145CDF8109000F3F3
:105030001A82DDF8B8A0089B109E129C139D11984F
:1050400009EB040106EB090748440A9E0AEB030238
:10505000DDF8AC8005EB0903DDF8B09006EB080A3B
:1050600006EB0908CDF830802D9C1A9DDDF8648090
:1050700006EB0409C2EB02127E1900EB0805DDF80D
:1050800058800792189A98448C18CDF81480049A86
:10509000DDF81C805744DDF830A002EB480207928F
:1050A00000EB0A08179A0A98DDF810A01B1802EB0B
:1050B0000A00DDF8A0A0089A894452441E92DDF847
:1050C000A4A0089A002152441D92DDF8A8A0089AD5
:1050D00052441C9241F63C5A079AC2F2000A5244CA
:1050E000079242F28852C2F2000202EB4707219770
:1050F00040F67C67C2F2000707EB4607229740F6AE
:105100007C67C2F2000707EB450A40F67C6702EBBA
:105110004808C2F20007CDF88C8007EB440802EB88
:10512000490902EB4303CDF890A0CDF89880DDF853
:1051300014A0DDF8148040F67C6241F63C57C2F2C0
:105140000007C2F20002CDF8949002EB4A0908EB86
:10515000070ACDF83CA040F2A852DDF89CA0C2F2AC
:105160000002CDF88090F61902EB0A09ED19E41956
:105170001F93C0190B460C960D950E94079ACDF807
:1051800014900CE0DDF818C055709CF903C00BEBCF
:1051900003056CB201320231A445C0F26081577838
:1051A00001337E1EF5B26CB2102CF0DDC71897F8F3
:1051B0003C80C65C177848EA0609967849EA0707F2
:1051C0003743FE07E3D5112CDCD11B9D0C9C557099
:1051D000DDF810A05F1EDDF84080E65C574407EB69
:1051E0000809002E45D10B9D002D00F0B881229EAC
:1051F0007518B5F90240002C3BDD1E9E159DDDF8AB
:10520000148006FB04FA783509FB04F9B5F804C0EC
:10521000D8F80460079540F2A858099DC2F200082A
:1052200058F825504FEACA1A0FFA8CF84FEAC919F4
:1052300006FB08A605FB08956444A4B2DDF81C80B3
:105240000FFA84FCA8F8044096FBFCF695FBFCF5ED
:10525000DDF830A0DDF81490DDF8248040F2A85C81
:105260001124C2F2000C0AF80340C9F804604CF89B
:105270002850DDF834A0DDF844901AF8036007EBFD
:105280000908002E45D10B9D002D00F06B81249E56
:105290007518B5F90240002C3BDD1D9E159D08FBDD
:1052A00004F9DDF8148006FB04FA7835B5F804C07B
:1052B000D8F80460079540F2A858099DC2F200088A
:1052C00058F825504FEACA1A0FFA8CF84FEAC91954
:1052D00006FB08A605FB08956444A4B2DDF81C8013
:1052E0000FFA84FCA8F8044096FBFCF695FBFCF54D
:1052F000DDF834A0DDF81490DDF8248040F2A85CDD
:105300001124C2F2000C0AF80340C9F804604CF8FA
:105310002850DDF838A0DDF848901AF8036007EB54
:105320000908002E45D10B9D002D00F01581269E09
:105330007518B5F90240002C3BDD1C9E159D08FB3D
:1053400004F9DDF8148006FB04FA7835B5F804C0DA
:10535000D8F80460079540F2A858099DC2F20008E9
:1053600058F825504FEACA1A0FFA8CF84FEAC919B3
:1053700006FB08A605FB08956444A4B2DDF81C8072
:105380000FFA84FCA8F8044096FBFCF695FBFCF5AC
:10539000DDF838A0DDF81490DDF8248040F2A85C38
:1053A0001124C2F2000C0AF80340C9F804604CF85A
:1053B0002850DDF83CA01AF80360DDF84CA00AEB99
:1053C0000709002E40D10B9F002F00F0CE80209CBB
:1053D0006618B6F90240002C40F3CC80089DDDF839
:1053E000148005FB04FA159F09FB04F9D8F8046042
:1053F000099D40F2A858B7F87CC0C2F2000858F8DE
:1054000025504FEACA1A0FFA8CF84FEAC91906FB61
:1054100008A605FB08956444A4B2A7F87C400FFADF
:1054200084FC0F9FDDF81480DDF8249040F2A85A28
:1054300096FBFCF695FBFCF51124C2F2000AFC5425
:10544000C8F804604AF82950069E0BEB030596F94C
:1054500003C06CB201320231A445BFF6A0AEDDF844
:10546000188098F901301498179D471CFEB20A9FC6
:105470001E351C3772B2169C089914961795189E03
:105480001A9D0A97199F1E34481C1E361E371E355A
:105490009A4216940890189619971A957FF7BEAD00
:1054A000DDF81890DDF8BC8099F800506CB29C4291
:1054B00025DC454E1B9F013499F8022051B261450D
:1054C00017DCC4EB0413481C00EB43018B1913F8E1
:1054D000010B0132411E48B2404508BF03F8017C70
:1054E000D2B208BF99F903C051B26145EFDD99F915
:1054F00001300135EDB26AB201349A42DCDD30B0E0
:10550000BDE8F00F704740EA0C0023F8020C204081
:1055100023F8020C33F8021B501C314208D093458B
:105520002CDD41EA0C0123F8021C214023F8021C67
:10553000421CBA4201463FF4D9AC33F8020B304268
:10554000E8D08B45DFDCE2DA0AFA01F12888014372
:10555000298033F8020CDAE7259C645EEBE6219C97
:10556000645E48E6239C645E95E61F9D6C5E002C9D
:105570003FF734AF069F97F903C008E6D5DA0AFA79
:1055800002F229880A432A8033F8021CCDE70CFA7C
:1055900001F2048842EA040505801C8824EA02021C
:1055A0001A8025E4BFF69AAC298842EA01002880D7
:1055B00033F8021C92E4BFF67BAC2A8811432980A1
:1055C00033F8022C74E400BF3C1D00202DE9F04F9D
:1055D0004FF0000C91B0DFF824B4DFF824A402905F
:1055E000654605EB85030BEB4300B0F97C20783072
:1055F000002A00F0E18190F90810437A4C1E4E1CFD
:10560000B4420494099600F3D7815BB203F1FF3CE6
:10561000B046CDF80CC0C4EBC40642F2885C03EB84
:105620008606C1EB0117C2F2000C7F00C8EB081020
:105630000CEB460C41F63C5840F67C66FC1803EB3C
:105640004000C2F20006C2F20008C1EBC1024744AA
:1056500006EB440806EB400442F28856C3EBC371E4
:1056600003F1010903EB8202C2F20006480006EBD7
:1056700042024FEA49015B000A9405900C910B929B
:105680000D93039C4C4500F38B8138194178C4EB92
:105690000902059E059C013908EB06030CEB04008A
:1056A000C2F340020E2907930890069256D88D4205
:1056B00054D0029E002E00F0868105EB85030BEB93
:1056C0004304B4F97E60B8F90020BAF87E00B24213
:1056D00044DB06FB00F30A9C9B11B4F900609E4278
:1056E0003CDD079A0C98145E9C4237DDA94202DA31
:1056F0002E460D4631460BEB8103D3F8122105F1FE
:1057000044000BEB80060E92B2789DF9384050B2FF
:10571000B31C844201DD8DF838205E789DF9392074
:1057200074B2A24201DA8DF839609E789DF93A2070
:1057300070B2824201DD8DF83A60DB789DF93B4022
:105740005EB2B44201DA8DF83B3028460EAA029BC5
:10575000CDF804C0FFF7ACFADDF804C003990426C5
:105760008C1C4C4500F31C81069A002A00F0D38063
:1057700038194378591E0E2900F2C9808D4200F075
:10578000C680029A002A00F0EE8005EB85000BEB44
:105790004003B3F97E30B8F90420BAF87E009A428B
:1057A000C0F2B58003FB00F30A9A9B11B2F9040022
:1057B000984240F3AC806BE0B0F97E3038F90620B7
:1057C000BAF87E009A4244DB03FB00F30A9A9B116D
:1057D000905F98423DDD07980C9A805E0690984253
:1057E00037DDA94202DA2B460D4619460BEB810044
:1057F000D0F8122105F144030BEB83030E929A7843
:105800009DF938E050B202338645C8BF8DF8382084
:105810005A789DF939E050B28645B8BF8DF83920E5
:105820009A789DF93AE0DB7850B286459DF93B00C5
:10583000C8BF8DF83A205AB29042B8BF8DF83B30BD
:1058400028460EAA029BCDF804C0FFF731FADDF816
:1058500004C0023439194B780436591E0E2956D823
:105860008D4254D0029800287DD005EB85030BEBC8
:105870004302B2F97E3038F90620BAF87E009A4227
:1058800045DB03FB00F30A9A9B11905F98423EDDD3
:105890000C9A0798805E069002469A4237DDA9422C
:1058A00002DA2B460D4619460BEB8100D0F8122187
:1058B00005F144030BEB83030E929A789DF938E0CF
:1058C00050B20233864501DD8DF838205A789DF9B3
:1058D00039E050B2864501DA8DF839209A789DF981
:1058E0003AE050B2864501DD8DF83A20DB789DF92B
:1058F0003B005AB2904201DA8DF83B3028460EAA9E
:10590000029BCDF804C0FFF7D3F9DDF804C00234E0
:1059100004364C4544DC3B195878411E0E2998D872
:105920008D4296D0029A05EB85030BEB4300002ACB
:105930007FF442AF0CEB0602B0F97E3032F9022C54
:10594000BAF87E00934284DC03FB00F30B9A9B11B0
:10595000901930F9022C9A427FF77BAF08980D9A84
:10596000805E06903BE705EB85020BEB42030CEBF8
:10597000060030F9022CB3F97E30BAF87E0093426B
:10598000C5DC03FB00F30B9A9B11901930F9022C34
:105990009A42BCDD0D9A0898805E069002467CE72C
:1059A0000499099E8C1C3C37B44204940CF1700C91
:1059B00008F178087FF765AE01350E2D7FF711AE3F
:1059C00011B0BDE8F08F05EB85030BEB4304B4F990
:1059D0007E603CF9022CBAF87E0096423FF7BEAEDC
:1059E00006FB00F30B9C9B1134F9026C9E427FF77F
:1059F000B5AE089A0D98145E76E600BFA8050020A3
:105A0000AC24002010B40B7890F900405AB29442B4
:105A1000C8BF03704B7890F901405AB29442B8BFA6
:105A200043708B7890F902405AB29442C8BF837099
:105A3000CB7890F903105AB29142B8BFC37010BC32
:105A4000704700BF01FB01F100FB0010704700BF71
:105A500042B103FB01F102FB0011D21801EB62001D
:105A600090FBF2F1084670472DE9F04F9A4CDFF8B1
:105A7000808294F89D30D8F800B042F68C458BB007
:105A80004FF0FF310F229548C2F2000503935B45AA
:105A9000D4BF2B60C5F800B009F013FC9048FF217B
:105AA0003C2209F00EFC039F002F6BD08D48D4F8E8
:105AB000802001688C4E4FF00009059104920296F7
:105AC000CE464046029CB4F92C30002B4ED041F615
:105AD0001455C2F2000555F819700599049A07FA91
