:1000000000200020E10D030805AF020819AF020827
:100010002DAF020841AF020855AF020800000000F2
:1000200000000000000000000000000069AF0208AE
:100030007DAF020800000000214B0008BFA70008A8
:10004000F9100308FD1003080111030823B5020885
:10005000091103087FB60208D5B1020865B302088A
:10006000F1B302081D11030821110308251103082B
:10007000291103082D110308311103083511030854
:10008000391103083D110308411103084511030804
:10009000491103084D1103085111030855110308B4
:1000A000591103085D110308611103086511030864
:1000B000691103086D110308711103087511030814
:1000C000791103087D1103088111030895AF020817
:1000D000891103088D110308911103089511030874
:1000E0008FB40208E3B50208A1110308A5110308A3
:1000F000A9110308AD110308B1110308B5110308D4
:10010000B9110308BD110308C1110308C511030883
:10011000C9110308CD110308D1110308D511030833
:10012000D9110308DD110308E1110308E5110308E3
:10013000E9110308ED110308F1110308F511030893
:10014000F9110308FD110308011203080512030841
:10015000091203080D1203081112030815120308EF
:10016000191203081D12030821120308251203089F
:10017000291203082D12030831120308351203084F
:10018000391203083D12030838B5DFF8CC4C0020C3
:10019000E06120626062A062E062A081DFF8BC0CD6
:1001A000E063DFF8BC0C206460643220E0824FF42E
:1001B00096702083DFF8AC5C4FF42072002105F1CB
:1001C000400002F04BF84FF42072002105F530702A
:1001D00002F044F89022002105F5B86002F03EF8E4
:1001E00040220021284602F039F840220021DFF8A1
:1001F0003C0D02F033F840220021DFF8340D02F00C
:100200002DF840220021DFF82C0D02F027F84022C3
:10021000002105F5A86002F021F84022002105F533
:10022000B06002F01BF840220021DFF80C0D02F054
:1002300015F840220021DFF8040D02F00FF8052226
:100240000021204602F00AF805220021DFF8F00C18
:1002500002F004F805220021DFF8D40D01F0FEFFC2
:100260000020A0822063A0632061A0606063E0643E
:100270000220A07331BD80B50FF2100002F092F899
:10028000DFF8D40B0021017301BD00004C54205352
:10029000746F70007047DFF8C01B4FF47A725043E0
:1002A000C86301460FF2040002F07CB84C5420539E
:1002B0005044202564000000DFF89C2B4FF47A7135
:1002C00048431064014651640FF2040002F06AB81A
:1002D0004C5420575044202564000000DFF8781B60
:1002E000C88201460FF2040002F05CB84C5420535F
:1002F0005220256400000000DFF85C1B08830146E3
:100300000FF2040002F04EB84C5420534152202505
:10031000640000000EB410B587B0DFF8184DBDF8CA
:100320006E0000281ED1DFF8100DD0E90023CDE9C2
:100330000223D4E90001CDE90001DDE9022300F048
:1003400088FFDFF8141BC96B4FF47A724243914265
:1003500006D201460FF2280002F024F801200AE03C
:10036000002008E004A802F00DFB204604A90522A5
:1003700002F0B8FB002007B010BC5DF810FB0000D5
:100380004C542053544F5020436865636B696E672B
:1003900020256400DFF8C00A01210162C16100214B
:1003A0008162C1627047DFF8B00A01214162C16118
:1003B0007047DFF8A40AC0697047DFF89C0A002183
:1003C000C1610FF2080001F0EDBF00004C54205253
:1003D000455345545F434D4452440000DFF8780ACA
:1003E000002101620FF2040001F0DCBF4C542052E6
:1003F000455345545F504F5352455100DFF8580A5A
:10040000002141620FF2040001F0CCBF4C54205295
:10041000455345545F504F4941434B00DFF8380A7C
:10042000012181620021C16201727047DFF8280A50
:100430000121C16270472DE9FC4106460F469046F6
:10044000DFF8E84ADFF81C5A20462946402202F02D
:1004500059FB85ED000B85ED021B85ED042B85F81E
:10046000296085F82A7085F82B80D4E904230020C0
:10047000014602F083FB0ED1D4E9002302F07EFB9B
:1004800009D1D4E9022302F079FB04D120462946A0
:10049000402202F037FB95ED020B8DED000BD5E904
:1004A00000230FF20C0001F07DFFBDE8F381000096
:1004B0004C54205550504F5320256620256600008F
:1004C00030B583B0DFF89049A06A012815D1DFF874
:1004D000605A2846DFF88C19402202F013FB95ED94
:1004E000020B8DED000BD5E900230FF2140001F093
:1004F00059FF0020A06201203EBD00203EBD00004B
:100500004C54203173742025662C20256600000091
:1005100030B583B0DFF84049A06A012815D1DFF873
:10052000145A2846DFF83C19402202F0EBFA95ED08
:10053000020B8DED000BD5E900230FF2140001F042
:1005400031FF0020A06201203EBD0020A0623EBD20
:100550004C5420326E642025662C20256600000055
:100560000020DFF8F418CA6A012A01D1C86201200C
:1005700070470FB400B59DB0DDE92E2302F00EFBED
:10058000CDE90C01DDE92001DDE9302302F006FBB5
:10059000CDE90E010CA984B06846402202F0B2FAFF
:1005A0000FBC00F05DFD53EC102B0020DFF81C1E8B
:1005B00002F0B4FB41EC100B1DB05DF814FB000021
:1005C0000FB470B52DED048B9CB0DFF88C58687AB1
:1005D000002801D1002043E00A2801DB0A2600E0C0
:1005E000AE7A9FED998B002422E0DFF8781801EBBA
:1005F000801000F530710CA8402202F083FA24A983
:1006000084B06846402202F07DFA0FBCFFF7B1FFCC
:10061000B0EE409AF0EE609A51EC190B53EC182BA7
:1006200002F05AFC03D2B0EE498AF0EE698A641CEB
:10063000E4B22046B042D8DB288B02F073FC0246BD
:100640000B4651EC180B02F047FC01D2002007E0EA
:1006500053EC182B0FF2140001F0A4FE0120E86403
:100660001CB0BDEC048B70BC5DF814FB4C542053E3
:1006700041204F55542025660000000030B585B05C
:10068000DFF8E04794F969058DF8000004F269503D
:1006900090F901108DF8011090F902008DF8020018
:1006A000B4F86C05ADF80300DFF88C59D5E900010A
:1006B000CDE90201DDE90223DDE9000100F0C9FD19
:1006C000C4F87805DFF89007D5E90023C0E90023D6
:1006D00005B030BD0FB42DE9F0412DED088B84B08D
:1006E000DFF87447DFF87C57A07A05EB80109DEDAA
:1006F000120B80EDA00B00F520709DED140B80ED2A
:10070000020B9DED160B80ED040B2099816394F88C
:100710000980B8F10A0F01DB4FF00A089FEDBF8B8B
:10072000B0EE489AF0EE689AB0EE48AAF0EE68AAE9
:1007300000261DE005EB861753EC182BD7E9B00116
:1007400002F0FEFB41EC180B07F5307753EC192B48
:10075000D7E9020102F0F4FB41EC190B51EC1A0B42
:10076000D7E9042302F0ECFB41EC1A0B761CF6B23D
:100770004645DFDB404602F0D5FB41EC1B0B51EC5C
:10078000180B53EC1B2B02F04FFC05F5A862C2E9D5
:10079000000105F2405651EC190B53EC1B2B02F0F3
:1007A00043FCC6E9020151EC1A0B53EC1B2B02F07F
:1007B0003BFCC6E9040195F969058DF8000005F2D6
:1007C000695797F901008DF8010097F902008DF83B
:1007D0000200B5F86C05ADF80300DFF85C88D8E9D5
:1007E0000001CDE90201DDE90223DDE9000100F0AD
:1007F00030FD0246C5F87825D8E90001C4E90001BA
:100800000192B87800907B7895F86925617A0FF2AB
:10081000142001F0C7FD96ED020B8DED000B05F5E0
:10082000A860D0E900230FF2606001F0BBFD032057
:10083000A0730FF2044001F0B5FD04B0BDEC088BCD
:10084000BDE8F0015DF814FB00000000006AF8400C
:100850000FB42DE9F0472DED088B86B0DFF8D047B7
:10086000DFF8D4A7DAE90001CDE90401D4E90001F9
:10087000CDE90201DDE9042300F0EBFCDFF8D855F7
:10088000A97ADFF8E06506EB81129DED160B82ED8B
:10089000B00B02F530739DED188B83ED028B9DED4F
:1008A0001A9B83ED049B237882F8E93202F2E92354
:1008B00067785F70A7789F7000B2C2F8F802481C92
:1008C000A872C0B20A2801D10020A872687A00F18B
:1008D000010885F809805FFA88F8A8F1010002F0A4
:1008E00017FB41EC1A0B06F2405953EC1A2BD9E9CD
:1008F000020102F013FA53EC182B02F021FB41EC39
:10090000180B53EC1A2BD9E9040102F007FA53EC47
:10091000192B02F015FB41EC190B404602F002FBCB
:1009200041EC1B0B53EC1A2B06F5A86041680068DC
:1009300002F0F4F9DDE9162302F002FB53EC1B2B65
:1009400002F072FB06F5A862C2E9000151EC180B37
:1009500053EC1B2B02F068FBC9E9020151EC190BA7
:1009600053EC1B2B02F060FBC9E9040106F2695746
:10097000B8F1010F0AD1207886F86905607878709F
:10098000A078B870B4F80300A6F86C0596F969056C
:100990008DF8000097F901008DF8010097F9020029
:1009A0008DF80200B6F86C05ADF80300DAE9000135
:1009B000CDE90201DDE90223DDE9000100F049FC97
:1009C0000246C6F87825DAE90001C5E9000101927E
:1009D000B87800907B7896F86925697A0FF2440020
:1009E00001F0E0FC99ED020B8DED000B06F5A8601F
:1009F000D0E900230FF2904001F0D4FC687A01287E
:100A000005D10120A8730FF28C4001F0CBFC06B099
:100A1000BDEC088BBDE8F0075DF814FB000000009A
:100A2000000000004C542025642053502025643AD7
:100A300025643A25642C2025640000000FB42DE9BC
:100A4000F0472DED0A8B86B0DFF8ECA5DAE900015E
:100A5000CDE90401DFF8E804D0E90023CDE9022361
:100A6000DDE90423DDE9020100F0F3FB8046DFF855
:100A7000E843A07A461E36B2002E01D50A3636B2B9
:100A8000607A02F04FFA41EC180BF64D05EB861632
:100A900053EC182B05F5A8604168006802F03EF998
:100AA000D6E9B02302F07AF841EC190B06F530775D
:100AB00005F2405953EC182BD9E9020102F02EF946
:100AC000D7E9022302F06AF841EC1A0B53EC182B19
:100AD000D9E9040102F022F9D7E9042302F05EF813
:100AE00041EC1B0B9FEDE0CBD6E9B023DDE918010B
:100AF00002F026FA53EC1C2B02F010F9C6E9B00103
:100B0000D7E90223DDE91A0102F01AFA53EC1C2B93
:100B100002F004F9C7E90201D7E90423DDE91C0169
:100B200002F00EFA53EC1C2B02F0F8F8C7E90401AE
:100B3000C7F8388053EC1A2BD7E9020102F000FA0B
:100B400041EC1A0B51EC1B0BD7E9042302F0F8F926
:100B500041EC1B0B51EC190BD6E9B02302F0F0F974
:100B600053EC182B02F060FA05F5A862C2E9000107
:100B700051EC1A0B53EC182B02F056FAC9E902019A
:100B800051EC1B0B53EC182B02F04EFAC9E904018F
:100B900095F969058DF8000005F2695696F901008E
:100BA0008DF8010096F902008DF80200B5F86C0589
:100BB000ADF80300DAE90001CDE90201DDE9022325
:100BC000DDE9000100F045FB0246C5F87825DAE9C9
:100BD0000001C4E900010192B0780090737895F8A3
:100BE0006925617A0FF2380001F0DCFB99ED020B08
:100BF0008DED000B05F5A860D0E900230FF28820E9
:100C000001F0D0FB0320A0730FF22C0001F0CAFB0F
:100C100006B0BDEC0A8BBDE8F0075DF814FB0000E0
:100C20004C5420256420552D53502025643A2564CA
:100C30003A25642C202564004C5420415245412023
:100C400053544159000000000FB42DE9F0472DED39
:100C50000A8B86B09FED848BDDE91823DDE928013E
:100C600002F06EF953EC182B02F058F841EC190B16
:100C7000DDE91A23DDE92A0102F062F953EC182BB1
:100C800002F04CF841EC1A0BDDE91C23DDE92C01E4
:100C900002F056F953EC182B02F040F841EC180B17
:100CA000A74CDFF894A3DAE90001CDE90401D4E907
:100CB0000001CDE90201DDE9042300F0CAFA664D26
:100CC000A97ADFF8AC6C06EB811282EDB09B02F5DD
:100CD000307383ED02AB83ED048B237882F8E93225
:100CE00002F2E92367785F70A7789F70B4F8033049
:100CF000A2F8EC32C2F8F802481CA872C0B20A2866
:100D000001D10020A872687A00F1010885F80980F5
:100D10005FFA88F8A8F1010002F0FAF841EC1B0B29
:100D200006F2405953EC1B2BD9E9020101F0F6FF02
:100D300053EC1A2B02F004F941EC1A0B53EC1B2B69
:100D4000D9E9040101F0EAFF53EC182B02F0F8F89E
:100D500041EC180B404602F0E5F841EC1C0B53EC5B
:100D60001B2B06F5A8604168006801F0D7FF53EC23
:100D7000192B02F0E5F853EC1C2B02F055F906F59F
:100D8000A862C2E9000151EC1A0B53EC1C2B02F0D3
:100D90004BF9C9E9020151EC180B53EC1C2B02F082
:100DA00043F9C9E9040106F26957B8F1010F0AD104
:100DB000207886F8690560787870A078B870B4F803
:100DC0000300A6F86C0596F969058DF8000097F9FF
:100DD00001008DF8010097F902008DF80200B6F8C5
:100DE0006C05ADF80300DAE90001CDE90201DDE9A7
:100DF0000223DDE9000100F02CFA0246C6F878254E
:100E0000DAE90001C5E900010192B87800907B7829
:100E100096F86925697A0FF2580001F0C3FA99ED46
:100E2000020B8DED000B06F5A860D0E900230FF250
:100E3000580001F0B7FA687A012805D10120A8739B
:100E40000FF2500001F0AEFA06B0BDEC0A8BBDE81F
:100E5000F0075DF814FB000050220120E09304002D
:100E600060E3160068C40020000000000000E03FBE
:100E70004C5420256420532D53502025643A25647A
:100E80003A25642C202564004C54202566202566D4
:100E9000000000004C54204152454120494E0000C2
:100EA0000FB410B584B0DFF8CC0A016B01EBC102BE
:100EB000DFF8BC3A03EBC20202F5B8639DED060B06
:100EC00083ED000B9DED080B83ED020B08AC94ED58
:100ED000021B83ED041B9DF8413082F8E93502F2D4
:100EE000E9530DF1410464785C700DF14104A4787C
:100EF0009C70BDF84430A2F8EC3502F2EC5211AB14
:100F0000DB685361C48A1483048B5483002901D1A4
:100F10000121016302938DED000BDDE906230FF241
:100F2000240001F03FFA1FBC5DF814FB6023012090
:100F3000A0230120E023012020240120602401209F
:100F4000482A01204C54205553412025662025660F
:100F5000202564000FB4F0B585B0DFF8184A4825A5
:100F6000DFF80C6A206B05FB006000F5B8619DEDB1
:100F70000A0B81ED000B9DED0C0B81ED020B0CAA11
:100F800092ED020B81ED040B9DF8511080F8E915EC
:100F900000F2E9520DF151035B7853700DF15107E6
:100FA000BF789770BDF95420A0F8EC258DF8041097
:100FB0008DF805308DF80670ADF8072094F9000023
:100FC0008DF80C0060788DF80D00A0788DF80E007B
:100FD000B4F80300ADF80F00DDE90323DDE90101FA
:100FE00000F037F9074600979DF906309DF9052076
:100FF0009DF904100FF2440001F0D4F9206B05FBB9
:101000000061C1F8007601F20061E28A8A80228BD9
:10101000CA80022801D2401C20630220A0730FF274
:10102000340001F0BFF905B0F0BC5DF814FB00001E
:10103000502A0120582A0120402A01204C542053D4
:101040005341312025643A25643A25642C202564D7
:10105000000000004C542041524541204F5554009F
:101060000FB438B52DED048B8CB006AA08A90AA8D8
:101070009DED140B00F06EF8DDE90A230020DFF887
:10108000F81801F04BFE04460D46DDE90823DFF8B1
:10109000EC08DFF8EC1801F041FE22462B4601F087
:1010A0004FFF04460D46DDE90623DFF8D808DFF8D8
:1010B000D81801F033FE22462B4601F041FF41ECE7
:1010C000180B00AA02A904A89DED160B00F042F827
:1010D000DDE904234FF03330DFF8B01801F01EFED5
:1010E00004460D46DDE90223DFF8A408DFF8A41862
:1010F00001F014FE22462B4601F022FF04460D4665
:10110000DDE90023DFF87408DFF88C1801F006FE33
:1011100022462B4601F014FF41EC190B53EC182B1F
:1011200051EC180B01F0FAFD04460D4653EC192B57
:1011300051EC190B01F0F2FD22462B4601F000FFA5
:1011400041EC100B02F094F80CB0BDEC048B31BCF8
:101150005DF814FB70B52DED048BB0EE408AF0EE17
:10116000608A04460D46164651EC180B53EC182BBA
:1011700001F014FD41EC190B53EC192B0020DFF8A2
:101180001C1801F0CBFD41EC100B84ED008B85EDBC
:10119000000B0022DFF8043801F046FF02460B4640
:1011A00051EC190B01F0FAFC0022DFF8F43701F0E2
:1011B000B5FDC6E90001BDEC048B70BDDFF8B407D6
:1011C000006A7047DFF8AC07406A704780B540227C
:1011D0000021DFF8D00701F041F840220021DFF8BC
:1011E000C80701F03BF8DFF8D40D0021417281728D
:1011F000016181820FF20C00BDE8024001F0D2B81B
:10120000000000004C542052455345545F41535058
:1012100000000000DFF8A40D006B704780B5DFF818
:10122000501701F5B06001F5A861402201F06AFC99
:10123000DFF8880D0021016301BDC9B201EBC102D5
:10124000DFF82C1701EBC20101F5B861482201F06B
:1012500059BC3FB581B04FF47A704EF66022DFF88A
:10126000603D9DF904109DF90540544303FB014185
:101270009DF9064014FB0011BDF9074001FA84F105
:101280009DF90C409DF90D506A4303FB04229DF922
:101290000E3013FB0020BDF90F2000FA82F0441A33
:1012A00042F20F721319934205D200240FF23C0050
:1012B00001F078F807E0DFF80C2D944203DADFF84C
:1012C000082D1018441ADFF8040D844200DB044690
:1012D000204601F01DFEDFF8F82CDFF8F83C01F0A5
:1012E0001DFD05B0BDE8304002F042B841542D4C20
:1012F0005420646966662054696D65205265736583
:10130000740000002DE9F64383B08146BDF90F401B
:101310004EF66025DFF8A86C9DF90C009DF90D10C4
:10132000694306FB00109DF90E104FF47A7211FB11
:10133000020000FA84F10C98412808D15F18DFF808
:10134000980C87420BD3DFF8940CC71907E0994239
:1013500004D2DFF8740C4018C71A00E0CF1A3846E0
:1013600001F0E0FD0022DFF8783C01F05DFE01F0C5
:10137000FFFF80465FFA88F806FB1876304601F0DA
:10138000D1FD0022DFF85C3C01F04EFE01F0F0FFE1
:10139000C0B28DF8008001468DF8011005FB106089
:1013A00001F0C0FDDFF8282CDFF8283C01F0B6FC86
:1013B00001F0DEFF8DF80200ADF80340484600A9B9
:1013C000052201F08FFB05B0BDE8F08300408F409F
:1013D00010B50024DFF89C05C16C012907D1012458
:1013E0000021C1640FF2540000F0DCFF23E0DFF8BD
:1013F0008005D0F87815D0F8B825914216D190F82C
:10140000691590F8A925914210D100F2A95100F276
:10141000695042784B789A4208D18078897888421E
:1014200004D10FF6EC3000F0BDFF04E001240FF60C
:10143000E83000F0B7FF204610BD00004C542046B5
:101440005500000000B58DB0DFF82805407A00286F
:101450000AD0DFF8941B84B06846402201F052FBAA
:101460000FBCFFF71DFD06E00FF6B4300DB05DF8C0
:1014700004EB00F097BF0DB000BD00001CB5DFF815
:10148000F444217B61732073401E05284DD8DFE8AA
:1014900000F0034C16222C4100A801F073FADFF88B
:1014A0004C0B00A9052201F01DFB616C216400209A
:1014B000E0720FF67830BDE81C4000F073BF00A862
:1014C00001F060FADFF8240B00A9052201F00AFB05
:1014D000A06BA06413BD00A801F054FADFF80C0B58
:1014E00000A9052201F0FEFA13BD00202061A082B0
:1014F00040220146DFF8B00400F0B0FE00A801F081
:1015000041FADFF8E80A00A9052201F0EBFAA06B26
:10151000A06413BD00A801F035FADFF8D00A00A9D5
:10152000052201F0DFFAA06BA06413BD0CB400B576
:1015300083B09DF939108DF800100DF1390191F942
:1015400001108DF801100DF1390191F902108DF89B
:1015500002100021ADF8031000A9052201F0C2FA23
:101560000EBC5DF80CFB00002DE9F84F2DED0A8B49
:101570009CB082469FED558BDFF8F883B8F81000D9
:10158000B8F81290814502D25FFA89F901E0C0B241
:101590008146B8F91400461E00D50A36DFF8D0B3EC
:1015A0000BEB861797ED109B97ED12AB97ED14BBE5
:1015B00001243CE0301A00D50A300BEB801505F110
:1015C00040010CA8402201F09DFA07F1400184B0CF
:1015D0006846402201F096FA0FBCFEF7CAFFB0EE53
:1015E00040CAF0EE60CA51EC180B53EC1C2B01F012
:1015F00073FC03D2B0EE4C8AF0EE6C8A53EC1B2BDA
:10160000D5E9140101F09CFC41EC1B0B53EC192BA8
:10161000D5E9100101F094FC41EC190B51EC1A0BC7
:10162000D5E9122301F08CFC41EC1A0B641CE4B2E6
:1016300020464845BEDB484601F074FC41EC1C0BDB
:1016400051EC1B0B53EC1C2B01F0EEFCCAE904011E
:1016500051EC190B53EC1C2B01F0E6FCCAE900011C
:1016600051EC1A0B53EC1C2B01F0DEFCCAE9020111
:10167000B8F81000B8F8121088421ED207F14001E5
:101680000CA8402201F03EFADFF8641984B06846E5
:10169000402201F037FA0FBCFEF76BFFB0EE40CAF4
:1016A000F0EE60CA51EC180B53EC1C2B01F014FC4B
:1016B00003D2B0EE4C8AF0EE6C8AB0EE480AF0EE3F
:1016C000680A1CB0BDEC0A8BBDE8F18F0000000079
:1016D000000000000FB42DE9F0412DED068BA0B005
:1016E0002CA984B06846402201F00CFA0FBCFEF72A
:1016F00067FFA04D68639E4E012812D100206863E9
:1017000006F5A86184B06846402201F0FBF90FBCE1
:10171000FFF720FCFFF75AFD0FF6201000F042FE05
:1017200019E1B5F9144006EB841040302CA9402291
:1017300001F0E8F9601CA88200B20A2801D100205B
:10174000A882288A0A2801DA401C2882688A401C5C
:101750006882314682B06846402201F0D3F90CBC61
:101760000EA8FFF7E3FE288A0A2801DA002700E026
:101770002F7D8D4CD4E900010022134601F0FEF9C3
:101780002FD1D4E9020101F0F9F92AD1D4E90401F9
:1017900001F0F4F925D106EB8716DFF8588896F9A1
:1017A000690088F8000006F2690090F9011088F8D5
:1017B000011090F9020088F80200B6F86C00A8F851
:1017C0000300DFF82C0806F14001402201F09AF9ED
:1017D000204606F14001402201F094F90020A06368
:1017E000B9E010A8FFF7C0FEB0EE408AF0EE608AC4
:1017F000DFF80088288B400801F094FB53EC182B8D
:1018000001F06AFB28D206EB871696F9690088F882
:10181000000006F2690090F9011088F8011090F9B3
:10182000020088F80200B6F86C00A8F80300DFF8A0
:10183000C00706F14001402201F064F9204606F19C
:101840004001402201F05EF90020A06368820FF29F
:10185000FC7000F0A7FD7EE0D8E90001CDE90001B1
:10186000DDE90E23FFF7F5FC064631460FF2EC707A
:1018700000F098FD286C4FF47A71714388426AD267
:101880006F8A3846042866DBA16B002916D19DEDCE
:10189000100B84ED000B9DED120B84ED020B9DED02
:1018A000140B84ED040BA663214684B068464022E5
:1018B00001F028F90FBCFEF7CBFF43E0401E01F01A
:1018C00027FB41EC190B384601F02CFB41EC1A0BBD
:1018D00051EC190BD4E9002301F020FADDE92C23A7
:1018E00001F02EFB53EC1A2B01F09EFBC4E9000122
:1018F00051EC190BD4E9022301F010FADDE92E2393
:1019000001F01EFB53EC1A2B01F08EFBC4E902011F
:1019100051EC190BD4E9042301F000FADDE930237E
:1019200001F00EFB53EC1A2B01F07EFBC4E904011D
:10193000A663214684B06846402201F0E3F80FBC5C
:10194000FEF7C8FEA06B009053EC182B698A0FF2CB
:101950001C7000F027FD20B0BDEC068BBDE8F00147
:101960005DF814FB7047DFF85406807B7047000079
:1019700068C400205022012000C05B409A999999C8
:101980009999FD3F5839B4C876BE9F3F33335640CE
:10199000AE47E17A14AEF73F9999993F00004E4067
:1019A0000020AC40A8C90020202401200EB478B546
:1019B0002DED028B9EB00646DFF80046A06B08189E
:1019C000A06300A800F0DEFFDFF82C56284600A92F
:1019D000052201F087F8207B062800F2E782DFE885
:1019E00010F0070012007400C1006A011402C00266
:1019F000FFF7ECFB0120FFF741FD217B0FF2846034
:101A000000F0D0FCD2E225A983B06846582201F04C
:101A100079F80EBC304680B2FEF77CFC002843D03B
:101A2000D5E90001CDE903014D200090E36BDDE92C
:101A300003010A46014601A8FFF764FCDFF8BC0574
:101A400001A9052201F04EF8DFF8B41582B068460E
:101A5000402201F057F80CBC1CA8FFF767FDD5E940
:101A60000001CDE90001DDE90023DDE91C01FFF7FC
:101A7000F0FB05463D2D07DB29460FF2186000F00C
:101A800091FCFEF787FC06E00120A06229460FF2D8
:101A9000146000F087FC0220FFF7F0FC217B0FF2BE
:101AA000146000F07FFC81E2A06A012840F07E8291
:101AB0000020A062DFF8481584B06846402201F09B
:101AC00021F80FBCFFF706FE70E2FEF7F9FC0028D4
:101AD00034D00320FFF7D2FC0FF2E85000F062FC94
:101AE000607A00281FD0DFF81C55294684B068466C
:101AF000402201F007F80FBCFEF762FD6063012889
:101B000011D100206063DFF8E01484B06846402201
:101B100000F0F8FF0FBCFFF71DFAFFF757FB0FF2BD
:101B2000B85000F03FFCDFF8D81484B0684640227B
:101B300000F0E8FF0FBCFFF7CDFD37E2FEF710FD28
:101B4000002800F03382207A401C2072C0B20328A3
:101B500080F243810120FFF791FC0FF2985000F0D2
:101B600021FC23E2A06A012851D10020A062DFF805
:101B70009064607A00281DD0314684B068464022C7
:101B800000F0C0FF0FBCFEF71BFD6063012811D100
:101B90000020606306F5A86184B06846402200F02A
:101BA000B1FF0FBCFFF7D6F9FFF710FB0FF25C5047
:101BB00000F0F8FB314684B06846402200F0A2FFF6
:101BC0000FBCFFF787FD31460CA8402200F09AFFBA
:101BD000DFF8301484B06846402200F093FF0FBC59
:101BE000FEF7C7FCB0EE408AF0EE608AE08A01F0B2
:101BF00099F953EC182B01F06FF908D20120FFF787
:101C00003DFC53EC182B0FF2105000F0CBFBD5E944
:101C10000001CDE90201DFF8D403D0E90023CDE9CA
:101C20000023DDE90223DDE90001FFF712FBA16BD0
:101C3000A26C8E1A332E08D30120FFF71FFC314609
:101C40000FF2EC4000F0AEFBB0E1216C4FF47A7281
:101C50005043814280F0AA81DFF8A41382B0684625
:101C6000402200F04FFF0CBC1CA8FFF75FFCD5E939
:101C70000001CDE90001DDE90023DDE91C01FFF7EA
:101C8000E8FA05463D2D07DBFEF784FB29460FF2F7
:101C9000B84000F087FB06E00120A06229460FF261
:101CA000044000F07FFB0420FFF7E8FB0FF2A840A0
:101CB00000F078FB7AE1FEF72BFC002800F0828030
:101CC000D14E314684B06846402200F01BFF0FBC65
:101CD000FEF776FC6063012818D100206063C249DA
:101CE00084B06846402200F00DFF0FBCFFF732F9C8
:101CF000FFF76CFA0FF2704000F054FB607B052890
:101D000040F054810120FFF7B9FB4FE1BD4D314652
:101D10000CA8402200F0F6FE294684B06846402216
:101D200000F0F0FE0FBCFEF724FCB0EE408AF0EEAF
:101D3000608AE08A01F0F6F802460B4651EC180B77
:101D400001F0CAF82BD2607B052831460CD184B053
:101D50006846402200F0D6FE0FBCFEF76FFE0FF281
:101D6000144000F01FFB10E00CA8402200F0CAFE57
:101D7000294684B06846402200F0C4FE0FBCFEF73E
:101D800063FF0FF2FC3000F00DFBFEF70CFB0520AB
:101D9000FFF774FB0FF2F03000F004FB06E10120C6
:101DA000FFF76CFB53EC182B0FF2F03000F0FAFA4F
:101DB000934984B06846402200F0A4FE0FBCFFF7B0
:101DC00089FCF3E0FEF7CCFB002800F0EF80207ADE
:101DD000401C2072C0B2032807DB0620FFF74EFB31
:101DE0000FF2003000F0DEFAE0E0884820640320C3
:101DF000FFF744FB217A0FF2B83000F0D3FA216CE0
:101E00000FF2282000F0CEFAD0E0A06A012846D1D7
:101E10000020A0627A4E607A00281DD0314684B03E
:101E20006846402200F06EFE0FBCFEF7C9FB6063FF
:101E3000012811D10020606306F5A86184B06846CE
:101E4000402200F05FFE0FBCFFF784F8FFF7BEF9F9
:101E50000FF2743000F0A6FA31460CA8402200F0D0
:101E600051FE684984B06846402200F04BFE0FBC2A
:101E7000FEF77FFBB0EE408AF0EE608AE08A01F068
:101E800051F853EC182B01F027F808D20120FFF786
:101E9000F5FA53EC182B0FF23C3000F083FAD5E939
:101EA0000001CDE902015148D0E90023CDE900232A
:101EB000DDE90223DDE90001FFF7CBF9A16BA26C9C
:101EC0008E1A332E08D30120FFF7D8FA31460FF2CD
:101ED0001C3000F067FA69E0216C4FF47A725043CD
:101EE00081423BD2464E96F929008DF8700006F2E9
:101EF000290090F901108DF8711090F902008DF809
:101F00007200D5E90001CDE90001DDE90023DDE93A
:101F10001C01FFF79EF905463D2D07DBFEF73AFA57
:101F200029460FF2E02000F03DFA06E00120A06211
:101F300029460FF2E02000F035FA0420FFF79EFA60
:101F4000E07A401CE072C0B203282FDB606C4100D5
:101F500021640FF2D80000F025FA27E0FEF78EFB8F
:101F600024E0A06BA16C401A33280BD30120FFF7AB
:101F700085FA0FF2B42000F015FA0FF2C02000F03D
:101F800011FA13E0A06A01280BD10120FFF776FABD
:101F90000FF2B42000F006FA0FF2A02000F002FACF
:101FA00004E0607B042801D1FEF768FB207B1EB0B3
:101FB000BDEC028B72BC5DF810FB000050220120CA
:101FC00080EE3600F1D8FFFF005C2605C0E40A056C
:101FD000FCA9F1D24D62503F015C260500A4D9FA5C
:101FE00040774B41004CED40A8C90020582A012001
:101FF00060240120502A0120402A0120482A012083
:1020000068C40020A0230120E0230120E093040005
:102010004C542053410000004C542044490000001F
:102020004C54204E6F20504F530000004C542D57FD
:1020300050204348414E4745202564004C542053CE
:10204000617665205341554D000000004C542052EC
:10205000455345545F474150000000004C54204711
:1020600041204D546D202564000000004C54205345
:102070005020534741522025642C2025662C2025D2
:10208000640000004C542D434B5F53544F502025A7
:10209000640000004C5420524551504F532D4620AF
:1020A000256400004C54204E2D524551504F532072
:1020B000256400004C542D4745545F315F504F5309
:1020C000202564004C542D434B5F555345525F4DC2
:1020D0004F564554000000004C54205353412D46A8
:1020E000500000004C542D53535F50415553455FF1
:1020F000535300004C542053535F475053204E4FCE
:1021000054204F4B20317374000000004C54205376
:1021100053412D554D0000004C542D434B5F5354FB
:102120004F502D554D2D64697374202566000000B5
:102130004C542D434B5F53544F502D554D2D7374BC
:1021400065702025640000004C5420524551504FCA
:10215000532D5320256400004C542D4745545F32C5
:102160005F504F53000000004C54205353412D53F7
:10217000500000004C54205544542053500000009F
:102180004C542053535000004C542D434B5F555337
:1021900045525F4C454156494E4700004C542D4333
:1021A0004845434B5F53544F502D535020256600F4
:1021B0004C542D475053204E4F54204F4B20326EDD
:1021C00064202564000000004C54205353412D55D9
:1021D0004C0000004C542D434B5F53544F502D5531
:1021E0004C20646973742025660000004C542D4314
:1021F0004B5F53544F5020554C207374657020250D
:10220000640000004C5420524551504F532D554C02
:10221000202564004C54204E2D524551504F532DD3
:10222000554C2025640000004C5420535320414756
:1022300041494E2042592053544550004C542D439F
:102240004B5F53544F5000004C5420535320414790
:1022500041494E20425920504F53000010B50446CA
:1022600010460A460146204601F0AEF8204610BD51
:10227000BFF34F8FDFF8C407016801F4E061DFF8B6
:10228000EC2711430160BFF34F8FFEE710B5DFF875
:10229000E0474FF48E7200212046FFF7DFFF204613
:1022A00010BDDFF8CC07704710B5FFF7EFFF04460D
:1022B00000231A461146084600F0C1FAC046C0463F
:1022C00001F0DAF8204600F018F801F03AFB204659
:1022D00000F022FA204600F014F8204600F01EF824
:1022E00000F0E5F900206072A072E0722073012016
:1022F00060730020E075012010BD0021C1710172E2
:1023000031E010B50446DFF8380701F06FF9DFF867
:10231000640701F06BF90120607110BD10B504462F
:1023200001F0CFF90120A07110BD38B50446012598
:1023300001F07AFA012804D12846E0700020A0704C
:102340000AE0022804D10020E0702846A07003E0D3
:102350000020E070A0700546284632BD80B501F02F
:10236000DDFB012002BD10B50446E07901F004FD5B
:102370000121217010BD70B504460025E679E17198
:10238000FFF7F1FF002807D02046FFF7BAFF2046ED
:10239000FFF7C4FF012503E0E6712046FFF7E3FFE6
:1023A000284670BD0EB470B5C1B0054600A84FF404
:1023B000807102F065FBFFF774FF044645AB2A46C7
:1023C0004FF4807100A802F05FFB00A802F07AFBD6
:1023D000451C00A82818002100F8011CDFF89866A9
:1023E0003078401C30707078F021084202D099207B
:1023F00002F084FB02F0EFFB7078401C7070207ECE
:102400002818FF2810DA207E002803D0207E00192B
:102410000A2101762A4600A9207E0019193002F00F
:10242000F1FB207E2818207600A802F043FE707889
:10243000F021084202D0992002F060FB7078401E23
:102440007070C0B2002801D102F0BFFB03F01DFA8A
:1024500041B070BC5DF810FB0528DFF8E80503D833
:10246000DFF8DC1501607047DFF80816016070477F
:10247000DFF8D41551F82000007F002807D0DFF8DE
:10248000FC0501784A1C0270032900DBF0E6704766
:102490002DE9F84305460E4617464FF00208DFF8CF
:1024A000D8456078F021084202D0992002F026FB3E
:1024B00002F091FB6078401C60709DF80000401EA7
:1024C0008DF8000017F8019B2846FFF7C5FF00AB09
:1024D0004A463946304601F067FD002810D0607842
:1024E000F021084202D0992002F008FB6078401EDB
:1024F0006070C0B2002801D102F067FB01201FE02C
:102500005FFA88F8424629460FF27C50FFF74AFFEF
:102510004046A0F101080028D9D16078F021084296
:1025200002D0992002F0EAFA6078401E6070C0B2D2
:10253000002801D102F049FB2846FFF799FF00204F
:10254000BDE8F2832DE9F04704460D4616461F46C6
:10255000DFF8F884089888F80000DFF81C9599F8EF
:102560000100F021084202D0992002F0C7FA02F0DF
:1025700032FB99F80100401C89F801002046FFF762
:102580006BFF4FF0020A434632463946284601F0B7
:10259000C1FD002813D099F80100F021084202D0B3
:1025A000992002F0ABFA99F80100401E89F8010069
:1025B000C0B2002801D102F008FB012022E05FFA3E
:1025C0008AFA524621460FF2CC40FFF7EBFE504606
:1025D000A0F1010A0028D6D199F80100F0210842A3
:1025E00002D0992002F08AFA99F80100401E89F879
:1025F0000100C0B2002801D102F0E7FA2046FFF73F
:1026000037FF0020BDE8F0872DE9F84305460E4668
:10261000174698464FF00209DFF85C446078F021D5
:10262000084202D0992002F069FA02F0D4FA6078E8
:10263000401C60702846FFF70FFF4246394630467F
:1026400001F060FE002810D06078F021084202D02E
:10265000992002F053FA6078401E6070C0B20028E2
:1026600001D102F0B2FA01201FE05FFA89F94A466F
:1026700029460FF22C40FFF795FE4846A0F10109CC
:102680000028DAD16078F021084202D0992002F0C7
:1026900035FA6078401E6070C0B2002801D102F0A7
:1026A00094FA2846FFF7E4FE0020BDE8F28303F029
:1026B00062BEF8B5044602270025DFF88C630DE002
:1026C00039464F1EC9B200290AD1002804D1206919
:1026D0000121A9408843206102276D1C162D10DAC4
:1026E00056F82500006E006880470128E8D121696E
:1026F0000122AA401143216156F8251001220A77D0
:10270000E3E72069032803D0022801D0012802D181
:1027100040F480502061F1BD01F0E9BE01F045BFF9
:1027200081B00022ADF80220ADF80020C079042865
:1027300008D0062809D008280AD009280BD00A2872
:102740000CD00EE04FF4C8600DE04FF448600AE092
:102750004FF4C85007E04FF4FA5004E042F2107012
:1027600001E041F27070ADF802200DE0BDF80020EC
:10277000521CADF80020BDF800208242F6DBBDF807
:102780000220521CADF80220BDF802208A4203D27A
:102790000022ADF80020EEE701B07047417230B57D
:1027A00089B003F0B9FE0446FFF77BFD054600A89B
:1027B000242102F065F90020ADF8220001900A20E2
:1027C0008DF8080000208DF809008DF80A00687A5D
:1027D00000280DD0002C18D000208DF80000052016
:1027E00001900B208DF8080000A805F0A1FD0CE079
:1027F000002C0AD001208DF80000052001900B204C
:102800008DF8080000A805F093FD09B030BD01F077
:10281000E8BE01F0F0BE01210846F8E701210846B4
:10282000F7E702210120F2E702210120F1E701F0A0
:10283000EDBE10B50446FFF734FD447510BD2DE91B
:10284000F04782B00C4615462F46264680464FF488
:102850007A714FF03C0C4FF4616918FB09F216FBDA
:102860000C22BA1801FB0232DFF8E4E19EF900A065
:102870001AFB09F99EF901A01AFB0C9C9EF9029023
:102880004CFA89FCBEF9039001FB0C919EF808C03C
:10289000BCF1000F22D144EA00012943194302D0C0
:1028A00001218EF808108EF80000B8F1000F04D551
:1028B0009EF8000018308EF800008EF801408EF867
:1028C0000250AEF8033000933B4632469EF90010AA
:1028D0000FF2FC10FFF766FDBDE8F38791420DD3C0
:1028E000A1EB020CACF2D17CDFF89491CC45DAD3A9
:1028F0000FF2B81002B0BDE8F04753E5D3D2A2EB17
:10290000010CACF2D179DFF878A1D145CBD3634685
:102910000FF2A81002B0BDE8F04743E510B504007F
:102920002FD003F0B0FE4A49CA68002A00D0841AAA
:10293000B1F80320A218A1F8032012B2B2F57A7FF1
:1029400006DBA2F57A72A1F803208A78521C8A70FD
:1029500091F902203C2A04DB3C3A8A704A78521CE6
:102960004A7091F901203C2A04DB3C3A4A700A780B
:10297000521C0A7091F90020182A01DB00220A700B
:10298000C86010BD3249052200F0ACB8000000005C
:102990000FB410B52DED028B2E4C104600F0C2FA8C
:1029A0002D4A2E4B00F0BAF9206161619FED2C8B0E
:1029B000049800F0B7FA53EC182B00F0AFF9206040
:1029C0006160059800F0AEFA53EC182B00F0A6F900
:1029D000A060E1609DF81C00207604F118009DF8CD
:1029E0001D1041709DF81E1081709DF81F10C17060
:1029F0009DF820100171BDF8210000EE100AB8EE1C
:102A0000400A10EE100A05F0BBFD174A1D4B00F0FE
:102A100085F905F0DDFDC4F81D00BDF82300A4F81C
:102A200021009DF8250084F82300BDEC028B10BC2A
:102A30005DF814FB0749242200F054B80CED00E0C7
:102A400000540040307C002008400020E22A012091
:102A50005028012028260120FCA9F1D24D62503FC8
:102A60008DEDB5A0F7C6B03E3BDF4F8D0400FA05F3
:102A70001409012000580040207B0020E12A012099
:102A80005F4C2605976EA23F4957452025642025B7
:102A900064000000495245202564202564000000A0
:102AA00049524F45202564202564000041542D5390
:102AB00065745453312025642025640041542D53FE
:102AC0006574545332202564202564202564000059
:102AD00041542D536574542025643A25643A256485
:102AE0002E25640062B38B0708D0521E11F8013BFB
:102AF00000F8013B00F024808B07F6D1830740F0FB
:102B0000208000BF103A07D330B4B1E83810103A33
:102B1000A0E83810F9D230BC530724BFB1E8081040
:102B2000A0E8081044BF51F8043B40F8043BD2072A
:102B300024BF31F8022B20F8022B44BF0B7803701E
:102B40007047083A07D3B1E80810083A40F8043B48
:102B500040F804CBF7D25307E4E750F8041B61B107
:102B600050F8042BD30744BFA9F101039A1800239E
:102B700042F8043B091FFAD1EFE7704790420CD1AD
:102B800041EA030C50EA4C0C07D0994205D14FF4AE
:102B9000001C1CEB410F38BF8942704770B44FF0E6
:102BA000004591EA030F44BF6B4000F0D3B900BF6A
:102BB000841A71EB030604D26E40001BB141121956
:102BC00073414FF4001C1CEB410F34BF7CEB4306F8
:102BD00084E00C0DA4EB1356362E7DDC012E43DC75
:102BE00045EAC32343EA525312BFD20292025B0862
:102BF000240545EAC12141EA5051D2EBC020994158
:102C000025D407D1B0FA80F610FA06F164D000207E
:102C1000203608E0B1FA81F6B140C6F1200220FA70
:102C200002F21143B0404FEAF474B4EB465434F06E
:102C300001064FEA74040AD8D6F50016760D04F0A2
:102C40000044F04061FA06F25040F1404840C00AAA
:102C500040EA415021F0004128BF5FEA500550F1A1
:102C6000000044EBD12137E045EAC323DB0A45EA03
:102C7000C121C90AB6F120050EDD42EA0242120C5A
:102C8000C5F1200603FA06F6EB4042EA06056D425E
:102C9000984161F100010DE062FA06F5F2405540FD
:102CA00063FA06FC82EA0C02F3405A406D429041FE
:102CB00061EB030111F4801F05D1641E620502D08F
:102CC0006D004041494121F48011430875F10043F2
:102CD00050F1000041EB045170BC70471CEB410FF8
:102CE00015D223F0004352EA43060BD04FEA4C0CB6
:102CF000BCEB410F04D80C0D661E342EB7DDEBE79C
:102D0000801A994150EA410608BF0021E4E708BF54
:102D10001CEB430F28BF6FF00001DDE7B0B581EA7F
:102D2000030C0CF0004C40F2FF7515EA11541DBF66
:102D300015EA1357AC42AF4239E0E41923EA455390
:102D400043F48013C90241F0004141EA505EC702DA
:102D50001100A7FB020200284FF00000EEFB01204B
:102D60004FF00001E3FB072118BF42F001024018B9
:102D700000214941E3FB0E01A4F580640F0302D258
:102D800052004041494154F101046CDD470872F1A1
:102D9000004250F1000051EB0451A1F580115CBFDD
:102DA00041EA0C01B0BD4CEA05510020B0BD05EA76
:102DB0001357AC4214BFAF4241E050EA410E1CBF72
:102DC00052EA430E02E061460020B0BD24423C447A
:102DD0001BD15FEA070EF6D0090302BF01460020AF
:102DE000AEF1140EB1FA81F7AEEB070401FA07FE5B
:102DF0000C37C7F1200100FA07F7C8404EEA000E71
:102E000023EA455343F48013A2E733F00043B3FAB7
:102E100083F704BFB2FA82FE77440B3FE41BB7F19D
:102E2000200E2FBF02FA0EF3BB40C7F1200E22FA8C
:102E30000EFE38BF43EA0E03BA40641C82E750EA34
:102E4000410E14BF52EA430E6FF000014FF4001719
:102E500017EB430F8ABF194617EB410FB5E74CEA52
:102E600005510020B0BDD4F10104B4F120070FDA00
:102E7000C4F12007520828BF42F0010210FA07F5FA
:102E800001FA07F7E1BF2A43E0403843E1400FE091
:102E9000352C98DCC7F1200452EA400220FA07F2F0
:102EA00018BF42F0010231FA07F0A1400A430021A5
:102EB00072F1004250F1000051EB0C01B0BD82688C
:102EC000521C8260426832B10268531C0360117068
:102ED0004168491E416070474FF4001C1CEB410FD4
:102EE00094BF1CEB430F09E041EA030C50EA4C0C81
:102EF00052EA0C0C03D2994208BF9042704714BFAB
:102F00008B42824270470268531C03601170704705
:102F1000010040F10980F446404200F005F851F00C
:102F200000416047010000BF09D0B0FA80F188403D
:102F3000C91CC1F58461090501EBD021400570472A
:102F400070B44FF0004591EA030C44BF6B40FFF7AB
:102F50002FBE00BF841A71EB030603D2001BB141E0
:102F6000121973414FF4001C1CEB410F34BF7CEB72
:102F7000430443E00C0DA4EB1356352E50DC45EA18
:102F8000C323DB0A45EAC121C912B6F120050DDDD4
:102F900063FA05F6EB4086EA0305124218BF45F0D6
:102FA0000105C01851F100010CD213E062FA06F5D8
:102FB000F2405540F3415A40B340F3405A40801824
:102FC000594107D349085FEA30005FEA350528BF59
:102FD00045F0010501F58011420875F1004250F1FC
:102FE000000041EB045170BC4FF4001C1CEB410F7E
:102FF00038BF70470020090D090570471CEB410FD1
:1030000010D252EA43060BD0BCEB410F05D80C0D91
:10301000AB43661E342EB5DD02E0AB438018594148
:1030200070BC704770BC7047F0B540F2FF7581EA24
:10303000030C0CF0004C15EA11541DBF15EA135790
:10304000AC42AF42E5E0BC41C1F31301C3F313034B
:10305000801A994143F4801304D2641E4000494110
:1030600080185941C90241EA5051B1FBF3F603FB04
:103070001611A2FB0675D7EBC020A94102D2761E1D
:1030800080185941C90241EA5051B1FBF3FE03FBDC
:103090001E11A2FB0E75D7EBC020A94103D2AEF1E1
:1030A000010E80185941890241EA9051760546EA9D
:1030B0008E2EB1FBF3F603FB1611A2FB0675D7EBC0
:1030C0008020A94102D2761E80185941C90241EAE6
:1030D00050514EEA060EB1FBF3F603FB1611A2FBAC
:1030E0000675D7EBC020A94102D2761E801859413F
:1030F000C90241EA5051B1FBF3F703FB1711A2FBE0
:103100000735D3EBC020A94167F100070CBF00428F
:1031100047F0010766F3D5274FEA1E31B80814F5CA
:10312000806412DDBD0775F1004250EB0E5051EB8B
:10313000045111F5801F5CBF41EA0C01F0BD4CF059
:103140007F6141F0E0410020F0BDBD076D0840EA1D
:103150000E5041F48011D4F10104B4F120060ADAD2
:10316000C4F120060200E04001FA06F3E1401843F2
:10317000B24015430EE0342C13DCC6F1200445EABE
:1031800040056D0820FA06F2154321FA06F0A14029
:103190000D43002175F1004250F1000051EB0C018C
:1031A000F0BD00205FEA0C01F0BDCFB992185B4181
:1031B000B3FA83F704BFB2FA82F6BF190B3FB7F137
:1031C00020062FBF02FA06F3BB40C7F1200622FA01
:1031D00006F638BF3343BA401CB1E419641E33E726
:1031E0007F4231F00041B1FA81F404BFB0FA80F6B9
:1031F000A4190B3CB4F120062FBF00FA06F1A14040
:10320000C4F1200620FA06F638BF3143A0403C1B2B
:103210001AE7AC421ABF05EA1357AF4212E050EA70
:1032200041061CBF52EA4306BFE750EA4107304659
:1032300061461CBF41EA0551F0BD52EA430C08BF8C
:10324000C143F0BD00204FF4001616EB410F98BFAC
:1032500016EB430F08BF16EB410F24BFC14305E037
:1032600016EB430F0CBF61464CEA0551F0BD000060
:1032700051EC100B00B500F003F841EC100B00BD51
:1032800040F2FF7C0B0D4DD0634566D230B421EA8D
:10329000035141F4801103F2FD3C5FEA5C0C01D361
:1032A00000184941890041EA907180004FF44014B0
:1032B0000023E202D50AB1F5100107D46D081DD232
:1032C000091B641900184941491BF7D56D080AD23A
:1032D0000919641B00184941491BEFD56D08F7D344
:1032E00001E0520817D0C01861419B1AAC41001888
:1032F0004941801AA941F4D452080AD0C01AA14108
:103300009B186C4100184941801AA941E9D4520820
:10331000F4D15B1C6C4161084FEA330001EB0C51A6
:1033200030BC704750EA0103FBD030B4B1FA81F3EE
:1033300011B9B0FA80F41B190B3BB3F120042FBF75
:1033400000FA04F19940C3F1200420FA04F438BFD4
:1033500021439840D3F101039DE76345E1D011F586
:10336000801FDED850EA4101DBD0D94305F078B99F
:10337000F446400D40EAC120490006D200F014F89E
:10338000004248BF6FF00040604700F00DF84FF07A
:10339000004188428CBF084640426047400D40EAE9
:1033A000C120490080F00D8040F00040490DA1F59A
:1033B0008061491C05D4D1F11F0154BFC840C0171A
:1033C00070474FF00000704762F30F2262F31F4214
:1033D000401810F0030308D0C91A1FD3DB0748BFF9
:1033E00000F8012D28BF20F8022D130030B4144638
:1033F0001546103928BF20E93C00FAD8490728BFF4
:1034000020E90C0048BF40F8042D890028BF20F8AF
:10341000022D48BF00F8012D30BC7047C91818BFF5
:1034200000F8012DCB0728BF00F8012D70470000E0
:103430000901002807D500F00F00DFF8C02C801824
:1034400000F8041C7047DFF8B82C8154704710B5A1
:10345000401EB0F1807F01D3012010BDDFF8A44CE5
:1034600060600F214FF0FF30FFF7E2FF0020A06007
:1034700007202060002010BD7CB50121032005F04D
:103480005AF9DFF8844C204605F0EEF9DFF87C5C51
:10349000284605F0E9F901208DF8040000208DF898
:1034A000050001208DF8060000208DF8070001219D
:1034B00028460183C0460120009000A9284605F057
:1034C0002FFA022128460183C0460220009000A95D
:1034D000284605F025FA01208DF8040000208DF81B
:1034E0000500ADF806004FF48076009600A9284646
:1034F00005F016FA314628464183C04601208DF872
:10350000040000208DF80500ADF806004FF480504F
:10351000009000A9204605F003FA4FF480512046A0
:103520004183C04601208DF8040000208DF805007D
:103530008DF8060001208DF80700009600A92046AE
:1035400005F0EEF9314620460183C04604220621EB
:10355000284605F039FA04220721284605F034FAF6
:1035600002208DF8040001208DF805008DF806007A
:1035700000208DF807004020009000A9284605F0A3
:10358000CFF98020009000A9284605F0C9F904224F
:103590000A21284605F018FA09220321284605F0D9
:1035A00013FA02208DF8040001208DF805008DF833
:1035B000060000208DF807004FF48060009000A9FD
:1035C000284605F0ADF90820009000A9284605F02E
:1035D000A7F9286820F0300040F01000286020682B
:1035E00020F0300040F01000206073BD1FB5DFF800
:1035F000204BA04230D101214FF4001005F0A6F875
:103600000121022005F097F801214FF4001005F088
:10361000BEF800214FF4001005F0B9F80020ADF815
:1036200004004BF6FF70ADF806004FF48060ADF873
:103630000A004FF48040ADF80C000A20ADF80800F5
:10364000DFF8B00C009000A9204605F000FA012137
:10365000204605F05FFA1FBDDFF89C4CA0422FD139
:1036600001214FF4800005F071F80121022005F0DE
:1036700062F801214FF4800005F089F800214FF431
:10368000800005F084F80020ADF804004BF6FF70D0
:10369000ADF806004FF48060ADF80A004FF48040AA
:1036A000ADF80C000A20ADF80800DFF8480C0090D7
:1036B00000A9204605F0CBF90121204605F02AFAA1
:1036C0001FBD2DE9F04192B001214FF4805005F06B
:1036D00048F80121084605F02EF801214FF480003A
:1036E00005F029F8DFF8204A05221146204605F0AA
:1036F0006BF905220721204605F066F9052206210F
:10370000204605F061F905220421204605F05CF908
:1037100002208DF8040001208DF805000020ADF88E
:1037200006002020009000A9204605F0F9F880202E
:10373000009000A9204605F0F3F84020009000A971
:10374000204605F0EDF81020009000A9204605F075
:10375000E7F8DFF8A84B204605F03EFADFF8A05B5B
:103760000020288068600120288100206881E860AE
:103770000720288200206880DFF8DC6C304605F0E6
:103780009BFADFF8D87C384605F096FA4FF4806053
:10379000069000210D9103210E9100210F910A91B5
:1037A0000890DFF8740D0390084610900990079078
:1037B0004FF400300C9008460B904FF0C068CDF8E5
:1037C0000880402005900846049002A9304605F084
:1037D000F7FA00200B90CDF80880059005F1140051
:1037E000049002A9384605F0EBFA002068802946CB
:1037F000204605F020FA01220221204605F04AFA6F
:1038000001221146204605F045FA0121204605F027
:1038100035FA0021304605F0FAFA0021384605F065
:10382000F6FA12B0BDE8F08130B589B001214FF051
:10383000805004F08BFF012005F052FB01214FF472
:10384000802004F078FF0F2005F0FAFC04461020D9
:1038500005F0F6FC0546012004F06AFF002004F0A4
:1038600067FF21460F2005F0DEFC2946102005F0F9
:10387000DAFC00214FF4802004F05DFF012004F009
:10388000F5FE412004F0A4FF0028FAD04FF4807028
:1038900004F038FF012004F048FF05F074FB3F20DE
:1038A000069040F2FF1007900020059005A805F053
:1038B00021FB0020029002A905F086FB00208DF874
:1038C000070001208DF804008DF805008DF8060032
:1038D00001A9002005F0F1FB4FF4800005F090FDF8
:1038E0004FF48000039000208DF8100008208DF820
:1038F000110001208DF8120003A805F03FFD032000
:103900008DF800000D208DF8010000208DF80200D8
:1039100001208DF8030000A805F07FFD032005F0CD
:1039200040FC4FF4804005F0F6FC4FF4800005F0B9
:1039300067FD01214FF4804005F0B3FC012009B080
:1039400030BD10B586B00121084604F0F4FE012117
:103950004FF4804004F005FF00208DF810008DF832
:10396000130001200390DFF8A04703A9204604F0CC
:10397000D7FF0420039003A9204604F0D1FF0021C3
:10398000084605F083FD0221002005F07FFD0020A0
:103990008DF8080001208DF80A0001900C208DF8A8
:1039A000090001A805F0EAFC042001900C208DF824
:1039B000090001A805F0E2FC042005F021FD282003
:1039C0008DF800000F208DF8010000208DF8020016
:1039D00001208DF8030000A805F01FFD06B010BD02
:1039E00010B586B00121084604F0A5FE01214FF470
:1039F000804004F0B6FE00208DF810008DF8130012
:103A00004FF40064039403A9DFF8FC0604F088FF78
:103A10000B21002005F03AFD00208DF80800012060
:103A20008DF80A0001940C208DF8090001A805F01A
:103A3000A5FC204605F0E4FC28208DF800000F20AE
:103A40008DF8010000208DF8020001208DF80300A0
:103A500000A805F0E2FC06B010BD30B58DB00446FC
:103A600001214FF4807004F07CFE00A804F092FF66
:103A70000A20009003208DF8040000208DF8070034
:103A800000A9DFF8840604F04BFF05F013FD02A83F
:103A900005F055FD4FF48030039002A805F041FD7C
:103AA00006A805F034FDDFF8CC5C06A9284605F031
:103AB0000EFD072301222146284605F051FD012174
:103AC000284605F090FD0121284605F03EFD0DB089
:103AD00030BD38B5DFF89C4C204605F07FFD4FF433
:103AE0007A750221204605F095FD002803D128466D
:103AF000451E0128F5DA2046BDE8324005F07EBDBE
:103B000080B50021DFF86C0C05F01FFD00214FF49B
:103B10008070BDE8044004F024BE000038B5040005
:103B200039D0012005F0DCF9002005F054FB4FF4FA
:103B30000055042005F0D0FB012804D12846451E7D
:103B400080B20028F5D100EE104AB8EE400ADFED51
:103B5000780A80EE800AF0EE000A20EE200ADFEDFF
:103B6000750A80EE800ABDEEC00A10EE100A401EF3
:103B700080B205F026FB4FF4804005F0CCFB4FF4FB
:103B8000800005F03DFC012005F025FBDFF8E00C8E
:103B90000121416031BD012005F0A2F90020BDE8FE
:103BA000324005F018BB000030B40146012000236C
:103BB000DFF8C42B1C469460946814F00C0FFBD102
:103BC0000C460B2C55D8DFE804F020545454061949
:103BD0002031383F464D946844F080049460DFF80B
:103BE0009C4B4FF4C0652560146824F08074146009
:103BF000DFF88C4BDFF88C5B25603BE00346DFF899
:103C0000804BDFF8005C256034E094689460DFF856
:103C10006C4B4FF4C0652560146824F08074146008
:103C2000DFF85C4BDFF8E05B256023E00223DFF880
:103C3000504BDFF8D85B25601CE00323DFF8404BD6
:103C4000DFF8CC5B256015E00423DFF8344BDFF8A8
:103C5000C45B25600EE00523DFF8244BDFF8145C1D
:103C6000256007E00623DFF8184BDFF80C5C2560C1
:103C700000E01846002B4AD003EBC3030FF2B80450
:103C80001B1994689460146824F08074146014689C
:103C900024F0806414609C781D8844EA8514DD78E3
:103CA0006D086D1E44EA05441D7944EA05645460BC
:103CB000DC881D7A2D0745EA8414DFF8185C2C6037
:103CC000146844F0807414601468A401FCD55B7916
:103CD00043F4C063DFF8A44A236093689360936859
:103CE0009360052904D1916841F09001916005E04D
:103CF0000A2903D1916841F480519160916841F0A3
:103D000002019160916801F00C010829FAD1DFF8F5
:103D1000701A0968DFF8C02B914207D2DFF8D41C73
:103D20000A6822F4404242F480420A6030BC704784
:103D300000007A4400000047200110040F03020134
:103D400003F00010060F01020103C00010080F016C
:103D5000020103C00010060F01020103F00010066B
:103D60000F01020103C80010040F02020103A800A2
:103D700010020F030201030016E7002800E0401EB6
:103D8000FDD170477CB50726E14988426BD10120FF
:103D90008DF804008DF805008DF8060000208DF8E0
:103DA000070040200090DFF86C5C00A9284604F072
:103DB000B7FD8020009000A9284604F0B1FD402105
:103DC00028464183C0460F20FFF7D7FF40212846F1
:103DD0000183C0460F20FFF7D0FF3046461E80B259
:103DE0000028ECD18020009000A9284604F098FD1E
:103DF000402128464183C0460520FFF7BEFF8021B1
:103E000028460183C0460520FFF7B7FF402128461A
:103E10000183C0460A20FFF7B0FF402128464183B6
:103E2000C0460520FFF7A9FF802128464183C046F0
:103E30000520FFF7A2FF02208DF8040001208DF875
:103E400005008DF8060000208DF807004020009046
:103E500000A9284604F064FD8020009000A92846AF
:103E600004F05EFD73BDDFF8901488426AD1012032
:103E70008DF804008DF805008DF8060000208DF8FF
:103E800007004FF480640094DFF8885B00A928469F
:103E900004F046FD0820009000A9284604F040FDEB
:103EA000214628464183C0460A20FFF766FF214687
:103EB00028460183C0460A20FFF75FFF3046461EB2
:103EC00080B20028ECD10820009000A9284604F018
:103ED00027FD214628464183C0460520FFF74DFFB8
:103EE000082128460183C0460520FFF746FF2146EA
:103EF00028460183C0460A20FFF73FFF2146284697
:103F00004183C0460520FFF738FF0821284641833A
:103F1000C0460520FFF731FF02208DF80400012084
:103F20008DF805008DF8060000208DF8070000943C
:103F300000A9284604F0F4FC0820009000A92846B7
:103F400004F0EEFC73BD10B5DFF8CC4A0121206807
:103F500004F019FE206804F04BFD2068FFF746FBD3
:103F600005E02068FFF70EFF2068FFF73FFB4FF4E6
:103F70000031206804F012FE0028F2D110BD30B4E8
:103F80000022838A008BDFF8904A656843EA00408C
:103F90000840000255EA102060600840884200D1C5
:103FA0000122104630BC70472DE9F84F04460D46FB
:103FB00016464FF420491F78DFF85C8A4FF4003131
:103FC000D8F8000004F0EAFD002808D04846A0F127
:103FD00001090028F2D1FFF7B6FF00208CE0D8F8E5
:103FE000000001884FF6FF52114001800121D8F8EE
:103FF000000004F09BFD4FF4805AD1460020C8F821
:104000000400D8F800B0DFF8141A5846FFF7B7FFDD
:10401000002805D14846A0F101090028F1D163E04C
:10402000D14600222146584604F098FD0020C8F8E9
:104030000400D8F80040DFF8E8192046FFF79FFF9A
:10404000002805D14846A0F101090028F1D14BE034
:104050003146C9B220460182C046D1460020C8F888
:104060000400D8F80040DFF8BC192046FFF787FFAE
:10407000002805D14846A0F101090028F1D133E01C
:10408000012F15D1297820460182C046D146002053
:10409000C8F80400DFF89019D8F80000FFF76FFFA8
:1040A000002823D14846A0F101090028F2D11BE0E5
:1040B0003846471EC0B2002818D015F8011BD8F8A2
:1040C00000000182C046D1460020C8F80400DFF895
:1040D0005819D8F80000FFF752FF0028E8D14846E9
:1040E000A0F101090028F2D1002005E00121D8F853
:1040F000000004F027FD0120BDE8F28F18ED00E07C
:1041000000E400E010E000E0000002400004024093
:10411000005400402DE9F54F81B00D461E464FF486
:1041200020483778DFF8F0484FF40031206804F079
:1041300035FD002808D04046A0F101080028F3D141
:10414000FFF701FF0020D3E0206801884FF6FF52FF
:10415000114001800121206804F0E8FC4FF48059EF
:10416000C84600206060DFF8B4A8D4F800B051461B
:104170005846FFF704FF002805D14046A0F101088A
:104180000028F2D191E000229DF80410584604F076
:10419000E5FCC84600206060D4F800B0DFF8801865
:1041A0005846FFF7ECFE002805D14046A0F1010873
:1041B0000028F1D179E0BDF80810C9B25846018253
:1041C000C046C846DFF86418206804F0E7FC002801
:1041D00005D14046A0F101080028F3D165E0012196
:1041E000206804F0A3FCC84600206060D4F800B04A
:1041F00051465846FFF7C3FE002805D14046A0F1BE
:1042000001080028F2D150E001229DF80410584620
:1042100004F0A4FC022FC84639DADFF8141820682D
:1042200004F0BCFC002805D14046A0F1010800289C
:10423000F3D13AE00021206804F099FC2068018B5A
:10424000012104F07FFCC846DFF8E817206804F07D
:10425000A5FC002805D14046A0F101080028F3D1B3
:1042600023E02068008AC0B228703078401E307089
:10427000C84620680188890505D54046A0F1010897
:104280000028F6D111E0012104F071FC2BE00020A0
:104290006060DFF8A4172068FFF771FE002806D1E0
:1042A0004046A0F101080028F3D1002020E00126BB
:1042B00016E0012F0CD1012E0AD1002631462068CC
:1042C00004F055FC2068818A018B012104F03AFC3E
:1042D0002068818A490603D5008A05F8010B7F1EF4
:1042E000FFB2002FE5D10121206804F040FC01203D
:1042F000BDE8FE8F801A06000058004000300140E3
:10430000042601202DE9F04707460D4616464FF4D6
:104310002048DFF804474FF40031206804F03EFCE9
:10432000002808D04046A0F101080028F3D1FFF78B
:104330000AFE00208DE0206801884FF6FF521140F0
:1043400001800121206804F0F1FB4FF48059C84638
:1043500000206060D4F800A0DFF8C0165046FFF7D8
:104360000EFE002805D14046A0F101080028F1D139
:104370004CE001223946504604F0F0FB022EC846BC
:1043800036DADFF8AC16206804F008FC002805D106
:104390004046A0F101080028F3D137E00021206851
:1043A00004F0E5FB2068018B012104F0CBFBC8463B
:1043B000DFF88016206804F0F1FB002805D14046A4
:1043C000A0F101080028F3D120E02068008AC0B2E3
:1043D0002870C84620680188890505D54046A0F1A7
:1043E00001080028F6D111E0012104F0C0FB2BE008
:1043F00000206060DFF840162068FFF7C0FD00284D
:1044000006D14046A0F101080028F3D1002020E0A9
:10441000012716E0012E0CD1012F0AD100273946C1
:10442000206804F0A4FB2068818A018B012104F03C
:1044300089FB2068818A490603D5008A05F8010BAB
:10444000761EF6B2002EE5D10121206804F08FFB24
:104450000120BDE8F087000088640240106402403B
:10446000DFF8D8050168082932D1DFF80C130A6893
:1044700042F080720A604268B2F1806F03D10A682C
:1044800042F080620A600A689201FCD58A6842F0B4
:1044900002028A608A6802F00C02082AFAD1426895
:1044A000B2F1806F02D10A681201FCD5B4490968E3
:1044B000DFF82424914207D2DFF838150A6822F485
:1044C000404242F480420A6000210160416070472E
:1044D0004168B1F1806F09D1A7490A6842F0806252
:1044E0000A600A681201FCD5002141607047DFF8BC
:1044F0005005016841F080510160DFF8F80401685F
:104500008908890041F001010160DFF838050FF2E8
:104510000D010160704700000C30014038B5DFF834
:104520002845208840F004002080FDF7BAFE807AFC
:10453000012803D1012004F0D6FC02E0002004F0A1
:10454000D2FCDFF808558021DFF8040504F0ACFB4D
:10455000002818D172B68848DFF8E014826802F0AB
:104560000C020A60006800F080604860286840F033
:104570000400286030BF62B6286820F0040028607C
:10458000FFF76EFF0CE0608840F004006080286850
:1045900020F00400286030BF286840F00400286044
:1045A000608840F00400608031BDDFF89804006846
:1045B0000047DFF8A014012806D010D3032809D043
:1045C00005D3042809D00AE0DFF8481407E0DFF833
:1045D000881404E0DFF8841401E0DFF8841408464E
:1045E000704710B50C46FFF7E4FF214689B2BDE8DD
:1045F000104004F0DFB910B50C46FFF7DAFF214692
:1046000089B2BDE8104004F0D7B90000E0B500233E
:104610008DF8083001238DF80A30002A03D10C22CE
:104620008DF8092002E008228DF8092004283CD8E2
:10463000DFE800F00315212A2A004FF40060019002
:1046400028208DF800000F208DF8010000208DF843
:104650000200012921D118468DF803001FE01846F9
:10466000019010208DF8090006208DF800000E2022
:104670008DF80100EAE70220019007208DF8000084
:104680000F208DF80100E1E70420019008208DF84B
:1046900000000F208DF80100D8E78DF8030001A875
:1046A00004F06CFE00A804F0B8FE07BD4FF40061F2
:1046B000E84804F078B910B5044601214FF4802091
:1046C00004F039F82146102004F0ADFD00214FF42C
:1046D0008020BDE8104004F02EB810B501214FF441
:1046E000802004F028F8102004F0AAFD04460021E0
:1046F0004FF4802004F01FF87B2004F069F80028B4
:1047000002D0BDA0FDF74EFE7A2004F061F800282B
:1047100002D0BAA0FDF746FE792004F059F800282F
:1047200002D0B7A0FDF73EFE7C2004F051F800282F
:1047300002D0B4A0FDF736FE7D2004F049F8002831
:1047400002D0B1A0FDF72EFE7E2004F041F8002833
:1047500002D0AEA0FDF726FE7F2004F039F8002835
:1047600002D0ABA0FDF71EFE04F044F82046C0B214
:1047700010BD00000020014000380240003C024013
:10478000EC7B002000127A003EB50C461546042250
:10479000014602A800F036FA0422214601A800F0E2
:1047A00031FA0422294600A800F02CFA02A90020C0
:1047B00004F00AFC01A9002004F07FFC04F078FC5E
:1047C0000446A84A002300981946101A63EB010119
:1047D000490241EAD051400204F046FF0090844271
:1047E00005D2011B4FF0004004F037FD37BDA04259
:1047F00007D2C4F50070009909184FF0004004F08A
:104800002CFD37BD809698000024F40000366E0120
:104810000048E801005A62022DE9704384B0044662
:104820000D46164602A9002004F01DFC01A9002037
:1048300004F093FC04F03CFC00908A4AA2FB00893F
:104840004FEA582848EAC958A2EB08000090042211
:1048500002A9204600F0D6F9042201A9284600F05A
:10486000D1F9042200A9304600F0CCF9BDE87F83DD
:10487000D829012080F0FA0200BD010570B48C1E19
:10488000012C01DA0C34401E3C216425B0FBF5F507
:10489000C5EB90054FF4C876B0FBF6F6751940F2FB
:1048A0006F1674430C26B4FBF6F46419121940F227
:1048B0006D1404FB00206C4A101800EB400203EB5F
:1048C000C200039A01FB0020049A01FB002070BC87
:1048D0007047000084380240018793031CB50C46E2
:1048E00001680191416800918368C2680169491CAF
:1048F000406900F26C70FFF7C1FF2060002016BD18
:1049000010B58EB059480068C405E40D01A9002017
:1049100004F0A9FB00A9002004F01FFC9DF804008E
:1049200006909DF8050005909DF8060004909DF8FE
:104930000100401E08909DF8020007909DF80300BA
:104940006430099002A904A8FFF7C8FF4FF47A70F9
:1049500010FB04F0400AC0F57A700390029A4FF4FD
:104960007A73C117E3FB02010EB010BDF8B5002544
:104970003F4E404C206800F00300032808D001257A
:1049800030684FF47A71B0FBF1F0FEF760FD62B66B
:10499000394800684004400C6168626800FB0121EE
:1049A000A268891A6268C2EBC23263689A186368A7
:1049B0003668324FB6FBF7F600FB0330531AB342AA
:1049C00007D37218A368C31A93420AD29942F9D343
:1049D00007E08A1AB218A368C31A9342FBD399421C
:1049E000F9D3002D04D02068C008C000206072B642
:1049F000F1BD000000700040504F520050494E0081
:104A0000424F520053465400495744005757440000
:104A10004C50570000040240307C0020010003008D
:104A200082000700800007008400070004000010D7
:104A3000020000104000001002000300E0290120E5
:104A400040380240D82901201800024010ED00E053
:104A5000003001400000024000080240000C02400B
:104A60000010024000CA9A3B7505F5FF2828004057
:104A7000EC7B002010E000E0742A012000350C00DF
:104A8000002204F069BE000008B584B00023029340
:104A900011B90093019302E00090481E019004AB0D
:104AA00000A907487844183004F070FE009909B155
:104AB00000220A70002858BF029805B000BD00BF50
:104AC000FFE3FFFF00F10103810704D010F8011B91
:104AD00089B18107FAD10268B2F10131914311F035
:104AE000803F04BF50F8042FF6E710F8011B11B106
:104AF00010F8011BFBE7C01A7047000000B585B035
:104B000002460FF2140100A805F00CFD00A800F009
:104B100099FB05B000BD00004F4525640000000072
:104B200030488168002904BF08B008E0EFF309822B
:104B3000A2F12802036882E8F84F83685A6000F007
:104B40004BFD816859B14A6892E8F84F036002F161
:104B5000280282F3098813F47F4F36D07047224829
:104B600022490968401A80F308884FF08071C161BA
:104B70001F4981617FF0060E704701BC2046DFF8B7
:104B800074E000BDFEE71C48006818490968401A37
:104B9000203820F0070080F308884FF0000181F3EF
:104BA000118862B600F00DF8FEE74FF0000181F3C6
:104BB00011881249124A0A604FF0800181F311886E
:104BC00070470E490E4A0A6070474FF0000181F3AA
:104BD0001188704700BF4FF0800181F31188704742
:104BE00000BF0000207B0020E01F0020D010030841
:104BF0006DA80008854B00080000000804ED00E0E7
:104C00000000001010B50446FDF76CFF204610BDF3
:104C1000EFF303807047BFF34F8FDFF86C06016836
:104C200001F4E061DFF8642611430160BFF34F8FA8
:104C3000FEE770B582B006460C462046FFF742FFFD
:104C40000546202D05D10422314600A8FFF7DAFFE2
:104C500006E0102D16D10222314600A8FFF7D2FF40
:104C6000002000E0401CA8420EDA015D7829F9D04E
:104C7000009A2B465B1E1B1ADA4002F00102303903
:104C80008A42EFD0002076BD012076BDDFF8001605
:104C9000016006207047A0F10060B0F53E3F01D8EA
:104CA0000120704700207047F8B504460D460020EB
:104CB00000902068FFF7EFFF00281AD000A8FFF748
:104CC000E5FF0646002700E07F1CB74211D200989E
:104CD00050F8371000EBC700406840422268520885
:104CE00010EB4200FFF7A5FF0028EDD02F60012058
:104CF000F2BD0020F2BDF8B50C46DFF898150A6D3C
:104D00004B6D002559082E465F1B062F11D34827EF
:104D100007FB01273F6C874200D20D46B84200D204
:104D20000B46E918490837467E1C1F2FECD300E0DC
:104D30006D1C9D4211D2482707FB05210E6CB04225
:104D4000F6D34E6C8642F3D34022204605F004FC95
:104D5000002084F840000120F2BD40220FF20061E3
:104D6000204605F0F9FB0020F2BDF0B591B00446F5
:104D700000250EE032590FF2F45100A805F0D2FBE5
:104D800000A8FFF79FFE024600A9381D05F0E4FBCE
:104D90006D1C05EBC500C600305900280BD0371933
:104DA00000A9FFF7A8FF0028E4D0402200A9381D81
:104DB00005F0D2FBECE711B0F0BDF8B507460C46A4
:104DC0001546002630460090002F1ED0002C09D139
:104DD000F2BD06EBC600C00057F8041B49084900A5
:104DE0004151761C0C2E0FD200A93846FFF75CFF0C
:104DF000002807D13868FFF74EFF002802D13F1D79
:104E0000BC42F1D2BC42E4D23046F2BD70B5DFF80C
:104E100088140A460B68D21A1368DFF88044A3424C
:104E200001D0002070BDDFF86C44121D22650968B6
:104E3000091F4822B1FBF2F1616510F1030F02D0A6
:104E400010F1130F0AD1DFF85854A86805F0BAFB27
:104E50000646A86805F0C2FB811905E005F0CCFB09
:104E6000054605F0CBFB4119DFF83854A0692860EE
:104E700005F14802A06AFFF7A0FF2846FFF775FF7B
:104E8000012070BD0EB430B5CCB0044600A84FF47C
:104E90009671FFF7F5FD00254FAB22464FF4967152
:104EA00000A8FFF7F1FD00A8FFF70CFE044609E09B
:104EB000DFF8E013C86D421CCA6500A9695C05F003
:104EC00005FC6D1CA542F3D34CB030BC5DF810FB63
:104ED00038B50024DFF8BC53E8650FF29840FFF7BF
:104EE000D1FFDFF8C40301680FF2AC40FFF7CAFF3F
:104EF000A86C0090AB6B6A6B296B0FF2B440FFF7A4
:104F0000C1FFE96C0FF2E040FFF7BCFF6A69A969D5
:104F10000FF2E840FFF7B6FF0FF2F840FFF7B2FFDD
:104F200006E01018021D0FF20450FFF7ABFF641CDF
:104F300004EBC400C200DB4811580029F1D10FF284
:104F4000F840FFF79FFFA86D441E002505E00918F3
:104F5000BBA0FFF797FF641E6D1C3C2D09D2002CEF
:104F600000D53B24322000FB04F1D0480A5C002A23
:104F7000EDD131BDCE48CF490A6802604A6842602F
:104F80008A688260CA68C2600A6902614A694261CD
:104F90000A7E8261097F8161C7490A7882614A6815
:104FA00042628A688262CA68C2620A6902634A69A6
:104FB00042638A698263CA69C2638A6EC0F88820C4
:104FC000BE4A9369C0F89830D368C0F88C30136932
:104FD000C0F890305369C0F894300B6FC0F89C3023
:104FE0004B6FC0F8A0308B6FC0F8A430C96FC0F809
:104FF000A810B3490968C0F8AC10B2490B68C0F8F2
:10500000CC304B68C0F8D0308B68C0F8D430CB6857
:10501000C0F8D8300969C0F8DC105168C0F8E81051
:105020001168C0F8E410704770B506460C46994DFB
:105030006FF01E01401A14D0083812D0001F05D09E
:10504000001F0ED008380CD0001F10D104F1200032
:105050002862EFF3148040F00200E862286AA86238
:1050600005E004F120002862EFF31480E862EFF31A
:1050700008806862EFF305802863EFF300806863BF
:10508000FFF7C6FDA863EFF31080E863EFF311802C
:105090002864EFF313806864F1EE100AA864EE64EC
:1050A000002004E054F8201045F82010401C082887
:1050B000F8D370BD70B5774CA16D3C2901D30021A8
:1050C000A165A56D3221794A01FB05260A460146F4
:1050D0003046FFF797FD002086F83100681CA06578
:1050E00070BD70B5014674462046FFF79DFFFFF77F
:1050F00041FF2046FFF78AFE00F09AF8002832D1DF
:1051000000F034F805F082FAF32005F0F9FA6E4861
:105110004FF00054002505E02178641C05F0D6FA14
:1051200030466D1C461CB5F5C03FF5D3532105F044
:10513000CDFA5221304605F0C9FA741C41212046AF
:1051400005F0C4FA641C4D21204605F0BFFA5F4803
:10515000C046C04604F10D00FFF7BAFE05F05FFA45
:105160005B4800F01FF8BDE8704054E510B505F04D
:105170004DFAF32005F0C4FA564C3820206002E0C6
:105180002068083020602068402807D2002105F000
:105190004CFA0928F4D0FFF73EFDFCE7BDE81040CB
:1051A00005F03DBA38B5044605F030FAF32005F0B5
:1051B000A7FA3D480168204605F06CFA241DFF213E
:1051C000204605F083FA641C404D6979204605F0BD
:1051D0007DFA641CE978204605F078FA641C297988
:1051E000204605F073FA641C2978204605F06EFA13
:1051F000641C6978204605F069FA641CA978204689
:1052000005F064FAF521601C05F060FABDE8314054
:1052100005F005BA80B505F0F9F9F32005F070FA4C
:10522000AA212D4805F052FABDE8014005F0F7B972
:10523000002029490978F52900D101207047000094
:1052400025730A0010B50446FFF73CFCC0B21428D1
:1052500000DB1320024621462048FFF7D3FC4FF025
:10526000AC30007810BD80B500F049F8BDE80140D1
:10527000D1E480B5FFF7CEFF4FF4C83212490020C9
:10528000BDE8084002F003B80CED00E00400FA05A8
:10529000F07A0020081C0120FC4F0508FECAFECA57
:1052A000207B0020D4E90020487C0020F8B10020B9
:1052B0002C0B012000ED00E020ED00E004E000E018
:1052C000A0ED00E034EF00E000000608D029012046
:1052D000F4FF0708702A0120FFFF0708C8270120F4
:1052E00010B500F01BF80FF270142046FFF7EAFB30
:1052F000024621460020BDE8104001F0C8BF80B53D
:1053000001214FF4802003F016FA012003F0E8FD9C
:1053100094210F20BDE8044003F085BF80B5012132
:105320004FF4802003F007FA012003F0D9FD00219B
:105330000F20BDE8044003F076BF10B50024012122
:105340004FF4802003F0F7F9012003F0C9FD0F208E
:1053500003F076FF942800D10124204610BD000000
:105360004E6F2053796D626F6C00000030782530ED
:10537000387800000A0A0A0A3D3D204372617368CA
:105380002044756D7020496E666F726D6174696F2F
:105390006E203D3D0A0000004669726D77617265BE
:1053A0002056657273696F6E203A2025640A0000EA
:1053B0000A49505352203D20307825782C20415006
:1053C0005352203D20307825782C2078505352209D
:1053D0003D20307825782C205046534352203D20E4
:1053E000307825780A0000000A6661756C74206DBB
:1053F0006F6465203D203078257800000A504320F6
:105400003D20307825782C204C52203D20307825C6
:10541000780A00000A3C43726173682043616C6C37
:1054200020537461636B3E0A0000000030782578D9
:10543000202025730A0000000A0A3D3D20526563C2
:10544000656E74204C6F67204D657373616765737B
:10545000203D3D0A00000000534E414D5900000020
:105460000000000038B5FFF7B6FBDFF830068468AF
:10547000DFF8280600210171FFF7A7FB002C2CD0D4
:105480002068002829D0607C2168497CC0B2814214
:1054900023D1256800E00D002968002903D04A7C4B
:1054A000C0B28242F7D0FFF796FBDFF8F005006943
:1054B000A04203D1DFF8E40521680161E0692168B9
:1054C0000160C861E56129682160002900D0CC61D4
:1054D0002C6095F8410085F84000FFF776FB31BD60
:1054E00010B5FFF778FBDFF8B8050468DFF8AC0506
:1054F000006A201A012832DADFF8A005046A04E005
:10550000DFF898050462FFF760FBDFF89805007884
:10551000C00722D5FFF75FFBDFF88805007880071A
:10552000EED5DFF88005007810F0FD00DFF8741587
:105530000870FFF74AFBDFF86405006A8442FAD07E
:10554000DFF858050462DFF858050068401CDFF8F2
:1055500050150860DFF844154862FFF73CFB10BDAA
:1055600038B504000020A071206A10F57A606062EE
:10557000E069002802D02000E1698847FFF725FB99
:10558000E56809E0E868616A401A002801D5E86822
:105590006062FFF71AFB2D68002D1AD0FFF71BFB86
:1055A0002069002804D0687C2169497C884212D394
:1055B000287C4007EDD5E868216A401A0128E1DA25
:1055C000280000F09EF9FFF706FB287C0028D9D1BF
:1055D00001E0FFF700FB31BD70B5040000206070F2
:1055E0000120207005F008F80078C0B2CD2802D064
:1055F0007D20FFF783FAA06800280CD0A068406CDB
:10560000002808D0A068406C01680800002802D07B
:10561000A0684068884794F8290000280BD0A0684B
:1056200094F8281080F84010DFF870040079002802
:1056300001D0FFF717FFDFF870040078002823D0AF
:10564000DFF868040068DFF85414096A401A00287B
:1056500004D5DFF854040021017015E0FFF7BBFA10
:1056600005F012F90500FFF7B0FAA068002808D08D
:10567000A068406B2818DFF838140968401AA16840
:105680004863DFF82C040560A068002808D0A068F3
:10569000007C002804D1A068006B401CA16808634E
:1056A000206900282BD003E030682061FFF78DFAD5
:1056B000FFF791FA2669002E27D0357CEDB2002D38
:1056C00023D0680710D5F068216A411A012906DA4B
:1056D000300000F016F9307C002805D10FE0616A37
:1056E000411A002900D56062EDB215F0FB001028C8
:1056F000DAD1B06880684068007C0028D4D1FFF718
:105700006AFA02E02000FFF72BFFA0790028F9D108
:10571000DFF890030078C00701D5FFF7E1FE002015
:1057200060712069002839D02069007C002805D0EC
:105730002069806880684068A06001E02069A060FE
:10574000A06890F84C00642802D08020FFF7D6F9BA
:10575000A068806A0078CD2802D07820FFF7CEF9C3
:10576000A068406C002808D0A068406C4168080020
:10577000002802D0A06840688847A06890F84000E0
:1057800084F8280084F82900DFF810038068C06AD4
:10579000401CDFF808138968C8620BE0002084F819
:1057A0002900002084F828000020A060002020703C
:1057B000FFF70BFA200070BD80B505F093F8DFF815
:1057C000F4120978002806D0022810D009D3042842
:1057D00015D010D314E0002902D0A320FFF78EF9D2
:1057E00011E0002902D1A420FFF788F90BE0A620E0
:1057F000FFF784F907E0A720FFF780F903E002E054
:10580000A820FFF77BF901BD10B505F06BF8040087
:10581000DFF8A0020078002802D0A020FFF76EF980
:10582000002C05D0022C08D003D3032C09D00CE0A7
:105830000EE0A420FFF762F90AE0A620FFF75EF968
:1058400006E0A720FFF75AF902E0A820FFF756F973
:1058500010BD80B505F046F8002805D0022808D014
:1058600006D3032809D00CE0A320FFF747F90BE08B
:105870000AE0A620FFF742F906E0A720FFF73EF96D
:1058800002E0A820FFF73AF901BD80B5DFF80C026D
:105890000078002802D19720FFF730F9DFF8FC01EB
:1058A0000078401EDFF8F4110870C0B2002827D13C
:1058B000DFF8E8014068002822D0FFF78CF9DFF814
:1058C000DC01406800280BD0DFF8D0010121017015
:1058D000DFF8C801FFF769F9DFF8C00100210170A6
:1058E000DFF8B8014078F021084202D09920FFF794
:1058F00005F9DFF8A8014078002801D1FFF765F924
:1059000001BD10B5816800290CD0DFF89011096A3B
:10591000C16081680A684968002A00D051600A6045
:1059200000218160017C11F003010174C9B20029DA
:1059300045D1DFF868110969002929D1DFF85C1128
:105940000861DFF85801007800280CD1DFF84C011D
:1059500001210170DFF84401FFF727F9DFF83C016E
:105960000021017003E0DFF8340101214171DFF80B
:105970002C014078F021084202D09920FFF7BEF8B0
:10598000DFF818014078002801D1FFF71EF916E072
:10599000427C4B7CD2B29342D0D38142D1D04B7C5B
:1059A000D2B29A420BD10300FFE71B68002BDED076
:1059B0005C7CD2B2A242DAD18B42F6D1BEE710BDF6
:1059C00010B50400627C35480078401C33490870EB
:1059D000394800E008000168002903D04B7CD2B2AE
:1059E0009A42F7D32160E061046000290AD0CC61BB
:1059F000487CD2B2904202D194F8410000E00020ED
:105A000084F84000207C002812D1FFF7E4F8200041
:105A1000FFF777FF21484078F021084202D0992013
:105A2000FFF76CF81D484078002801D1FFF7CDF84A
:105A3000FFF72BFF10BD10B5184804781748007801
:105A4000401C164908701548FFF7AFF8134804705A
:105A500012484078F021084202D09920FFF74EF812
:105A60000E484078002801D1FFF7AFF810BD10B5FF
:105A700004F03EFF09480121017004F0BDFD04005F
:105A80006846C046021B203A012A03DBCD212000D4
:105A9000FCF7E4FB09480121017010BD207B0020C8
:105AA000B42A0120042B0120052B0120CC2A01203F
:105AB000B82A0120062B01202C7B0020082B012076
:105AC000506002604160086070470A68F8E748600B
:105AD0000160704701684068F9E7F8B50600DFF833
