:1000000000200020B12F0308DDD30208F1D302083D
:1000100005D4020819D402082DD4020800000000FB
:1000200000000000000000000000000041D40208B1
:1000300055D402080000000099A6000847020108F4
:10004000E9300308ED300308F1300308FBD902085A
:10005000F530030857DB0208ADD602083DD8020888
:10006000C9D80208F9300308FD300308013103083C
:1000700005310308093103080D3103081131030864
:1000800015310308193103081D3103082131030814
:1000900025310308293103082D31030831310308C4
:1000A00035310308393103083D3103084131030874
:1000B00045310308493103084D3103085131030824
:1000C00055310308593103085D3103086DD4020826
:1000D0006131030865310308693103086D31030894
:1000E00067D90208BBDA02087131030875310308C9
:1000F000793103087D310308813103088531030814
:10010000893103088D3103089131030895310308C3
:10011000993103089D310308A1310308A531030873
:10012000A9310308AD310308B1310308B531030823
:10013000B9310308BD310308C1310308C5310308D3
:10014000C9310308CD310308D1310308D531030883
:10015000D9310308DD310308E1310308E531030833
:10016000E9310308ED310308F1310308F5310308E3
:10017000F9310308FD310308013203080532030891
:10018000093203080D32030870B52DED048B84B0DD
:100190000546B0EE408AF0EE608A0C46D4F8C40002
:1001A00002F0BEF90022DFF8A03E02F0D1F941ECE6
:1001B000190B00260EE005EBC6004168006800221E
:1001C000DFF8883E02F0C4F902F0AAFA00A941F86B
:1001D0002600761C032EEEDBDFF8745ED5F8A01740
:1001E00000A802F024FC6868D0F82011D4F8CC20D4
:1001F0005118C0F82011002001F0E0FC002002F0AE
:100200007DFF002002F08AFF53EC182B51EC190BF4
:1002100002F09EF903F00CF900EE100A02F09BFFC9
:1002200004B0BDEC048B70BDDFF8240E406880ED97
:100230003A0A70472DE9F24F2DED088B0446B0EED7
:10024000408AF0EE608A002637463546DFF8000E19
:10025000D0F80480D8F8AC0002F062F953EC182B07
:1002600003F02EF90AD3D8F8B00002F059F902468B
:100270000B4651EC180B03F023F901D20120B4E036
:10028000B4F90000B4F90610401A02F049F941EC43
:10029000190B53EC182B03F013F900D20126B4F913
:1002A0000E00B4F91410401A02F03AF941EC1A0B9E
:1002B00053EC182B03F004F900D2761CB4F91C009F
:1002C000B4F92210401A02F02BF941EC1B0B53EC4D
:1002D000182B03F0F5F800D2761C022E01DB01206A
:1002E00083E02846DFF86C1D02F032F953EC192B3D
:1002F00003F0E6F800D2012753EC1A2B03F0E0F8E4
:1003000000D27F1C53EC1B2B03F0DAF800D27F1CC9
:10031000012F01DB022068E02E465FE0089890ED97
:10032000048B90ED029B06EB4600800007190899AC
:1003300091ED00AB005F02F0F3F853EC1A2B03F0E1
:10034000E7F880468946B7F9060002F0E9F853EC71
:100350001A2B03F0DDF842464B4602F0F9F88246CC
:100360008B46B7F9020002F0DBF853EC192B03F0CF
:10037000CFF880468946B7F9080002F0D1F853EC6F
:10038000192B03F0C5F842464B4602F0E1F85246FD
:100390005B4603F07DF982468B46B7F9040002F014
:1003A000BFF853EC182B03F0B3F880468946B7F931
:1003B0000A0002F0B5F853EC182B03F0A9F84246F6
:1003C0004B4602F0C5F852465B4603F061F9002245
:1003D000134603F075F800D26D1C761C032E9DDBCE
:1003E000022D01DA012000E00020BDEC088BBDE801
:1003F000F28F10B400222BE0C2EBC2035B001B5E45
:1004000031F91240A3420DDA02EB42039B000C8843
:100410001C5202EB42035B0000EB43034C885C8000
:100420008C889C8031F91230C2EBC20400EB44048A
:10043000B4F90640A3420ADA02EB42035B0000EB88
:1004400043030C88DC804C881C818C885C81521CA6
:10045000032AD1DB10BC7047DFF8FC1B018047F694
:10046000FF72C280C1818282818342847047DFF83B
:10047000EC1B0868C20882EAC0124B6882EA0312C9
:100480004A608B6882EAC3038B605B0983EA403071
:10049000C860D20A82EA40200860704780B52DED1E
:1004A000048BB0EE408AFFF7E2FF00EE100ADFEDAA
:1004B0001C8AB8EE400ADFED1B0A20EE200A20EE6F
:1004C000280A03F059F9B0EE409AFFF7D0FF00EE8A
:1004D000100AB8EE400A20EE280AB5EE400AF1EE06
:1004E00010FA01D1B7EE000A10EE100A03F054F929
:1004F00041EC100B03F077F953EC102B00204FF078
:10050000404102F025F802F093FF00EE100A03F0DC
:1005100073F928EE000A20EE090ABDEC048B01BD38
:100520000000802FDB0FC9402DE9F8432DED048B2F
:1005300006468946B0EE408A10EE900A03F02CF988
:1005400041EC190B18EE100A03F026F941EC180BD8
:1005500053EC182BD6E9300101F0FAFF04460D46A2
:1005600053EC192BD9E9300101F0F2FF22462B465A
:1005700003F08EF8C6E93001002734E051EC180B87
:1005800006EBC7025368126801F0E2FF04460D460D
:1005900051EC190B09EBC7025368126801F0D8FF40
:1005A00022462B4603F074F806EBC702C2E90001AD
:1005B00006EBC70851EC180BD8E9242301F0C8FF5B
:1005C00004460D4653EC192B09EBC700D0F89410E4
:1005D000D0F8900001F0BCFF22462B4603F058F8FB
:1005E000C8E924017F1C062FC8DB002718E006EBB2
:1005F000C70851EC180BD8E9122301F0A9FF0446F3
:100600000D4653EC192B09EBC700C16C806C01F04F
:100610009FFF22462B4603F03BF8C8E912017F1CDE
:10062000092FE4DB002718E006EBC70851EC180B94
:10063000D8E90C2301F08CFF04460D4653EC192B2E
:1006400009EBC700416B006B01F082FF22462B468D
:1006500003F01EF8C8E90C017F1C032FE4DBBDEC9E
:10066000048BBDE8F18338B52DED108B82B00546C3
:100670000C46206801F054FF41EC180B606801F053
:100680004FFF41EC190BA06801F04AFF41EC1A0B37
:10069000D5E930230020DFF8C81902F0F9FFC5E9D9
:1006A0003001D5E90C2351EC180B02F0F1FFC5E93C
:1006B0000C01D5E90E2351EC190B02F0E9FFC5E955
:1006C0000E01D5E9102351EC1A0B02F0E1FFC5E948
:1006D000100153EC182B51EC180B01F039FF41ECD1
:1006E0001B0B53EC1B2BD5E9000102F0D1FFC5E930
:1006F000000153EC182B51EC190B01F029FF41ECD0
:100700001F0B53EC1F2BD5E9020102F0C1FFC5E915
:10071000020153EC182B51EC1A0B01F019FF41ECBC
:100720001C0B53EC1C2BD5E9040102F0B1FFC5E909
:10073000040153EC192B51EC190B01F009FF41ECAA
:100740001D0B53EC1D2BD5E9060102F0A1FFC5E9F5
:10075000060153EC192B51EC1A0B01F0F9FE41EC98
:100760001E0B53EC1E2BD5E9080102F091FFC5E9E1
:10077000080153EC1A2B51EC1A0B01F0E9FED5E9F4
:100780000A2302F085FFC5E90A0153EC1B2B51EC4B
:10079000180B01F0DDFECDE90001DDE90023D5E90C
:1007A000120102F075FFC5E9120153EC1F2B51EC49
:1007B000190B01F0CDFED5E9142302F069FFC5E95C
:1007C000140153EC1C2B51EC1A0B01F0C1FED5E9BE
:1007D000162302F05DFFC5E9160153EC1F2B51EC07
:1007E000180B01F0B5FED5E9182302F051FFC5E959
:1007F000180153EC1D2B51EC190B01F0A9FE41EC33
:100800001F0B53EC1F2BD5E91A0102F041FFC5E97C
:100810001A0153EC1E2B51EC1A0B01F099FED5E98D
:100820001C2302F035FFC5E91C0153EC1C2B51ECD5
:10083000180B01F08DFED5E91E2302F029FFC5E952
:100840001E0153EC1E2B51EC190B01F081FED5E972
:10085000202302F01DFFC5E9200153EC1A2B51ECB7
:100860001A0B01F075FE53EC1A2B01F071FE41ECEE
:100870001C0B53EC1C2BD5E9220102F009FFC5E942
:100880002201DDE9002351EC180B01F061FED5E9EE
:10089000242302F0FDFEC5E9240153EC1F2B51EC8B
:1008A000190B01F055FED5E9262302F0F1FEC5E94A
:1008B000260153EC1C2B51EC1A0B01F049FED5E933
:1008C000282302F0E5FEC5E9280153EC1B2B51EC6F
:1008D000190B01F03DFE53EC192B01F039FED5E95F
:1008E0002A2302F0D5FEC5E92A0153EC1B2B51EC5B
:1008F0001A0B01F02DFE53EC1A2B01F029FED5E95D
:100900002C2302F0C5FEC5E92C0153EC1D2B51EC44
:100910001A0B01F01DFE53EC1A2B01F019FED5E95C
:100920002E2302F0B5FEC5E92E0102B0BDEC108BFE
:1009300031BD00002DE9F84F2DED108B8CB08046B5
:100940000C46914698ED0CEB98ED308B98ED000B32
:100950008DED000B53EC182BDDE9000101F0F8FDE3
:1009600006460F4653EC1E2B51EC1E0B01F0F0FD1A
:1009700002460B463046394602F0CAFDCDE9040175
:1009800098ED0EFB98ED060B8DED020B53EC182B3A
:10099000DDE9020101F0DCFD06460F4653EC1F2B9A
:1009A00051EC1F0B01F0D4FD02460B463046394690
:1009B00002F0AEFDCDE9080198ED109B98ED0AAB71
:1009C00053EC182B51EC1A0B01F0C2FD06460F46F2
:1009D00053EC192B51EC190B01F0BAFD02460B46F2
:1009E0003046394602F094FDCDE9060153EC182B50
:1009F000D8E9020101F0ACFD06460F4653EC1E2B70
:100A000051EC1F0B01F0A4FD02460B46304639465F
:100A100002F07EFD41EC1B0B53EC182BD8E90401CE
:100A200001F096FD06460F4653EC1E2B51EC190BB8
:100A300001F08EFD02460B463046394602F068FD55
:100A400041EC1C0B53EC182BD8E9080101F080FD98
:100A500006460F4653EC1F2B51EC190B01F078FDA5
:100A600002460B463046394602F052FD41EC1D0B62
:100A700053EC182BD8E9120101F06AFD06460F4627
:100A800053EC1E2BDDE9000101F062FD02460B462E
:100A90003046394602F03CFD06460F4653EC182B13
:100AA000D8E9140101F054FD32463B4602F0F0FD56
:100AB00006460F4653EC1E2BDDE9020101F048FD0E
:100AC00002460B463046394602F022FD06460F46E6
:100AD00053EC182BD8E9160101F03AFD32463B469B
:100AE00002F0D6FD06460F4653EC1E2B51EC1A0BB6
:100AF00001F02EFD02460B463046394602F008FD55
:100B00000022DFF8B43E01F023FD41EC1E0B53EC54
:100B1000182BD8E9180101F01BFD06460F4653ECCF
:100B20001F2BDDE9000101F013FD02460B463046A4
:100B3000394602F0EDFC06460F4653EC182BD8E977
:100B40001A0101F005FD32463B4602F0A1FD0646C2
:100B50000F4653EC1F2BDDE9020101F0F9FC0246C0
:100B60000B463046394602F0D3FC06460F4653EC9E
:100B7000182BD8E91C0101F0EBFC32463B4602F091
:100B800087FD06460F4653EC1F2B51EC1A0B01F064
:100B9000DFFC02460B463046394602F0B9FC002223
:100BA000DFF8143E01F0D4FC41EC1F0B53EC182B82
:100BB000D8E91E0101F0CCFC06460F4653EC192B78
:100BC000DDE9000101F0C4FC02460B46304639461F
:100BD00002F09EFC06460F4653EC182BD8E9200184
:100BE00001F0B6FC32463B4602F052FD06460F4687
:100BF00053EC192BDDE9020101F0AAFC02460B4679
:100C00003046394602F084FC06460F4653EC182B5A
:100C1000D8E9220101F09CFC32463B4602F038FD47
:100C200006460F4653EC192B51EC1A0B01F090FCC1
:100C300002460B463046394602F06AFC0022DFF8D5
:100C4000783D01F085FC41EC190BDDE90423DDE979
:100C5000080101F07DFCCDE90201DDE9082351EC3A
:100C60001C0B01F075FCCDE90001DDE9062351EC18
:100C70001B0B01F06DFCCDE90A019FEDF18BDDE965
:100C80000A2351EC1B0B01F063FC06460F4653ECA4
:100C90001B2B51EC180B01F05BFC53EC1C2B01F0EF
:100CA00057FC53EC1D2B01F053FC02460B4630461B
:100CB000394602F02DFC06460F46DDE9002351ECD3
:100CC0001C0B01F045FC32463B4602F0E1FC0646B7
:100CD0000F46DDE9042351EC1D0B01F039FC53EC08
:100CE0001D2B01F035FC32463B4602F0D1FC064696
:100CF0000F46DDE90223DDE9060101F029FC024689
:100D00000B463046394602F003FC41EC1A0B53EC1B
:100D10001A2B0020014602F07DFD00F08B81DDE9F9
:100D2000082351EC190B01F013FC06460F4653EC57
:100D30001D2B51EC1F0B01F00BFC02460B463046FD
:100D4000394602F0E5FB53EC1C2B01F001FC064692
:100D50000F4653EC1D2B51EC1D0B01F0F9FB53EC2E
:100D60001E2B01F0F5FB32463B4602F091FC064695
:100D70000F46DDE90823DDE9060101F0E9FB53EC4C
:100D80001E2B01F0E5FB02460B463046394602F0C9
:100D9000BFFB06460F46DDE90A2351EC1F0B01F0AD
:100DA000D7FB32463B4602F073FC06460F4653EC37
:100DB0001B2B51EC1D0B01F0CBFB53EC192B01F05D
:100DC000C7FB02460B463046394602F0A1FBC4E998
:100DD0000001DDE9042351EC190B01F0B9FB0646D3
:100DE0000F4653EC1C2B51EC1E0B01F0B1FB0246DD
:100DF0000B463046394602F08BFB53EC1D2B01F0BD
:100E0000A7FB06460F4653EC1C2B51EC1C0B01F0C4
:100E10009FFB53EC1F2B01F09BFB32463B4602F03D
:100E200037FC06460F46DDE90423DDE9060101F043
:100E30008FFB53EC1F2B01F08BFB02460B46304619
:100E4000394602F065FB06460F46DDE90A2351EC00
:100E50001E0B01F07DFB32463B4602F019FC0646B4
:100E60000F4653EC1B2B51EC1C0B01F071FB53ECA8
:100E7000192B01F06DFB02460B463046394602F055
:100E800047FBC4E90201DDE9042351EC1F0B01F02B
:100E90005FFB06460F4653EC1B2B51EC1E0B01F07B
:100EA00057FB02460B463046394602F031FB53EC05
:100EB0001D2B01F04DFB06460F4653EC1B2B51EC4E
:100EC0001B0B01F045FB53EC192B01F041FB3246A3
:100ED0003B4602F0DDFB06460F46DDE9022351ECFE
:100EE000190B01F035FB02460B463046394602F03D
:100EF0000FFB06460F46DDE9002351EC1E0B01F007
:100F000027FB32463B4602F0C3FB06460F4653EC36
:100F10001B2B51EC1C0B01F01BFB53EC1F2B01F0A6
:100F200017FB02460B463046394602F0F1FAC4E997
:100F30000401D4E9000153EC1A2B02F07BFCC4E954
:100F40000001D4E9020153EC1A2B02F073FCC4E94E
:100F50000201D4E9040153EC1A2B02F06BFC41ECC2
:100F6000190B84ED049B94ED02AB94ED00BB53ECA4
:100F70001B2B51EC1B0B01F0EBFA04460D4653EC16
:100F80001A2B51EC1A0B01F0E3FA22462B4602F021
:100F90007FFB04460D4653EC192B51EC190B01F065
:100FA000D7FA22462B4602F073FB04460D46D8E9D9
:100FB0000023D8E9060102F06BFBD8E90A2302F00E
:100FC00067FB82468B4653EC1B2BD8E90C0101F0E2
:100FD000BFFA06460F4653EC1A2BD8E90E0101F072
:100FE000B7FA32463B4602F053FB06460F4653EC37
:100FF000192BD8E9100101F0ABFA32463B4602F05A
:1010000047FB53EC182B01F0A3FA02460B4650465F
:10101000594602F07DFAD8E9302302F00BFC224653
:101020002B4602F035FB41EC100B02F02BFD89ED55
:10103000000B01200CB0BDEC108BBDE8F28F00BF9F
:1010400000000000000000400000103E0000F040E2
:1010500068BF0020000004400080FFFFD47D002016
:101060000000F03FF8B52DED108B96B005460C460C
:1010700095ED30BB53EC1B2B00204FF0804101F06D
:1010800067FACDE9140194ED008BDDE9142351ECEE
:10109000180B01F05DFACDE9120194ED049B53ECBD
:1010A0001B2B51EC190B01F053FACDE9060153EC5F
:1010B0001B2B0020DFF8001901F04AFACDE90A01E4
:1010C00094ED02AB53EC1B2B51EC1A0B01F040FAE0
:1010D000CDE9040153EC1B2B0020DFF8F41B01F0D9
:1010E00037FACDE9080195ED0C0B8DED000B53ECB3
:1010F000182BDDE9000101F02BFACDE9100153ECCA
:101100001B2B51EC180B01F023FACDE9020195EDF0
:1011100000BB53EC1B2B0020DFF89C1801F018FAE1
:10112000CDE90E0195ED0ACB95ED10DB95ED06EBC3
:1011300095ED0EFB53EC182B00204FF0804101F091
:1011400007FACDE90C01DDE9022351EC180B01F09F
:10115000FFF953EC1B2B01F0FBF906460F4653EC4D
:10116000182B51EC180B01F0F3F9DDE9002301F025
:10117000EFF9DDE9002301F0EBF902460B463046BA
:10118000394602F0C5F906460F46DDE90223D5E9E6
:10119000120101F0DDF902460B463046394602F0F5
:1011A000B7F906460F4653EC182B51EC1B0B01F018
:1011B000CFF9DDE9002301F0CBF932463B4602F0DE
:1011C00067FA06460F46DDE9122351EC1A0B01F0CF
:1011D000BFF9D5E9022301F0BBF932463B4602F0E4
:1011E00057FA06460F46DDE90C2351EC1A0B01F0C5
:1011F000AFF9DDE9002301F0ABF953EC1F2B01F04F
:10120000A7F902460B463046394602F081F90646F8
:101210000F46DDE90223D5E9140101F099F90246F0
:101220000B463046394602F073F906460F46DDE9B3
:10123000102351EC1E0B01F08BF932463B4602F0B5
:1012400027FA06460F46DDE9122351EC190B01F08F
:101250007FF9D5E9042301F07BF932463B4602F0E1
:1012600017FA06460F46DDE90C2351EC190B01F085
:101270006FF9DDE9002301F06BF953EC1D2B01F050
:1012800067F902460B463046394602F041F90646F8
:101290000F46DDE90223D5E9160101F059F90246AE
:1012A0000B463046394602F033F906460F46DDE973
:1012B000102351EC1C0B01F04BF932463B4602F077
:1012C000E7F906460F46DDE90823D5E9240101F0D8
:1012D0003FF932463B4602F0DBF906460F4653EC37
:1012E0001B2B0020DFF8E81901F032F953EC1B2B1F
:1012F00001F02EF902460B463046394602F008F955
:1013000006460F46DDE90423D5E9180101F020F96E
:1013100002460B463046394602F0FAF806460F46BA
:1013200053EC1A2B51EC1B0B01F012F953EC1F2B51
:1013300001F00EF932463B4602F0AAF906460F4686
:10134000DDE90A23D5E92A0101F002F932463B46DC
:1013500002F09EF906460F46DDE90E2351EC1E0B06
:1013600001F0F6F802460B463046394602F0D0F856
:1013700006460F46DDE90623D5E91E0101F0E8F82F
:1013800002460B463046394602F0C2F806460F4682
:1013900053EC192B51EC1B0B01F0DAF853EC1D2B1D
:1013A00001F0D6F832463B4602F072F906460F4687
:1013B000DDE90A23D5E92C0101F0CAF832463B46A3
:1013C00002F066F906460F46DDE90E2351EC1C0BD0
:1013D00001F0BEF802460B463046394602F098F856
:1013E00006460F46DDE9042351EC1A0B01F0B0F874
:1013F00053EC1E2B01F0ACF832463B4602F048F9A4
:1014000006460F4653EC1A2B51EC1A0B01F0A0F8CC
:1014100053EC1F2B01F09CF853EC1F2B01F098F8B4
:1014200002460B463046394602F072F806460F4631
:10143000DDE90423D5E91A0101F08AF802460B46DA
:101440003046394602F064F806460F4653EC1A2B34
:1014500051EC1E0B01F07CF853EC1F2B01F078F8D7
:1014600032463B4602F014F906460F46DDE91423E6
:1014700051EC1A0B01F06CF853EC192B01F068F8E1
:10148000D5E9082301F064F832463B4602F000F942
:1014900006460F4653EC1A2B00204FF0804101F016
:1014A00057F853EC192B01F053F853EC1F2B01F0B4
:1014B0004FF853EC1D2B01F04BF802460B4630461B
:1014C000394602F025F806460F46DDE90423D5E942
:1014D0001C0101F03DF802460B463046394602F049
:1014E00017F806460F4653EC1A2B51EC1F0B01F070
:1014F0002FF853EC1C2B01F02BF832463B4602F040
:10150000C7F806460F46DDE90823D5E9260101F0B4
:101510001FF832463B4602F0BBF806460F4653EC36
:101520001E2B0020DFF8A81701F012F853EC1E2B39
:1015300001F00EF802460B463046394601F0E8FF4E
:1015400006460F46DDE90623D5E9200101F000F843
:1015500002460B463046394601F0DAFF06460F4692
:1015600053EC192B51EC1E0B00F0F2FF53EC1D2B2A
:1015700000F0EEFF32463B4602F08AF806460F4680
:10158000DDE90A23D5E92E0100F0E2FF32463B46B1
:1015900002F07EF806460F4653EC1E2B0020DFF8C3
:1015A000181400F0D5FF53EC1C2B00F0D1FF0246BD
:1015B0000B463046394601F0ABFF06460F46DDE9E3
:1015C000062351EC190B00F0C3FF53EC1C2B00F069
:1015D000BFFF32463B4602F05BF806460F4653EC2F
:1015E000192B51EC190B00F0B3FF53EC1D2B00F03D
:1015F000AFFF53EC1D2B00F0ABFF02460B4630460D
:10160000394601F085FF06460F46DDE90623D5E998
:10161000220100F09DFF02460B463046394601F09C
:1016200077FF06460F4653EC192B51EC1C0B00F0CC
:101630008FFF53EC1D2B00F08BFF32463B4602F030
:1016400027F806460F46DDE90823D5E9280100F012
:101650007FFF32463B4602F01BF804460D4653EC32
:101660001C2B0020DFF8681600F072FF53EC1C2BD7
:1016700000F06EFF02460B462046294601F048FF67
:1016800041EC100B16B0BDEC108BF1BD01210164D3
:10169000C16300210B4603E000EB8102D360491CCB
:1016A0000329F9DB4FF08341C1624FF084410163AC
:1016B0009FEDC00A80ED0D0A80ED0E0A704745F2DD
:1016C000F152914202DA90ED0D0A7047DFF8F02DE9
:1016D000914202DA90ED0C0A704790ED0B0A7047C8
:1016E00038B504460D46D5F8C810FFF7E8FF0020CE
:1016F00020E005EB400104EB8002FFEE000A70EEF3
:10170000200A92ED031AB1F9A43001EE903AF8EEF6
:10171000E11A40EE811AC1EE800AC2ED030AB1F966
:10172000A41001EE101AB8EEC11A71EE600AC2EDF3
:10173000060A401C0328DCDB04F1180002F057FD08
:1017400051EC100B01F074FE606295ED310AB8EEB9
:10175000C00ADFED9A0A80EE800A84ED0A0AD4ED11
:10176000090AF4EE400AF1EE10FA03DB01202064CE
:10177000E06331BD00202064E06331BDF8B505466B
:1017800002F0D6FE002803D102F0AEFF042801D1FA
:101790000120F2BDDFF82C4D2946606800F5AE70DF
:1017A000FFF79EFF286BC0050CD505F1180002F06D
:1017B00059FA8009B0F5C87F3BD360680421C0F8AE
:1017C000B8104CE0606800F1B801D5F8B820CB6DD6
:1017D000D61A330000D55B42DFF8EC2C93420EDAC8
:1017E00033125B4305F1B8077E68D1F860C0B6EBF1
:1017F0000C06B44601D5CCF1000C944508DB0C2254
:1018000005F1B80100F58A7002F0C6FF0020F2BDB4
:10181000361206FB0633BE68496E761A310000D5D3
:10182000494291421BDA361206FB0631B1F5403FC0
:101830000ADA6068D0F8B810012903DB491EC0F845
:10184000B8100CE00220F2BD0421C0F8B8100C2240
:1018500005F1B801606800F58A7002F09DFF002074
:10186000F2BD2DE9F0412DED048B8CB0DFF8544C26
:101870006168D1F8A820531CC1F8A830616801EB59
:10188000C20190ED000B81ED000B6168D1F8A8203A
:10189000531CC1F8A830616801EBC20190ED020B46
:1018A00081ED000B6168D1F8A820531CC1F8A83065
:1018B000616801EBC20190ED040B81ED000B6068E3
:1018C000D0F8A810152902DB0021C0F8A8101822B2
:1018D000616806A802F060FF1822616800A802F0A3
:1018E0005BFF01250DF118082BE005EB45003718CB
:1018F000606800EBC70090ED008B51EC180B08EB13
:10190000C6025368126801F0DBFD03D208EBC60083
:1019100080ED008B606800EBC70090ED008B00AF9E
:1019200007EBC6004168006853EC182B01F0C8FDB6
:1019300003D207EBC60080ED008B761C032ED4DBB0
:101940006D1C072D01DA0026F8E7DDE90001DDE96D
:10195000062301F0DDFD41EC190B00AFD7E90201D0
:10196000D8E9022301F0D4FD41EC180B53EC192BFC
:1019700001F0A6FD03D3B0EE489AF0EE689AD7E9DD
:101980000401D8E9042301F0C3FD41EC180B53EC2A
:10199000192B01F095FD03D3B0EE489AF0EE689A4A
:1019A000B0EE490AF0EE690A0CB0BDEC048BBDE85C
:1019B000F0810000000020430000E03F0000F050F4
:1019C00038B52DED068B9CB004469FEDBA8B0020F8
:1019D0000A900AA80021416055218160C16006A8D3
:1019E00002F0FEFD18A906A802F0CBF914AA0AA974
:1019F00018A802F050F902AA06A914A802F04BF99F
:101A000002AD686800F596706860A86800F5967089
:101A1000A860E86800F59670E860B2EE059AB0EE4E
:101A2000490AFEF73BFD6868BDEEC00A10EE101AC9
:101A300008186860B0EE490AFEF730FDA868BDEEF0
:101A4000C00A10EE101A0818A860B0EE490AFEF796
:101A500025FDE868BDEEC00A10EE101A0818E8600F
:101A600003A92046FEF7FFFDD4E930010122DFF88B
:101A70005C3A02F099FE45D800AA0EA92046FEF76E
:101A800059FF00283ED09FED8D8B0EACD4E9042386
:101A900051EC180B01F0FCFD41EC190BD4E90223C9
:101AA00051EC180B01F0F4FD41EC1A0BDDE90E23AB
:101AB00051EC180B01F0ECFD41EC100B53EC102B2A
:101AC00000F046FD04460D4653EC1A2B51EC1A0B60
:101AD00000F03EFD22462B4601F0DAFD04460D469D
:101AE00053EC192B51EC190B00F032FD22462B461A
:101AF00001F0CEFD41EC100B01F0C4FFB0EE408AC6
:101B0000F0EE608A51EC180B0022DFF8C43901F0C6
:101B100091FE41EC100B1CB0BDEC068B31BD10B535
:101B2000DFF8A049E822002104F5F56002F053FE39
:101B30006068BC30FEF790FCE822002104F50960E3
:101B400002F049FE60680021C0F8B41010BD10B565
:101B500084B00021DFF86C49C4F8A00760680A4629
:101B6000C0F820211BE000EB8100C0F83021606844
:101B700000EB8100C0F82421606800EB8100DFF8F1
:101B80005429C0F84821606800EB81006FF00042E2
:101B9000C0F83C2160680022C0F85421491C6068EC
:101BA0000329E0DB1146C0F8581100A800F037FF08
:101BB000D4F8A01700A800F03AFF1FBDFEB500231F
:101BC0001C46DFF80019D1F8A0071A4615469FED0C
:101BD0003D0A07E06646B24200DA3246AE4200DA1B
:101BE0003546641C032C14DA4E6806EB840606F5B1
:101BF0009E77FF68D6F83C61B7EB060C01D5A6EBE3
:101C0000070C00AE46F824C0002CE3D1009A15461C
:101C1000E7E7002A09D000EE105AB8EEC00A00EE3D
:101C2000902AF8EEE00A80EE200ADFED270AB4EEF3
:101C3000600AF1EE10FA12D4DFED240AB4EE600A65
:101C4000F1EE10FA01D5012309E0DFED220AB4EE2E
:101C5000600AF1EE10FA01D5022300E00323984256
:101C600019DA4E68D6F80831062B02DB4FF41673EA
:101C700001E04FF4967306F58474A469A3420ADA6E
:101C8000B2F5481F07DD032801DA401C00E00320FD
:101C9000FFF75DFF0BE0032809D0496801F5847167
:101CA000896944F62162914201DBFFF750FF002071
:101CB000FEBD00000000000000408F40000000005A
:101CC00000C072C000000000CDCCCC3D9A99993E76
:101CD0000000D03F9A99193F2DE9F0472DED068B72
:101CE000C2B00446FFF74AFD002840F0D482DFF876
:101CF000D4576868D0F89801012815D104F1300054
:101D0000B0F97410029102A9B0F976204A60B0F9D6
:101D10007800886005F5F560FEF7A5FC04F1A401E4
:101D20006868BC30FEF765FB6868D0F808110129C7
:101D300002DB491EC0F808116868D0F89801002835
:101D400000F0A9822E68D6E930010022134602F085
:101D50002BFD80F0CD80E822314608A802F01CFD62
:101D600002A92868FEF77FFC286800AA00F1C801D4
:101D7000FEF7E0FD002805D1E82208A9286802F056
:101D80000BFDB5E02E6806F1C8013046FFF76AF991
:101D9000B0EE408AF0EE608A9FEDD09B51EC180BBC
:101DA0006A68D2F80431D2F8002101F0B1FB804614
:101DB0008946D6E9302351EC190B01F069FC024643
:101DC0000B464046494601F035FD41EC100B01F051
:101DD00059FE286890ED30AB53EC182B00204FF0E3
:101DE000804100F0B5FB06460F4653EC1A2B51EC30
:101DF000190B01F04DFC53EC1A2B00F0A9FB024625
:101E00000B463046394601F015FD41EC100B01F050
:101E100039FEB0EE409AF0EE609A6E6806F1E00787
:101E2000B86801F0B9FCD6E9382300F091FB4FF017
:101E30004042DFF8A43600F08BFB53EC192B01F085
:101E40003FFB02D3B86A012822DBE82208A92868F0
:101E500002F0A2FC6E68D6F8E80001F09DFCD6E91D
:101E6000382300F075FB53EC192B01F029FB07D246
:101E70004FF4FA7001F07AFA68680A21C0F8081184
:101E800021469DED000B2868C830FEF77DF92FE054
:101E9000D6F89C0101282BD1D6F8B400401CC6F816
:101EA000B400002002F01CFC21469DED000B2868C8
:101EB000C830FEF769F92E68D6E930010122DFF853
:101EC0001C3602F071FC10D89FED860AF0EE400A35
:101ED00031463046FEF728FB286800F1C801FFF7BD
:101EE000C1F8B0EE408AF0EE608A686880ED408B01
:101EF000206BC0050DD504F13000006DC00508D57C
:101F000005F50960FFF75CFDB0EE408AF0EE608AEF
:101F100001E09FEDE48B05F668004168006800224F
:101F2000DFF8A83501F0CCFAC0F0B58105F67006EF
:101F300005F2A87A00AA31465046FEF7FBFC0028BD
:101F400000F0A981D4F8C40000F0EAFA02460B467A
:101F50000020DFF88C1501F06DFC41EC190B3046C8
:101F6000FFF77FFCB0EE40AAF0EE60AA51EC190B2F
:101F700053EC1A2B01F0A4FA08D251EC180B0022F2
:101F8000DFF8603501F09CFAC0F0768151EC1A0B55
:101F900053EC192B01F094FA80F0728151EC180B7C
:101FA0000022DFF8443501F08BFA80F0698105F6F4
:101FB000680090ED008B51EC180B0122DFF82C35F6
:101FC00002F0F2FB00F25C816F682868D0E93023F0
:101FD0000020014601F01EFC6DD131465046FFF74E
:101FE00041F8B0EE408AF0EE608A87ED408B05F64E
:101FF000680090ED009B53EC182B00204FF08041BF
:1020000000F0A6FA8046894653EC192B0020DFF831
:10201000E01401F03DFB53EC192B00F099FA024655
:102020000B464046494601F005FC41EC100B01F01F
:1020300029FDB0EE409AF0EE609A6F68D7F8E8009C
:1020400001F0AAFBD7E9382300F082FA53EC192BF0
:1020500001F036FAC0F010819DED000B314607F11A
:10206000BC00FEF7E7F8022800F00681002840F0E7
:102070001281D7F89C01012840F00D81002002F068
:102080002FFB21469DED000B3046FEF77DF8012029
:1020900002F022FB1920059005A8192141608160FA
:1020A00002F026FBE8225146286802F075FBFFF794
:1020B00036FD0020F0E0D7F8B40000F031FA53EC20
:1020C000182B01F0B7FBDFF82C24DFF82C3402F0DA
:1020D0006BFB09D8FFF723FDDDE000BF0000000027
:1020E0000000F0BF6666E63E31465046FEF7BAFF96
:1020F000B0EE408AF0EE608A05F6680090ED009B35
:1021000053EC182B00204FF0804100F021FA80465C
:10211000894653EC192B0020DFF8D41301F0B8FAEC
:1021200053EC192B00F014FA02460B464046494680
:1021300001F080FB41EC100B01F0A4FCB0EE409AE2
:10214000F0EE609A6F68D7F8E80001F025FBD7E958
:10215000382300F0FDF953EC192B01F0B1F9C0F070
:102160008B809DED000B314607F1BC00FEF762F855
:10217000002840F090802F6807F1C80805F5086036
:1021800041680068D8E9042301F0C2F941EC190B59
:1021900005F6780041680068D8E9022301F0B8F933
:1021A00041EC1A0B05F5076041680068D7E9322356
:1021B00001F0AEF941EC100B53EC102B00F0C8F914
:1021C0008046894653EC1A2B51EC1A0B00F0C0F9EB
:1021D00042464B4601F05CFA8046894653EC192B87
:1021E00051EC190B00F0B4F942464B4601F050FA9D
:1021F00041EC100B01F046FCB0EE409AF0EE609A14
:10220000D4F8C40000F08CF953EC192B00F0A0F9BD
:102210000022BA4B00F09CF90122B34B02F0C4FA41
:1022200014D9B74B02F0C0FA26D86868D0F8B400C9
:1022300000F076F905F668025368126801F0FAFAC0
:102240004FF03332AF4B01F03BF915D26868D0F84C
:102250009C01012810D1002002F042FA686880ED4C
:10226000408B21469DED000B3046FDF78DFFE822A7
:102270005146286802F090FAFFF751FC00200BE06D
:1022800005F66800416800680122944B02F08CFA60
:1022900001D8FFF744FC002042B0BDEC068BBDE83E
:1022A000F08700000000000000000840F8B52DEDA8
:1022B000028B0446002530E000F032F902460B465E
:1022C0000020874901F0B6FA41EC180B53EC182BAB
:1022D00000208D4900F03CF900F022FAC6F86C03AA
:1022E00053EC182B0020794900F032F900F018FA6D
:1022F000786053EC182B0020844900F029F953EC46
:10230000182B00F025F900F00BFA00F009F9C6E9E6
:10231000E8010120C6F8CC036D1C032D14DA4FF43C
:10232000D070684900FB051606F55B77D4F8C40049
:102330000028C1D16FF00040C6F86C037860744883
:102340007449C6E9E801E4E7BDEC028BF1BDF0B5E4
:1023500087B004465B4E7068D0F80C01002802D1AB
:102360002046FFF7A3FF94F88000400622D570684E
:10237000D0F85411002902D10121C0F854110020D5
:1023800016E004EB80018A6E736803EB8003D3F8D8
:102390002471BA4201DAC3F82421896E726802EB13
:1023A0008002D2F830318B4201DAC2F83011401C81
:1023B0000328E6DB04F18007386DC00539D500AA93
:1023C00002A903A800F0CEFDB86C44F62061884253
:1023D0000FDA7268D2F81031C018C2F810017068B4
:1023E000D0F810218A4201DA002023E00021C0F851
:1023F0001011002017E0716801EB800103AA52F868
:102400002030D1F83C51AB4201DAC1F83C3152F8EE
:102410002010726802EB8002D2F848318B4201DA58
:10242000C2F84811401C0328E5DB2046FFF754FCA6
:102430000546284607B0F0BD04224FF4C87136485F
:1024400000F082BC38B51F4C4FF4F56200212046E5
:1024500002F0C1F900251EE0E82000FB054008302D
:1024600020604FF4D07000FB054000F530706060D4
:10247000FFF755FB4FF4D0720021606802F0ABF912
:1024800060684FF07E51C0F8E810606800F5AE70EB
:10249000FFF7FCF86D1C032DDEDB04F10800206063
:1024A00004F530706060002032BD80B5FFF7CAFFD0
:1024B000002804D11948BDE8024002F09FB902BDCE
:1024C000C1D4010068BF00200100050000003440B5
:1024D0000000084002000080CCCCEC3F00409F4050
:1024E0000000D0410000F83F0000104000003E40D6
:1024F0000000F0BF0BD7A3703D0AE73F0000103E7D
:10250000000004403333C33F000059400080564070
:102510000000C0FFFFFFDF414F23000839240008FF
:10252000010040F10980F446404200F005F851F006
:1025300000416047010000BF09D0B0FA80F1884037
:10254000C91CC1F58461090501EBD0214005704724
:10255000B0B581EA030C0CF0004C40F2FF7515EAAF
:1025600011541DBF15EA1357AC42AF4239E0E419CC
:1025700023EA455343F48013C90241F0004141EA84
:10258000505EC7021100A7FB020200284FF00000B6
:10259000EEFB01204FF00001E3FB072118BF42F0E2
:1025A0000102401800214941E3FB0E01A4F58064BB
:1025B0000F0302D252004041494154F101046CDD45
:1025C000470872F1004250F1000051EB0451A1F5AF
:1025D00080115CBF41EA0C01B0BD4CEA05510020FE
:1025E000B0BD05EA1357AC4214BFAF4241E050EA18
:1025F000410E1CBF52EA430E02E061460020B0BD0E
:1026000024423C441BD15FEA070EF6D0090302BF07
:1026100001460020AEF1140EB1FA81F7AEEB0704CB
:1026200001FA07FE0C37C7F1200100FA07F7C8408E
:102630004EEA000E23EA455343F48013A2E733F039
:102640000043B3FA83F704BFB2FA82FE77440B3F2C
:10265000E41BB7F1200E2FBF02FA0EF3BB40C7F107
:10266000200E22FA0EFE38BF43EA0E03BA40641C65
:1026700082E750EA410E14BF52EA430E6FF00001A8
:102680004FF4001717EB430F8ABF194617EB410FA2
:10269000B5E74CEA05510020B0BDD4F10104B4F116
:1026A00020070FDAC4F12007520828BF42F00102C8
:1026B00010FA07F501FA07F7E1BF2A43E040384373
:1026C000E1400FE0352C98DCC7F1200452EA4002CB
:1026D00020FA07F218BF42F0010231FA07F0A140D8
:1026E0000A43002172F1004250F1000051EB0C014D
:1026F000B0BD10B450F8041B81B102681218001D5F
:1027000050F8043BDC0744BFA9F10104E31852F878
:10271000044B43F8044B091FF9D1EBE710BC704799
:10272000F446400D40EAC120490006D200F014F8FA
:10273000004248BF6FF00040604700F00DF84FF0D6
:10274000004188428CBF084640426047400D40EA45
:10275000C120490080F00D8040F00040490DA1F5F6
:102760008061491C05D4D1F11F0154BFC840C01776
:1027700070474FF00000704710B5DFF8DC48482282
:10278000014604F5457002F007F8D4F85003606381
:1027900004F554704168C4F884108068C4F8D4000B
:1027A000032802D1012001F097FF002010BD80B561
:1027B0004822DFF8B41801F0EFFF002002BD80B519
:1027C0000C220146DFF8A40801F0E6FF002002BD5C
:1027D00080B50C22DFF8941801F0DEFF002002BD66
:1027E00010B5DFF874484FF4A672002104F50870A4
:1027F00001F0F1FF4FF408720021204601F0EBFFD9
:1028000000F006FC4DF294034822DFF86418DFF86C
:10281000640802F022F804464CF251330C22DFF82F
:102820005818DFF8580802F018F8204310BD0023AC
:10283000426201F00302032A00D1012301F01802D1
:10284000182A00D1012301F0C002C02A00D10123BF
:10285000002B00D08821016070470A460146DFF84E
:102860002008E4E7DFF8F01788624FF47A7290FBF3
:10287000F2F2CA628A6C002A04D1DFF8082892FBBF
:10288000F0F088647047DFF8D017886778314FF42C
:102890007A7290FBF2F24A600A6A002A04D1DFF8E9
:1028A000E42792FBF0F008627047DFF8AC17C1F83C
:1028B000C800C8314FF47A7290FBF2F24A600A6A9B
:1028C000002A04D1DFF8BC2792FBF0F008627047C1
:1028D000DFF8AC17C1F860014FF47A7290FBF2F0A8
:1028E000C1F864017047DFF89807D0F8D0000012F3
:1028F00000F001007047DFF88807006B001200F05D
:1029000001007047DFF87807D0F88000001200F06F
:102910000100704730B400200146DFF8642702F15F
:1029200030031C6DE40501D5D3E91601146BE405F1
:1029300008D5D3E90245A94204DC01DBA04201D25B
:102940002046294602F1D003D2F8D040E40508D54C
:10295000D3E90245A94204DC01DBA04201D22046B2
:1029600029461C6DE40508D5D3E91645A94204DCC7
:1029700001DBA04201D220462946D2F85031DB05C6
:102980000AD502F5A874D4E90223994204DC01DBDC
:10299000904201D21046194630BC70470A460146A3
:1029A000DFF8E40643E70A460146DFF8E0063EE7C3
:1029B00070B584B004460D46B4F90400C00300901D
:1029C00000AEB4F90600C0037060B4F90800C0039B
:1029D000B06004F10C0300AA606A4100206880B274
:1029E00001F0CEFB00982968A0EB610000907068B0
:1029F0006968A0EB61007060B068A968A0EB610035
:102A0000B06004F1180300AA606A4100206880B237
:102A100001F0B6FB206B40F0200020637FBD002852
:102A200004D00C22DFF8401601F0B6BE7047F8B5AE
:102A300004460D46DFF8486606F545770C22214628
:102A4000384601F03FFF00280AD00C2221463846C4
:102A500001F0A2FE06F5457106F1A000FFF7A8FF00
:102A6000C6F8D450C6F85853002208210846BDE8DD
:102A7000F84001F059BFDFF80816C1F86803704745
:102A8000DFF8FC15C1F88400C1F85403704738B56D
:102A90000C46002818D0DFF8E835D10702D50168C8
:102AA000C3F83413910703D503F54D7145684D60A4
:102AB000510703D503F54D718068886003F54D71AA
:102AC00003F15000FFF774FF2046FFF7D9FF002203
:102AD00010210846BDE8384001F026BFF8B504468D
:102AE0000D46DFF89C65002C12D006F557770C22B6
:102AF0002146384601F0E6FE002809D00C22214686
:102B0000384601F049FE06F557713046FFF750FF91
:102B1000756306F54B746562D6F80801002802D08B
:102B2000C6F82C0303E04FF4D810C6F82C0300229B
:102B30000421084601F0F8FE01206060F1BDDFF8D5
:102B40004015D1F83003012801D1012000E0002018
:102B50000022C1F83023704710B50C46002804D07D
:102B60000C22DFF8081501F017FE002C04D0DFF866
:102B70001005D0F82C03206010BDF8B514461D4692
:102B8000DFF8FC6406F1540702688B0610D4A6F83F
:102B90005420416879808068B880F86A40F08000ED
:102BA000F86206F54D7106F15000FFF701FF0DE0E8
:102BB0007A614268BA618068F861F86A40F0200082
:102BC000F86201F003003863C6F85403F86A40F471
:102BD000A070F862D6E92201C6E92401C6E92245BF
:102BE0000020F2BD70B514461D46DFF8946406223D
:102BF0000146301D01F0D0FD306B40F4E0703063D1
:102C0000D6E90E01C6E91001C6E90E4506F5577171
:102C10003046FFF7CDFE002070BDFEB514461D46C0
:102C2000DFF85C6406F1A4078A0617D400F0CAF93D
:102C300000A800F0BAF90098A6F8A40000A841681E
:102C400079808068B88006F5457106F1A000FFF72D
:102C5000AFFEF86A40F08000F8620EE002687A6128
:102C60004268BA618068F861F86A40F02000F86252
:102C700001F003003863C6F85803D6E93601C6E907
:102C80003801C6E93645F86A40F4A070F8620020C1
:102C9000FEBD2DE9F04385B006460F4614461D469D
:102CA000DFF8DC8308F5A079F80409D500A93046DF
:102CB00001F0F5FB102200A9484601F06DFD04E08B
:102CC00010223146484601F067FDC8E95645D8F85C
:102CD000500107F4385141F4E0710843C8F850013D
:102CE000D8F8500110F4406F04D022462B463046ED
:102CF00001F0F6FBD8F8500100050AD500A80FF244
:102D00009431102201F034FE22462B4600A801F037
:102D1000FBFB002005B0BDE8F083DFF86403002171
:102D2000C0F880107047DFF858030021C0F8D010B9
:102D30007047DFF84C030021C0F850117047DFF8EE
:102D400040030021016370472DE9F04300231C4636
:102D500000E0641CDFF82853D5F82062B4420DDA95
:102D60000C2707FB0455D5F824620746BE4203D062
:102D7000D5F828528D42ECD1162032E0142E2EDAEE
:102D80001C46002E01D11BE0641CB44207DA04EBA0
:102D9000440705EB8707D7F828728F42F4DBB4426B
:102DA0000ED00BE00C2707FB065707F5097C07F54B
:102DB0000677B7E80043ACE80043761EB442F1DB87
:102DC0000C2707FB0454C4F8240204F50970416081
:102DD0008260D5F82002401CC5F8200200E00C23D8
:102DE0001846BDE8F083F8B50025DFF8944294F862
:102DF0003000400600D5022594F88000400601D539
:102E000045F0010594F8D000400601D545F00405D1
:102E100094F82001400601D545F0080594F85001CA
:102E2000C00601D545F0100594F89801400601D57B
:102E300045F020050026374611E007EB470004EB7C
:102E40008001D1F82C02054208D02046D1F8241286
:102E50008847002802D0002E00D106467F1CD4F8F7
:102E600020028742E9DB00F002F83046F2BD10B4E0
:102E70008348016B4A0602D541F01001016300F15D
:102E800030010A6D530602D542F010020A65D0F8EF
:102E9000D020530603D542F01002C0F8D02000F134
:102EA000D002136D5C0602D543F010031365D0F811
:102EB00050315C0603D543F01003C0F85031036B6A
:102EC00023F0400303630B6D23F040030B65D0F840
:102ED000D01021F04001C0F8D010116D21F0400158
:102EE0001165D0F8501121F04001C0F8501100F5E3
:102EF000A870816C21F04001816410BC704738B526
:102F00000C461546002803D00C22614901F044FC10
:102F1000002D04D05A48D0E92223C5E90023002C13
:102F200003D05748D0F88400207031BD70B50C46EE
:102F30001546534E0C2206F1B80101F02DFC002D70
:102F400003D0D6E93601C5E90001002C09D0D6F836
:102F50006803002802D00020207070BDD6F8D4008D
:102F6000207070BD70B50C461546454E0C2206F11A
:102F7000AC0101F011FC002D03D0D6E93601C5E902
:102F800000010020207070BD3D48406B70473C48F8
:102F9000D0F86813002901D000207047D0F8D40081
:102FA00070473748D0F884007047002107E0344A62
:102FB00002EB8102D2F8C42140F82120491C0329E8
:102FC000F5DB704718B4002106E003EB810250F8EE
:102FD0002130C2F8B831491C294B0329F5DBD3F85D
:102FE0001812012907D103F5E272014603F5E870D2
:102FF00018BC01F05EB9002106E003EB810250F835
:103000002140C2F8C441491C0329F6DB11BC7047BA
:1030100010B500200246104C04E004EB8001C1F81A
:10302000F421401C0928F8DB2422002104F5E87073
:1030300001F0D1FB00200AE004EB00114FF07E52BA
:10304000C1F8F4214FF08042C1F8D021401C032880
:10305000F2DBBDE8104001E008F300200848002141
:10306000C0F81812704700001CF6002064F600201B
:10307000AF27000879270008D1270008BF270008DC
:1030800008F3002040420F0058F30020A8F300206E
:1030900070F300200000004000000000000000006D
:1030A0000000000038B5DFF86C435022002104F125
:1030B000100001F090FBB7EE000A00F039F8B3EE13
:1030C0000E0A00F04FF804F140050020287500F0CA
:1030D00015F8002000F022F800202064287731BD88
:1030E00080B500F034F8B5EE400AF1EE10FA03D0E6
:1030F000DFF82003406C02BD012002BD10B504467C
:1031000000222021084601F00FFCC248446410BD93
:10311000C04988647047BF48C06C704710B504460A
:1031200000224021084601F0FFFBBA48C46410BDEC
:1031300080B510EE100A00F02FFB0022B64BFFF70F
:1031400007FA01F041FCB34AC2E90C0101BDB148E4
:1031500090ED160A7047AF48022180F85C1080EDB0
:10316000160A7047AB4880ED0F0A70470020B4EE96
:10317000600AF1EE10FA00DB01207047F0B4D0E9EC
:103180003623D0E93845121BAB41A24CD0E90E677B
:10319000C4E90867D4E9060180185941C4E9060169
:1031A000F0BC7047D0E90E239A48C0E90823C0E973
:1031B0000623104619467047F8B52DED028B86B0F0
:1031C000064606F1B80000F003F9924F87ED0E0AAB
:1031D00097F85C00002814D1F3EE0E0AB4EE600AF2
:1031E000F1EE10FA0DDBDFED870AB4EE600AF1EEC6
:1031F00010FA06D587ED160A87ED100A012087F828
:103200005C00D7ED160A97ED101AF2EE0E1AB0EE2A
:10321000402A01EE212A9FED7C1A22EE011A87ED49
:10322000101A70EE608AF5EE408AF1EE10FA01DABB
:1032300070EEC08A31EE608AB5EE408AF1EE10FA87
:1032400001DA30EEC18A3046FFF798FF04460D469A
:10325000304602F00DFA386597F85400002805D082
:10326000022829D010D303284ED069E0FFF71AFFB7
:10327000012087F854003046FFF794FF002087F8BC
:103280005C00FFF745FF5BE0D7ED0F0AB0EE680A80
:10329000FFF76CFF002853D0022087F85400D7E9CD
:1032A0000C0120186941C7E904010120FFF726FF3E
:1032B0000020FEF74CFC43E097ED0F0AFFEE000AFA
:1032C00030EE200ADFED510A70EE200AB0EE480A17
:1032D000FFF74CFF002809D1012087F85400002097
:1032E000FFF70CFF0020FEF732FC29E0D7E90401CC
:1032F0008D4225DB01DC844222D3032087F8540071
:103300000120FFF705FF1BE097ED0F0AFFEE000A13
:1033100070EE200AB0EE480AFFF728FF00280CD113
:10332000012087F854000020FFF7E8FE0020FFF797
:10333000EFFE0020FEF70BFC02E00020FEF707FC8A
:10334000F2EE040AB0EE680AFFF710FFFFF7E3FEA3
:10335000FFF791FB3868002804D000AA02A903A84F
:1033600002F041FB06B0BDEC028BF1BD012803DB8E
:10337000284901228A6048600020704780B5602299
:103380000021244801F027FAFFF78CFE002002BD3F
:1033900004224FF496710FF22D00FFF7D5BC80B5D3
:1033A000FFF7ECFF002806D100F006F81B48BDE847
:1033B000024001F023BA02BD1648002101607047A7
:1033C0000000000080B5FFF7F7FE002002BD0000FE
:1033D00080B590ED020AF8EEC00A90ED010AB8EE51
:1033E000C01A90ED000AB8EEC00A20EE000A01EE05
:1033F000010A00EEA00A00F0FFF9DFED050A20EE59
:10340000200A01BD010070420000803D00008C4296
:1034100000008037C029012065CDCD4191330008DF
:1034200010B5FFF75DFE0446FFF775FE204310BDA3
:103430004FEAF17CBCF1E04C2CBFBCF5001F11E061
:103440005FEA4C0C34BFBCF17F5F2EE05FEA9C0C5E
:103450004FEA0C1C4FEA3C0CC10071F100414CEBEF
:1034600050707047C90241EA5051C00218BF41F084
:10347000010141F000414FEA6C50C0F109002128E0
:1034800010D240EACC7CCCF1200C11FA0CF070F197
:103490000040CCF1200C21FA0CF00CF0004C40EB79
:1034A0000C0070474FEACC707047490011F5001FBF
:1034B00004D84FEACC10FF30C0057047C8177047DA
:1034C0004FF4001C1CEB410F94BF1CEB430F09E0B1
:1034D00041EA030C50EA4C0C52EA0C0C03D299421C
:1034E00008BF9042704714BF8B428242704750F829
:1034F000041B61B150F8042BD30744BFA9F10103A9
:103500009A18002342F8043B091FFAD1EFE77047ED
:1035100070B44FF0004591EA030F44BF6B4000F0D8
:10352000C1B800BF841A71EB030604D26E40001BC1
:10353000B141121973414FF4001C1CEB410F34BF11
:103540007CEB430684E00C0DA4EB1356362E7DDC99
:10355000012E43DC45EAC32343EA525312BFD20291
:1035600092025B08240545EAC12141EA5051D2EBA1
:10357000C020994125D407D1B0FA80F610FA06F19F
:1035800064D00020203608E0B1FA81F6B140C6F1DF
:10359000200220FA02F21143B0404FEAF474B4EB77
:1035A000465434F001064FEA74040AD8D6F50016E2
:1035B000760D04F00044F04061FA06F25040F1400C
:1035C0004840C00A40EA415021F0004128BF5FEA6C
:1035D000500550F1000044EBD12137E045EAC32308
:1035E000DB0A45EAC121C90AB6F120050EDD42EA2F
:1035F0000242120CC5F1200603FA06F6EB4042EA3D
:1036000006056D42984161F100010DE062FA06F590
:10361000F240554063FA06FC82EA0C02F3405A403D
:103620006D42904161EB030111F4801F05D1641ECE
:10363000620502D06D004041494121F480114308E8
:1036400075F1004350F1000041EB045170BC70472C
:103650001CEB410F15D223F0004352EA43060BD076
:103660004FEA4C0CBCEB410F04D80C0D661E342EF7
:10367000B7DDEBE7801A994150EA410608BF002107
:10368000E4E708BF1CEB430F28BF6FF00001DDE744
:1036900070B44FF0004591EA030C44BF6B40FFF754
:1036A00041BF00BF841A71EB030603D2001BB14176
:1036B000121973414FF4001C1CEB410F34BF7CEB1B
:1036C000430443E00C0DA4EB1356352E50DC45EAC1
:1036D000C323DB0A45EAC121C912B6F120050DDD7D
:1036E00063FA05F6EB4086EA0305124218BF45F07F
:1036F0000105C01851F100010CD213E062FA06F581
:10370000F2405540F3415A40B340F3405A408018CC
:10371000594107D349085FEA30005FEA350528BF01
:1037200045F0010501F58011420875F1004250F1A4
:10373000000041EB045170BC4FF4001C1CEB410F26
:1037400038BF70470020090D090570471CEB410F79
:1037500010D252EA43060BD0BCEB410F05D80C0D3A
:10376000AB43661E342EB5DD02E0AB4380185941F1
:1037700070BC704770BC7047012002F051BA82687B
:10378000521C8260426832B10268531C036011709F
:103790004168491E416070475FF0FF0C1CEAD05140
:1037A00014BF614506E0C110400721F0E04101F17E
:1037B0006051704779B900F0004100020AD0B0FAB8
:1037C00080FC00FA0CF001F16051A1EB0C5101EB0F
:1037D000D0214005704741020CBF40F4E0016FF07A
:1037E00000010020704780B5002251EC100B02F060
:1037F000CDFA41EC100B01BDB5EEC00AF1EE10FAA6
:1038000002D4B1EEC00A70476FF0004C00EE10CA4F
:1038100002F02ABC90420CD141EA030C50EA4C0C55
:1038200007D0994205D14FF4001C1CEB410F38BF63
:1038300089427047F0B540F2FF7581EA030C0CF045
:10384000004C15EA11541DBF15EA1357AC42AF42A4
:10385000E5E0BC41C1F31301C3F31303801A99419E
:1038600043F4801304D2641E40004941801859413A
:10387000C90241EA5051B1FBF3F603FB1611A2FB5A
:103880000675D7EBC020A94102D2761E8018594197
:10389000C90241EA5051B1FBF3FE03FB1E11A2FB2A
:1038A0000E75D7EBC020A94103D2AEF1010E8018EE
:1038B0005941890241EA9051760546EA8E2EB1FBC4
:1038C000F3F603FB1611A2FB0675D7EB8020A94186
:1038D00002D2761E80185941C90241EA50514EEA7F
:1038E000060EB1FBF3F603FB1611A2FB0675D7EB30
:1038F000C020A94102D2761E80185941C90241EA6E
:103900005051B1FBF3F703FB1711A2FB0735D3EBC3
:10391000C020A94167F100070CBF004247F0010732
:1039200066F3D5274FEA1E31B80814F5806412DD1E
:10393000BD0775F1004250EB0E5051EB045111F5EB
:10394000801F5CBF41EA0C01F0BD4CF07F6141F08B
:10395000E0410020F0BDBD076D0840EA0E5041F483
:103960008011D4F10104B4F120060ADAC4F1200672
:103970000200E04001FA06F3E1401843B24015436B
:103980000EE0342C13DCC6F1200445EA40056D0836
:1039900020FA06F2154321FA06F0A1400D4300215A
:1039A00075F1004250F1000051EB0C01F0BD002018
:1039B0005FEA0C01F0BDCFB992185B41B3FA83F70F
:1039C00004BFB2FA82F6BF190B3FB7F120062FBF32
:1039D00002FA06F3BB40C7F1200622FA06F638BF0A
:1039E0003343BA401CB1E419641E33E77F4231F01F
:1039F0000041B1FA81F404BFB0FA80F6A4190B3C7F
:103A0000B4F120062FBF00FA06F1A140C4F1200650
:103A100020FA06F638BF3143A0403C1B1AE7AC42FF
:103A20001ABF05EA1357AF4212E050EA41061CBF25
:103A300052EA4306BFE750EA4107304661461CBFE1
:103A400041EA0551F0BD52EA430C08BFC143F0BD45
:103A500000204FF4001616EB410F98BF16EB430FF2
:103A600008BF16EB410F24BFC14305E016EB430F1F
:103A70000CBF61464CEA0551F0BD0268531C03605F
:103A80001170704751EC100B00B500F003F841ECD9
:103A9000100B00BD40F2FF7C0B0D4DD0634566D28C
:103AA00030B421EA035141F4801103F2FD3C5FEA96
:103AB0005C0C01D300184941890041EA90718000F3
:103AC0004FF440140023E202D50AB1F5100107D4E7
:103AD0006D081DD2091B641900184941491BF7D50F
:103AE0006D080AD20919641B00184941491BEFD51A
:103AF0006D08F7D301E0520817D0C01861419B1A36
:103B0000AC4100184941801AA941F4D452080AD0A6
:103B1000C01AA1419B186C4100184941801AA94163
:103B2000E9D45208F4D15B1C6C4161084FEA3300C0
:103B300001EB0C5130BC704750EA0103FBD030B4AC
:103B4000B1FA81F311B9B0FA80F41B190B3BB3F150
:103B500020042FBF00FA04F19940C3F1200420FA99
:103B600004F438BF21439840D3F101039DE7634536
:103B7000E1D011F5801FDED850EA4101DBD0D943F6
:103B800002F072BA10B590B014460022009200AA5A
:103B900090ED010AB8EEC00AD1ED020AF8EEE00A93
:103BA00020EE200AD0ED020AF8EEE00A91ED011AAB
:103BB000B8EEC11A00EEC10A82ED010A90ED020AC8
:103BC000B8EEC00AD1ED000AF8EEE00A20EE200AB5
:103BD000D0ED000AF8EEE00A91ED021AB8EEC11A33
:103BE00000EEC10A82ED020A90ED000AB8EEC00AAA
:103BF000D1ED010AF8EEE00A20EE200AD0ED010A2C
:103C0000F8EEE00A91ED001AB8EEC11A00EEC10A12
:103C10008DED030A0CAA00A9204600F0E0F804A9E3
:103C2000204600F0FAF908AA04A90CA800F0D7F879
:103C300008A890ED020AB5EE400AF1EE10FA09D19B
:103C4000D0ED010AF5EE400AF1EE10FA02D19FED37
:103C5000530A05E0D0ED010A02F00CFAB1EE400A79
:103C600010B010BD00210A4605E050F822305B1369
:103C700003FB0311521C032AF7DB0846704781FB44
:103C80000001400F40EAC100704781FB0001800F36
:103C900040EA810070472DE9F04104460D46164682
:103CA00029682068FFF7F1FF074669686068FFF739
:103CB000ECFF8046A968A068FFF7E7FFA7EB0801C3
:103CC0000F1AE968E068FFF7E0FF381A30606968AA
:103CD0002068FFF7DAFF074629686068FFF7D5FF1D
:103CE0008046E968A068FFF7D0FF08EB0701471896
:103CF000A968E068FFF7C9FF381A7060A9682068F2
:103D0000FFF7C3FF0746E9686068FFF7BEFF80461C
:103D10002968A068FFF7B9FFA7EB08014718696891
:103D2000E068FFF7B2FFC019B060E9682068FFF7EC
:103D3000ACFF0746A9686068FFF7A7FF804669687F
:103D4000A068FFF7A2FF08EB07010F1A2968E068D7
:103D5000FFF79BFFC019F060BDE8F08110B4036865
:103D60000C68E318136043684C68E3185360836879
:103D70008C68E3189360C068C9680818D06010BCEC
:103D8000704702680A60426852424A608268524242
:103D90008A60C0684042C8607047000000000000B0
:103DA00030B591B004461546002000900C2201A8C1
:103DB00000F0F2FC0CAA00A92046FFF76CFF08A94E
:103DC0002046FFF7DEFF04AA08A90CA8FFF763FF4F
:103DD0000C2205A9284600F0DFFC11B030BD90EDA3
:103DE000000AD1ED000A20EE200AD0ED010A91ED83
:103DF000011A00EEC10AD0ED020A91ED021A00EE9E
:103E0000C10AD0ED030A91ED031A00EEC10A82ED5A
:103E1000000A90ED000AD1ED010A20EE200AD0ED53
:103E2000010A91ED001A00EE810AD0ED020A91ED2F
:103E3000031A00EE810AD0ED030A91ED021A00EE9A
:103E4000C10A82ED010A90ED000AD1ED020A20EECE
:103E5000200AD0ED010A91ED031A00EEC10AD0ED5F
:103E6000020A91ED001A00EE810AD0ED030A91EDED
:103E7000011A00EE810A82ED020A90ED000AD1EDEE
:103E8000030A20EE200AD0ED010A91ED021A00EE9D
:103E9000810AD0ED020A91ED011A00EEC10AD0EDBF
:103EA000030A91ED001A00EE810A82ED030A7047C1
:103EB00090ED000AD1ED000A30EE200A82ED000AF2
:103EC00090ED010AD1ED010A30EE200A82ED010ADF
:103ED00090ED020AD1ED020A30EE200A82ED020ACC
:103EE00090ED030AD1ED030A30EE200A82ED030AB9
:103EF000704790ED030AD0ED020A90ED011AD0ED63
:103F0000001A21EEA12A01EE012A00EEA02A00EEFD
:103F1000002AB0EE000AB4EE402AF1EE10FA3AD5CB
:103F2000B6EE000A22EE000A60EE020AB7EE081AA8
:103F300000EEC21A61EE020A20EE201AB7EE082A3D
:103F400001EE602A62EE200A20EE201AB7EE082A5F
:103F500001EE602A62EE200A20EE200AB7EE081A6F
:103F600000EE601A21EE202A21EE820A80ED000A7E
:103F700090ED010A20EE020A80ED010A90ED020A9E
:103F800020EE020A80ED020A90ED030A20EE020AFA
:103F900080ED030A70474FF07E51016000214160BF
:103FA0008160C160704710B50446D4ED030A94EDFA
:103FB000021AD4ED011A94ED000A20EE000A01EE77
:103FC000A10A01EE010A00EEA00AFFF715FCB5EE0A
:103FD000400AF1EE10FA18D0D4ED000AC0EE800AC3
:103FE000C4ED000AD4ED010AC0EE800AC4ED010A56
:103FF000D4ED020AC0EE800AC4ED020AD4ED030A31
:1040000080EE800A84ED030A10BD4FF07E502060E0
:1040100000206060A060E06010BD02680A6090ED62
:10402000010AB1EE400A81ED010A90ED020AB1EEFB
:10403000400A81ED020A90ED030AB1EE400A81EDDB
:10404000030A704770B505460C4668680146FFF7DD
:1040500016FE064629680846FFF711FE8019A0F1F2
:1040600080402060A9686868FFF709FE0646296855
:10407000E868FFF704FE301A6060E9686868FFF7D7
:10408000FEFD06462968A868FFF7F9FD8019A060C3
:10409000A9686868FFF7F3FD06462968E868FFF736
:1040A000EEFD8019E060A8680146FFF7E8FD0646CE
:1040B00028680146FFF7E3FD8019A0F180402061E8
:1040C000E968A868FFF7DBFD064629686868FFF71E
:1040D000D6FD301A6061E9686868FFF7D0FD0646D2
:1040E0002968A868FFF7CBFD301AA061E968A868C5
:1040F000FFF7C5FD064629686868FFF7C0FD80190F
:10410000E061E8680146FFF7BAFD06462868014607
:10411000FFF7B5FD8019A0F18040206270BD90F9D5
:104120000010012901DB00207047002901D504207F
:10413000704790F90110012901DB01207047002927
:1041400001D50520704790F90200012801DB02200B
:104150007047002801D5062070470720704738B502
:104160000446FFF7DCFF0546E01CFFF7D8FF45EAF1
:10417000C005A01DFFF7D3FF45EA801080B232BD15
:104180002DE9F04107460C4615461E46780702D534
:104190004FF0FF3000E00120B84608F0030255F868
:1041A00022205043FFF771FD3060B80602D54FF072
:1041B000FF3000E0012021464FEA680202F00C02C5
:1041C00052595043FFF761FD7060F80502D54FF07A
:1041D000FF3000E0012021464FEA281202F00C02D5
:1041E00052595043FFF751FDB060BDE8F08180B5F2
:1041F00090ED020AD0ED010A90ED001A21EE011AAD
:1042000000EEA01A00EE001A11EE100AFFF7C4FA31
:1042100041EC100BBDE80140FFF734BC10B40022A4
:104220000260426005E000EB820351F822401C610D
:10423000521C052AF7DB10BC704780ED090A80ED9F
:104240000A0AD0ED060AB7EE001A70EE810A90ED68
:10425000071A70EE810A80EE200A80ED000A80EDD8
:10426000010A704780ED090A90ED010AD0ED000ABD
:10427000D0ED061A90ED091A01EEE01AD0ED071AFA
:1042800001EEC01A90ED042AF0EE411A42EE201A17
:10429000D0ED050A40EE801AC0ED0A1A90ED080A2A
:1042A00021EE800A80ED0A0A0168416080ED001A63
:1042B00070472DE9F84304460D461646002711E0E5
:1042C00055F8291009EB4900C01954F82000FFF7F0
:1042D000DCFC804409F10109B9F1030FF0DB46F879
:1042E00027807F1C032F03DA4FF00008C146F3E755
:1042F000BDE8F183F1B582B0012801DA0020FEBDEE
:1043000000A902A800F055F80446002500980128ED
:1043100006DB0146024602EBD1714910A0EB4105D4
:10432000401B00900298A0F1804706463946FFF7EF
:10433000ACFCA6EB6006022C23DB7810A0F1C04198
:104340003846FFF7A2FC01463846FFF79EFC4710AF
:1043500039463046FFF799FCA6EB6006032C10D1D6
:104360007810A0F1C0413846FFF78FFC014638466F
:10437000FFF78BFC471039463046FFF786FCA6EB6B
:104380006006002D04D028493046FFF77EFC064623
:104390000098012802DB4010064107E010F1010FF0
:1043A00004D122493046FFF770FC06463046FEBD78
:1043B000000070B504460D4620681D49884205DBA3
:1043C000401020604FF0FF3028601AE0194EB042D4
:1043D00015DA204600F03AF828602068164988422D
:1043E00005DB401020602868401E286009E0B042CC
:1043F00007DA400020602868401C286001E00020A7
:10440000286020680D4909180D4A914201D3032004
:1044100070BD0C4908180C49884201D3022070BDB8
:10442000012070BD00000000CD3C412D9A79825AD8
:10443000FD0BB958FE855C2CFC0BB958666666C648
:10444000CDCCCC0C0AD7A3C015AE47010021026821
:10445000002A01D108467047130C1B0402D1102119
:1044600012040260026812F07F4F02D1083112027A
:104470000260026812F0704F02D1091D1201026041
:10448000026812F0404F02D1891C9200026002685B
:10449000002A02D5491E5208026008467047F8B546
:1044A00004460D4620680146FFF7EFFB06466168AB
:1044B0000846FFF7EAFB0746A0680146FFF7E5FB61
:1044C000C6F18041C91B081AFFF714FF2860206855
:1044D00068606068A860A068E8600020F2BD000025
:1044E00070B514461D46DFF85C6206F148014A6F5C
:1044F00042F002024A671022014606F1100000F065
:104500004BF9C6E9124570BD70B514461D46DFF87B
:10451000346206F14001CA6F42F00102CA671022FC
:10452000014606F1700000F037F9C6E9104570BD8C
:10453000DFF81002D0F8B4007047DFF80812D1F8A5
:10454000A820026091F8A400704718B40146DFF873
:10455000F42102F1A40392F8A440A04208D1022958
:1045600003D15868401C586010E0002058600DE0EE
:1045700000245C6082F8A400012901D1012000E040
:1045800002202246032118BC00F0CEB911BC7047AE
:1045900070B504466B4DE9686868FFF770FB064626
:1045A0002968A868FFF76BFB301A2060E968A868E3
:1045B000FFF765FB064629686868FFF760FB80190E
:1045C0006060E8680146FFF75AFB0646296808461E
:1045D000FFF755FB8019A0F18040A060002070BD5E
:1045E00080B51022584900F0D7F8002002BD38B538
:1045F0000446544D95F8BC0010F0030F0CD02A4629
:1046000005F1100105F17000FFF745FBD5F8BC007E
:1046100020F00300C5F8BC0010222946204600F017
:10462000BBF8002032BD38B50C461546FFF7DFFF5A
:10463000FEF770F9C5E90001FEF755F9002803D02F
:10464000FEF7A5FC206031BDFEF755F9002803D028
:10465000FEF79AFC206031BDFEF754F9002803D024
:10466000FEF79FFC206031BD0020206031BD354940
:10467000C1F8C0000020704780B507224FF4487190
:104680003248FEF761FB002002BD10B52D4CD02250
:104690000021204600F09FF84FF080406066A06641
:1046A000E06620672061206020622063C4F88000FB
:1046B0002748C4F8C400002010BD80B5FFF7E5FF0F
:1046C000002804D12348BDE8024000F097B802BD9D
:1046D0001C49C1F8940070471A49C1F8B0007047EE
:1046E0001849C1F8B80070471648D0F8B8007047AC
:1046F0000C220146184800F04FB810B584B00400F1
:1047000018D000221146FEF7FAFB00A8FFF740FF81
:1047100020680099A0EBA130206000A86168426881
:10472000A1EBA2316160A1688068A1EBA030A0601C
:10473000002000E0162004B010BD024890ED310AC0
:1047400070470000281E0120381E01206F46000817
:10475000DB0F494079460008C01E012010B584B027
:10476000040016D000A8FFF7C8FF002811D10020D0
:104770000BE000A951F8201000EE101ABAEEC80A9A
:1047800004EB800181ED000A401C0328F1DB0020CE
:1047900000E0162004B010BD10B50400200000F0A9
:1047A000D7F8200010BD00004FF4001C1CEB410F97
:1047B00094BF1CEB430F09E041EA030C50EA4C0C98
:1047C00052EA0C0C03D28B4208BF8242704714BFDE
:1047D00099429042704710B5040010000A00010091
:1047E000200001F07FFC200010BD000080B55422A5
:1047F00000211348FFF7EFFF002002BD10490A68AF
:10480000142A01DB1620704701EB82025060086811
:10481000401C08600020704738B50024254609E098
:1048200000EB850040688047002802D0002C00D1B2
:1048300004466D1C024801688D42F1DB204632BD02
:10484000D82B012010B51E4C4FF4CC72002120460D
:10485000FFF7C1FF0C20606010BD70B4002500E0C0
:104860006D1C174C2668B54209DA05EB450604EBCA
:104870008604D4F8B040A342F2D116201EE0142ED4
:1048800001DB16201AE00C2505FB0646C6F8B03001
:10489000236805FB0343C3F8A820236804EB8303C4
:1048A0009860206804EB80008165606802F10C016B
:1048B000081860602068401C2060002070BC7047B1
:1048C000B81601200300002013F0030F09D0521E78
:1048D00022BF13F8010B11F801CBB0EB0C00F3D0A1
:1048E0007047121F22BF53F8040B51F804CB6045E8
:1048F000F7D0121D0AD200BA9CFA8CFCB0EB0C0067
:1049000038BF6FF0000088BF01207047521E22BFE1
:1049100013F8010B11F801CBB0EB0C00F6D0521CD0
:1049200008BF104670470000002A05D1074A1368E7
:1049300023EA0101084310607047044A1168002807
:1049400001D000201060084670470000C0340120EC
:1049500062B38B0708D0521E11F8013B00F8013BEF
:1049600000F024808B07F6D1830740F0208000BF41
:10497000103A07D330B4B1E83810103AA0E8381034
:10498000F9D230BC530724BFB1E80810A0E80810E2
:1049900044BF51F8043B40F8043BD20724BF31F830
:1049A000022B20F8022B44BF0B7803707047083AA3
:1049B00007D3B1E80810083A40F8043B40F804CBAC
:1049C000F7D25307E4E70000F446490006D200F0AE
:1049D00011F809420DD5C8174108604700F00AF8E0
:1049E00007D04942404271F1000102D400205FF03B
:1049F000004160474A0DA2F580621E3A0ADC52422D
:104A0000202A18DA890241F0004141EA5050002181
:104A1000D0407047D2F1200210D4890241F0004109
:104A200041EA5051C002D04061FA02F35840D140EF
:104A300080EA01007047002000217047D017010074
:104A4000704700007047000080B510EE100AFEF7B6
:104A5000A3FE0022DFF8143CFDF77AFDFFF7B4FF58
:104A6000DFF8042CC2E9140101BDDFF8FC2BD2E908
:104A700012017047DFF8F01BD0E90E23C1E91223C1
:104A80007047C1070CD5DFF8201C4FF040420A6781
:104A900070314A608A604FF08042CA600A614A61A0
:104AA00081070ED5DFF8001C4FF04042C1F81821F5
:104AB00001F58C714A608A604FF08042CA600A61D9
:104AC0004A6140070ED5DFF8E01B4FF04042C1F8C5
:104AD000C02101F5E070426082604FF08042C26008
:104AE00002614261704700000021401000D0491C63
:104AF0000128FADA481C70472DE9F14F88B00020F0
:104B00000146CDE904010898806F002801D10846CC
:104B1000BEE0FFF7E9FF81464FF000088BE000EBB5
:104B2000C802D2E900014A4601F010FB04460D46D6
:104B3000089800EBC80002900246D2E906014A46F6
:104B400001F004FB06460F46A4FB042304FB0533D7
:104B500005FB0433A4FB020104FB031105FB021156
:104B6000CDE90601029AD2E912014A4601F0EEFAB5
:104B7000CDE90001A6FB062306FB073307FB06333E
:104B80000320A0FB02AB00FB03BBDDE90001B0EB9F
:104B90000A0061EB0B01DDE90623A4FB02AB04FB79
:104BA00003BB05FB02BB4FEA4B0B4BEADA7B10EB76
:104BB0004A0A41EB0B0BA4FB040104FB051105FBA6
:104BC0000411301A67EB0101A4FB002304FB01333D
:104BD00005FB00330320A0FB026700FB0377DDE940
:104BE000060136184F41029AD2E90C014A4601F0FB
:104BF000ADFA321A67EB0103A4FB020104FB0311B7
:104C000005FB0211890041EA9071BAEB80006BEB61
:104C10000101002904DC00DB02D2404261EB4101CA
:104C2000DDE904238B4204DC01DB824201D2CDE9C1
:104C3000040108F10108B8F1030F0898FFF66FAFFF
:104C4000806F0899C96F884210D000EE100AB8EE44
:104C5000C00AFEF7D1FDF7EE000A80EE800A089840
:104C600080ED200A08980146896FC167DDE90401DB
:104C700001F07EFA00EE100A0898D0ED200A20EE2E
:104C8000200A10EE100A09B0BDE8F04F01F0A2BAF8
:104C900009B0BDE8F08F2DE9F04F85B081460020C6
:104CA0000146CDE90201D9F87800002801D1084673
:104CB00079E0FFF719FF00904FF0000849E009EB99
:104CC000C802D2E90001009A01F040FA04460D46FC
:104CD000A4FB046704FB057705FB047709EBC80018
:104CE00001900246D2E90601009A01F02FFA801BDA
:104CF000B941A4FB002304FB013305FB003303206F
:104D0000A0FB02AB00FB03BBA4FB060104FB0711E5
:104D100005FB06111AEB00044BEB0105019AD2E9E1
:104D20000C01009A01F012FA201A65EB010100292A
:104D300004DC00DB02D2404261EB4101DDE90223E9
:104D40008B4204DC01DB824201D2CDE9020108F191
:104D50000108B8F1030FB2DBD9F87800D9F87C105C
:104D600088420FD000EE100AB8EEC00AFEF744FDEC
:104D7000F7EE000A80EE800A89ED200AD9F8780063
:104D8000C9F87C00DDE9020101F0F2F900EE100A39
:104D9000D9ED200A20EE200A10EE100A05B0BDE879
:104DA000F04F01F017BA05B0BDE8F08F10B4012143
:104DB000026BD20513D5DFF8F028D2F888301468DA
:104DC000A3420CDBD0F88000C00505D5D2F8D8018D
:104DD0005168884203DB0521084610BC704700205B
:104DE000FBE72DE9F04184B00446002600ADDFF872
:104DF000B87812E007EBC602D2E9040107F50872A1
:104E0000926A01F023FA07EB8602D2F8942012048A
:104E1000D317801845F82600761C032EEADBA8225B
:104E2000002107F11000FFF7D6FC0120FFF729FE53
:104E30006868002801D4014600E04142009A002A37
:104E400000D55242914201DA104602E0002800D516
:104E50004042A968002901D40A4600E04A42824241
:104E600004DB002901D4084600E04842B4F90610EA
:104E70000E0000D57642B4F90410002900D549424D
:104E80008E4200DA0E46B4F90810002900D54942D6
:104E9000B14200DB0E46616AFEF7F7FE616A30043C
:104EA000FEF7F3FEB0F5201F03DD052087F8200292
:104EB0004BE0DFF8B467F16A6A68501A01D4034620
:104EC00000E08B1AD6F828C0DDF800E0BEEB0C0E2F
:104ED00001D4F04603E0DDF80080ACEB0808434560
:104EE00008DABEF1000F01D4704606E00098ACEB82
:104EF000000002E0002800D5881A316BAA68531A16
:104F000001D49C4601E0A1EB020C844504DB002B9C
:104F100001D4184600E0881A616AFEF7B6FE8046A2
:104F20000220FFF712FB07F50870C06A804506DA19
:104F3000032100A8FDF7D2FD2046FFF79BFD009856
:104F4000B0626868F062A8683063BDE8FF812DE94F
:104F5000FE4186460E4600271CE0D317A2FB004503
:104F600002FB015503FB0055204629460CEB4C0380
:104F700006EBC30303EBC708D8E9004524184D41ED
:104F800003EBC703C3E900450CF1010CBCF1040FAE
:104F9000E3DB7F1CB06F032F1BDA06EB870101F107
:104FA0006003002802D13EF9170058623EF917004D
:104FB0005A6A821A00A840F82720086E904200DA48
:104FC0000A66D868824200DADA60012000218C4645
:104FD000DCE7401CB0670120C6F8A000BDE8F781FF
:104FE0002DE9F04104460025069E05E006EB85000C
:104FF00054F82510C1666D1C032DF7DB06F1780708
:10500000C7E90623B06F002814D0002510E006EB96
:10501000850854F82500D8F88410401A01F027F9C3
:10502000D8F86010814200DA0146C8F860106D1CA3
:10503000032DECDBB06F401CB0670120B862BDE807
:10504000F08110B4002108E000EB810202F160035E
:10505000DC685C6200231366491C0329F4DB00F161
:105060007801D1E90623C1E90823002282671046AE
:10507000886210BC704730B4D0E92423D0E92645BB
:10508000101B63EB050130BC7047016E426E8A4213
:1050900000DA0A46816E914200DA114608467047EE
:1050A000016EC26E891A426E036FD21A8A4200DB09
:1050B0001146826E406F101A884200DB0146084696
:1050C000704710B5DFF8E0451022002104F5167096
:1050D000FFF781FB1022002104F51E70FFF77BFB18
:1050E0001022002104F51A70FFF775FB1022002131
:1050F00004F52270BDE81040FFF76DBB10B5DFF876
:10510000A845A822002104F11000FFF764FBA822A3
:10511000002104F5B070FFF75EFB0520BDE81040EC
:10512000AFE4D0B4DFF8802502F51E739C68002C34
:1051300002D1C2E99E0108E0D2E99E678F4204DCF9
:1051400001DB864201D2C2E99E01601C9860D0BC9E
:105150007047D0B4DFF8502502F522739C68002C0C
:1051600002D1C2E9A20108E0D2E9A2678F4204DCC1
:1051700001DB864201D2C2E9A201601C9860D0BC6A
:105180007047D0B4DFF8202502F516739C68002C18
:1051900002D1C2E9960108E0D2E99667B94204DC7F
:1051A00001DBB04201D2C2E99601601C9860D0BC1C
:1051B0007047D0B4DFF8F02402F51A739C68002C15
:1051C00002D1C2E99A0108E0D2E99A67B94204DC47
:1051D00001DBB04201D2C2E99A01601C9860D0BCE8
:1051E0007047F8B507460124DFF8BC5405F11000FC
:1051F000FFF756FFDFF87064316C814203DAFFF786
:105200007DFF0020F2BD3846FFF7D0FD070001D139
:105210000220F2BD78071ED505F5B070FFF76CFCD3
:10522000000D40EA01300915C5E98401D5E9840182
:10523000D6E904238B4205DC01DB824202D2002442
:10524000FFF7B7FFA822002105F5B070FFF7C3FAFA
:105250000420FFF716FCF80711D505F11000FFF741
:105260004BFC05F50472C2E90601D6E906238B4220
:1052700005DC01DB824202D20024FFF782FF2046D8
:10528000F2BD1FB5044694F8300000F0C000C028FD
:1052900004D1DFF81C14201DFFF759FE94F880009C
:1052A00000F0C000C02805D1DFF8081404F1540054
:1052B000FFF74DFED4F8D00000F0C001C0290BD19B
:1052C000002001AA032818DA04EB4001B1F9A41068
:1052D00042F82010401CF5E700F06000602814D16F
:1052E000002001AA07E004EB8001D1F8B81089136F
:1052F00042F82010401C0328F5DBDFF8BC030090C7
:10530000D4E9362301A8FFF76BFE1FBDF8B50446AC
:10531000002004F12C077968CA0540F1278101F0CB
:105320005001402900D1012097F8541001F050019C
:10533000402900D1012094F8D01001F050014029FB
:1053400000D10120DFF86053002809D0FFF7D6FE16
:105350000020C5F8180285F820022046FFF78AFBD6
:10536000E06AD5F8401281421ED0C5F84002BE4E18
:10537000716B0A2806DA48002860B06B401CC5F83B
:10538000440203E02960B06BC5F84402D5F844023A
:10539000C0F11000C5F848024FF48040C5F84C0237
:1053A0001920B16B88403064386DD5F850128142B5
:1053B00010D0C5F85002AC4E716B0A2806DA4800CE
:1053C0006860B06B401CC5F8540203E06960B06BC4
:1053D000C5F854022046FFF754FF95F8200206282E
:1053E00000F2C480DFE800F004122C3574A4B10090
:1053F000D5F81802411CC5F818120A28C0F2B68068
:10540000FFF77CFE012085F82002AFE0D5F8B00060
:10541000012840F0AB802046FFF7E3FE002803D1CF
:10542000052085F8200204E0012802D1022085F839
:10543000200205F1B800FFF704FEFFF742FE95E0F9
:10544000032085F820022046FFF7CBFCFFF756FE2D
:105450008CE02046FFF7C5FE002857D0012840F019
:105460008580D4F8D000C00523D5FDF7D9FF0028EA
:105470001FD105F1B8073846FFF707FEC117C5E988
:105480008201794ED6E90201D5E98223994206DCF0
:1054900001DB904203D2052085F820020FE0384658
:1054A000FFF7E9FDD6E90823994208DB01DC9042C9
:1054B00005D3042085F820022046FFF792FCD5E9A9
:1054C0008401FFF746FED5E98A01FFF72AFE4DE089
:1054D000D4F8D000C00514D5FDF7A2FF002810D1E4
:1054E00005F1B800FFF7D1FDC117C5E982015E489B
:1054F000D0E90223D5E982018B4207DB01DC82423D
:1055000004D32046FFF76DFE002803D1052085F85F
:1055100020022BE0012829D12046FFF762FCD5E9C3
:105520008401FFF716FED5E98A01FFF7FAFD1DE0B9
:10553000062085F820020120FFF707F8FFF7DEFDBF
:1055400005F1B800FFF77DFD10E02046FFF749FEAA
:10555000012803D1022085F8200207E0002805D1A8
:10556000FFF7CCFD05F1B800FFF76BFD0020F2BDA1
:105570000021401000D0491C0128FADA3A480122E3
:105580004B1C9A404263491C8163192202FA01F1C3
:105590000164704738B5444C4FF426720021204610
:1055A000FFF719F9304D582200212846FFF713F96B
:1055B0000720FFF766FA45F6C0500021C5E906014D
:1055C0001E20C5E902016420C5E904013B48C5E984
:1055D00008010120C4F81C021920FFF7C9FF0020B0
:1055E000C4F840029FED310AFFF72EFA002032BDC9
:1055F00010B52D4C4FF4267200212046FFF7EBF832
:105600000720FFF73EFA0120C4F81C0284F82002AC
:1056100000220321FFF788F9072264212848BDE80A
:105620001040FDF791BB10B5FFF7B4FF040009D09F
:1056300040F221330FF294020FF2A801FFF702FAB1
:10564000204610BD1F48FFF7D9F8040009D04FF4D9
:1056500049730FF278020FF28C01FFF7F3F920463D
:1056600010BD002010BD0000802B012065CDCD4174
:10567000F8B505460024286BC00513D5FFF7F5F9EA
:10568000D5E90E23101A63EB010100290ADB00DCC7
:1056900008D30D4AD2E91467B94203DC01DBB042FA
:1056A00000D201242046F2BD90080120000096445B
:1056B000A0080120F0090120480901200008AF2FAF
:1056C0000D530008F1550008802B0120696E765FAC
:1056D000656E61626C655F666173745F6E6F6D6F3E
:1056E00074000000453A5C496E76656E73656E73B2
:1056F000655C4865737469615C53564E5C4E6F74AB
:1057000065335F466972655C496E76656E53656E9A
:1057100073655C6D706C5C666173745F6E6F5F6DFA
:105720006F74696F6E2E630038B50446DFF8E0547D
:1057300068680870D5E90201C2E90001686A9FED56
:10574000600A296A002920D400EE900AF8EEE00AE7
:1057500060EE800AC4ED000AD5ED0A0AF8EEE00A10
:1057600060EE800AC4ED010AD5ED0B0AF8EEE00AFE
:1057700060EE800AC4ED020AD5ED080AF8EEE00AF0
:1057800020EE800A84ED030A26E0404200EE900AF3
:10579000F8EEE00A60EE800AC4ED000AA86A404212
:1057A00000EE900AF8EEE00A60EE800AC4ED010A0D
:1057B000E86A404200EE900AF8EEE00A60EE800AE5
:1057C000C4ED020A286A404200EE900AF8EEE00AB0
:1057D00020EE800A84ED030AFEF7AFFF84ED040A91
:1057E000E86B32BD70B588B00446164604A8FDF7D4
:1057F00086FBDFF81C54D5E90201C5E90401C6E9BE
:10580000000100A8FEF7ECFE00A841689FED2C0AFD
:10581000009A002A20D400EE901AF8EEE00A60EE1A
:10582000800AC4ED000AD0ED020AF8EEE00A60EE4C
:10583000800AC4ED010AD0ED030AF8EEE00A60EE3A
:10584000800AC4ED020ADDED000AF8EEE00A20EE5F
:10585000800A84ED030A26E0494200EE901AF8EE31
:10586000E00A60EE800AC4ED000A8168494200EE59
:10587000901AF8EEE00A60EE800AC4ED010AC068F2
:10588000404200EE900AF8EEE00A60EE800AC4EDB5
:10589000020A0098404200EE900AF8EEE00A20EE7C
:1058A000800A84ED030A00202061686B801100F0FB
:1058B0000100296C891101F00101084308B070BD95
:1058C0000000803010B58AB0044600A9DFF8440318
:1058D000FEF7B8FB9FEDBD0ADDED000AF8EEE00A29
:1058E00060EE800AC4ED000A00A8D0ED010AF8EECF
:1058F000E00A60EE800AC4ED010AD0ED020AF8EE7B
:10590000E00A60EE800AC4ED020AD0ED030AF8EE68
:10591000E00A60EE800AC4ED030AD0ED040AF8EE56
:10592000E00A60EE800AC4ED040AD0ED050AF8EE44
:10593000E00A60EE800AC4ED050AD0ED060AF8EE32
:10594000E00A60EE800AC4ED060AD0ED070AF8EE20
:10595000E00A60EE800AC4ED070AD0ED080AF8EE0E
:10596000E00A20EE800A84ED080A0AB010BD0000AB
:1059700010B52DED028B8AB0044600A8FFF7A2FFF8
:105980009FED1F8ADDED000A9DED030AB1EE400A8E
:1059900000F070FB20EE080A84ED000ADDED080A35
:1059A0009DED070AB1EE400A00F064FB20EE080A04
:1059B00084ED010A9DED060A00F05EFC20EE080A67
:1059C00084ED020A94ED000AB5EE400AF1EE10FAF9
:1059D00005D5DFED0C0A30EE200A84ED000A0AB08E
:1059E000BDEC028B10BDD0B5894C63680B70D4E957
:1059F0000267C2E90067FFF7BBFFE06BD0BD0000A4
:105A0000E12E65420000B4432DE9FF410446002524
:105A10004FF47A787E4E06F10802311D06F120001F
:105A2000FEF701FE04F12C025068306304F13800E7
:105A3000816C716304F1CC077968B16304F1D8011A
:105A40008B6F33645268D30501D5D4F82C80836CF6
:105A50005FEAC35C05D5D0F844C0C44501DAE0462E
:105A60000125D7F804C05FEACC5E05D5D4F8CCE0B8
:105A7000C64501DAF0460225896F5FEAC15E04D5AA
:105A8000D4F864E1C64500DA03255FEAC15E07D5B4
:105A90000CEA030E5FEACE5E0BD44FF0FF3508E050
:105AA00003EA020E0CEA0E0E5FEACE5E01D44FF05E
:105AB000FF35002D05D0022D1BD00ED3032D24D091
:105AC0002FE002F04000401E8041C043C00FF06351
:105AD000D4E90E01C6E9020125E003F04001491EA8
